:100000000C946B000C94601E0C948D1E0C94930049
:100010000C9493000C9493000C9493000C94930014
:100020000C9493000C9493000C9493000C94930004
:100030000C9493000C9496120C9493000C949300DF
:100040000C94BA1E0C9493000C943E030C948303FE
:100050000C9493000C9493000C9493000C949300D4
:100060000C949B0D0C949300DB1BE41BF51BF51B00
:10007000F51BF51BE91BF51BF91B0000000700022F
:10008000010000030406000000000000000001025F
:100090000408102040800102040810200102040816
:1000A00010200404040404040404020202020202F4
:1000B00003030303030300000000230026002900BC
:1000C00000000000250028002B0000000000240094
:1000D00027002A00171E11241FBECFEFD8E0DEBF75
:1000E000CDBF12E0A0E0B1E0E8E3F5E402C0059086
:1000F0000D92A03DB107D9F715E0A0EDB2E001C027
:100100001D92A339B107E1F710E0C6EDD0E004C0BD
:100110002297FE010E947722C43DD107C9F70E94B1
:100120009E210C949A220C940000FC01A289B389B0
:100130009C9186892589822B809589238C93138EA7
:100140000895DC015B962C915B97222379F05796FA
:10015000ED91FC9158978081918122813381821B9E
:10016000930B268137818223932308958FEF9FEF8E
:100170000895DC015B962C915B97222391F05996B0
:10018000ED91FC915A978081918122813381821B6C
:10019000930B809590952681378182239323019636
:1001A00008958FEF9FEF0895DC015B962C915B978C
:1001B000222359F05796ED91FC9158972081318177
:1001C000828193812817390719F48FEF9FEF0895E3
:1001D00082819381A085B185A80FB91F8C9122815E
:1001E00033812F5F3F4F468157812423352333834B
:1001F000228390E00895DC015B962C915B9722238B
:1002000059F05796ED91FC91589720813181828168
:1002100093812817390719F48FEF9FEF0895828192
:1002200093810084F185E02DE80FF91F808190E033
:100230000895DC015796ED91FC9158972281338106
:10024000318320835996ED91FC915A978081918159
:10025000938382830895FC01838D8823C1F1A18D4E
:10026000B28D2D913C9111972F5F3F4F16968D9136
:100270009C91179728233923848D811108C01296E9
:100280008D919C91139728173907C9F308C01296CE
:100290008D919C9113972817390789F718C08D9174
:1002A0009C91119718960D90BC91A02DA80FB91F85
:1002B0006C93A18DB28D11963C932E93A289B38934
:1002C0008C919689892B8C9381E090E0089580E051
:1002D00090E00895A4E0B0E0E0E7F1E00C944C2257
:1002E0008C019A01AB01DC015B968C915B978823B2
:1002F00079F0ED91FC910484F585E02DC801298306
:100300003A834B835C8309955C814B813A812981D7
:10031000D8015996ED91FC915A971382128211825D
:1003200010825796ED91FC91589713821282118298
:10033000108281E05B968C935B971216130614066D
:10034000150694F55096ED91FC9151972115B1EE5B
:100350003B0741055105B1F181E090E0D801549689
:100360000C9002C0880F991F0A94E2F7808360E026
:1003700079E08DE390E00E941F222150310941096C
:100380005109CA01B90122E030E040E050E00E948A
:100390001F22D8011C96ED91FC911D9730831E966B
:1003A000ED91FC911F972083D8015296ED91FC911D
:1003B0005397808155969C91892B80832496E4E005
:1003C0000C946822108220E130E0E3CF809129056F
:1003D000813019F482E080932905809129058330CA
:1003E00019F484E0809329050895A8950895CF9382
:1003F000C1E0A1E0B0E02C2F30E0FD010C2E02C0E6
:10040000EE0FFF1F0A94E2F74E175F0710F0CF5F61
:10041000F2CF2150310941E050E0FA0102C0EE0F65
:10042000FF1F2A95E2F79F0121503109FC01378314
:10043000268371876087CF910895CF93DF93FC0166
:10044000962F9270862F817060FF20C0992331F023
:100450008091830480831092D00216C0A091D002B4
:10046000C0915405C770D0E0CB56DD4F8881A817E6
:1004700010F080E03CC081E08A0F8093D002B0E0B1
:10048000AD5CBB4F8C91808381E031C09923C1F07A
:1004900090819093D1021092D002292F207E203695
:1004A00051F490918304923020F390819F71909346
:1004B000C50493E01AC09E3F39F71092830417C019
:1004C0009091D1029F3F01F79091D0029A3288F625
:1004D00021E0290F2093D0023081E92FF0E0E45D84
:1004E000FA4F30832A3281F691E090938304DF91B2
:1004F000CF9108954F925F926F927F928F92AF92B9
:10050000CF92EF92FF920F931F93CF93DF93CDB7CC
:10051000DEB7FC011382128288EE482E83E0582E4B
:10052000612C712C44825582668277828DEB92E039
:10053000918380835587448737872687118B008B6B
:10054000F38AE28AC48AA58A868A2AE0629FC00169
:1005500011249C0124583A4F308F278B8E589A4F84
:10056000928F818F81E090E0062E01C0880F0A945F
:10057000EAF790917105982B90937105DF91CF91D7
:100580001F910F91FF90EF90CF90AF908F907F9041
:100590006F905F904F900895EF92FF920F931F938B
:1005A000CF93DF93EC0179018F89988D0E94F70139
:1005B000A801B701898D9A8D0E94F701CDB7DEB7EA
:1005C000E6E00C94662220912A0530912B0538270D
:1005D00048E0C901880F991F37FF06C09C0151E20E
:1005E000252750E1352701C09C01415091F73093F8
:1005F0002B0520932A0508958436910520F4BC012B
:1006000080E090E017C09C018E3B910528F42A55AC
:100610003109AAE0B0E00CC0823D910528F4245BCA
:100620003109A4E6B0E004C02D5C3109A8E5B2E0D0
:100630000E94AB21A4E6B0E09B01AC010E94BA216C
:10064000089590E08C599F4F0E94FC02089587E026
:100650008093560580E28093570581E28093580588
:100660001092590586E280935A0580935B0584E2D7
:1006700080935C0585E280935D0508951F920F923B
:100680000FB60F9211242F933F934F938F939F9305
:10069000EF93FF934091C60080917C0590917D057A
:1006A0000196209182053091830582239323209126
:1006B0007E0530917F058217930781F020917C059C
:1006C00030917D05E0918405F0918505E20FF31FDF
:1006D000408390937D0580937C0509C080918005BF
:1006E0009091810501969093810580938005FF91FB
:1006F000EF919F918F914F913F912F910F900FBE4E
:100700000F901F9018951F920F920FB60F92112401
:100710002F933F938F939F93EF93FF9320917405B3
:1007200030917505809172059091730528173907EE
:10073000E9F08091740590917505E0917A05F0914A
:100740007B05E80FF91F80818093C60080917405B6
:100750009091750501962091780530917905822355
:100760009323909375058093740510C020917205B2
:10077000309173058091740590917505281739079C
:1007800029F48091C1008F7D8093C100FF91EF918A
:100790009F918F913F912F910F900FBE0F901F90BF
:1007A000189560E089E00E94C81F61E088E00E941F
:1007B000C81F61E087E00E94C81F60E082E00E94DD
:1007C000C81F61E084E00E94C81F089542E050E025
:1007D00066EE71E080E00E94401E0895E3E0F0E0E4
:1007E00089E080935700E491E67081E0E63009F0FB
:1007F00080E00895CF93DF93C82F0E94EE038823F3
:1008000081F0DFB781E080930B05F8940E94F50139
:1008100088E180936000C0936000C1110E94F501DF
:10082000DFBFDF91CF910895FC0140A5842F877031
:1008300090E0959587950196242F217030E0820FE6
:10084000931F880F880F08958F929F92AF92BF9247
:10085000CF92DF92EF92FF921F93CF93DF93EC0141
:1008600018A5E12FE770F0E0EB56FD4FA081B0E056
:1008700017FF03C084E190E002C08FE090E0EFA199
:1008800023E1E29FF0011124E65AFE4F808091801F
:10089000A280B380A80FB91F20E43FE14DE750E0EC
:1008A0000E94C521A50194010E94FD21812F88731A
:1008B00049F469017A0160EDC60E67E0D61EE11CBD
:1008C000F11C21C089A590E017FF03C0A4E1B0E0AE
:1008D00002C0AFE0B0E069017A0168EBC60E6BE0E0
:1008E000D61EE11CF11CA80FB91F20E43FE14DE723
:1008F00050E00E94C521A50194010E94FD21C20E75
:10090000D31EE41EF51EC701B60169517C4F8F4FFF
:100910009F4F28EE33E040E050E00E94FD21A8EE1A
:10092000B3E00E94BA21DF91CF911F91FF90EF9029
:10093000DF90CF90BF90AF909F908F900895DB0194
:10094000FA01582F569590E02481237030E0322F21
:1009500022274081240F311D11963C932E93448110
:100960004C70218130E060E4469F200D311D112440
:1009700013963C932E93129744814073228130E06A
:1009800060E1469F200D311D112415963C932E9356
:1009900014974481407C238130E064E0469F200D21
:1009A000311D112417963C932E9316973596189661
:1009B0009F5F591748F680FF47C040814295469592
:1009C000469543702DE431E0429FC001439F900D56
:1009D00011240C9611969C938E93808190E074E084
:1009E000969587957A95E1F783709927829FA00164
:1009F000839F500D929F500D1124445F5F4F1396BB
:100A00005C934E931297808190E09695879596958A
:100A1000879583709927829FA001839F500D929F95
:100A2000500D1124445F5F4F15965C934E931497BD
:100A300040814370429FC001439F900D11240C964A
:100A400017969C938E9316970895803223E0920711
:100A500008F1883E23E0920740F48F519340E4E090
:100A600096958795EA95E1F70895803D27E09207EE
:100A700018F48C5D93400895883928E0920768F453
:100A8000885C974074E0969587957A95E1F78D504C
:100A90009C4F089580E090E008958FEF93E00895D3
:100AA0008C30910540F4A4E0880F991FAA95E1F7D6
:100AB000885D9C4F0895843F23E0920718F4845288
:100AC0009C4F0895811524E0920740F48657934F78
:100AD000F4E0880F991FFA95E1F7089580E998E00E
:100AE00008959C013695279525753575821B930BC6
:100AF0009C01237333739695879596958795837399
:100B00009373820F931F9C0154E0369527955A9555
:100B1000E1F7280F391F2F703F7041E051E0249F0B
:100B2000C001259F900D349F900D1124892F0895A9
:100B30005F98882319F00000289A02C000002898C6
:100B400000005F9A000008955F9A000083B15F98EB
:100B50000000869581700895CF93DF93D82F5C9A1B
:100B60005F985C98C8E08D2F80780E949805DD0F13
:100B7000C150C9F75F98DF91CF9108958F770E9498
:100B8000AC050895CF93DF93D82FC8E08D2F8078E0
:100B90000E949805DD0FC150C9F75F98DF91CF9192
:100BA0000895CF93DF935F98C8E080E0D82FDD0FE2
:100BB0000E94A4058D0FC150C9F7DF91CF91089510
:100BC0000E94BE050E94D1055C9A0895A1E0B0E0A4
:100BD000ECEEF5E00C944E22806869830E94AC052F
:100BE0006981862F0E94C2055C9A2196E2E00C94EE
:100BF0006A22CF93C0913505C827E82FF0E0E45D65
:100C0000FA4F678589E70E94E6056C2F8DE30E9405
:100C1000E6056C2F82E40E94E605CF91089586E2F6
:100C20000E94E0050895CF938BE20E94E005C82F53
:100C30008CE20E94E005282F30E066E0369527958B
:100C40006A95E1F744E0C49FC0011124822B932BE5
:100C5000CF910895CF93DF93EC016C818CE10E94DA
:100C6000E6056D818DE10E94E6056E818EE10E94B0
:100C7000E6056F8180E20E94E605688581E20E94B8
:100C8000E605698582E20E94E6056A8583E20E94A4
:100C9000E6056B8584E20E94E6056C8585E20E948C
:100CA000E6056D858AE20E94E6056E858EE60E9465
:100CB000E6056F858FE60E94E605688980E70E9459
:100CC000E605698981E70E94E6056A8982E70E9454
:100CD000E605DF91CF910895CF92DF92EF92FF92D8
:100CE000CF93DF936B017C01C11488E3D8068CE9B4
:100CF000E8068CE1F80628F5C701B60120E836E9D8
:100D000048E950E00E94FD21E901689760E879E632
:100D100087E69FEF0E94CD216C0D7D1D8E1D9F1DCE
:100D2000F2E0660F771F881F991FFA95D1F721E728
:100D300032E040E050E00E94FD21F22EE32E80E4FC
:100D400021C0C701B60120E03DE241E351E00E942D
:100D5000FD21E901689760E073ED8EEC9EEF0E9443
:100D6000CD216C0D7D1D8E1D9F1D660F771F881F69
:100D7000991F21E732E040E050E00E94FD21F22E71
:100D8000E32E80E66C2F6F71680F85E70E94E60501
:100D90006E2D86E70E94E6056F2D87E70E94E60527
:100DA000DF91CF91FF90EF90DF90CF9008958F92D9
:100DB0009F92AF92BF92CF92DF92EF92FF92CF932A
:100DC000DF93D82F83E00E94E00580930A0584E03A
:100DD0000E94E0058093090560E086E00E94E60538
:100DE00061E087E00E94E6056FE789E00E94E60582
:100DF00065E08AE00E94E60562E18BE00E94E6057C
:100E000065E18CE00E94E6056DEF8DE00E94E6054D
:100E100060E08EE00E94E605DD2319F087E491E0B2
:100E200008C02091530533E1239FC0011124865A45
:100E30009E4F0E942A066CE880E30E94E6056FE060
:100E400082E30E94E60562E483E30E94E605809166
:100E5000540587FF02C064E101C06AE084E30E9498
:100E6000E6056AE285E30E94E6056DE286E30E94FC
:100E7000E60564ED87E30E94E60560E088E30E94F2
:100E8000E60560E089E30E94E605D11109C0C09043
:100E90003505D0903605E0903705F090380507C04D
:100EA000C5E9CC2EC1ECDC2EED2CCEEDFC2ECAE338
:100EB0008F2C9924AA24BB24682D8C2F0E94E60530
:100EC000682D85E08C0F0E94E605FE2CED2CDC2CB5
:100ED000CC24CF5FCE3361F76FEF83E40E94E60549
:100EE0006FEF84E40E94E6056FEF85E40E94E6055B
:100EF0006FEF86E40E94E605DD2311F066E002C094
:100F0000609139058DE60E94E60560E089E70E9460
:100F1000E60560913A058AE70E94E60560E083E70E
:100F20000E94E60560E084E70E94E605D11109C051
:100F300060913105709132058091330590913405AF
:100F400004C060EC72E98DEE99E10E946C06DF91BD
:100F5000CF91FF90EF90DF90CF90BF90AF909F9098
:100F60008F90089561E087E00E94E60564E28EE7D5
:100F70000E94E60563E088E00E94E60560E088E004
:100F80000E94E60565E087E00E94E60562E085E0F4
:100F90000E94E60583E00E94E00580930A0584E054
:100FA0000E94E00580930905089583E00E94E00512
:100FB00080930A0584E00E94E0058093090561E0C2
:100FC00087E00E94E6056AE070E080E090E00E9421
:100FD000331F0E94B20700000895A2E2B0E0E3EFE1
:100FE000F7E00C943E229E012F5F3F4F80E1D90134
:100FF0001D928A95E9F76AEB71E08CE095E029A3F0
:101000003AA30E94D2200E94D5071D8A1E8A1F8AF9
:10101000188E312C212C00E0812C912C540180E47D
:10102000482E81EE582E8DE9682E88E1782E90E5C5
:10103000C92E93ECD92EE12CF12C84EF91E0A0E0A5
:10104000B0E08D8F9E8FAF8FB8A380EC91EDA8E9B3
:10105000BBE1898F9A8FAB8FBC8F80E491EEADE9B5
:10106000B8E1898B9A8BAB8BBC8B8CE095E00E94AE
:10107000A100892B09F4E1C08CE095E00E94D40026
:101080009C0133272C32310509F442C0ACF42332E1
:10109000310509F0ABC019821A821B821C821D82A5
:1010A0001E821F82188619861A861B861C861D863C
:1010B0001E861F86188A60C02434310529F0233526
:1010C000310509F4B2C092C064E48CE095E00E945E
:1010D000B6202AE030E040E451EE6DE978E18CE0A2
:1010E00095E00E9432216CE28CE095E00E94B620EF
:1010F0002AE030E040EC51ED68E97BE18CE095E0DE
:101100000E9432216CE28CE095E00E94E420ADCF99
:101110000F5F043009F0A9CF29813A814B815C81AE
:10112000A8EEB3E00E94BA21698B7A8B8B8B9C8BE3
:101130002D813E814F8158850E94BA21698F7A8F17
:101140008B8F9C8F29853A854B855C852D8F3E8FB3
:101150004F8F58A32D853E854F8558890E94BA210F
:101160006B017C0160323EE473078105910530F428
:1011700062E38CE10E94E60500E077CF603345E74B
:1011800074078105910510F462E2F3CF60345CE9E5
:1011900075078105910510F466E2EBCF80E5C8166E
:1011A00083ECD806E104F10410F462E1E2CF90E6AA
:1011B000C9169AEED906E104F10410F465E1D9CF1D
:1011C000A0E7CA16A1E1DA06A1E0EA06F10410F4EC
:1011D00061E0CFCFB0EACB16B6E8DB06B1E0EB06B4
:1011E000F10410F463E0C5CF65E0C3CF10ED180F34
:1011F0001A3008F03ACFE1E0F0E0EC0FFD1F24E0F8
:10120000029FE00DF11D1124208131814281538123
:10121000AAE0B0E00E94BA21610F711D811D911DED
:10122000608371838283938320CF49885A886B8837
:101230007C88812C912C540118CF81149104A10435
:10124000B10489F4C301B2010E946C0661E070E050
:1012500080E090E00E94331F1D8A1E8A1F8A188E2C
:10126000312C22242A948D8D9E8DAF8DB8A18816A5
:101270009906AA06BB06D0F40E940F062D893E8966
:101280004F89588D280F311D411D511D2D8B3E8BCF
:101290004F8B588F381608F4382E821508F4282EF4
:1012A0003FEF831A930AA30AB30A56C0C301B201DF
:1012B00028EE33E040E050E00E94FD21BA01A90190
:1012C0002AE030E08CE095E00E9480216CE28CE026
:1012D00095E00E94B6204AE050E0632D8CE095E056
:1012E0000E948F216CE28CE095E00E94B6206D890F
:1012F0007E898F89988DA50194010E94FD21BA01F4
:10130000A9012AE030E08CE095E00E9480216CE2A7
:101310008CE095E00E94B6204AE050E0622D8CE01F
:1013200095E00E948F216CE28CE095E00E94E42021
:101330004C0C5D1C6E1C7F1C898D9A8DAB8DBC8DF9
:1013400084159505A605B70520F449885A886B8849
:101350007C88812C912C540129893A894B895C899C
:10136000283E33404105510509F07FCEA296E2E1C7
:101370000C945A22CF92DF92FF920F931F93CF9338
:10138000DF931F92CDB7DEB7082F162F8EE3998318
:101390000E94E605F02EC02E9981D92E8C2D8F1932
:1013A000811738F4F60161916F018FE70E94E6051D
:1013B000F5CF64E085E00E94E60583E00E94E00549
:1013C00080930A0584E00E94E005809309050E944D
:1013D000101F609305057093060580930705909391
:1013E000080569E087E00E94E60581E08093290511
:1013F0000F90DF91CF911F910F91FF90DF90CF90D1
:1014000008950F931F930E94BA0980912905813096
:1014100099F40E94101F0091050510910605209176
:10142000070530910805601B710B820B930B603A26
:1014300076488140910548F380912905813031F447
:1014400067EC71E08CE095E00E94D2201F910F9133
:1014500008950F931F9380912905823021F41092F3
:10146000290581E020C0809129058130D9F40E94AE
:10147000101F009105051091060520910705309178
:101480000805601B710B820B930B613A7648814013
:10149000910540F061E087E00E94E6051092290581
:1014A00082E001C080E01F910F910895EF92FF92BA
:1014B0000F931F93CF93DF938B019C01442737FD3C
:1014C0004095542F60E271EA87E090E00E941F226D
:1014D000E9011C161D0614F0C1E0D0E0D80120E29D
:1014E00031EA47E050E00E94C5219E01442737FDC4
:1014F0004095542F0E941F22790100E010E00E1544
:101500001F055CF4289ACE010E94591F2898CE012D
:101510000E94591F0F5F1F4FF2CFCDB7DEB7E6E035
:101520000C946622CF93DF932C9A6091660570919C
:10153000670580916805909169050E946C0660E0DE
:1015400089E70E94E60561E070E080E090E00E949B
:10155000331F0E940F06C82F61E070E080E090E02A
:101560000E94331F0E940F06D0E0C80FD11D61E01A
:1015700070E080E090E00E94331F0E940F06C80FC9
:10158000D11D61E070E080E090E00E94331F0E9476
:101590000F062C989E01280F311DC901969587953D
:1015A00096958795DF91CF910895CF93C82F2C9A68
:1015B00083E00E94E00580930A0584E00E94E00534
:1015C0008093090560E086E00E94E60561E087E01F
:1015D0000E94E6056FE789E00E94E60565E08AE083
:1015E0000E94E60562E18BE00E94E60565E18CE081
:1015F0000E94E6056DEF8DE00E94E60560E08EE05A
:101600000E94E6056CE280E70E94E60560E080E368
:101610000E94E60560E089E70E94E60565E08AE74A
:101620000E94E60562E181E70E94E60562E082E74A
:101630000E94E60560E083E70E94E60560E084E73B
:101640000E94E605609166057091670580916805C6
:10165000909169050E946C0667E08DE60E94E605A0
:101660006AE070E080E090E00E94331F69E087E06C
:101670000E94E6056AE070E080E090E00E94331F7F
:10168000CC2369F0C5E1C15009F459C061E070E0B4
:1016900088EB91E00E94560A0E94F501F4CF61E0C8
:1016A00070E088E891E00E94560A0E94F50165E02A
:1016B0008DE60E94E6056AE070E080E090E00E941E
:1016C000331F61E070E088EB91E00E94560A0E94AF
:1016D000F50164E08DE60E94E6056AE070E080E0D6
:1016E00090E00E94331F61E070E08DE591E00E9480
:1016F000560A0E94F50162E08DE60E94E6056AE066
:1017000070E080E090E00E94331F61E070E08FEABB
:1017100090E00E94560A0E94F50160E08DE60E946A
:10172000E6056AE070E080E090E00E94331F62E02E
:1017300070E085E091E00E94560A0E94F50161E0A8
:1017400087E00E94E6052C98CF910895CF93DF9310
:10175000EC014AE050E06D2F70E08CE095E00E94D3
:1017600097216EE28CE095E00E94B620BE0134E045
:10177000769567953A95E1F76F7077274AE050E0E4
:101780008CE095E00E9497216EE28CE095E00E944B
:10179000B620BE016F7077274AE050E08CE095E0FC
:1017A0000E949721DF91CF910895D82FC0E0CD17E7
:1017B00080F42D9A64E670E080E090E00E94331F90
:1017C0002D9864E670E080E090E00E94331FCF5FC8
:1017D000EECF6CE271E080E090E00E94331FE6CF34
:1017E0000F931F93CF93DF93EC01062F15E0115059
:1017F00051F0CE010E948422081741F0602FCE01E3
:101800000E948C22F4CF82E00E94D50BDF91CF9111
:101810001F910F910895A0E0B0E0E1E1FCE00C948D
:101820004022482E562EC0E0D0E0612C712CE12CD5
:10183000F12C00E010E0442079F081E04816A1F09E
:1018400092E0491219C059E4652E712C60E2E62E2F
:10185000F12C06E814E010C0612C712CFBE1EF2E96
:10186000F12C06E515E008C07DE1672E712CEAE257
:10187000EE2EF12C0CE215E043018C0E9D1E109211
:101880002B0510922A053401A62CA818B12CC301EF
:1018900001966C01AE14BF04A8F4A00EB11E511045
:1018A00006C0C3010E948422F501808305C0F501B2
:1018B0006081C3010E94F00BF50180810E94E30268
:1018C0003601E2CFC301511018C0C3010E94842227
:1018D000B82EC6010E9484222B2D30E0322F222701
:1018E000282B80912A0590912B058217930779F474
:1018F000C0E0D0E0552453949ECF360160912B0573
:101900000E94F00B60912A05C6010E94F00BD3954E
:10191000C13093E0D90708F48ECF852DCDB7DEB75F
:10192000E0E10C945C2260E081E00E940B0C8823D3
:1019300031F081E090912C05983309F080E0089512
:1019400061E081E00E940B0C089561E082E00E945A
:101950000B0C089560E082E00E940B0C811108C01E
:10196000E6E8F4E01192119284E0E63AF807D1F744
:101970000895A1E0B0E0EFEBFCE00C944E228983E7
:101980000E94270392E0909364059FEF9093650572
:101990009AE090936E0510926F0510927005109268
:1019A00066051092670510926805109269052EE190
:1019B00020936A0590936B0528EB3BE030936D050F
:1019C00020936C058981882371F061E080E00E949A
:1019D0000B0CE6E8F4E01192119284E0E63AF80785
:1019E000D1F70E94A50C2196E2E00C946A2260E0F7
:1019F00080E00E940B0C811103C081E00E94B90CB1
:101A00000895CF93DF939EEF9093F40499E0909321
:101A1000F5049091F30451E0590F5093F30490931F
:101A2000F60493E39093F70494E49093F80496EA11
:101A30009093F9043093FB042093FA041092FD0470
:101A40001092FC04809300054093FE046093FF0411
:101A5000109201051092020585E180930305E5EFE0
:101A6000F4E08FEF9FEF4191482750E1459F9001AF
:101A70001124242730E0522F4427B901B3E0660F28
:101A8000771FBA95E1F746275727892F992784278B
:101A90009527D4E035952795DA95E1F782279327A6
:101AA00025E0E430F207F9F68093030590930405EE
:101AB0008CE095E00E94B900419764F0C4EFD4E057
:101AC00055E0C530D50731F069918CE095E00E9472
:101AD0002B01F6CFDF91CF910895CF93C1E0811113
:101AE00001C0C0E06C2F82E10E9401206C2F83E1D5
:101AF0000E9401201092ED041092EC048091B90034
:101B00008C6F8093B90080E28093B80085E4809365
:101B1000BC00CF91089585ED8093BC008091BC00FE
:101B200084FDFCCF0895ECEBF0E0108285E4808327
:101B30001092EC0408951F920F920FB60F92112489
:101B40002F933F934F935F936F937F938F939F93C5
:101B5000AF93BF93EF93FF93CF93DF931F92CDB7D4
:101B6000DEB78091B900887F803609F4C7C0A8F538
:101B7000883209F464C098F4803109F45DC038F407
:101B8000882309F4F3C0883009F456C0F1C08831C5
:101B900009F455C0803209F0EBC082E0A7C0803460
:101BA00009F477C078F4803309F45FC0883309F012
:101BB000DFC084E08093EB048091EC048B7F809302
:101BC000EC04D0C0803509F452C0883509F467C0F0
:101BD000883409F0CDC085E089C0883909F4C0C0D7
:101BE000A8F4883709F48AC038F4883609F486C026
:101BF000803709F483C0BCC0883809F4B1C080398B
:101C000009F47FC0803809F0B3C07BC0803B09F481
:101C100093C038F4803A09F48CC0883A09F48CC037
:101C2000A7C0803C09F49EC0883C09F49BC0883B57
:101C300009F09EC080E081C08091F00413C08091C3
:101C4000ED049FEF980F9093ED048823D1F1E0917C
:101C5000EE04F091EF04CF0101969093EF0480938E
:101C6000EE0480818093BB007DC083E03FC0E091A3
:101C7000EE04F091EF04CF0101969093EF0480936E
:101C8000EE048091BB0080838091ED0481508093AD
:101C9000ED048091ED04823008F064C061C0E091F1
:101CA000EE04F091EF04CF0101969093EF0480933E
:101CB000EE048091BB0080838091ED04815080937D
:101CC000ED048091EC048B7F8093EC048091EC0414
:101CD00080FF4CC08091EC048E7F8093EC04809157
:101CE000EC0482608093EC0484EA3DC08093EB04B2
:101CF0008091EC048B7F8093EC0438C01092ED044B
:101D000031C0E091F104F091F204309749F18091F3
:101D1000BB0089838091ED0491E0980F9093ED04CE
:101D2000811102C062E001C060E0CE010196099518
:101D300015C00E948B0D16C081E0E091F104F09176
:101D4000F204309769F0882311F063E001C061E08C
:101D5000CE010196099599819093BB00811102C033
:101D600085E801C085EC8093BC0002C00E948B0D09
:101D70000F90DF91CF91FF91EF91BF91AF919F9124
:101D80008F917F916F915F914F913F912F910F9024
:101D90000FBE0F901F9018958F929F92AF92BF9297
:101DA000CF92DF92EF92FF92CF93DF93EC010E94EC
:101DB000101F6B017C014E01A12CB12C8091EC0411
:101DC00082FF11C02097D1F30E94101F6C197D096A
:101DD0008E099F0986169706A806B90678F70E940D
:101DE000930D81E004C08091EB041092EB04DF912D
:101DF000CF91FF90EF90DF90CF90BF90AF909F90EA
:101E00008F900895A2E0B0E0E8E0FFE00C944A2251
:101E1000182F7B01022F047022FD05C080910B0159
:101E200090910C0102C080E090E02A8349830E94D7
:101E3000CC0E2A814981811136C01092EB04409367
:101E4000ED04F092EF04E092EE04110F1093F00411
:101E50009091EC0421FF02C085E001C084E0892B51
:101E60008093EC048091EC0481FF0BC08091EC0422
:101E70008D7F8093EC048091F0048093BB0085EC0F
:101E800001C085EE8093BC00822F817020FF0BC0C3
:101E9000011105C080910B0190910C0102C080E0FE
:101EA00090E00E94CC0E2296E6E00C946622A2E01E
:101EB000B0E0EDE5FFE00C944A22182F7B01022FE1
:101EC000047022FD05C080910B0190910C0102C0AD
:101ED00080E090E02A8349830E94CC0E2A814981C8
:101EE000811138C01092EB044093ED04F092EF049E
:101EF000E092EE04812F880F81608093F00490912E
:101F0000EC0421FF02C085E001C084E0892B8093AE
:101F1000EC048091EC0481FF0BC08091EC048D7F78
:101F20008093EC048091F0048093BB0085EC01C0A9
:101F300085EE8093BC00822F817020FF0BC00111C1
:101F400005C080910B0190910C0102C080E090E0EF
:101F50000E94CC0E2296E6E00C946622A0E0B0E04F
:101F6000E4EBFFE00C9448220E94101F0091E7046C
:101F70001091E8042091E9043091EA046B017C019E
:101F8000C01AD10AE20AF30A9701860141E1C41698
:101F900047E2D406E104F104D0F12091E60431E0F7
:101FA000320F3093E60420FF02C017E001C010E0BA
:101FB0006093E7047093E8048093E9049093EA0443
:101FC00063E08CE095E00E942B0161E08CE095E0FD
:101FD0000E942B0107E0010FC12FD0E0CC0FDD1FC5
:101FE000C35FDE4F88819981692F6370812F880FCD
:101FF000880F682B8CE095E00E942B016881798125
:102000008CE095E00E942B011F5F1013E5CFCDB748
:10201000DEB7E8E00C946422A0E0B0E0E2E1F0E199
:102020000C944822D82FC62F0E94101F0091E7045D
:102030001091E8042091E9043091EA046B017C01DD
:10204000C01AD10AE20AF30A9701860141E1C416D7
:1020500047E2D406E104F10408F4CAC16093E7043E
:102060007093E8048093E9049093EA0480910D0151
:1020700090910E01880F991F8093CF04892F87704C
:102080002091D004287F282B2093D00480910F0129
:1020900090911001880F991F382F330F330F330F92
:1020A0002770232B2093D004282F22952695277064
:1020B0008091D104807C9770990F990F990F822B92
:1020C000892B8093D1042091110130911201220FAC
:1020D000331F922F9295990F990F907C8F73892BB4
:1020E0008093D104932F9295990F990F907C822F12
:1020F00086958695892B8093D20432FB882780F9B8
:102100002091D3042E7F282B2093D3048091130198
:1021100090911401880F991F382F330F2170232BB2
:102120002093D304382F331F3327331F2091D40437
:10213000207F892F8770880F232B282B2093D4048E
:102140008091150190911601880F991F382F3295B3
:10215000307F2F70232B2093D404382F32953F707B
:102160002091D5042078892F87708295807F232B3A
:10217000282B2093D5048091170190911801880F86
:10218000991F2F772093D504292F2795222727954C
:102190008695822B8093D604892F86958370209113
:1021A000D7042C7F282B2093D7048091190190917C
:1021B0001A01880F991F382F330F330F2370232BE9
:1021C0002093D704382F3295369536953370209169
:1021D000D804207E892F8770880F880F232B282B07
:1021E0002093D80480911B0190911C01880F991FA6
:1021F000382F3295330F307E2F71232B2093D80444
:102200009295990F907E869586958695892B8093D9
:10221000D90480911D0190911E01880F991F809310
:10222000DA04892F87702091DB04287F282B2093E4
:10223000DB0480911F0190912001880F991F382F96
:10224000330F330F330F2770232B2093DB04282FFA
:102250002295269527708091DC04807C9770990FD9
:10226000990F990F822B892B8093DC0420912101F7
:1022700030912201220F331F922F9295990F990FBF
:10228000907C8F73892B8093DC04932F9295990F08
:10229000990F907C822F86958695892B8093DD04FB
:1022A00032FB882780F92091DE042E7F282B209393
:1022B000DE048091230190912401880F991F382F0B
:1022C000330F2170232B2093DE04382F331F332745
:1022D000331F2091DF04207F892F8770880F232BE5
:1022E000282B2093DF048091250190912601880FEF
:1022F000991F382F3295307F2F70232B2093DF04C6
:10230000382F32953F702091E0042078892F877014
:102310008295807F232B282B2093E0048091270136
:1023200090912801880F991F2F772093E004292F7F
:102330002795222727958695822B8093E1049695F1
:1023400093708091E2048C7F892B8093E20420912A
:10235000290130912A01220F331F922F990F990FD3
:102360008370892B8093E20422952695269523700D
:102370008091E304807E932F9770990F990F822BA1
:10238000892B8093E30420912B0130912C01220FA3
:10239000331F922F9295990F907E8F71892B809386
:1023A000E304832F8295880F807E269526952695B7
:1023B000282B2093E404DD2311F088E001C080E0A5
:1023C000CC2311F094E001C090E0892B8093E504C8
:1023D0006FE08CE095E00E942B01CFECD4E0699196
:1023E0008CE095E00E942B0184E0C63ED807B9F747
:1023F000CDB7DEB7E8E00C946422CF93C82F682FE6
:102400008CE095E00E942B018C2F0E94E302CF917B
:102410000895A0E0B0E0EFE0F2E10C944822C82F6C
:102420000E94101F0091E7041091E8042091E90434
:102430003091EA046B017C01C01AD10AE20AF30A66
:102440009701860141E1C41647E2D406E104F10494
:1024500008F442C06093E7047093E8048093E904B1
:102460009093EA0410922B0510922A0588EA0E94A4
:10247000FD11CC2311F081E801C081E00E94FD1123
:1024800080E10E94FD1100E010E0F801EE0FFF1F57
:10249000E35FFE4F808191810E945005EC0163E073
:1024A000CC0FDD1F6A95E1F78D2F0E94FD118C2F57
:1024B0000E94FD110F5F1F4F0031110531F7C091D0
:1024C0002A0560912B058CE095E00E942B016C2F72
:1024D0008CE095E00E942B01CDB7DEB7E8E00C94CC
:1024E000642225B190E0FC01EE0FFF1FE80FF91FF9
:1024F000E35BFB4F8081282B25B988B19181892B23
:1025000088B98BB19281892B8BB9089585B190914F
:102510004A04892385B988B190914B04892388B9ED
:102520008BB190914C0489238BB908951F920F921F
:102530000FB60F9211242F933F934F935F936F9396
:102540007F938F939F93AF93BF93CF93EF93FF931B
:10255000C091A90480910601C81708F03EC080917F
:102560004804909149049093870080938600EC2F53
:10257000F0E0EE0FFF1FE35FFE4F808191810E942C
:102580005005880F991F90934904809348048091C7
:102590004804909149042091070130910801281BBB
:1025A000390B309308012093070180916C059091BD
:1025B0006D05880F991F2817390720F4909308019B
:1025C000809307018091A704811142C08091640526
:1025D00080FF41C0C830E0F53EC080914804909132
:1025E0004904909387008093860080910701909121
:1025F000080190934904809348048091A70488239C
:1026000019F08FEF9FEF06C0809148049091490424
:102610008855924090938B0080938A0080E49CE9D7
:102620009093080180930701809184009091850028
:102630008097D0F30E9486128091A804811105C072
:102640008091060181500E9471121092A90427C046
:102650008FEF9FEF06C08091480490914904885500
:10266000924090938B0080938A0080918400909197
:1026700085008097D0F30E9486128091A804811172
:1026800004C08091A904811106C08091A9048F5FC4
:102690008093A90404C081500E947112F6CFFF916B
:1026A000EF91CF91BF91AF919F918F917F916F915A
:1026B0005F914F913F912F910F900FBE0F901F9000
:1026C000189524E0829FC00111248C30910538F0C8
:1026D000853F23E0920728F084EF93E008958CE093
:1026E00090E00895CF93DF93C0916505C03390F4D7
:1026F0008C2F807339F0803141F48091AA04829547
:10270000807F05C08091AF0402C08091B004CF707B
:10271000D0E015C0CF33E0F4CF70D0E08091AA04B0
:102720008295807F0E946113DE01AA0FBB1FA35F09
:10273000BE4F11969C938E9321968091B0040E9477
:102740006113FE01EE0FFF1FE35FFE4F9183808355
:10275000DF91CF9108958091AB049091AC049F7765
:102760000E9471058093AA048F3029F48091B004EF
:102770008695805804C099E0899F802D112480930C
:10278000AF04F8940E9472137894809158058132B6
:10279000E1F48091AF049FEF980F9E3F78F0809115
:1027A000B0008F7D8093B00061E08091AF04811113
:1027B00001C060E083E00E94012008958093B4008E
:1027C0008091B00080628093B0000895FF920F93D3
:1027D0001F93CF93DF9307E515E0C0E0D0E0B3E0AF
:1027E000FB2E8C2FD801ED918D019E2F907F903183
:1027F000F1F4EF70F0E0EE0FFF1FE35FFE4F20817A
:1028000031816F2D0E94DD21E92FF0E0EE0FFF1FD7
:10281000E157FD4F61E0808191818217930708F0B5
:1028200060E0FE01E356FD4F80810E940120219669
:10283000C730D105B1F6CDB7DEB7E5E00C9467221D
:102840000F931F93CF93DF9306E814E0C0E0D0E02E
:1028500020916505822F8F7090E0C817D907E9F0A5
:102860000196C817D90711F42033B8F4F801808114
:1028700091819F70892B79F0F894F8018081918182
:102880009F700E942505FE01EE0FFF1FE35FFE4FC4
:102890009183808378940E94E61321960E5F1F4FE8
:1028A000C031D105A9F6DF91CF911F910F91089505
:1028B000FF920F931F93CF93DF938CE295E00E94DA
:1028C00014048093060190916505292F2F70281319
:1028D00004C081E0820F8093060190539F3060F422
:1028E0004091060130E0842F90E0019728173907C6
:1028F00019F44F5F4093060180910601813118F071
:1029000080E180930601EFE4F4E0DF0112971C926E
:10291000DF0111971C921082339684E0E436F807A9
:10292000A1F74FEF3FEFA6EAB2E007E515E02FEF82
:10293000E80189918E018031F8F490E0FD01329731
:102940006081FC01EE0FFF1FE80FF91FE35BFB4FF7
:102950008081862B8083CD010197EC015881818194
:10296000852B81839C918281892B828360955095F0
:1029700090952923352346231396D5E00E351D0760
:10298000B9F640934A0430934B0420934C04CDE9AC
:10299000D2E007E515E0F12CF80181918F01823238
:1029A00030F08632B8F0863211F460E010C0F5E005
:1029B000FF1204C08091C1008F7E06C086E0F8122D
:1029C00005C08091C100877F8093C10061E088814C
:1029D0000E94C81FF3942196E7E0FE12DDCF80919C
:1029E0005705803231F461E08AE00E94012082E2E2
:1029F00001C082E08093800081E08093A8048093EE
:102A0000A70480915805813211F08732D9F461E032
:102A100083E00E94C81F60E083E00E940120809153
:102A20005805813231F481E08093B0008093B10089
:102A300009C082E08093B00085E08093B1008EE30E
:102A40008093B3008AE1809381008FEF9FEF909392
:102A50008B0080938A0080ED97E0909387008093AD
:102A6000860080E49CE9909308018093070190938D
:102A70004904809348041092A90480916F008160FA
:102A800080936F008091640583FF0DC08091860460
:102A9000909187049F70892B31F00E94201410922E
:102AA000A7041092A804CDB7DEB7E5E00C94672226
:102AB000CF93C82F809159058B3221F46C2F8EE073
:102AC0000E94012080915805873249F48091B0001E
:102AD000CC2311F0806101C08F7E8093B000CF9134
:102AE0000895A2E2B0E0E7E7F5E10C943E226B0125
:102AF0007C010E94041F4B015C0181E00E94D7060B
:102B000083E0809329050E94D50763ED71E08CE096
:102B100095E00E94D2207BE1272EE0E53E2EF7E4EF
:102B20007F2EA6E44A2EB5E55B2EC114D104E10444
:102B3000F10469F00E94041F681979098A099B0948
:102B40006C157D058E059F0510F080E0D5C0809145
:102B50002905843051F761EE71E08CE095E00E9428
:102B6000D2208FE70E94BE050E94D1058AA382363B
:102B700001F50CE215E00E94D105D8018D938D017D
:102B8000B5E006351B07B9F780912C05883309F0AD
:102B9000ADC06AEE71E08CE095E00E94D22082E444
:102BA0008AA361E0CE0182960E94010A2C9A81E0FC
:102BB000A3C0803741F0893611F581E00E94B90C3D
:102BC00089E4898304C03982C12CD12C760190918B
:102BD0000B0580916405992311F0806801C08F77FF
:102BE00080936405E6E5F5E0DE011296822D019002
:102BF0000D928A95E1F76CE1CE01019675C084379C
:102C0000E1F4E4E5E98383E08A8385E88B8387E068
:102C10008C838DE08D838AE1EDE2F1E0DE01169692
:102C200001900D928A95E1F76FE1CE0101960E9425
:102C3000010AC12CD12C760159C0853789F406E5EB
:102C400015E00E94D105D8018D938D01B5E00137C3
:102C50001B07B9F761E080E00E940B0C5AA241C04B
:102C60008636B9F44982E6E8F4E0AE014D5F5F4F85
:102C7000208131813296CA010197DC013C93DA014F
:102C80002C934E5F5F4FB4E0E63AFB0789F761E2B1
:102C9000B3CF8736C9F406E814E00E94D105682E48
:102CA0000E94D105262D30E0322F2227280F311D1A
:102CB000F801219331938F01F4E0063A1F0769F779
:102CC0007AA20E94A50C0DC0873481F4E6E8F4E0F6
:102CD0001192119284E0E63AF807D1F70E94A50C10
:102CE0007AA261E0CE0182960E94010A83E080937D
:102CF00029050E94B20719CFA296E2E10C945A224C
:102D00001F93CF93DF93C82FD62F61E00E94C81F77
:102D100061E08C2F0E94012061E08D2F0E94012034
:102D20008AE090E00E94591F8D2F0E943420892B49
:102D300071F060E08C2F0E9401208AE090E00E94F8
:102D4000591F8D2F0E94342011E0892B09F010E0CB
:102D500060E08C2F0E94C81F60E08C2F0E94012031
:102D600060E08D2F0E940120812FDF91CF911F9174
:102D7000089580E48093BA001092BD008DE192E046
:102D80009093F2048093F1041092830415E004E020
:102D9000C2E0FC2E80918304813039F480E00E94EF
:102DA000D706F09283042D98F5CFC0918304C330E9
:102DB00061F42C988091C5040E94F905C0932905FF
:102DC0000E94B20700938304E5CF8091830484308E
:102DD00009F7809129058430E9F68FE70E94BE0546
:102DE000C3E3D4E0E0915405E770F0E0EB56FD4F0B
:102DF000808190E09E01235334402817390724F442
:102E00000E94D1058993EECF109383042C9AC2CFF0
:102E1000ABE2B0E0EEE0F7E10C944D221FEF198336
:102E20008AE2ECE2F5E0DE01129601900D928A95BD
:102E3000E1F721E04BE2BE016F5F7F4F80E20E942D
:102E4000020F81110EC021E041E0BE016F5F7F4F94
:102E500080E20E94570F811104C082E080938304B6
:102E600002C01093830480918304823051F00E9449
:102E7000041F60937F047093800480938104909377
:102E80008204AB96E3E00C946922A1E0B0E0EBE4AD
:102E9000F7E10C944C2280E00E94FA0361E08CE0A0
:102EA0000E94C81F61E08DE00E94C81F0E94D103EC
:102EB00060E080E00E94C81F61E081E00E94C81FBE
:102EC00000E410E023ED32E040E051E063E173E024
:102ED0008CE095E00E94CC0240E052EC61E070E0B2
:102EE0008CE095E00E946A010E94F70C0E94AA0CF7
:102EF00065EF71E08CE095E00E94B32085E893E0F7
:102F00000E94A60B6CE072E08CE095E00E94B3207A
:102F10004AE050E062E070E08CE095E00E946821B9
:102F20000E94E60378942D9A62E18EE00E9480165A
:102F3000882329F02D982C980E94ED07FBCF63E0A1
:102F40008AE00E948016811104C00E94930C8111B6
:102F500019C06FE472E08CE095E00E94B32060E05D
:102F600070E0CB010E947115882349F00E94A00CEB
:102F700064E172E08CE095E00E94D2202C9A0E94DD
:102F8000581410C00E94581480915A05823209F0DA
:102F9000C5C080915B05833209F0C0C08091640593
:102FA00081FDC2C080915A05823231F580915B0566
:102FB000833211F581E00E946D0D8091640582FFDE
:102FC00008C06FE272E08CE095E00E94D2200E947F
:102FD000B91664E170E080E090E00E94331F21E0C8
:102FE00041E0BE016F5F7F4F80E20E94570F811169
:102FF00003C081E0809383046AE372E08CE095E093
:103000000E94B3208FE00E94FA0380E00E94D7065E
:103010001092C50480E00E94F90580E0883170F0CC
:103020008093D20283E0809329050E94D507809186
:103030008304882371F00E9408170BC021E0280F39
:10304000E82FF0E0E45DFA4F9785992349F3822F4A
:10305000E5CF80915D05982F9D7F983229F440E05F
:1030600052EC61E070E027C0893271F440EA56E822
:1030700061E070E08CE095E00E946A018091C200FE
:1030800080628093C2001BC0809154058873803198
:1030900029F440E855E260E070E00DC040912D0554
:1030A00050912E0560912F05709130054A305105E1
:1030B0006105710570F38CE095E00E946A018CE077
:1030C00095E00E94190180915C05843229F080917D
:1030D000C1008F7E8093C10080915D05853241F0F3
:1030E0008852833028F08091C100877F8093C1008F
:1030F000109285040E94101F6093C1047093C20453
:103100008093C3049093C4041092C8041092C9041D
:103110001092CA042196E4E00C9468228091640520
:103120008B7F809364053ACF82FD3CCF64EF71E0E2
:1031300080E090E00E947115882309F433CF0E944B
:10314000A00C64E172E08CE095E00E94D2200E9425
:1031500058142C9A27CFA1E0B0E0E1EBF8E10C94F1
:103160004E22809183048230D9F48091C504805A24
:10317000898321E041E0BE016F5F7F4F80E20E94C2
:10318000020F882369F08FEF809383040E94041F4D
:1031900060937F04709380048093810490938204F1
:1031A0002196E2E00C946A22A1E0B0E0EAEDF8E1B9
:1031B0000C944E22809183048230D1F421E041E0CE
:1031C000BE016F5F7F4F80E20E94570F882371F02E
:1031D0008FEF809383040E94041F60937F04709399
:1031E0008004809381049093820402C0898101C08D
:1031F0008FEF2196E2E00C946A22AAE1B0E0E3E0CE
:10320000F9E10C9440220E94F5018CE00E94E00557
:1032100081110BC067E872E08CE095E00E94D2203B
:1032200080E00E94D7060E94D5070E94101F6B0104
:103230007C010E94D41891E0853009F090E01FEFE6
:1032400080912905843009F404C2911102C282C020
:103250000E9413069093AE048093AD042C9A809242
:10326000C1049092C204A092C304B092C40410920C
:1032700084048091AB049091AC04880F991F816005
:103280009093AC048093AB042D9880E00E94581575
:10329000809154058873803209F42CC280913304E4
:1032A000982F9E7309F047C2F8948091540544E327
:1032B00054E06DE071E087700E949F040E947213D9
:1032C00078949091330480917D0490FF2EC28111F7
:1032D00024C066E8E62E64E0F62E00E010E0D70198
:1032E0008D919C9194FD0CC0F801EE0FFF1FE35FE0
:1032F000FE4F808191810E945005F7019183808368
:103300000F5F1F4FF2E0EF0EF11C0031110539F78E
:103310000E94A50C81E080937D0480918504811139
:1033200003C081E0809385041092A6041092A80443
:103330001092A70480915405887309F072C20E940C
:10334000E61383E0809329050E94B20781E0809311
:103350007E042C980E94101F4B015C010E94041FE8
:103360006B017C0180918404823008F063C040903E
:10337000C1045090C2046090C3047090C404809152
:10338000BD049091BE04A091BF04B091C004841507
:103390009505A605B70509F44DC08CE295E00E949D
:1033A00024046C5D7540810991099501840104191B
:1033B0001509260937096017710782079307D0F5A9
:1033C0004092BD045092BE046092BF047092C0044B
:1033D0000E940F06282F8093B1048091B20490912F
:1033E000B304820F911D9093B3048093B204609153
:1033F000B4046F5F6093B4046930E0F070E00E9441
:10340000E9217093B3046093B2048091B00423E087
:10341000829F600D711D112476956795769567954D
:103420006093B0040E94AB131092B3041092B204E4
:103430001092B404809185040091D202882351F146
:1034400010918404101708F0F3C24090C10450900A
:10345000C2046090C3047090C404A50194012419AF
:103460003509460957092F8B388F498F5A8F8CE2BF
:1034700095E00E94240468517C4F8F4F9F4F2F8905
:10348000388D498D5A8D621773078407950708F4A4
:103490008DC2CEC28091C1049091C204A091C30498
:1034A000B091C40475016401C81AD90AEA0AFB0A7A
:1034B0008CE295E00E9424049B01AC01A02FB0E0B7
:1034C0000E94BA216C157D058E059F0558F48092E7
:1034D000C1049092C204A092C304B092C40481E0DB
:1034E00080937E048091A704811116C080915D05B0
:1034F000883219F40E94AE0F0FC0893239F46091FE
:1035000084048091A6040E940C1006C08A3221F423
:103510008091A6040E94091280917E04882309F4F8
:1035200072C0E091C504EF5FE093C504E83131F06B
:10353000F0E0E45DFA4F8785811102C01092C50466
:103540008091660590916705A0916805B091690525
:10355000892B8A2B8B2B09F44EC08091B504909156
:10356000B604A091B704B091B804892B8A2B8B2B99
:1035700009F441C00E94920A082F10E0209109012D
:1035800030910A0136952795369527952C5E3F4F49
:103590002017310770F40E94041F68517C4F8F4F31
:1035A0009F4F6093B5047093B6048093B7049093D3
:1035B000B804C801880F991F880F991F409109010D
:1035C00050910A019A01220F331F240F351F820FD9
:1035D000931F969587959695879590930A0180936A
:1035E0000901609131057091320580913305909108
:1035F00034050E946C068091C5040E94F9050E9462
:10360000AB1810927E04809183048F3F09F00BC3A6
:103610000E94041F00917F04109180042091810476
:1036200030918204601B710B820B930B693E7340D7
:103630008105910508F4F7C20E94041F60937F047E
:103640007093800480938104909382040E940817F1
:10365000EAC20E94101F4B015C0180912905843051
:10366000D1F48FE70E94BE0503E314E0E091540516
:10367000E770F0E0EB56FD4F808190E09801235316
:103680003440281739070CF0E3CD0E94D105D8014A
:103690008D938D01EBCFE0915405E770F0E0EB5690
:1036A000FD4F40814F5F21E0BE016F5F7F4F80E2A1
:1036B0000E94570F882371F0109383040E94041F07
:1036C00060937F04709380048093810490938204BC
:1036D00090E0B6CDE0915405E770F0E0EB56FD4F79
:1036E000408150E0BE016E5F7F4F83E394E00E9413
:1036F0007B22B5CD8091CA048111D0CD8091CB04BD
:103700009091CC04A091CD04B091CE04A701960174
:10371000281B390B4A0B5B0BDA01C9018134924437
:10372000AF40B10508F00EC1B9CD882309F4F5CD3D
:1037300010927D04F2CD982F9873983309F0EDCD57
:1037400090911304892787FFE8CD90589093130434
:1037500080915D05853209F0E0CD80915405887334
:1037600010E0803209F048C037E0F32E42E0E42E4A
:10377000DD24D394212F30E080913304877090E0D2
:10378000821793070CF4C9CD1F5FE12FF0E0ED5CC9
:10379000FB4F0081602F8CE095E00E942B0120916F
:1037A000CA04822F90E08930910520F7FC01EC5C7F
:1037B000FF4F0C9475220E3FE9F61092C804109248
:1037C000C904D092CA04D6CF0093C804E092CA04B8
:1037D000D1CF8091C9048F5F8093C9049091C804B0
:1037E000891740F2F092CA04C5CF2F5F2093CA0414
:1037F000C1CF1092CA04BECF212F30E08091330494
:10380000877090E0821793070CF487CD1F5FE12F3C
:10381000F0E0ED5CFB4F60818CE095E00E942B01B5
:10382000EBCF9091130420913304292726FD7FC00C
:10383000907C20E49227909313048032F1F410E0FE
:10384000212F30E08091550590E001972817390726
:103850000CF0A3C08CE095E00E94A1001816190698
:103860000CF09BC01F5F8CE095E00E94D400E12F1C
:10387000F0E0ED5EFB4F8083E3CF8CE095E00E94AB
:10388000A10018161906F4F410E0212F30E0809101
:10389000550590E00197281739070CF080C08CE09F
:1038A00095E00E94A100181619060CF078C01F5F61
:1038B0008CE095E00E94D400E12FF0E0ED5EFB4F3C
:1038C0008083E3CF8091B1048093140480915A05E2
:1038D000863251F482E10E945D20959587959595F9
:1038E00087958093150402C01092150480915B05A2
:1038F000863251F483E10E945D20959587959595D8
:1039000087958093160402C0109216048091AD042E
:103910009091AE0490931704809318048091AB04A7
:103920009091AC049F770E94710580931904609177
:10393000550583E194E00E94BA090E94290A882370
:10394000E1F3FDCC8CE095E00E94A10020E031E0A5
:10395000281B390B43E0369527954A95E1F744E655
:10396000429FC001439F900D11242091C6043091C5
:10397000C7044091B00450E065E0969587956A953C
:10398000E1F760E00E94010DC092CB04D092CC041C
:10399000E092CD04F092CE0481CC1F7301C0177366
:1039A00080911304182B10931304C1CF8091AB04A2
:1039B0009091AC04880F991F9093AC048093AB0452
:1039C00081E080937E04111119C0C092B904D09295
:1039D000BA04E092BB04F092BC041092B5041092B9
:1039E000B6041092B7041092B8048091C604909166
:1039F000C70401969093C7048093C6041F5F109379
:103A000084048CE295E00E942404640D751D861DDB
:103A1000971D6093C1047093C2048093C304909374
:103A2000C4042D9A81E00E9458150E94AB1303C074
:103A3000101709F4A7C080918404882309F452CD9B
:103A400080916E058823D9F09091A604911117C03A
:103A50004091B9045091BA046091BB047091BC04C8
:103A600046015701841A950AA60AB70A90E00E94F7
:103A7000FC02681579058A059B0508F4B5C080919C
:103A800070058823D9F09091A804911117C0409136
:103A9000B9045091BA046091BB047091BC04460112
:103AA0005701841A950AA60AB70A90E00E94FC0200
:103AB000681579058A059B0508F4ADC080916F05EE
:103AC0008823D9F09091A704911117C04091B904AF
:103AD0005091BA046091BB047091BC044601570137
:103AE000841A950AA60AB70A90E00E94FC0268159B
:103AF00079058A059B0508F492C08091660590912E
:103B00006705A0916805B0916905892B8A2B8B2BDD
:103B100009F4E8CC8091B5049091B604A091B70463
:103B2000B091B8040097A105B10509F4DBCCC81A1F
:103B3000D90AEA0AFB0AF7FCD5CC80916405829584
:103B400081700E94D50A80E00E94D7060E94B207C9
:103B50000E94041F6B017C0120916B0530E0A8EEF0
:103B6000B3E00E94AB21C60ED71EE81EF91E689472
:103B7000C0F8C092B504D092B604E092B704F092B7
:103B8000B804B0CC8091C1049091C204A091C30448
:103B9000B091C40424013501481A590A6A0A7B0A03
:103BA0008CE295E00E9424049B01AC01A12FB0E0BF
:103BB0000E94BA21641575058605970508F03BCF6C
:103BC0001092AC041092AB0481E080937E041092BA
:103BD000B0040E94AB138092C1049092C204A092E0
:103BE000C304B092C40427CF81E08093A6040E944E
:103BF000201480916A050E9421036C0D7D1D8E1D8D
:103C00009F1D61606093B5047093B6048093B70400
:103C10009093B80434CF81E08093A8044FCF81E023
:103C20008093A7046ACF6A96E0E10C945C228F929D
:103C3000AF92CF92EF92FF920F931F93E0E28E2EFE
:103C4000F8E9AF2ECC24C394A1ECEA2EF12C00ECC1
:103C500010E024EC30E045EC50E060E08CE095E0D2
:103C60000E947A021092C8041092C9041092CA04E9
:103C70001F910F91FF90EF90CF90AF908F9008958C
:103C80008230E8F4E82FF0E0EE0FFF1FEA57FA4F1A
:103C900071836083813041F0809169008C7F842B37
:103CA00080936900E89A089580916900440F551F38
:103CB000440F551F837F842B80936900E99A0895F0
:103CC0001F920F920FB60F9211242F933F934F9391
:103CD0005F936F937F938F939F93AF93BF93EF9374
:103CE000FF938091860590918705892B29F0E091BB
:103CF0008605F09187050995FF91EF91BF91AF91EE
:103D00009F918F917F916F915F914F913F912F91F3
:103D10000F900FBE0F901F9018951F920F920FB625
:103D20000F9211242F933F934F935F936F937F9341
:103D30008F939F93AF93BF93EF93FF9380918805E9
:103D400090918905892B29F0E0918805F0918905EA
:103D50000995FF91EF91BF91AF919F918F917F91C5
:103D60006F915F914F913F912F910F900FBE0F90E8
:103D70001F9018951F920F920FB60F9211242F9338
:103D80003F938F939F93AF93BF9380918B059091B7
:103D90008C05A0918D05B0918E0530918A0523E0A8
:103DA000230F2D3720F40196A11DB11D05C026E873
:103DB000230F0296A11DB11D20938A0580938B05C8
:103DC00090938C05A0938D05B0938E0580918F05FF
:103DD00090919005A0919105B09192050196A11D39
:103DE000B11D80938F0590939005A0939105B0939A
:103DF0009205BF91AF919F918F913F912F910F901D
:103E00000FBE0F901F9018952FB7F89460918B05F7
:103E100070918C0580918D0590918E052FBF08952E
:103E20003FB7F89480918F0590919005A0919105EE
:103E3000B091920526B5A89B05C02F3F19F00196B9
:103E4000A11DB11D3FBF6627782F892F9A2F620FC2
:103E5000711D811D911D42E0660F771F881F991FFC
:103E60004A95D1F70895CF92DF92EF92FF92CF93C8
:103E7000DF936B017C010E94101FEB01C114D10480
:103E8000E104F10479F00E94101F6C1B7D0B683E69
:103E90007340A0F381E0C81AD108E108F108C851C5
:103EA000DC4FECCFDF91CF91FF90EF90DF90CF9080
:103EB00008950197009739F0880F991F880F991F6F
:103EC00002970197F1F70895789484B5826084BDD4
:103ED00084B5816084BD85B5826085BD85B581600E
:103EE00085BDEEE6F0E0808181608083E1E8F0E06E
:103EF0001082808182608083808181608083E0E89D
:103F0000F0E0808181608083E1EBF0E0808184607B
:103F10008083E0EBF0E0808181608083EAE7F0E07D
:103F200080818460808380818260808380818160E1
:103F300080838081806880831092C10008958330DF
:103F400081F028F4813099F08230A1F00895863014
:103F5000A9F08730B9F08430D1F4809180008F7D52
:103F600003C0809180008F7780938000089584B58E
:103F70008F7702C084B58F7D84BD08958091B00095
:103F80008F7703C08091B0008F7D8093B00008953B
:103F9000CF93DF9390E0FC01E257FF4F2491FC01A7
:103FA000EE55FF4F8491882349F190E0880F991FC7
:103FB000FC01E653FF4FA591B49180549F4FFC0143
:103FC000C591D4919FB7611108C0F8948C91209548
:103FD00082238C93888182230AC0623051F4F89442
:103FE0008C91322F309583238C938881822B888308
:103FF00004C0F8948C91822B8C939FBFDF91CF915A
:104000000895A1E0B0E0E7E0F0E20C944C22282F04
:1040100030E0F901E658FF4F8491F901E257FF4F74
:104020001491F901EE55FF4F04910023C9F0882344
:1040300021F069830E949F1F6981E02FF0E0EE0F5D
:10404000FF1FE054FF4FA591B4919FB7F8948C9156
:10405000611103C01095812301C0812B8C939FBFF8
:104060002196E4E00C946822CF93DF93282F30E070
:10407000F901E658FF4F8491F901E257FF4FD491BF
:10408000F901EE55FF4FC491CC2391F081110E94AC
:104090009F1FEC2FF0E0EE0FFF1FEA54FF4FA5919A
:1040A000B4912C912D2381E090E021F480E002C0B6
:1040B00080E090E0DF91CF9108958E3008F08E502F
:1040C00087702091B90190E4299F90011124822BDF
:1040D00080937C0080917A00806480937A00809144
:1040E0007A0086FDFCCF809178002091790090E0E5
:1040F000922B0895A0E0B0E0E0E8F0E20C944822B2
:104100006C017A01EB01E60EF71E00E010E0CE151F
:10411000DF0561F06991D601ED91FC910190F0818C
:10412000E02DC6010995080F191FF1CFC801CDB7C1
:10413000DEB7E8E00C9464226115710589F0DB01BB
:104140000D900020E9F7AD0141505109461B570B76
:10415000DC01ED91FC910280F381E02D0995089539
:1041600080E090E008950E949C200895DC01ED918C
:10417000FC910190F081E02D099508950F931F9314
:10418000CF93DF93EC016DE00E94B6208C016AE0D2
:10419000CE010E94B620800F911FDF91CF911F9119
:1041A0000F9108950F931F93CF93DF93EC010E941B
:1041B0009C208C01CE010E94BE20800F911FDF91B8
:1041C000CF911F910F9108950F931F93CF93DF937A
:1041D000EC010E94B6208C01CE010E94BE20800F0F
:1041E000911FDF91CF911F910F910895A1E2B0E04F
:1041F000ECEFF0E20C9444227C01C42EE52FCB01BD
:10420000D22E19A221E02D1510F02AE0D22E8E0117
:104210000F5D1F4F8D2C912CA12CB12C6C2D7E2F5E
:10422000A50194010E94FD218C2DD29E801911249C
:10423000015011098A3010F4805D01C0895CF801D9
:104240008083211531054105510521F0C22EE32F50
:10425000CA01E4CFB801C7010E949C20A196ECE0FE
:104260000C946022A0E0B0E0E8E3F1E20C94482274
:10427000EC016A017B012115310541F4E881F981E6
:104280000190F081E02D642F09951DC02A30310581
:10429000A9F477FF12C06DE20E94B6208C0144277A
:1042A0005527BA014C195D096E097F092AE0CE0134
:1042B0000E94F620800F911F06C02AE0B701A601D8
:1042C000CE010E94F620CDB7DEB7E8E00C94642260
:1042D0000F931F93CF93DF93EC019A01AB016627F5
:1042E00057FD6095762F0E9432218C01CE010E94ED
:1042F000BE20800F911FDF91CF911F910F910895E4
:104300002115310549F4DC01ED91FC910190F0811A
:10431000E02D642F099508950E94F62008959A01D2
:10432000462F50E060E070E00E94802108959A01DD
:10433000AB0160E070E00E94802108950E94641F3C
:104340000E944517C0E0D0E00E94FD182097E1F3DD
:104350000E940000F9CFA29FB001B39FC001A39FAC
:10436000700D811D1124911DB29F700D811D1124AE
:10437000911D08950E94AB21A59F900DB49F900DB3
:10438000A49F800D911D11240895B7FF0C94BA21AC
:104390000E94BA21821B930B0895DB018F939F9398
:1043A0000E94BA21BF91AF91A29F800D911DA39F42
:1043B000900DB29F900D11240895991B79E004C0CF
:1043C000991F961708F0961B881F7A95C9F7809554
:1043D0000895AA1BBB1B51E107C0AA1FBB1FA6174C
:1043E000B70710F0A61BB70B881F991F5A95A9F79E
:1043F00080959095BC01CD010895A1E21A2EAA1BCB
:10440000BB1BFD010DC0AA1FBB1FEE1FFF1FA21784
:10441000B307E407F50720F0A21BB30BE40BF50B81
:10442000661F771F881F991F1A9469F7609570950A
:10443000809590959B01AC01BD01CF010895052E9B
:1044400097FB1EF400940E94362257FD07D00E946D
:10445000FD2107FC03D04EF40C9436225095409574
:10446000309521953F4F4F4F5F4F08959095809520
:10447000709561957F4F8F4F9F4F08952F923F9278
:104480004F925F926F927F928F929F92AF92BF9264
:10449000CF92DF92EF92FF920F931F93CF93DF9310
:1044A000CDB7DEB7CA1BDB0B0FB6F894DEBF0FBE6D
:1044B000CDBF09942A88398848885F846E847D84BA
:1044C0008C849B84AA84B984C884DF80EE80FD80BC
:1044D0000C811B81AA81B981CE0FD11D0FB6F89432
:1044E000DEBF0FBECDBFED010895EE0FFF1F05909B
:1044F000F491E02D0994FB01DC0102C001900D92C2
:1045000041505040D8F70895F999FECF92BD81BD32
:10451000F89A992780B50895262FF999FECF1FBAEA
:1045200092BD81BD20BD0FB6F894FA9AF99A0FBEDC
:0845300001960895F894FFCFF5
:1045380000009305200008409CFF0088130002003B
:104548000200020002000200020002000200020053
:104558000200020002000200020002000200200124
:10456800270121022B0322032604230426052406FF
:104578002506280629062A8025000005400AA120CC
:104588004EA50020244EA52C2330C01200001A404E
:104598000AA1204EA5001B1E27522C23308025007F
:1045A8000005400AA1204EA50020244EA52C23304A
:1045B800004B000006400AD0009D49007B289D4919
:1045C8002C233000E1000005400A4501D7DC03B880
:1045D8001E0EBF00232E48E801008A400A600155DC
:1045E8005502AD1E20000023C8017363616E6E651D
:1045F80072206D6F64650054582074696D656F751D
:1046080074210057616974696E672062696E640A73
:1046180000476F7420706B740A00646174612067CE
:104628006F6F640A004F70656E4C52536E6720526C
:10463800582028676974736C79292000206F6E20D0
:104648004857200053617665642062696E6420646F
:1046580061746120746F20454550524F4D0A0049DE
:1046680020616D20736C61766500456E74657269B2
:104678006E67206E6F726D616C206D6F64650045AA
:104688004550524F4D2064617461206E6F742076DE
:10469800616C6964206F722062696E64206A756D4E
:1046A800706572207365742C20666F7263696E671B
:1046B8002062696E640A0052582068616E6700B211
:1046C80000F4014C0300070B0C101115000A030E2F
:1046D800121300010400000000080001000010008F
:1046E800002000000001000002000000002B017AF9
:1046F80020A100D400FB0019019500B9006A01004F
:00000001FF
