:100000000C946B000C946F1E0C949C1E0C9493002B
:100010000C9493000C9493000C9493000C94930014
:100020000C9493000C9493000C9493000C94930004
:100030000C9493000C94A6120C9493000C949300CF
:100040000C94C91E0C9493000C9427030C946C031D
:100050000C9493000C9493000C9493000C949300D4
:100060000C94AB0D0C949300EA1BF31B041C041CB2
:10007000041C041CF81B041C081C000000070002E0
:10008000010000030406000000000000000001025F
:100090000408102040800102040810200102040816
:1000A00010200404040404040404020202020202F4
:1000B00003030303030300000000230026002900BC
:1000C00000000000250028002B0000000000240094
:1000D00027002A00261E11241FBECFEFD8E0DEBF66
:1000E000CDBF12E0A0E0B1E0E6E5F5E402C0059086
:1000F0000D92A83EB107D9F715E0A8EEB2E001C015
:100100001D92AB3AB107E1F710E0C6EDD0E004C0B4
:100110002297FE010E948622C43DD107C9F70E94A2
:10012000AD210C94A9220C940000FC01A289B38992
:100130009C9186892589822B809589238C93138EA7
:100140000895DC015B962C915B97222379F05796FA
:10015000ED91FC9158978081918122813381821B9E
:10016000930B268137818223932308958FEF9FEF8E
:100170000895DC015B962C915B97222391F05996B0
:10018000ED91FC915A978081918122813381821B6C
:10019000930B809590952681378182239323019636
:1001A00008958FEF9FEF0895DC015B962C915B978C
:1001B000222359F05796ED91FC9158972081318177
:1001C000828193812817390719F48FEF9FEF0895E3
:1001D00082819381A085B185A80FB91F8C9122815E
:1001E00033812F5F3F4F468157812423352333834B
:1001F000228390E00895DC015B962C915B9722238B
:1002000059F05796ED91FC91589720813181828168
:1002100093812817390719F48FEF9FEF0895828192
:1002200093810084F185E02DE80FF91F808190E033
:100230000895DC015796ED91FC9158972281338106
:10024000318320835996ED91FC915A978081918159
:10025000938382830895FC01838D8823C1F1A18D4E
:10026000B28D2D913C9111972F5F3F4F16968D9136
:100270009C91179728233923848D811108C01296E9
:100280008D919C91139728173907C9F308C01296CE
:100290008D919C9113972817390789F718C08D9174
:1002A0009C91119718960D90BC91A02DA80FB91F85
:1002B0006C93A18DB28D11963C932E93A289B38934
:1002C0008C919689892B8C9381E090E0089580E051
:1002D00090E00895A4E0B0E0E0E7F1E00C945B2248
:1002E0008C019A01AB01DC015B968C915B978823B2
:1002F00079F0ED91FC910484F585E02DC801298306
:100300003A834B835C8309955C814B813A812981D7
:10031000D8015996ED91FC915A971382128211825D
:1003200010825796ED91FC91589713821282118298
:10033000108281E05B968C935B971216130614066D
:10034000150694F55096ED91FC9151972115B1EE5B
:100350003B0741055105B1F181E090E0D801549689
:100360000C9002C0880F991F0A94E2F7808360E026
:1003700079E08DE390E00E942E222150310941095D
:100380005109CA01B90122E030E040E050E00E948A
:100390002E22D8011C96ED91FC911D9730831E965C
:1003A000ED91FC911F972083D8015296ED91FC911D
:1003B0005397808155969C91892B80832496E4E005
:1003C0000C947722108220E130E0E3CF8091410548
:1003D000813019F482E0809341058091410583309A
:1003E00019F484E0809341050895A8950895CF936A
:1003F000C1E0A1E0B0E02C2F30E0FD010C2E02C0E6
:10040000EE0FFF1F0A94E2F74E175F0710F0CF5F61
:10041000F2CF2150310941E050E0FA0102C0EE0F65
:10042000FF1F2A95E2F79F0121503109FC01378314
:10043000268371876087CF910895CF93DF93FC0166
:10044000962F9270862F817060FF20C0992331F023
:1004500080919B0480831092E80216C0A091E8026C
:10046000C0916C05C770D0E0CB56DD4F8881A817CE
:1004700010F080E03CC081E08A0F8093E802B0E099
:10048000A55BBB4F8C91808381E031C09923C1F083
:1004900090819093E9021092E802292F207E203665
:1004A00051F490919B04923020F390819F7190932E
:1004B000DD0493E01AC09E3F39F710929B0417C0E9
:1004C0009091E9029F3F01F79091E8029A3288F6F5
:1004D00021E0290F2093E8023081E92FF0E0EC5B66
:1004E000FA4F30832A3281F691E090939B04DF919A
:1004F000CF9108954F925F926F927F928F92AF92B9
:10050000CF92EF92FF920F931F93CF93DF93CDB7CC
:10051000DEB7FC011382128288EE482E83E0582E4B
:10052000612C712C448255826682778285ED92E03F
:10053000918380835587448737872687118B008B6B
:10054000F38AE28AC48AA58A868A2AE0629FC00169
:1005500011249C012C563A4F308F278B86579A4F87
:10056000928F818F81E090E0062E01C0880F0A945F
:10057000EAF790918905982B90938905DF91CF91A7
:100580001F910F91FF90EF90CF90AF908F907F9041
:100590006F905F904F900895EF92FF920F931F938B
:1005A000CF93DF93EC0179018F89988D0E94F70139
:1005B000A801B701898D9A8D0E94F701CDB7DEB7EA
:1005C000E6E00C94752220914205309143053827CE
:1005D00048E0C901880F991F37FF06C09C0151E20E
:1005E000252750E1352701C09C01415091F73093F8
:1005F00043052093420508958436910520F4BC01FB
:1006000080E090E017C09C018E3B910528F42A55AC
:100610003109AAE0B0E00CC0823D910528F4245BCA
:100620003109A4E6B0E004C02D5C3109A8E5B2E0D0
:100630000E94BA21A4E6B0E09B01AC010E94C9214E
:10064000089590E08C599F4F0E94FC0208951F92DC
:100650000F920FB60F9211242F933F934F938F93C6
:100660009F93EF93FF934091C600809194059091E2
:100670009505019620919A0530919B05822393233D
:1006800020919605309197058217930781F020916C
:10069000940530919505E0919C05F0919D05E20F40
:1006A000F31F4083909395058093940509C0809132
:1006B00098059091990501969093990580939805D6
:1006C000FF91EF919F918F914F913F912F910F90BB
:1006D0000FBE0F901F9018951F920F920FB60F929A
:1006E00011242F933F938F939F93EF93FF93209128
:1006F0008C0530918D0580918A0590918B05281786
:100700003907E9F080918C0590918D05E091920573
:10071000F0919305E80FF91F80818093C6008091C6
:100720008C0590918D050196209190053091910551
:100730008223932390938D0580938C0510C0209184
:100740008A0530918B0580918C0590918D05281735
:10075000390729F48091C1008F7D8093C100FF91FA
:10076000EF919F918F913F912F910F900FBE0F901E
:100770001F90189581E080936E0591E290936F052C
:10078000109270058093710582E08093720583E07A
:100790008093730584E08093740585E080937505EC
:1007A00086E08093760587E08093770586E28093E4
:1007B00078058093790584E280937A0585E28093B9
:1007C0007B05089560E08EE00E94D71F61E08FE016
:1007D0000E94D71F61E080E10E94D71F60E082E0A5
:1007E0000E94D71F61E084E00E94D71F089542E075
:1007F00050E066EE71E080E00E944F1E0895E3E055
:10080000F0E089E080935700E491E67081E0E63003
:1008100009F080E00895CF93DF93C82F0E94FF0373
:10082000882381F0DFB781E080932305F8940E944C
:10083000F50188E180936000C0936000C1110E94BF
:10084000F501DFBFDF91CF910895FC0140A5842F12
:10085000877090E0959587950196242F217030E060
:10086000820F931F880F880F08958F929F92AF92E7
:10087000BF92CF92DF92EF92FF921F93CF93DF93BD
:10088000EC0118A5E12FE770F0E0EB56FD4FA081D9
:10089000B0E017FF03C084E190E002C08FE090E079
:1008A000EFA123E1E29FF0011124E65AFE4F808080
:1008B0009180A280B380A80FB91F20E43FE14DE7EB
:1008C00050E00E94D421A50194010E940C22812FA6
:1008D000887349F469017A0160EDC60E67E0D61E9F
:1008E000E11CF11C21C089A590E017FF03C0A4E121
:1008F000B0E002C0AFE0B0E069017A0168EBC60E7B
:100900006BE0D61EE11CF11CA80FB91F20E43FE1EB
:100910004DE750E00E94D421A50194010E940C22D1
:10092000C20ED31EE41EF51EC701B60169517C4FED
:100930008F4F9F4F28EE33E040E050E00E940C22A2
:10094000A8EEB3E00E94C921DF91CF911F91FF90E3
:10095000EF90DF90CF90BF90AF909F908F900895D1
:10096000DB01FA01582F569590E02481237030E086
:10097000322F22274081240F311D11963C932E9354
:1009800044814C70218130E060E4469F200D311D90
:10099000112413963C932E93129744814073228125
:1009A00030E060E1469F200D311D112415963C93E7
:1009B0002E9314974481407C238130E064E0469F6D
:1009C000200D311D112417963C932E9316973596C2
:1009D00018969F5F591748F680FF47C0408142959F
:1009E0004695469543702DE431E0429FC001439FF8
:1009F000900D11240C9611969C938E93808190E01B
:100A000074E0969587957A95E1F783709927829F90
:100A1000A001839F500D929F500D1124445F5F4FA2
:100A200013965C934E931297808190E096958795EC
:100A30009695879583709927829FA001839F500D7B
:100A4000929F500D1124445F5F4F15965C934E9317
:100A5000149740814370429FC001439F900D112421
:100A60000C9617969C938E9316970895803223E0E8
:100A7000920708F1883E23E0920740F48F5193409B
:100A8000E4E096958795EA95E1F70895803D27E0A3
:100A9000920718F48C5D93400895883928E09207F6
:100AA00068F4885C974074E0969587957A95E1F7AD
:100AB0008D509C4F089580E090E008958FEF93E073
:100AC00008958C30910540F4A4E0880F991FAA95F1
:100AD000E1F7885D9C4F0895843F23E0920718F466
:100AE00084529C4F0895811524E0920740F4865764
:100AF000934FF4E0880F991FFA95E1F7089580E984
:100B000098E008959C013695279525753575821BCB
:100B1000930B9C01237333739695879596958795D0
:100B200083739373820F931F9C0154E0369527952E
:100B30005A95E1F7280F391F2F703F7041E051E0BF
:100B4000249FC001259F900D349F900D1124892F63
:100B500008954298882319F00000419A02C00000CD
:100B600041980000429A00000895429A000086B120
:100B70004298000081700895CF93DF93D82F5C9A3C
:100B800042985C98C8E08D2F80780E94A905DD0FFF
:100B9000C150C9F74298DF91CF9108958F770E9495
:100BA000BC050895CF93DF93D82FC8E08D2F8078B0
:100BB0000E94A905DD0FC150C9F74298DF91CF917E
:100BC0000895CF93DF934298C8E080E0D82FDD0FDF
:100BD0000E94B5058D0FC150C9F7DF91CF910895DF
:100BE0000E94CE050E94E1055C9A0895A1E0B0E064
:100BF000ECEFF5E00C945D22806869830E94BC05EF
:100C00006981862F0E94D2055C9A2196E2E00C94BD
:100C10007922CF93C0914D05C827E82FF0E0EC5B17
:100C2000FA4F678589E70E94F6056C2F8DE30E94D5
:100C3000F6056C2F82E40E94F605CF91089586E2B6
:100C40000E94F0050895CF938BE20E94F005C82F13
:100C50008CE20E94F005282F30E066E0369527955B
:100C60006A95E1F744E0C49FC0011124822B932BC5
:100C7000CF910895CF93DF93EC016C818CE10E94BA
:100C8000F6056D818DE10E94F6056E818EE10E9470
:100C9000F6056F8180E20E94F605688581E20E9478
:100CA000F605698582E20E94F6056A8583E20E9464
:100CB000F6056B8584E20E94F6056C8585E20E944C
:100CC000F6056D858AE20E94F6056E858EE60E9425
:100CD000F6056F858FE60E94F605688980E70E9419
:100CE000F605698981E70E94F6056A8982E70E9414
:100CF000F605DF91CF910895CF92DF92EF92FF92A8
:100D0000CF93DF936B017C01C11488E3D8068CE993
:100D1000E8068CE1F80628F5C701B60120E836E9B7
:100D200048E950E00E940C22E901689760E879E602
:100D300087E69FEF0E94DC216C0D7D1D8E1D9F1D9F
:100D4000F2E0660F771F881F991FFA95D1F721E708
:100D500032E040E050E00E940C22F22EE32E80E4CC
:100D600021C0C701B60120E03DE241E351E00E940D
:100D70000C22E901689760E073ED8EEC9EEF0E9413
:100D8000DC216C0D7D1D8E1D9F1D660F771F881F3A
:100D9000991F21E732E040E050E00E940C22F22E41
:100DA000E32E80E66C2F6F71680F85E70E94F605D1
:100DB0006E2D86E70E94F6056F2D87E70E94F605E7
:100DC000DF91CF91FF90EF90DF90CF9008958F92B9
:100DD0009F92AF92BF92CF92DF92EF92FF92CF930A
:100DE000DF93D82F83E00E94F0058093220584E0F2
:100DF0000E94F0058093210560E086E00E94F605E0
:100E000061E087E00E94F6056FE789E00E94F60541
:100E100065E08AE00E94F60562E18BE00E94F6053B
:100E200065E18CE00E94F6056DEF8DE00E94F6050D
:100E300060E08EE00E94F605DD2319F087E491E082
:100E400008C020916B0533E1239FC0011124865A0D
:100E50009E4F0E943A066CE880E30E94F6056FE020
:100E600082E30E94F60562E483E30E94F605809126
:100E70006C0587FF02C064E101C06AE084E30E9460
:100E8000F6056AE285E30E94F6056DE286E30E94BC
:100E9000F60564ED87E30E94F60560E088E30E94B2
:100EA000F60560E089E30E94F605D11109C0C09003
:100EB0004D05D0904E05E0904F05F090500507C0CD
:100EC000C5E9CC2EC1ECDC2EED2CCEEDFC2ECAE318
:100ED0008F2C9924AA24BB24682D8C2F0E94F60500
:100EE000682D85E08C0F0E94F605FE2CED2CDC2C85
:100EF000CC24CF5FCE3361F76FEF83E40E94F60519
:100F00006FEF84E40E94F6056FEF85E40E94F6051A
:100F10006FEF86E40E94F605DD2311F066E002C063
:100F2000609151058DE60E94F60560E089E70E9418
:100F3000F605609152058AE70E94F60560E083E7B6
:100F40000E94F60560E084E70E94F605D11109C011
:100F50006091490570914A0580914B0590914C052F
:100F600004C060EC72E98DEE99E10E947C06DF918D
:100F7000CF91FF90EF90DF90CF90BF90AF909F9078
:100F80008F90089561E087E00E94F60564E28EE7A5
:100F90000E94F60563E088E00E94F60560E088E0C4
:100FA0000E94F60565E087E00E94F60562E085E0B4
:100FB0000E94F60583E00E94F0058093220584E0FC
:100FC0000E94F00580932105089583E00E94F005BA
:100FD0008093220584E00E94F0058093210561E062
:100FE00087E00E94F6056AE070E080E090E00E94F1
:100FF000421F0E94C20700000895A2E2B0E0E3E0B1
:10100000F8E00C944D229E012F5F3F4F80E1D90103
:101010001D928A95E9F76AEB71E084E295E029A3D5
:101020003AA30E94E1200E94E5071D8A1E8A1F8ABA
:10103000188E312C212C00E0812C912C540180E45D
:10104000482E81EE582E8DE9682E88E1782E90E5A5
:10105000C92E93ECD92EE12CF12C84EF91E0A0E085
:10106000B0E08D8F9E8FAF8FB8A380EC91EDA8E993
:10107000BBE1898F9A8FAB8FBC8F80E491EEADE995
:10108000B8E1898B9A8BAB8BBC8B84E295E00E9494
:10109000A100892B09F4E1C084E295E00E94D4000C
:1010A0009C0133272C32310509F442C0ACF42332C1
:1010B000310509F0ABC019821A821B821C821D8285
:1010C0001E821F82188619861A861B861C861D861C
:1010D0001E861F86188A60C02434310529F0233506
:1010E000310509F4B2C092C064E484E295E00E9444
:1010F000C5202AE030E040E451EE6DE978E184E279
:1011000095E00E9441216CE284E295E00E94C520B6
:101110002AE030E040EC51ED68E97BE184E295E0C3
:101120000E9441216CE284E295E00E94F320ADCF61
:101130000F5F043009F0A9CF29813A814B815C818E
:10114000A8EEB3E00E94C921698B7A8B8B8B9C8BB4
:101150002D813E814F8158850E94C921698F7A8FE8
:101160008B8F9C8F29853A854B855C852D8F3E8F93
:101170004F8F58A32D853E854F8558890E94C921E0
:101180006B017C0160323EE473078105910530F408
:1011900062E38CE10E94F60500E077CF603345E71B
:1011A00074078105910510F462E2F3CF60345CE9C5
:1011B00075078105910510F466E2EBCF80E5C8164E
:1011C00083ECD806E104F10410F462E1E2CF90E68A
:1011D000C9169AEED906E104F10410F465E1D9CFFD
:1011E000A0E7CA16A1E1DA06A1E0EA06F10410F4CC
:1011F00061E0CFCFB0EACB16B6E8DB06B1E0EB0694
:10120000F10410F463E0C5CF65E0C3CF10ED180F13
:101210001A3008F03ACFE1E0F0E0EC0FFD1F24E0D7
:10122000029FE00DF11D1124208131814281538103
:10123000AAE0B0E00E94C921610F711D811D911DBE
:10124000608371838283938320CF49885A886B8817
:101250007C88812C912C540118CF81149104A10415
:10126000B10489F4C301B2010E947C0661E070E020
:1012700080E090E00E94421F1D8A1E8A1F8A188EFD
:10128000312C22242A948D8D9E8DAF8DB8A1881685
:101290009906AA06BB06D0F40E941F062D893E8936
:1012A0004F89588D280F311D411D511D2D8B3E8BAF
:1012B0004F8B588F381608F4382E821508F4282ED4
:1012C0003FEF831A930AA30AB30A56C0C301B201BF
:1012D00028EE33E040E050E00E940C22BA01A90160
:1012E0002AE030E084E295E00E948F216CE284E203
:1012F00095E00E94C5204AE050E0632D84E295E02D
:101300000E949E216CE284E295E00E94C5206D89D6
:101310007E898F89988DA50194010E940C22BA01C3
:10132000A9012AE030E084E295E00E948F216CE27E
:1013300084E295E00E94C5204AE050E0622D84E2FC
:1013400095E00E949E216CE284E295E00E94F320E9
:101350004C0C5D1C6E1C7F1C898D9A8DAB8DBC8DD9
:1013600084159505A605B70520F449885A886B8829
:101370007C88812C912C540129893A894B895C897C
:10138000283E33404105510509F07FCEA296E2E1A7
:101390000C946922CF92DF92FF920F931F93CF9309
:1013A000DF931F92CDB7DEB7082F162F8EE39983F8
:1013B0000E94F605F02EC02E9981D92E8C2D8F1902
:1013C000811738F4F60161916F018FE70E94F605ED
:1013D000F5CF64E085E00E94F60583E00E94F00509
:1013E0008093220584E00E94F005809321050E94ED
:1013F0001F1F60931D0570931E0580931F0590931A
:10140000200569E087E00E94F60581E080934105B0
:101410000F90DF91CF911F910F91FF90DF90CF90B0
:1014200008950F931F930E94CA098091410581304E
:1014300099F40E941F1F00911D0510911E05209117
:101440001F0530912005601B710B820B930B603AD6
:1014500076488140910548F380914105813031F40F
:1014600067EC71E084E295E00E94E1201F910F910A
:1014700008950F931F9380914105823021F41092BB
:10148000410581E020C0809141058130D9F40E945E
:101490001F1F00911D0510911E0520911F05309101
:1014A0002005601B710B820B930B613A76488140DB
:1014B000910540F061E087E00E94F6051092410539
:1014C00082E001C080E01F910F910895EF92FF929A
:1014D0000F931F93CF93DF938B019C01442737FD1C
:1014E0004095542F60E271EA87E090E00E942E223E
:1014F000E9011C161D0614F0C1E0D0E0D80120E27D
:1015000031EA47E050E00E94D4219E01442737FD94
:101510004095542F0E942E22790100E010E00E1514
:101520001F055CF4419ACE010E94681F4198CE01CC
:101530000E94681F0F5F1F4FF2CFCDB7DEB7E6E006
:101540000C947522CF93DF932D9A60917E05709154
:101550007F0580918005909181050E947C0660E066
:1015600089E70E94F60561E070E080E090E00E946B
:10157000421F0E941F06C82F61E070E080E090E0EB
:101580000E94421F0E941F06D0E0C80FD11D61E0DB
:1015900070E080E090E00E94421F0E941F06C80F8A
:1015A000D11D61E070E080E090E00E94421F0E9447
:1015B0001F062D989E01280F311DC901969587950C
:1015C00096958795DF91CF910895CF93C82F2D9A47
:1015D00083E00E94F0058093220584E00E94F005DC
:1015E0008093210560E086E00E94F60561E087E0D7
:1015F0000E94F6056FE789E00E94F60565E08AE043
:101600000E94F60562E18BE00E94F60565E18CE040
:101610000E94F6056DEF8DE00E94F60560E08EE019
:101620000E94F6056CE280E70E94F60560E080E328
:101630000E94F60560E089E70E94F60565E08AE70A
:101640000E94F60562E181E70E94F60562E082E70A
:101650000E94F60560E083E70E94F60560E084E7FB
:101660000E94F60560917E0570917F05809180054E
:10167000909181050E947C0667E08DE60E94F60548
:101680006AE070E080E090E00E94421F69E087E03D
:101690000E94F6056AE070E080E090E00E94421F40
:1016A000CC2369F0C5E1C15009F459C061E070E094
:1016B00088EB91E00E94660A0E94F501F4CF61E098
:1016C00070E088E891E00E94660A0E94F50165E0FA
:1016D0008DE60E94F6056AE070E080E090E00E94EE
:1016E000421F61E070E088EB91E00E94660A0E9470
:1016F000F50164E08DE60E94F6056AE070E080E0A6
:1017000090E00E94421F61E070E08DE591E00E9450
:10171000660A0E94F50162E08DE60E94F6056AE025
:1017200070E080E090E00E94421F61E070E08FEA8C
:1017300090E00E94660A0E94F50160E08DE60E943A
:10174000F6056AE070E080E090E00E94421F62E0EF
:1017500070E085E091E00E94660A0E94F50161E078
:1017600087E00E94F6052D98CF910895CF93DF93DF
:10177000EC014AE050E06D2F70E084E295E00E94B9
:10178000A6216EE284E295E00E94C520BE0134E00D
:10179000769567953A95E1F76F7077274AE050E0C4
:1017A00084E295E00E94A6216EE284E295E00E9428
:1017B000C520BE016F7077274AE050E084E295E0D3
:1017C0000E94A621DF91CF910895D82FC0E0CD17B8
:1017D00080F4439A64E670E080E090E00E94421F4B
:1017E000439864E670E080E090E00E94421FCF5F83
:1017F000EECF6CE271E080E090E00E94421FE6CF05
:101800000F931F93CF93DF93EC01062F15E0115038
:1018100051F0CE010E949322081741F0602FCE01B3
:101820000E949B22F4CF82E00E94E50BDF91CF91D2
:101830001F910F910895A0E0B0E0E1E2FCE00C946C
:101840004F22482E562EC0E0D0E0612C712CE12CA6
:10185000F12C00E010E0442079F081E04816A1F07E
:1018600092E0491219C059E4652E712C60E2E62E0F
:10187000F12C0EE914E010C0612C712CFBE1EF2E6D
:10188000F12C0EE615E008C07DE1672E712CEAE22E
:10189000EE2EF12C04E415E043018C0E9D1E1092F7
:1018A0004305109242053401A62CA818B12CC3019F
:1018B00001966C01AE14BF04A8F4A00EB11E511025
:1018C00006C0C3010E949322F501808305C0F50183
:1018D0006081C3010E94000CF50180810E94E30237
:1018E0003601E2CFC301511018C0C3010E949322F8
:1018F000B82EC6010E9493222B2D30E0322F2227D2
:10190000282B80914205909143058217930779F423
:10191000C0E0D0E0552453949ECF3601609143053A
:101920000E94000C60914205C6010E94000CD395F4
:10193000C13093E0D90708F48ECF852DCDB7DEB73F
:10194000E0E10C946B2260E081E00E941B0C882394
:1019500031F081E090914405983309F080E00895DA
:1019600061E081E00E941B0C089561E082E00E942A
:101970001B0C089560E082E00E941B0C811108C0DE
:10198000EEE9F4E01192119284E0EE3BF807D1F712
:101990000895A1E0B0E0EFECFCE00C945D228983B7
:1019A0000E94BA0392E090937C059FEF90937D058F
:1019B0009AE0909386051092870510928805109200
:1019C0007E0510927F0510928005109281052EE110
:1019D000209382059093830528EB3BE030938505A7
:1019E000209384058981882371F061E080E00E9462
:1019F0001B0CEEE9F4E01192119284E0EE3BF80743
:101A0000D1F70E94B50C2196E2E00C94792260E0B7
:101A100080E00E941B0C811103C081E00E94C90C70
:101A20000895CF93DF939EEF90930C0599E09093E8
:101A30000D0590910B0551E0590F50930B059093B4
:101A40000E0593E390930F0594E49093100596EAA6
:101A500090931105309313052093120510921505EC
:101A6000109214058093180540931605609317058E
:101A70001092190510921A0585E180931B05EDE07F
:101A8000F5E08FEF9FEF4191482750E1459F90018E
:101A90001124242730E0522F4427B901B3E0660F08
:101AA000771FBA95E1F746275727892F992784276B
:101AB0009527D4E035952795DA95E1F78227932786
:101AC00025E0EC31F207F9F680931B0590931C0595
:101AD00084E295E00E94B900419764F0CCE0D5E043
:101AE00055E0CD31D50731F0699184E295E00E944F
:101AF0002B01F6CFDF91CF910895CF93C1E08111F3
:101B000001C0C0E06C2F82E10E9410206C2F83E1A5
:101B10000E94102010920505109204058091B900D2
:101B20008C6F8093B90080E28093B80085E4809345
:101B3000BC00CF91089585ED8093BC008091BC00DE
:101B400084FDFCCF0895ECEBF0E0108285E4808307
:101B50001092040508951F920F920FB60F92112450
:101B60002F933F934F935F936F937F938F939F93A5
:101B7000AF93BF93EF93FF93CF93DF931F92CDB7B4
:101B8000DEB78091B900887F803609F4C7C0A8F518
:101B9000883209F464C098F4803109F45DC038F4E7
:101BA000882309F4F3C0883009F456C0F1C08831A5
:101BB00009F455C0803209F0EBC082E0A7C0803440
:101BC00009F477C078F4803309F45FC0883309F0F2
:101BD000DFC084E080930305809104058B7F8093B0
:101BE0000405D0C0803509F452C0883509F467C0B7
:101BF000883409F0CDC085E089C0883909F4C0C0B7
:101C0000A8F4883709F48AC038F4883609F486C005
:101C1000803709F483C0BCC0883809F4B1C080396A
:101C200009F47FC0803809F0B3C07BC0803B09F461
:101C300093C038F4803A09F48CC0883A09F48CC017
:101C4000A7C0803C09F49EC0883C09F49BC0883B37
:101C500009F09EC080E081C08091080513C080918A
:101C600005059FEF980F909305058823D1F1E0912A
:101C70000605F0910705CF01019690930705809323
:101C8000060580818093BB007DC083E03FC0E0916A
:101C90000605F0910705CF01019690930705809303
:101CA00006058091BB00808380910505815080935B
:101CB000050580910505823008F064C061C0E0919F
:101CC0000605F0910705CF010196909307058093D3
:101CD00006058091BB00808380910505815080932B
:101CE0000505809104058B7F809304058091040590
:101CF00080FF4CC0809104058E7F80930405809105
:101D0000040582608093040584EA3DC08093030546
:101D1000809104058B7F8093040538C010920505DF
:101D200031C0E0910905F0910A05309749F18091A1
:101D3000BB0089838091050591E0980F909305057C
:101D4000811102C062E001C060E0CE0101960995F8
:101D500015C00E949B0D16C081E0E0910905F0912D
:101D60000A05309769F0882311F063E001C061E053
:101D7000CE010196099599819093BB00811102C013
:101D800085E801C085EC8093BC0002C00E949B0DD9
:101D90000F90DF91CF91FF91EF91BF91AF919F9104
:101DA0008F917F916F915F914F913F912F910F9004
:101DB0000FBE0F901F9018958F929F92AF92BF9277
:101DC000CF92DF92EF92FF92CF93DF93EC010E94CC
:101DD0001F1F6B017C014E01A12CB12C80910405C9
:101DE00082FF11C02097D1F30E941F1F6C197D093B
:101DF0008E099F0986169706A806B90678F70E94ED
:101E0000A30D81E004C08091030510920305DF91CA
:101E1000CF91FF90EF90DF90CF90BF90AF909F90C9
:101E20008F900895A2E0B0E0E8E1FFE00C94592221
:101E3000182F7B01022F047022FD05C080910B0139
:101E400090910C0102C080E090E02A8349830E94B7
:101E5000DC0E2A814981811136C01092030540931E
:101E60000505F0920705E0920605110F109308058D
:101E70009091040521FF02C085E001C084E0892B18
:101E8000809304058091040581FF0BC080910405B7
:101E90008D7F80930405809108058093BB0085ECBD
:101EA00001C085EE8093BC00822F817020FF0BC0A3
:101EB000011105C080910B0190910C0102C080E0DE
:101EC00090E00E94DC0E2296E6E00C947522A2E0DF
:101ED000B0E0EDE6FFE00C945922182F7B01022FB1
:101EE000047022FD05C080910B0190910C0102C08D
:101EF00080E090E02A8349830E94DC0E2A81498198
:101F0000811138C01092030540930505F092070532
:101F1000E0920605812F880F8160809308059091DB
:101F2000040521FF02C085E001C084E0892B809375
:101F300004058091040581FF0BC0809104058D7F0D
:101F400080930405809108058093BB0085EC01C057
:101F500085EE8093BC00822F817020FF0BC00111A1
:101F600005C080910B0190910C0102C080E090E0CF
:101F70000E94DC0E2296E6E00C947522A0E0B0E010
:101F8000E4ECFFE00C9457220E941F1F0091FF0415
:101F90001091000520910105309102056B017C0133
:101FA000C01AD10AE20AF30A9701860141E1C41678
:101FB00047E2D406E104F104D0F12091FE0431E0BF
:101FC000320F3093FE0420FF02C017E001C010E082
:101FD0006093FF04709300058093010590930205C0
:101FE00063E084E295E00E942B0161E084E295E0E9
:101FF0000E942B0107E0010FC12FD0E0CC0FDD1FA5
:10200000C35FDE4F88819981692F6370812F880FAC
:10201000880F682B84E295E00E942B01688179810A
:1020200084E295E00E942B011F5F1013E5CFCDB72E
:10203000DEB7E8E00C947322A0E0B0E0E2E2F0E169
:102040000C945722D82FC62F0E941F1F0091FF0407
:102050001091000520910105309102056B017C0172
:10206000C01AD10AE20AF30A9701860141E1C416B7
:1020700047E2D406E104F10408F4CAC16093FF0406
:1020800070930005809301059093020580910D01E6
:1020900090910E01880F991F8093E704892F877014
:1020A0002091E804287F282B2093E80480910F01D9
:1020B00090911001880F991F382F330F330F330F72
:1020C0002770232B2093E804282F2295269527702C
:1020D0008091E904807C9770990F990F990F822B5A
:1020E000892B8093E9042091110130911201220F74
:1020F000331F922F9295990F990F907C8F73892B94
:102100008093E904932F9295990F990F907C822FD9
:1021100086958695892B8093EA0432FB882780F97F
:102120002091EB042E7F282B2093EB048091130148
:1021300090911401880F991F382F330F2170232B92
:102140002093EB04382F331F3327331F2091EC04E7
:10215000207F892F8770880F232B282B2093EC0456
:102160008091150190911601880F991F382F329593
:10217000307F2F70232B2093EC04382F32953F7043
:102180002091ED042078892F87708295807F232B02
:10219000282B2093ED048091170190911801880F4E
:1021A000991F2F772093ED04292F27952227279514
:1021B0008695822B8093EE04892F869583702091DB
:1021C000EF042C7F282B2093EF048091190190912C
:1021D0001A01880F991F382F330F330F2370232BC9
:1021E0002093EF04382F3295369536953370209131
:1021F000F004207E892F8770880F880F232B282BCF
:102200002093F00480911B0190911C01880F991F6D
:10221000382F3295330F307E2F71232B2093F0040B
:102220009295990F907E869586958695892B8093B9
:10223000F10480911D0190911E01880F991F8093D8
:10224000F204892F87702091F304287F282B209394
:10225000F30480911F0190912001880F991F382F5E
:10226000330F330F330F2770232B2093F304282FC2
:102270002295269527708091F404807C9770990FA1
:10228000990F990F822B892B8093F40420912101BF
:1022900030912201220F331F922F9295990F990F9F
:1022A000907C8F73892B8093F404932F9295990FD0
:1022B000990F907C822F86958695892B8093F504C3
:1022C00032FB882780F92091F6042E7F282B20935B
:1022D000F6048091230190912401880F991F382FD3
:1022E000330F2170232B2093F604382F331F33270D
:1022F000331F2091F704207F892F8770880F232BAD
:10230000282B2093F7048091250190912601880FB6
:10231000991F382F3295307F2F70232B2093F7048D
:10232000382F32953F702091F8042078892F8770DC
:102330008295807F232B282B2093F80480912701FE
:1023400090912801880F991F2F772093F804292F47
:102350002795222727958695822B8093F9049695B9
:1023600093708091FA048C7F892B8093FA042091DA
:10237000290130912A01220F331F922F990F990FB3
:102380008370892B8093FA042295269526952370D5
:102390008091FB04807E932F9770990F990F822B69
:1023A000892B8093FB0420912B0130912C01220F6B
:1023B000331F922F9295990F907E8F71892B809366
:1023C000FB04832F8295880F807E2695269526957F
:1023D000282B2093FC04DD2311F088E001C080E06D
:1023E000CC2311F094E001C090E0892B8093FD0490
:1023F0006FE084E295E00E942B01C7EED4E0699182
:1024000084E295E00E942B0184E0CE3FD807B9F723
:10241000CDB7DEB7E8E00C947322CF93C82F682FB6
:1024200084E295E00E942B018C2F0E94E302CF9161
:102430000895A0E0B0E0EFE1F2E10C945722C82F3C
:102440000E941F1F0091FF041091000520910105BB
:10245000309102056B017C01C01AD10AE20AF30A2D
:102460009701860141E1C41647E2D406E104F10474
:1024700008F442C06093FF04709300058093010547
:1024800090930205109243051092420588EA0E943B
:102490000D12CC2311F081E801C081E00E940D12E1
:1024A00080E10E940D1200E010E0F801EE0FFF1F26
:1024B000E35FFE4F808191810E946105EC0163E042
:1024C000CC0FDD1F6A95E1F78D2F0E940D128C2F26
:1024D0000E940D120F5F1F4F0031110531F7C0919F
:1024E00042056091430584E295E00E942B016C2F28
:1024F00084E295E00E942B01CDB7DEB7E8E00C94B2
:10250000732225B190E0FC01EE0FFF1FE80FF91FC9
:10251000EB59FB4F8081282B25B988B19181892BFC
:1025200088B98BB19281892B8BB9089585B190912F
:102530006204892385B988B190916304892388B99D
:102540008BB19091640489238BB908951F920F92E7
:102550000FB60F9211242F933F934F935F936F9376
:102560007F938F939F93AF93BF93CF93EF93FF93FB
:10257000C091C10480910601C81708F03EC0809147
:102580006004909161049093870080938600EC2F03
:10259000F0E0EE0FFF1FE35FFE4F808191810E940C
:1025A0006105880F991F9093610480936004809166
:1025B0006004909161042091070130910801281B6B
:1025C000390B309308012093070180918405909185
:1025D0008505880F991F2817390720F49093080163
:1025E000809307018091BF04811142C080917C05D6
:1025F00080FF41C0C830E0F53EC0809160049091FA
:1026000061049093870080938600809107019091E8
:10261000080190936104809360048091BF04882333
:1026200019F08FEF9FEF06C08091600490916104D4
:1026300088559240909389008093880080E49CE9BB
:102640009093080180930701809184009091850008
:102650008097D0F30E9496128091C004811105C02A
:102660008091060181500E9481121092C10427C0FE
:102670008FEF9FEF06C080916004909161048855B0
:10268000924090938900809388008091840090917B
:1026900085008097D0F30E9496128091C00481112A
:1026A00004C08091C104811106C08091C1048F5F74
:1026B0008093C10404C081500E948112F6CFFF9123
:1026C000EF91CF91BF91AF919F918F917F916F913A
:1026D0005F914F913F912F910F900FBE0F901F90E0
:1026E000189524E0829FC00111248C30910538F0A8
:1026F000853F23E0920728F084EF93E008958CE073
:1027000090E00895CF93DF93C0917D05C03390F49E
:102710008C2F807339F0803141F48091C20482950E
:10272000807F05C08091C70402C08091C804CF702B
:10273000D0E015C0CF33E0F4CF70D0E08091C20478
:102740008295807F0E947113DE01AA0FBB1FA35FD9
:10275000BE4F11969C938E9321968091C8040E943F
:102760007113FE01EE0FFF1FE35FFE4F9183808325
:10277000DF91CF9108958091C3049091C4049F7715
:102780000E9482058093C2048F3029F48091C8048E
:102790008695805804C099E0899F802D11248093EC
:1027A000C704F8940E948213789480916F05813257
:1027B000E1F48091C7049FEF980F9E3F78F08091DD
:1027C000B0008F7D8093B00061E08091C7048111DB
:1027D00001C060E083E00E94102008958093B4005F
:1027E0008091B00080628093B0000895FF920F93B3
:1027F0001F93CF93DF930FE615E0C0E0D0E0B3E086
:10280000FB2E8C2FD801ED918D019E2F907F903162
:10281000F1F4EF70F0E0EE0FFF1FE35FFE4F208159
:1028200031816F2D0E94EC21E92FF0E0EE0FFF1FA8
:10283000E157FD4F61E0808191818217930708F095
:1028400060E0FE01E356FD4F80810E94102021963A
:10285000CD30D105B1F6CDB7DEB7E5E00C947622E8
:102860000F931F93CF93DF930EE914E0C0E0D0E005
:1028700020917D05822F8F7090E0C817D907E9F06D
:102880000196C817D90711F42033B8F4F8018081F4
:1028900091819F70892B79F0F894F8018081918162
:1028A0009F700E943605FE01EE0FFF1FE35FFE4F93
:1028B0009183808378940E94F61321960E5F1F4FB8
:1028C000C031D105A9F6DF91CF911F910F910895E5
:1028D000FF920F931F93CF93DF9384E495E00E94C0
:1028E00025048093060190917D05292F2F702813D0
:1028F00004C081E0820F8093060190539F3060F402
:102900004091060130E0842F90E0019728173907A5
:1029100019F44F5F4093060180910601813118F050
:1029200080E180930601E7E6F4E0DF0112971C9254
:10293000DF0111971C921082339684E0EE38F8077D
:10294000A1F74FEF3FEFACEAB2E00FE615E02FEF53
:10295000E80189918E018031F8F490E0FD01329711
:102960006081FC01EE0FFF1FE80FF91FEB59FB4FD1
:102970008081862B8083CD010197EC015881818174
:10298000852B81839C918281892B828360955095D0
:1029900090952923352346231396D5E00C371D0740
:1029A000B9F6409362043093630420936404CDE944
:1029B000D2E00FE615E0F12CF80181918F0182320F
:1029C00030F08632B8F0863211F460E010C0FBE0DF
:1029D000FF1204C08091C1008F7E06C08CE0F81207
:1029E00005C08091C100877F8093C10061E088812C
:1029F0000E94D71FF3942196EDE0FE12DDCF809167
:102A00007405803231F461E089E00E94102082E890
:102A100001C082E08093800081E08093C0048093B5
:102A2000BF0480916F05813211F08732D9F461E0E3
:102A300083E00E94D71F60E083E00E941020809115
:102A40006F05813231F481E08093B0008093B10052
:102A500009C082E08093B00085E08093B1008EE3EE
:102A60008093B3008AE1809381008FEF9FEF909372
:102A700089008093880080ED97E090938700809391
:102A8000860080E49CE9909308018093070190936D
:102A90006104809360041092C10480916F00816092
:102AA00080936F0080917C0583FF0DC080919E0410
:102AB00090919F049F70892B31F00E9430141092E6
:102AC000BF041092C004CDB7DEB7E5E00C947622C7
:102AD000CF93C82F809177058B3221F46C2F8CE037
:102AE0000E94102080916F05873249F48091B000D8
:102AF000CC2311F0806101C08F7E8093B000CF9114
:102B00000895A2E2B0E0E7E8F5E10C944D226B01F4
:102B10007C010E94131F4B015C0181E00E94E706CB
:102B200083E0809341050E94E50763ED71E084E254
:102B300095E00E94E1207BE1272EE0E53E2EF7E4C0
:102B40007F2EA6E44A2EB5E55B2EC114D104E10424
:102B5000F10469F00E94131F681979098A099B0919
:102B60006C157D058E059F0510F080E0D4C0809126
:102B70004105843051F761EE71E084E295E00E94F6
:102B8000E1208FE70E94CE050E94E1058AA38236EC
:102B900001F504E415E00E94E105D8018D938D0153
:102BA000B5E00E361B07B9F780914405883309F06C
:102BB000ACC06AEE71E084E295E00E94E12082E41C
:102BC0008AA361E0CE0182960E94110A2D9A81E0CB
:102BD000A2C0803741F0893611F581E00E94C90C0E
:102BE00089E4898304C03982C12CD12C760190916B
:102BF000230580917C05992311F0806801C08F77AF
:102C000080937C05EEE6F5E0DE011296822D0190C0
:102C10000D928A95E1F76CE1CE01019674C084377C
:102C2000D9F4E4E5E98383E08A8385E88B838DE04A
:102C30008C838D838AE1EDE2F1E0DE01169601904E
:102C40000D928A95E1F76FE1CE0101960E94110A7B
:102C5000C12CD12C760159C0853789F40EE615E0D8
:102C60000E94E105D8018D938D01B5E009381B075D
:102C7000B9F761E080E00E941B0C5AA241C0863681
:102C8000B9F44982EEE9F4E0AE014D5F5F4F208177
:102C900031813296CA010197DC013C93DA012C9311
:102CA0004E5F5F4FB4E0EE3BFB0789F761E2B4CFC4
:102CB0008736C9F40EE914E00E94E105682E0E94EF
:102CC000E105262D30E0322F2227280F311DF80193
:102CD000219331938F01F4E00E3B1F0769F77AA22D
:102CE0000E94B50C0DC0873481F4EEE9F4E0119236
:102CF000119284E0EE3BF807D1F70E94B50C7AA25E
:102D000061E0CE0182960E94110A83E08093410522
:102D10000E94C2071ACFA296E2E10C9469221F9387
:102D2000CF93DF93C82FD62F61E00E94D71F61E0B9
:102D30008C2F0E94102061E08D2F0E9410208AE0CD
:102D400090E00E94681F8D2F0E944320892B71F014
:102D500060E08C2F0E9410208AE090E00E94681FA3
:102D60008D2F0E94432011E0892B09F010E060E0D4
:102D70008C2F0E94D71F60E08C2F0E94102060E0F3
:102D80008D2F0E941020812FDF91CF911F910895E8
:102D900080E48093BA001092BD008DE192E09093A0
:102DA0000A058093090510929B0415E004E0C2E037
:102DB000FC2E80919B04813039F480E00E94E7066C
:102DC000F0929B044398F5CFC0919B04C33061F40B
:102DD0002D988091DD040E940906C09341050E9450
:102DE000C20700939B04E5CF80919B04843009F7D0
:102DF000809141058430E9F68FE70E94CE05CBE44F
:102E0000D4E0E0916C05E770F0E0EB56FD4F808177
:102E100090E09E012B5434402817390724F40E9477
:102E2000E1058993EECF10939B042D9AC2CFABE2BC
:102E3000B0E0EDE1F7E10C945C221FEF19838AE228
:102E4000E4E4F5E0DE01129601900D928A95E1F737
:102E500021E04BE2BE016F5F7F4F80E20E94120FC4
:102E600081110EC021E041E0BE016F5F7F4F80E223
:102E70000E94670F811104C082E080939B0402C00E
:102E800010939B0480919B04823051F00E94131F89
:102E900060939704709398048093990490939A0494
:102EA000AB96E3E00C947822A1E0B0E0EAE5F7E12C
:102EB0000C945B2280E00E940B0461E08DE00E9494
:102EC000D71F61E081E10E94D71F0E94E20360E00A
:102ED00080E00E94D71F61E081E00E94D71F00E4DC
:102EE00010E02BEE32E040E051E06BE273E084E270
:102EF00095E00E94CC0240E052EC61E070E084E298
:102F000095E00E946A010E94070D0E94BA0C65EFCD
:102F100071E084E295E00E94C22085E893E00E947F
:102F2000B60B6CE072E084E295E00E94C2204AE0B9
:102F300050E063E070E084E295E00E9477210E9417
:102F4000F7037894439A67E086E00E948F168823FF
:102F500029F043982D980E94FD07FBCF65E083E0A0
:102F60000E948F16811104C00E94A30C811119C008
:102F70006FE472E084E295E00E94C22060E070E0BD
:102F8000CB010E948115882349F00E94B00C64E1B6
:102F900072E084E295E00E94E1202D9A0E9468147C
:102FA00010C00E94681480917805823209F0C5C073
:102FB00080917905833209F0C0C080917C0581FD44
:102FC000C2C080917805823231F5809179058332D3
:102FD00011F581E00E947D0D80917C0582FF08C083
:102FE0006FE272E084E295E00E94E1200E94C81640
:102FF00064E170E080E090E00E94421F21E041E047
:10300000BE016F5F7F4F80E20E94670F811103C096
:1030100081E080939B046AE372E084E295E00E9481
:10302000C2208FE00E940B0480E00E94E70610920D
:10303000DD0480E00E94090680E0883170F0809312
:10304000EA0283E0809341050E94E50780919B049A
:10305000882371F00E9417170BC021E0280FE82F7A
:10306000F0E0EC5BFA4F9785992349F3822FE5CF87
:1030700080917B05982F9D7F983229F440E052EC97
:1030800061E070E027C0893271F440EA56E861E0FF
:1030900070E084E295E00E946A018091C200806243
:1030A0008093C2001BC080916C058873803129F425
:1030B00040E855E260E070E00DC040914505509158
:1030C000460560914705709148054A3051056105F4
:1030D000710570F384E295E00E946A0184E295E054
:1030E0000E94190180917A05843229F08091C100F3
:1030F0008F7E8093C10080917B05853241F088529C
:10310000833028F08091C100877F8093C1001092A6
:103110009D040E941F1F6093D9047093DA0480936A
:10312000DB049093DC041092E0041092E10410920E
:10313000E2042196E4E00C94772280917C058B7F59
:1031400080937C053ACF82FD3CCF64EF71E080E054
:1031500090E00E948115882309F433CF0E94B00CBF
:1031600064E172E084E295E00E94E1200E9468142C
:103170002D9A27CFA1E0B0E0E0ECF8E10C945D22BD
:1031800080919B048230D9F48091DD04805A898338
:1031900021E041E0BE016F5F7F4F80E20E94120F8D
:1031A000882369F08FEF80939B040E94131F609324
:1031B0009704709398048093990490939A042196AD
:1031C000E2E00C947922A1E0B0E0E9EEF8E10C94A1
:1031D0005D2280919B048230D1F421E041E0BE0168
:1031E0006F5F7F4F80E20E94670F882371F08FEF3F
:1031F00080939B040E94131F60939704709398041C
:103200008093990490939A0402C0898101C08FEF42
:103210002196E2E00C947922AAE1B0E0E2E1F9E142
:103220000C944F220E94F5018CE00E94F005811160
:103230000BC067E872E084E295E00E94E12080E044
:103240000E94E7060E94E5070E941F1F6B017C0198
:103250000E94E31891E0853009F090E01FEF809123
:103260004105843009F404C2911102C282C00E9457
:1032700023069093C6048093C5042D9A8092D904A6
:103280009092DA04A092DB04B092DC0410929C04C9
:103290008091C3049091C404880F991F816090931A
:1032A000C4048093C304439880E00E946815809111
:1032B0006C058873803209F42CC280914B04982FDE
:1032C0009E7309F047C2F89480916C054CE454E079
:1032D0006DE071E087700E94B0040E9482137894C0
:1032E00090914B048091950490FF2EC2811124C0CF
:1032F0006EE9E62E64E0F62E00E010E0D7018D9135
:103300009C9194FD0CC0F801EE0FFF1FE35FFE4F90
:10331000808191810E946105F701918380830F5F15
:103320001F4FF2E0EF0EF11C0031110539F70E943A
:10333000B50C81E08093950480919D04811103C0B8
:1033400081E080939D041092BE041092C0041092FC
:10335000BF0480916C05887309F072C20E94F61355
:1033600083E0809341050E94C20781E08093960428
:103370002D980E941F1F4B015C010E94131F6B01BF
:103380007C0180919C04823008F063C04090D90495
:103390005090DA046090DB047090DC048091D504D6
:1033A0009091D604A091D704B091D80484159505C6
:1033B000A605B70509F44DC084E495E00E943504E4
:1033C0006C5D754081099109950184010419150905
:1033D000260937096017710782079307D0F54092D5
:1033E000D5045092D6046092D7047092D8040E94FB
:1033F0001F06282F8093C9048091CA049091CB04A2
:10340000820F911D9093CB048093CA046091CC04E9
:103410006F5F6093CC046930E0F070E00E94F821A7
:103420007093CB046093CA048091C80423E0829F08
:10343000600D711D1124769567957695679560935B
:10344000C8040E94BB131092CB041092CA041092BD
:10345000CC0480919D040091EA02882351F11091DF
:103460009C04101708F0F3C24090D9045090DA047D
:103470006090DB047090DC04A501940124193509E7
:10348000460957092F8B388F498F5A8F84E495E06E
:103490000E94350468517C4F8F4F9F4F2F89388D84
:1034A000498D5A8D621773078407950708F48DC2FA
:1034B000CEC28091D9049091DA04A091DB04B0913E
:1034C000DC0475016401C81AD90AEA0AFB0A84E41B
:1034D00095E00E9435049B01AC01A02FB0E00E9452
:1034E000C9216C157D058E059F0558F48092D9047D
:1034F0009092DA04A092DB04B092DC0481E0809325
:1035000096048091BF04811116C080917B0588329A
:1035100019F40E94BE0F0FC0893239F460919C04E7
:103520008091BE040E941C1006C08A3221F4809152
:10353000BE040E94191280919604882309F472C077
:10354000E091DD04EF5FE093DD04E83131F0F0E07D
:10355000EC5BFA4F8785811102C01092DD048091E7
:103560007E0590917F05A0918005B0918105892B02
:103570008A2B8B2B09F44EC08091CD049091CE0400
:10358000A091CF04B091D004892B8A2B8B2B09F406
:1035900041C00E94A20A082F10E020910901309139
:1035A0000A0136952795369527952C5E3F4F2017B3
:1035B000310770F40E94131F68517C4F8F4F9F4F4B
:1035C0006093CD047093CE048093CF049093D00485
:1035D000C801880F991F880F991F409109015091C8
:1035E0000A019A01220F331F240F351F820F931FE8
:1035F000969587959695879590930A0180930901F2
:103600006091490570914A0580914B0590914C0558
:103610000E947C068091DD040E9409060E94BA186F
:103620001092960480919B048F3F09F00BC30E9477
:10363000131F0091970410919804209199043091E0
:103640009A04601B710B820B930B693E73408105DA
:10365000910508F4F7C20E94131F609397047093BA
:1036600098048093990490939A040E941717EAC2D1
:103670000E941F1F4B015C01809141058430D1F4F1
:103680008FE70E94CE050BE414E0E0916C05E77033
:10369000F0E0EB56FD4F808190E098012B543440D0
:1036A000281739070CF0E3CD0E94E105D8018D936E
:1036B0008D01EBCFE0916C05E770F0E0EB56FD4F2C
:1036C00040814F5F21E0BE016F5F7F4F80E20E942B
:1036D000670F882371F010939B040E94131F60935F
:1036E0009704709398048093990490939A0490E0BF
:1036F000B6CDE0916C05E770F0E0EB56FD4F4081F0
:1037000050E0BE016E5F7F4F8BE494E00E948A22FE
:10371000B5CD8091E2048111D0CD8091E3049091E8
:10372000E404A091E504B091E604A7019601281BEA
:10373000390B4A0B5B0BDA01C90181349244AF406B
:10374000B10508F00EC1B9CD882309F4F5CD10926A
:103750009504F2CD982F9873983309F0EDCD9091A0
:103760002B04892787FFE8CD905890932B048091F4
:103770007B05853209F0E0CD80916C05887310E0FF
:10378000803209F048C037E0F32E42E0E42EDD2419
:10379000D394212F30E080914B04877090E0821702
:1037A00093070CF4C9CD1F5FE12FF0E0E55BFB4F01
:1037B0000081602F84E295E00E942B012091E204B9
:1037C000822F90E08930910520F7FC01EC5CFF4FDF
:1037D0000C9484220E3FE9F61092E0041092E1046A
:1037E000D092E204D6CF0093E004E092E204D1CF7D
:1037F0008091E1048F5F8093E1049091E004891748
:1038000040F2F092E204C5CF2F5F2093E204C1CFD3
:103810001092E204BECF212F30E080914B048770DC
:1038200090E0821793070CF487CD1F5FE12FF0E043
:10383000E55BFB4F608184E295E00E942B01EBCFBA
:1038400090912B0420914B04292726FD7FC0907C6A
:1038500020E4922790932B048032F1F410E0212F82
:1038600030E080916D0590E00197281739070CF042
:10387000A3C084E295E00E94A100181619060CF07E
:103880009BC01F5F84E295E00E94D400E12FF0E02E
:10389000E55DFB4F8083E3CF84E295E00E94A100C9
:1038A00018161906F4F410E0212F30E080916D0510
:1038B00090E00197281739070CF080C084E295E06A
:1038C0000E94A100181619060CF078C01F5F84E250
:1038D00095E00E94D400E12FF0E0E55DFB4F80838E
:1038E000E3CF8091C90480932C04809178058632BF
:1038F00051F482E10E946C20959587959595879566
:1039000080932D0402C010922D0480917905863297
:1039100051F483E10E946C20959587959595879544
:1039200080932E0402C010922E048091C5049091C1
:10393000C60490932F04809330048091C304909127
:10394000C4049F770E9482058093310460916D05C5
:103950008BE294E00E94CA090E94390A8823E1F3AD
:10396000FDCC84E295E00E94A10020E031E0281B1C
:10397000390B43E0369527954A95E1F744E6429F97
:10398000C001439F900D11242091DE043091DF048B
:103990004091C80450E065E0969587956A95E1F7F7
:1039A00060E00E94110DC092E304D092E404E09222
:1039B000E504F092E60481CC1F7301C01773809177
:1039C0002B04182B10932B04C1CF8091C30490912A
:1039D000C404880F991F9093C4048093C30481E0AA
:1039E00080939604111119C0C092D104D092D204D0
:1039F000E092D304F092D4041092CD041092CE043D
:103A00001092CF041092D0048091DE049091DF04D4
:103A100001969093DF048093DE041F5F10939C0453
:103A200084E495E00E943504640D751D861D971D84
:103A30006093D9047093DA048093DB049093DC04E0
:103A4000439A81E00E9468150E94BB1303C01017BF
:103A500009F4A7C080919C04882309F452CD809179
:103A600086058823D9F09091BE04911117C040912A
:103A7000D1045091D2046091D3047091D4044601D2
:103A80005701841A950AA60AB70A90E00E94FC0220
:103A9000681579058A059B0508F4B5C080918805ED
:103AA0008823D9F09091C004911117C04091D1049E
:103AB0005091D2046091D3047091D404460157010F
:103AC000841A950AA60AB70A90E00E94FC026815BB
:103AD00079058A059B0508F4ADC080918705882388
:103AE000D9F09091BF04911117C04091D104509129
:103AF000D2046091D3047091D40446015701841A12
:103B0000950AA60AB70A90E00E94FC02681579059A
:103B10008A059B0508F492C080917E0590917F05EF
:103B2000A0918005B0918105892B8A2B8B2B09F4FC
:103B3000E8CC8091CD049091CE04A091CF04B091B7
:103B4000D0040097A105B10509F4DBCCC81AD90A45
:103B5000EA0AFB0AF7FCD5CC80917C05829581703E
:103B60000E94E50A80E00E94E7060E94C2070E94C8
:103B7000131F6B017C012091830530E0A8EEB3E0B8
:103B80000E94BA21C60ED71EE81EF91E6894C0F81E
:103B9000C092CD04D092CE04E092CF04F092D00433
:103BA000B0CC8091D9049091DA04A091DB04B0915B
:103BB000DC0424013501481A590A6A0A7B0A84E4A4
:103BC00095E00E9435049B01AC01A12FB0E00E945A
:103BD000C921641575058605970508F03BCF10923D
:103BE000C4041092C30481E0809396041092C80428
:103BF0000E94BB138092D9049092DA04A092DB0455
:103C0000B092DC0427CF81E08093BE040E94301480
:103C1000809182050E9421036C0D7D1D8E1D9F1DCC
:103C200061606093CD047093CE048093CF04909331
:103C3000D00434CF81E08093C0044FCF81E08093E3
:103C4000BF046ACF6A96E0E10C946B228F92AF9228
:103C5000CF92EF92FF920F931F93E0E28E2EF8E93E
:103C6000AF2ECC24C394A1ECEA2EF12C00EC10E092
:103C700024EC30E045EC50E060E084E295E00E9406
:103C80007A021092E0041092E1041092E2041F9173
:103C90000F91FF90EF90CF90AF908F90089582306A
:103CA000E8F4E82FF0E0EE0FFF1FE256FA4F7183C1
:103CB0006083813041F0809169008C7F842B8093F8
:103CC0006900E89A089580916900440F551F440FD8
:103CD000551F837F842B80936900E99A08951F9272
:103CE0000F920FB60F9211242F933F934F935F9330
:103CF0006F937F938F939F93AF93BF93EF93FF93B4
:103D000080919E0590919F05892B29F0E0919E0559
:103D1000F0919F050995FF91EF91BF91AF919F9110
:103D20008F917F916F915F914F913F912F910F9064
:103D30000FBE0F901F9018951F920F920FB60F9203
:103D400011242F933F934F935F936F937F938F93A0
:103D50009F93AF93BF93EF93FF938091A0059091B2
:103D6000A105892B29F0E091A005F091A105099505
:103D7000FF91EF91BF91AF919F918F917F916F9143
:103D80005F914F913F912F910F900FBE0F901F9019
:103D900018951F920F920FB60F9211242F933F93F5
:103DA0008F939F93AF93BF938091A3059091A405A8
:103DB000A091A505B091A6053091A20523E0230F9F
:103DC0002D3720F40196A11DB11D05C026E8230F53
:103DD0000296A11DB11D2093A2058093A305909387
:103DE000A405A093A505B093A6058091A705909181
:103DF000A805A091A905B091AA050196A11DB11D24
:103E00008093A7059093A805A093A905B093AA0550
:103E1000BF91AF919F918F913F912F910F900FBEC6
:103E20000F901F9018952FB7F8946091A30570918B
:103E3000A4058091A5059091A6052FBF08953FB7D1
:103E4000F8948091A7059091A805A091A905B0913B
:103E5000AA0526B5A89B05C02F3F19F00196A11D04
:103E6000B11D3FBF6627782F892F9A2F620F711DD2
:103E7000811D911D42E0660F771F881F991F4A958B
:103E8000D1F70895CF92DF92EF92FF92CF93DF9315
:103E90006B017C010E941F1FEB01C114D104E104DE
:103EA000F10479F00E941F1F6C1B7D0B683E73406C
:103EB000A0F381E0C81AD108E108F108C851DC4F2D
:103EC000ECCFDF91CF91FF90EF90DF90CF900895EE
:103ED0000197009739F0880F991F880F991F029753
:103EE0000197F1F70895789484B5826084BD84B514
:103EF000816084BD85B5826085BD85B5816085BDE5
:103F0000EEE6F0E0808181608083E1E8F0E01082FD
:103F1000808182608083808181608083E0E8F0E03E
:103F2000808181608083E1EBF0E080818460808328
:103F3000E0EBF0E0808181608083EAE7F0E080815F
:103F400084608083808182608083808181608083BF
:103F50008081806880831092C1000895833081F051
:103F600028F4813099F08230A1F008958630A9F0CC
:103F70008730B9F08430D1F4809180008F7D03C008
:103F8000809180008F7780938000089584B58F772B
:103F900002C084B58F7D84BD08958091B0008F7775
:103FA00003C08091B0008F7D8093B0000895CF93BF
:103FB000DF9390E0FC01E257FF4F2491FC01EE55A6
:103FC000FF4F8491882349F190E0880F991FFC01ED
:103FD000E653FF4FA591B49180549F4FFC01C591CA
:103FE000D4919FB7611108C0F8948C9120958223D9
:103FF0008C93888182230AC0623051F4F8948C91AA
:10400000322F309583238C938881822B888304C040
:10401000F8948C91822B8C939FBFDF91CF91089560
:10402000A1E0B0E0E6E1F0E20C945B22282F30E062
:10403000F901E658FF4F8491F901E257FF4F1491BF
:10404000F901EE55FF4F04910023C9F0882321F0B8
:1040500069830E94AE1F6981E02FF0E0EE0FFF1F21
:10406000E054FF4FA591B4919FB7F8948C916111E2
:1040700003C01095812301C0812B8C939FBF219693
:10408000E4E00C947722CF93DF93282F30E0F901FE
:10409000E658FF4F8491F901E257FF4FD491F9019F
:1040A000EE55FF4FC491CC2391F081110E94AE1FB9
:1040B000EC2FF0E0EE0FFF1FEA54FF4FA591B491F3
:1040C0002C912D2381E090E021F480E002C080E07B
:1040D00090E0DF91CF9108958E3008F08E50877078
:1040E0002091B90190E4299F90011124822B8093A3
:1040F0007C0080917A00806480937A0080917A00BD
:1041000086FDFCCF809178002091790090E0922B81
:104110000895A0E0B0E0EFE8F0E20C9457226C01C3
:104120007A01EB01E60EF71E00E010E0CE15DF0588
:1041300061F06991D601ED91FC910190F081E02D43
:10414000C6010995080F191FF1CFC801CDB7DEB719
:10415000E8E00C9473226115710589F0DB010D9084
:104160000020E9F7AD0141505109461B570BDC0116
:10417000ED91FC910280F381E02D0995089580E096
:1041800090E008950E94AB200895DC01ED91FC9130
:104190000190F081E02D099508950F931F93CF931F
:1041A000DF93EC016DE00E94C5208C016AE0CE0136
:1041B0000E94C520800F911FDF91CF911F910F9119
:1041C00008950F931F93CF93DF93EC010E94AB20D0
:1041D0008C01CE010E94CD20800F911FDF91CF91E5
:1041E0001F910F9108950F931F93CF93DF93EC01CD
:1041F0000E94C5208C01CE010E94CD20800F911F0E
:10420000DF91CF911F910F910895A1E2B0E0EBE013
:10421000F1E20C9453227C01C42EE52FCB01D22E67
:1042200019A221E02D1510F02AE0D22E8E010F5D8B
:104230001F4F8D2C912CA12CB12C6C2D7E2FA50104
:1042400094010E940C228C2DD29E801911240150C1
:1042500011098A3010F4805D01C0895CF801808307
:10426000211531054105510521F0C22EE32FCA0168
:10427000E4CFB801C7010E94AB20A196ECE00C94FA
:104280006F22A0E0B0E0E7E4F1E20C945722EC01E9
:104290006A017B012115310541F4E881F981019022
:1042A000F081E02D642F09951DC02A303105A9F455
:1042B00077FF12C06DE20E94C5208C01442755276C
:1042C000BA014C195D096E097F092AE0CE010E94EE
:1042D0000521800F911F06C02AE0B701A601CE017B
:1042E0000E940521CDB7DEB7E8E00C9473220F934E
:1042F0001F93CF93DF93EC019A01AB01662757FD23
:104300006095762F0E9441218C01CE010E94CD2024
:10431000800F911FDF91CF911F910F91089521156B
:10432000310549F4DC01ED91FC910190F081E02D23
:10433000642F099508950E94052108959A01462F3A
:1043400050E060E070E00E948F2108959A01AB0177
:1043500060E070E00E948F2108950E94731F0E9408
:104360005417C0E0D0E00E940C192097E1F30E949E
:104370000000F9CFA29FB001B39FC001A39F700DB1
:10438000811D1124911DB29F700D811D1124911D5D
:1043900008950E94BA21A59F900DB49F900DA49FEF
:1043A000800D911D11240895B7FF0C94C9210E941E
:1043B000C921821B930B0895DB018F939F930E9469
:1043C000C921BF91AF91A29F800D911DA39F900D18
:1043D000B29F900D11240895991B79E004C0991F94
:1043E000961708F0961B881F7A95C9F7809508954F
:1043F000AA1BBB1B51E107C0AA1FBB1FA617B7070B
:1044000010F0A61BB70B881F991F5A95A9F7809526
:104410009095BC01CD010895A1E21A2EAA1BBB1BE9
:10442000FD010DC0AA1FBB1FEE1FFF1FA217B30780
:10443000E407F50720F0A21BB30BE40BF50B661F96
:10444000771F881F991F1A9469F76095709580955A
:1044500090959B01AC01BD01CF010895052E97FBFE
:104460001EF400940E94452257FD07D00E940C22A2
:1044700007FC03D04EF40C9445225095409530959E
:1044800021953F4F4F4F5F4F0895909580957095C0
:1044900061957F4F8F4F9F4F08952F923F924F927C
:1044A0005F926F927F928F929F92AF92BF92CF92C4
:1044B000DF92EF92FF920F931F93CF93DF93CDB7CD
:1044C000DEB7CA1BDB0B0FB6F894DEBF0FBECDBF45
:1044D00009942A88398848885F846E847D848C8416
:1044E0009B84AA84B984C884DF80EE80FD800C811F
:1044F0001B81AA81B981CE0FD11D0FB6F894DEBF02
:104500000FBECDBFED010895EE0FFF1F0590F49192
:10451000E02D0994FB01DC0102C001900D92415095
:104520005040D8F70895F999FECF92BD81BDF89A11
:10453000992780B50895262FF999FECF1FBA92BD0D
:1045400081BD20BD0FB6F894FA9AF99A0FBE019674
:064550000895F894FFCF6E
:104556000000AB05200008409CFF00881300020005
:104566000200020002000200020002000200020035
:104576000200020002000200020002000200210006
:10458600270520082B092209260A230A260B240CB4
:10459600250C280C290C2A8025000005400AA1209C
:1045A6004EA50020244EA52C2330C01200001A4030
:1045B6000AA1204EA5001B1E27522C233080250061
:1045C6000005400AA1204EA50020244EA52C23302C
:1045D600004B000006400AD0009D49007B289D49FB
:1045E6002C233000E1000005400A4501D7DC03B862
:1045F6001E0EBF00232E48E801008A400A600155BE
:104606005502AD1E20000023C8017363616E6E65FE
:1046160072206D6F64650054582074696D656F75FE
:1046260074210057616974696E672062696E640A55
:1046360000476F7420706B740A00646174612067B0
:104646006F6F640A004F70656E4C52536E6720524E
:10465600582028676974736C79292000206F6E20B2
:104666004857200053617665642062696E64206451
:1046760061746120746F20454550524F4D0A0049C0
:1046860020616D20736C61766500456E7465726994
:104696006E67206E6F726D616C206D6F646500458C
:1046A6004550524F4D2064617461206E6F742076C0
:1046B600616C6964206F722062696E64206A756D30
:1046C600706572207365742C20666F7263696E67FD
:1046D6002062696E640A0052582068616E6700B2F3
:1046E60000F4014C0300070B0C101115000305061E
:1046F6000708090A0B0C121300010000080000202D
:1047060000004000008001000002000004000008D4
:104716000000100000001000002000000001000052
:1047260002000000002B018920A100D400FB001923
:08473600019500B9006A0100C1
:00000001FF
