:100000000C946B000C946F1E0C949C1E0C9493002B
:100010000C9493000C9493000C9493000C94930014
:100020000C9493000C9493000C9493000C94930004
:100030000C9493000C949A120C9493000C949300DB
:100040000C94C91E0C9493000C9427030C946C031D
:100050000C9493000C9493000C9493000C949300D4
:100060000C949F0D0C949300DF1BE81BF91BF91BEC
:10007000F91BF91BED1BF91BFD1B0000000700021B
:10008000010000030406000000000000000001025F
:100090000408102040800102040810200102040816
:1000A00010200404040404040404020202020202F4
:1000B00003030303030300000000230026002900BC
:1000C00000000000250028002B0000000000240094
:1000D00027002A00261E11241FBECFEFD8E0DEBF66
:1000E000CDBF12E0A0E0B1E0E6E5F5E402C0059086
:1000F0000D92A83DB107D9F715E0A8EDB2E001C017
:100100001D92AB39B107E1F710E0C6EDD0E004C0B5
:100110002297FE010E948622C43DD107C9F70E94A2
:10012000AD210C94A9220C940000FC01A289B38992
:100130009C9186892589822B809589238C93138EA7
:100140000895DC015B962C915B97222379F05796FA
:10015000ED91FC9158978081918122813381821B9E
:10016000930B268137818223932308958FEF9FEF8E
:100170000895DC015B962C915B97222391F05996B0
:10018000ED91FC915A978081918122813381821B6C
:10019000930B809590952681378182239323019636
:1001A00008958FEF9FEF0895DC015B962C915B978C
:1001B000222359F05796ED91FC9158972081318177
:1001C000828193812817390719F48FEF9FEF0895E3
:1001D00082819381A085B185A80FB91F8C9122815E
:1001E00033812F5F3F4F468157812423352333834B
:1001F000228390E00895DC015B962C915B9722238B
:1002000059F05796ED91FC91589720813181828168
:1002100093812817390719F48FEF9FEF0895828192
:1002200093810084F185E02DE80FF91F808190E033
:100230000895DC015796ED91FC9158972281338106
:10024000318320835996ED91FC915A978081918159
:10025000938382830895FC01838D8823C1F1A18D4E
:10026000B28D2D913C9111972F5F3F4F16968D9136
:100270009C91179728233923848D811108C01296E9
:100280008D919C91139728173907C9F308C01296CE
:100290008D919C9113972817390789F718C08D9174
:1002A0009C91119718960D90BC91A02DA80FB91F85
:1002B0006C93A18DB28D11963C932E93A289B38934
:1002C0008C919689892B8C9381E090E0089580E051
:1002D00090E00895A4E0B0E0E0E7F1E00C945B2248
:1002E0008C019A01AB01DC015B968C915B978823B2
:1002F00079F0ED91FC910484F585E02DC801298306
:100300003A834B835C8309955C814B813A812981D7
:10031000D8015996ED91FC915A971382128211825D
:1003200010825796ED91FC91589713821282118298
:10033000108281E05B968C935B971216130614066D
:10034000150694F55096ED91FC9151972115B1EE5B
:100350003B0741055105B1F181E090E0D801549689
:100360000C9002C0880F991F0A94E2F7808360E026
:1003700079E08DE390E00E942E222150310941095D
:100380005109CA01B90122E030E040E050E00E948A
:100390002E22D8011C96ED91FC911D9730831E965C
:1003A000ED91FC911F972083D8015296ED91FC911D
:1003B0005397808155969C91892B80832496E4E005
:1003C0000C947722108220E130E0E3CF8091310558
:1003D000813019F482E080933105809131058330BA
:1003E00019F484E0809331050895A8950895CF937A
:1003F000C1E0A1E0B0E02C2F30E0FD010C2E02C0E6
:10040000EE0FFF1F0A94E2F74E175F0710F0CF5F61
:10041000F2CF2150310941E050E0FA0102C0EE0F65
:10042000FF1F2A95E2F79F0121503109FC01378314
:10043000268371876087CF910895CF93DF93FC0166
:10044000962F9270862F817060FF20C0992331F023
:1004500080918B0480831092D80216C0A091D8029C
:10046000C0915C05C770D0E0C756DD4F8881A817E2
:1004700010F080E03CC081E08A0F8093D802B0E0A9
:10048000A55CBB4F8C91808381E031C09923C1F082
:1004900090819093D9021092D802292F207E203685
:1004A00051F490918B04923020F390819F7190933E
:1004B000CD0493E01AC09E3F39F710928B0417C009
:1004C0009091D9029F3F01F79091D8029A3288F615
:1004D00021E0290F2093D8023081E92FF0E0EC5C75
:1004E000FA4F30832A3281F691E090938B04DF91AA
:1004F000CF9108954F925F926F927F928F92AF92B9
:10050000CF92EF92FF920F931F93CF93DF93CDB7CC
:10051000DEB7FC011382128288EE482E83E0582E4B
:10052000612C712C448255826682778285EC92E040
:10053000918380835587448737872687118B008B6B
:10054000F38AE28AC48AA58A868A2AE0629FC00169
:1005500011249C012C573A4F308F278B86589A4F85
:10056000928F818F81E090E0062E01C0880F0A945F
:10057000EAF790917905982B90937905DF91CF91C7
:100580001F910F91FF90EF90CF90AF908F907F9041
:100590006F905F904F900895EF92FF920F931F938B
:1005A000CF93DF93EC0179018F89988D0E94F70139
:1005B000A801B701898D9A8D0E94F701CDB7DEB7EA
:1005C000E6E00C94752220913205309133053827EE
:1005D00048E0C901880F991F37FF06C09C0151E20E
:1005E000252750E1352701C09C01415091F73093F8
:1005F00033052093320508958436910520F4BC011B
:1006000080E090E017C09C018E3B910528F42A55AC
:100610003109AAE0B0E00CC0823D910528F4245BCA
:100620003109A4E6B0E004C02D5C3109A8E5B2E0D0
:100630000E94BA21A4E6B0E09B01AC010E94C9214E
:10064000089590E08C599F4F0E94FC0208951F92DC
:100650000F920FB60F9211242F933F934F938F93C6
:100660009F93EF93FF934091C600809184059091F2
:100670008505019620918A0530918B05822393236D
:1006800020918605309187058217930781F020918C
:10069000840530918505E0918C05F0918D05E20F80
:1006A000F31F4083909385058093840509C0809152
:1006B0008805909189050196909389058093880516
:1006C000FF91EF919F918F914F913F912F910F90BB
:1006D0000FBE0F901F9018951F920F920FB60F929A
:1006E00011242F933F938F939F93EF93FF93209128
:1006F0007C0530917D0580917A0590917B052817C6
:100700003907E9F080917C0590917D05E0918205A3
:10071000F0918305E80FF91F80818093C6008091D6
:100720007C0590917D050196209180053091810591
:100730008223932390937D0580937C0510C02091A4
:100740007A0530917B0580917C0590917D05281775
:10075000390729F48091C1008F7D8093C100FF91FA
:10076000EF919F918F913F912F910F900FBE0F901E
:100770001F90189582E080935E0580E280935F056C
:1007800086E28093600591E2909361058093620513
:1007900084E08093630585E08093640584E2809320
:1007A000650585E280936605089560E08CE00E940F
:1007B000D71F61E08BE00E94D71F61E08DE00E94AF
:1007C000D71F60E082E00E94D71F61E084E00E94B2
:1007D000D71F089542E050E066EE71E080E00E948D
:1007E0004F1E0895E3E0F0E089E080935700E49124
:1007F000E67081E0E63009F080E00895CF93DF9362
:10080000C82F0E94F203882381F0DFB781E0809334
:100810001305F8940E94F50188E180936000C0936D
:100820006000C1110E94F501DFBFDF91CF910895F3
:10083000FC0140A5842F877090E0959587950196DF
:10084000242F217030E0820F931F880F880F0895A6
:100850008F929F92AF92BF92CF92DF92EF92FF92D0
:100860001F93CF93DF93EC0118A5E12FE770F0E021
:10087000E756FD4FA081B0E017FF03C084E190E090
:1008800002C08FE090E0EFA123E1E29FF00111248C
:10089000E25AFE4F80809180A280B380A80FB91FDA
:1008A00020E43FE14DE750E00E94D421A5019401EE
:1008B0000E940C22812F887349F469017A0160ED4E
:1008C000C60E67E0D61EE11CF11C21C089A590E090
:1008D00017FF03C0A4E1B0E002C0AFE0B0E06901DF
:1008E0007A0168EBC60E6BE0D61EE11CF11CA80F66
:1008F000B91F20E43FE14DE750E00E94D421A5015B
:1009000094010E940C22C20ED31EE41EF51EC701E4
:10091000B60169517C4F8F4F9F4F28EE33E040E086
:1009200050E00E940C22A8EEB3E00E94C921DF91A2
:10093000CF911F91FF90EF90DF90CF90BF90AF903D
:100940009F908F900895DB01FA01582F569590E003
:100950002481237030E0322F22274081240F311D63
:1009600011963C932E9344814C70218130E060E4D9
:10097000469F200D311D112413963C932E93129700
:1009800044814073228130E060E1469F200D311D9B
:10099000112415963C932E9314974481407C238117
:1009A00030E064E0469F200D311D112417963C93E2
:1009B0002E931697359618969F5F591748F680FF25
:1009C00047C0408142954695469543702DE431E0FD
:1009D000429FC001439F900D11240C9611969C9349
:1009E0008E93808190E074E0969587957A95E1F7F3
:1009F00083709927829FA001839F500D929F500D75
:100A00001124445F5F4F13965C934E93129780813D
:100A100090E0969587959695879583709927829F04
:100A2000A001839F500D929F500D1124445F5F4F92
:100A300015965C934E93149740814370429FC0017A
:100A4000439F900D11240C9617969C938E931697A6
:100A50000895803223E0920708F1883E23E0920750
:100A600040F48F519340E4E096958795EA95E1F73D
:100A70000895803D27E0920718F48C5D9340089517
:100A8000883928E0920768F4885C974074E096956E
:100A900087957A95E1F78D509C4F089580E090E01E
:100AA00008958FEF93E008958C30910540F4A4E011
:100AB000880F991FAA95E1F7885D9C4F0895843FA0
:100AC00023E0920718F484529C4F0895811524E086
:100AD000920740F48657934FF4E0880F991FFA95D8
:100AE000E1F7089580E998E008959C0136952795EF
:100AF00025753575821B930B9C0123733373969573
:100B000087959695879583739373820F931F9C01A6
:100B100054E0369527955A95E1F7280F391F2F7025
:100B20003F7041E051E0249FC001259F900D349F0C
:100B3000900D1124892F08952D98882319F0000015
:100B40002B9A02C000002B9800002D9A00000895F7
:100B50002D9A000083B12D98000082958170089530
:100B6000CF93DF93D82F5C9A2D985C98C8E08D2F97
:100B700080780E949C05DD0FC150C9F72D98DF9148
:100B8000CF9108958F770E94B0050895CF93DF939A
:100B9000D82FC8E08D2F80780E949C05DD0FC150B2
:100BA000C9F72D98DF91CF910895CF93DF932D98BA
:100BB000C8E080E0D82FDD0F0E94A8058D0FC1503E
:100BC000C9F7DF91CF9108950E94C2050E94D50513
:100BD0005C9A0895A1E0B0E0E0EFF5E00C945D22AE
:100BE000806869830E94B0056981862F0E94C605CE
:100BF0005C9A2196E2E00C947922CF93C0913D0556
:100C0000C827E82FF0E0EC5CFA4F678589E70E947F
:100C1000EA056C2F8DE30E94EA056C2F82E40E94A6
:100C2000EA05CF91089586E20E94E4050895CF93E6
:100C30008BE20E94E405C82F8CE20E94E405282F75
:100C400030E066E0369527956A95E1F744E0C49F69
:100C5000C0011124822B932BCF910895CF93DF9362
:100C6000EC016C818CE10E94EA056D818DE10E94AE
:100C7000EA056E818EE10E94EA056F8180E20E94A2
:100C8000EA05688581E20E94EA05698582E20E94A0
:100C9000EA056A8583E20E94EA056B8584E20E9488
:100CA000EA056C8585E20E94EA056D858AE20E946C
:100CB000EA056E858EE60E94EA056F858FE60E9442
:100CC000EA05688980E70E94EA05698981E70E9450
:100CD000EA056A8982E70E94EA05DF91CF910895CB
:100CE000CF92DF92EF92FF92CF93DF936B017C0163
:100CF000C11488E3D8068CE9E8068CE1F80628F5EB
:100D0000C701B60120E836E948E950E00E940C220C
:100D1000E901689760E879E687E69FEF0E94DC21A9
:100D20006C0D7D1D8E1D9F1DF2E0660F771F881FC5
:100D3000991FFA95D1F721E732E040E050E00E9498
:100D40000C22F22EE32E80E421C0C701B60120E080
:100D50003DE241E351E00E940C22E901689760E026
:100D600073ED8EEC9EEF0E94DC216C0D7D1D8E1DBF
:100D70009F1D660F771F881F991F21E732E040E013
:100D800050E00E940C22F22EE32E80E66C2F6F7151
:100D9000680F85E70E94EA056E2D86E70E94EA0546
:100DA0006F2D87E70E94EA05DF91CF91FF90EF90CA
:100DB000DF90CF9008958F929F92AF92BF92CF9283
:100DC000DF92EF92FF92CF93DF93D82F83E00E94C0
:100DD000E4058093120584E00E94E40580931105E8
:100DE00060E086E00E94EA0561E087E00E94EA0593
:100DF0006FE789E00E94EA0565E08AE00E94EA0563
:100E000062E18BE00E94EA0565E18CE00E94EA0560
:100E10006DEF8DE00E94EA0560E08EE00E94EA0539
:100E2000DD2319F08BE491E008C020915B0533E1EC
:100E3000239FC0011124825A9E4F0E942E066CE807
:100E400080E30E94EA056FE082E30E94EA0562E423
:100E500083E30E94EA0580915C0587FF02C064E19C
:100E600001C06AE084E30E94EA056AE285E30E9429
:100E7000EA056DE286E30E94EA0564ED87E30E94DD
:100E8000EA0560E088E30E94EA0560E089E30E94E9
:100E9000EA05D11109C0C0903D05D0903E05E09013
:100EA0003F05F090400507C0C5E9CC2EC1ECDC2E13
:100EB000ED2CCEEDFC2ECAE38F2C9924AA24BB2462
:100EC000682D8C2F0E94EA05682D85E08C0F0E940A
:100ED000EA05FE2CED2CDC2CCC24CF5FCE3361F761
:100EE0006FEF83E40E94EA056FEF84E40E94EA0555
:100EF0006FEF85E40E94EA056FEF86E40E94EA0541
:100F0000DD2311F066E002C0609141058DE60E948C
:100F1000EA0560E089E70E94EA05609142058AE7F8
:100F20000E94EA0560E083E70E94EA0560E084E74A
:100F30000E94EA05D11109C06091390570913A0506
:100F400080913B0590913C0504C060EC72E98DEE08
:100F500099E10E947006DF91CF91FF90EF90DF90B2
:100F6000CF90BF90AF909F908F90089561E087E001
:100F70000E94EA0564E28EE70E94EA0563E088E0E9
:100F80000E94EA0560E088E00E94EA0565E087E0EB
:100F90000E94EA0562E085E00E94EA0583E00E9483
:100FA000E4058093120584E00E94E4058093110516
:100FB000089583E00E94E4058093120584E00E9476
:100FC000E4058093110561E087E00E94EA056AE08C
:100FD00070E080E090E00E94421F0E94B60700008F
:100FE0000895A2E2B0E0E7EFF7E00C944D229E01F5
:100FF0002F5F3F4F80E1D9011D928A95E9F76EEB93
:1010000071E084E195E029A33AA30E94E1200E94C7
:10101000D9071D8A1E8A1F8A188E312C212C00E0C8
:10102000812C912C540180E4482E81EE582E8DE9BC
:10103000682E88E1782E90E5C92E93ECD92EE12C0C
:10104000F12C84EF91E0A0E0B0E08D8F9E8FAF8F08
:10105000B8A380EC91EDA8E9BBE1898F9A8FAB8FA3
:10106000BC8F80E491EEADE9B8E1898B9A8BAB8BB4
:10107000BC8B84E195E00E94A100892B09F4E1C0BA
:1010800084E195E00E94D4009C0133272C32310585
:1010900009F442C0ACF42332310509F0ABC0198227
:1010A0001A821B821C821D821E821F82188619864C
:1010B0001A861B861C861D861E861F86188A60C09F
:1010C0002434310529F02335310509F4B2C092C02A
:1010D00064E484E195E00E94C5202AE030E040E429
:1010E00051EE6DE978E184E195E00E9441216CE2E6
:1010F00084E195E00E94C5202AE030E040EC51ED0B
:1011000068E97BE184E195E00E9441216CE284E1A1
:1011100095E00E94F320ADCF0F5F043009F0A9CF16
:1011200029813A814B815C81A8EEB3E00E94C921FC
:10113000698B7A8B8B8B9C8B2D813E814F8158855F
:101140000E94C921698F7A8F8B8F9C8F29853A8560
:101150004B855C852D8F3E8F4F8F58A32D853E8507
:101160004F8558890E94C9216B017C0160323EE4A1
:1011700073078105910530F462E38CE10E94EA0572
:1011800000E077CF603345E774078105910510F4DF
:1011900062E2F3CF60345CE975078105910510F4D4
:1011A00066E2EBCF80E5C81683ECD806E104F104D3
:1011B00010F462E1E2CF90E6C9169AEED906E10496
:1011C000F10410F465E1D9CFA0E7CA16A1E1DA066F
:1011D000A1E0EA06F10410F461E0CFCFB0EACB164B
:1011E000B6E8DB06B1E0EB06F10410F463E0C5CF2E
:1011F00065E0C3CF10ED180F1A3008F03ACFE1E0E8
:10120000F0E0EC0FFD1F24E0029FE00DF11D112422
:101210002081318142815381AAE0B0E00E94C9213E
:10122000610F711D811D911D608371838283938382
:1012300020CF49885A886B887C88812C912C540156
:1012400018CF81149104A104B10489F4C301B2013F
:101250000E94700661E070E080E090E00E94421F12
:101260001D8A1E8A1F8A188E312C22242A948D8D65
:101270009E8DAF8DB8A188169906AA06BB06D0F43C
:101280000E9413062D893E894F89588D280F311DE4
:10129000411D511D2D8B3E8B4F8B588F381608F4F6
:1012A000382E821508F4282E3FEF831A930AA30ADA
:1012B000B30A56C0C301B20128EE33E040E050E06B
:1012C0000E940C22BA01A9012AE030E084E195E0F5
:1012D0000E948F216CE284E195E00E94C5204AE0E3
:1012E00050E0632D84E195E00E949E216CE284E150
:1012F00095E00E94C5206D897E898F89988DA50112
:1013000094010E940C22BA01A9012AE030E084E194
:1013100095E00E948F216CE284E195E00E94C52057
:101320004AE050E0622D84E195E00E949E216CE24B
:1013300084E195E00E94F3204C0C5D1C6E1C7F1C28
:10134000898D9A8DAB8DBC8D84159505A605B70545
:1013500020F449885A886B887C88812C912C540110
:1013600029893A894B895C89283E334041055105DA
:1013700009F07FCEA296E2E10C946922CF92DF922F
:10138000FF920F931F93CF93DF931F92CDB7DEB7DA
:10139000082F162F8EE399830E94EA05F02EC02EA7
:1013A0009981D92E8C2D8F19811738F4F60161910E
:1013B0006F018FE70E94EA05F5CF64E085E00E94A7
:1013C000EA0583E00E94E4058093120584E00E9410
:1013D000E405809311050E941F1F60930D05709313
:1013E0000E0580930F059093100569E087E00E9439
:1013F000EA0581E0809331050F90DF91CF911F9135
:101400000F91FF90DF90CF9008950F931F930E944C
:10141000BE0980913105813099F40E941F1F00910F
:101420000D0510910E0520910F0530911005601BE0
:10143000710B820B930B603A76488140910548F31B
:1014400080913105813031F46BEC71E084E195E0FD
:101450000E94E1201F910F9108950F931F93809197
:101460003105823021F41092310581E020C0809155
:1014700031058130D9F40E941F1F00910D05109194
:101480000E0520910F0530911005601B710B820B2A
:10149000930B613A76488140910540F061E087E026
:1014A0000E94EA051092310582E001C080E01F91A0
:1014B0000F910895EF92FF920F931F93CF93DF93B5
:1014C0008B019C01442737FD4095542F60E271EA5F
:1014D00087E090E00E942E22E9011C161D0614F000
:1014E000C1E0D0E0D80120E231EA47E050E00E94BC
:1014F000D4219E01442737FD4095542F0E942E226F
:10150000790100E010E00E151F055CF42B9ACE0166
:101510000E94681F2B98CE010E94681F0F5F1F4F0B
:10152000F2CFCDB7DEB7E6E00C947522CF93DF9310
:101530005D9A60916E0570916F0580917005909134
:1015400071050E94700660E089E70E94EA0561E08B
:1015500070E080E090E00E94421F0E941306C82FB6
:1015600061E070E080E090E00E94421F0E9413065C
:10157000D0E0C80FD11D61E070E080E090E00E94F3
:10158000421F0E941306C80FD11D61E070E080E089
:1015900090E00E94421F0E9413065D989E01280F52
:1015A000311DC9019695879596958795DF91CF91C5
:1015B0000895CF93C82F5D9A83E00E94E40580933D
:1015C000120584E00E94E4058093110560E086E046
:1015D0000E94EA0561E087E00E94EA056FE789E082
:1015E0000E94EA0565E08AE00E94EA0562E18BE07C
:1015F0000E94EA0565E18CE00E94EA056DEF8DE04E
:101600000E94EA0560E08EE00E94EA056CE280E755
:101610000E94EA0560E080E30E94EA0560E089E755
:101620000E94EA0565E08AE70E94EA0562E181E737
:101630000E94EA0562E082E70E94EA0560E083E733
:101640000E94EA0560E084E70E94EA0560916E0569
:1016500070916F0580917005909171050E947006E0
:1016600067E08DE60E94EA056AE070E080E090E0C5
:101670000E94421F69E087E00E94EA056AE070E08C
:1016800080E090E00E94421FCC2369F0C5E1C15088
:1016900009F459C061E070E088EB91E00E945A0AB9
:1016A0000E94F501F4CF61E070E088E891E00E94CB
:1016B0005A0A0E94F50165E08DE60E94EA056AE09B
:1016C00070E080E090E00E94421F61E070E088EBF3
:1016D00091E00E945A0A0E94F50164E08DE60E94A2
:1016E000EA056AE070E080E090E00E94421F61E05D
:1016F00070E08DE591E00E945A0A0E94F50162E0D7
:101700008DE60E94EA056AE070E080E090E00E94C9
:10171000421F61E070E08FEA90E00E945A0A0E9446
:10172000F50160E08DE60E94EA056AE070E080E085
:1017300090E00E94421F62E070E085E091E00E942C
:101740005A0A0E94F50161E087E00E94EA055D986F
:10175000CF910895CF93DF93EC014AE050E06D2FD5
:1017600070E084E195E00E94A6216EE284E195E0BC
:101770000E94C520BE0134E0769567953A95E1F761
:101780006F7077274AE050E084E195E00E94A6213F
:101790006EE284E195E00E94C520BE016F7077275C
:1017A0004AE050E084E195E00E94A621DF91CF91CC
:1017B0000895D82FC0E0CD1780F45E9A64E670E0FB
:1017C00080E090E00E94421F5E9864E670E080E056
:1017D00090E00E94421FCF5FEECF6CE271E080E0AC
:1017E00090E00E94421FE6CF0F931F93CF93DF93A9
:1017F000EC01062F15E0115051F0CE010E9493220A
:10180000081741F0602FCE010E949B22F4CF82E0A6
:101810000E94D90BDF91CF911F910F910895A0E005
:10182000B0E0E5E1FCE00C944F22482E562EC0E0DB
:10183000D0E0612C712CE12CF12C00E010E0442070
:1018400079F081E04816A1F092E0491219C059E4FC
:10185000652E712C60E2E62EF12C0EE814E010C02B
:10186000612C712CFBE1EF2EF12C0EE515E008C088
:101870007DE1672E712CEAE2EE2EF12C04E315E0F7
:1018800043018C0E9D1E10923305109232053401D7
:10189000A62CA818B12CC30101966C01AE14BF048C
:1018A000A8F4A00EB11E511006C0C3010E949322DD
:1018B000F501808305C0F5016081C3010E94F40B2E
:1018C000F50180810E94E3023601E2CFC30151108D
:1018D00018C0C3010E949322B82EC6010E94932211
:1018E0002B2D30E0322F2227282B8091320590912A
:1018F00033058217930779F4C0E0D0E05524539460
:101900009ECF3601609133050E94F40B6091320541
:10191000C6010E94F40BD395C13093E0D90708F4B7
:101920008ECF852DCDB7DEB7E0E10C946B2260E061
:1019300081E00E940F0C882331F081E09091340502
:10194000983309F080E0089561E081E00E940F0C77
:10195000089561E082E00E940F0C089560E082E04B
:101960000E940F0C811108C0EEE8F4E01192119270
:1019700084E0EE3AF807D1F70895A1E0B0E0E3EC97
:10198000FCE00C945D2289830E94BA0392E090935C
:101990006C059FEF90936D059AE0909376051092F9
:1019A00077051092780510926E0510926F051092CF
:1019B0007005109271052EE12093720590937305C6
:1019C00028EB3BE0309375052093740589818823CB
:1019D00071F061E080E00E940F0CEEE8F4E01192FB
:1019E000119284E0EE3AF807D1F70E94A90C2196F3
:1019F000E2E00C94792260E080E00E940F0C8111FB
:101A000003C081E00E94BD0C0895CF93DF939EEF49
:101A10009093FC0499E09093FD049091FB0451E0B5
:101A2000590F5093FB049093FE0493E39093FF04AB
:101A300094E49093000596EA909301053093030592
:101A40002093020510920505109204058093080565
:101A500040930605609307051092090510920A0548
:101A600085E180930B05EDEFF4E08FEF9FEF41915F
:101A7000482750E1459F90011124242730E0522F40
:101A80004427B901B3E0660F771FBA95E1F74627FF
:101A90005727892F992784279527D4E035952795AF
:101AA000DA95E1F78227932725E0EC30F207F9F683
:101AB00080930B0590930C0584E195E00E94B9009A
:101AC000419764F0CCEFD4E055E0CD30D50731F04C
:101AD000699184E195E00E942B01F6CFDF91CF91CF
:101AE0000895CF93C1E0811101C0C0E06C2F82E165
:101AF0000E9410206C2F83E10E9410201092F504A8
:101B00001092F4048091B9008C6F8093B90080E248
:101B10008093B80085E48093BC00CF91089585ED53
:101B20008093BC008091BC0084FDFCCF0895ECEB59
:101B3000F0E0108285E480831092F40408951F92EF
:101B40000F920FB60F9211242F933F934F935F93F1
:101B50006F937F938F939F93AF93BF93EF93FF9375
:101B6000CF93DF931F92CDB7DEB78091B900887F06
:101B7000803609F4C7C0A8F5883209F464C098F427
:101B8000803109F45DC038F4882309F4F3C088304B
:101B900009F456C0F1C0883109F455C0803209F00B
:101BA000EBC082E0A7C0803409F477C078F48033BA
:101BB00009F45FC0883309F0DFC084E08093F30448
:101BC0008091F4048B7F8093F404D0C0803509F4B5
:101BD00052C0883509F467C0883409F0CDC085E06B
:101BE00089C0883909F4C0C0A8F4883709F48AC0CC
:101BF00038F4883609F486C0803709F483C0BCC045
:101C0000883809F4B1C0803909F47FC0803809F000
:101C1000B3C07BC0803B09F493C038F4803A09F428
:101C20008CC0883A09F48CC0A7C0803C09F49EC0DF
:101C3000883C09F49BC0883B09F09EC080E081C0CD
:101C40008091F80413C08091F5049FEF980F909352
:101C5000F5048823D1F1E091F604F091F704CF0167
:101C600001969093F7048093F60480818093BB00E3
:101C70007DC083E03FC0E091F604F091F704CF010E
:101C800001969093F7048093F6048091BB008083C3
:101C90008091F50481508093F5048091F5048230A1
:101CA00008F064C061C0E091F604F091F704CF0140
:101CB00001969093F7048093F6048091BB00808393
:101CC0008091F50481508093F5048091F4048B7F1A
:101CD0008093F4048091F40480FF4CC08091F4045C
:101CE0008E7F8093F4048091F40482608093F404E6
:101CF00084EA3DC08093F3048091F4048B7F809349
:101D0000F40438C01092F50431C0E091F904F09168
:101D1000FA04309749F18091BB0089838091F504E2
:101D200091E0980F9093F504811102C062E001C028
:101D300060E0CE010196099515C00E948F0D16C076
:101D400081E0E091F904F091FA04309769F088237A
:101D500011F063E001C061E0CE010196099599811F
:101D60009093BB00811102C085E801C085EC80938F
:101D7000BC0002C00E948F0D0F90DF91CF91FF91A8
:101D8000EF91BF91AF919F918F917F916F915F91F3
:101D90004F913F912F910F900FBE0F901F9018956C
:101DA0008F929F92AF92BF92CF92DF92EF92FF926B
:101DB000CF93DF93EC010E941F1F6B017C014E014A
:101DC000A12CB12C8091F40482FF11C02097D1F393
:101DD0000E941F1F6C197D098E099F0986169706A0
:101DE000A806B90678F70E94970D81E004C080919B
:101DF000F3041092F304DF91CF91FF90EF90DF9006
:101E0000CF90BF90AF909F908F900895A2E0B0E0E8
:101E1000ECE0FFE00C945922182F7B01022F047094
:101E200022FD05C080910B0190910C0102C080E061
:101E300090E02A8349830E94D00E2A814981811132
:101E400036C01092F3044093F504F092F704E09248
:101E5000F604110F1093F8049091F40421FF02C0CE
:101E600085E001C084E0892B8093F4048091F40420
:101E700081FF0BC08091F4048D7F8093F4048091E6
:101E8000F8048093BB0085EC01C085EE8093BC0014
:101E9000822F817020FF0BC0011105C080910B01C2
:101EA00090910C0102C080E090E00E94D00E22963A
:101EB000E6E00C947522A2E0B0E0E1E6FFE00C94CD
:101EC0005922182F7B01022F047022FD05C080913A
:101ED0000B0190910C0102C080E090E02A834983BD
:101EE0000E94D00E2A814981811138C01092F304DA
:101EF0004093F504F092F704E092F604812F880FE6
:101F000081608093F8049091F40421FF02C085E081
:101F100001C084E0892B8093F4048091F40481FF54
:101F20000BC08091F4048D7F8093F4048091F804B9
:101F30008093BB0085EC01C085EE8093BC00822FAE
:101F4000817020FF0BC0011105C080910B019091A1
:101F50000C0102C080E090E00E94D00E2296E6E0E4
:101F60000C947522A0E0B0E0E8EBFFE00C9457225F
:101F70000E941F1F0091EF041091F0042091F104C2
:101F80003091F2046B017C01C01AD10AE20AF30A13
:101F90009701860141E1C41647E2D406E104F10449
:101FA000D0F12091EE0431E0320F3093EE0420FFA7
:101FB00002C017E001C010E06093EF047093F004DA
:101FC0008093F1049093F20463E084E195E00E9431
:101FD0002B0161E084E195E00E942B0107E0010FF5
:101FE000C12FD0E0CC0FDD1FC35FDE4F8881998108
:101FF000692F6370812F880F880F682B84E195E02B
:102000000E942B016881798184E195E00E942B0177
:102010001F5F1013E5CFCDB7DEB7E8E00C94732255
:10202000A0E0B0E0E6E1F0E10C945722D82FC62FF3
:102030000E941F1F0091EF041091F0042091F10401
:102040003091F2046B017C01C01AD10AE20AF30A52
:102050009701860141E1C41647E2D406E104F10488
:1020600008F4CAC16093EF047093F0048093F10404
:102070009093F20480910D0190910E01880F991FA9
:102080008093D704892F87702091D804287F282B2C
:102090002093D80480910F0190911001880F991F0F
:1020A000382F330F330F330F2770232B2093D8048F
:1020B000282F2295269527708091D904807C9770CF
:1020C000990F990F990F822B892B8093D904209116
:1020D000110130911201220F331F922F9295990F07
:1020E000990F907C8F73892B8093D904932F9295AD
:1020F000990F990F907C822F86958695892B8093D6
:10210000DA0432FB882780F92091DB042E7F282B0C
:102110002093DB048091130190911401880F991F83
:10212000382F330F2170232B2093DB04382F331FDC
:102130003327331F2091DC04207F892F8770880F7D
:10214000232B282B2093DC048091150190911601FC
:10215000880F991F382F3295307F2F70232B2093B3
:10216000DC04382F32953F702091DD042078892FD0
:1021700087708295807F232B282B2093DD0480910C
:10218000170190911801880F991F2F772093DD0474
:10219000292F2795222727958695822B8093DE0469
:1021A000892F869583702091DF042C7F282B209324
:1021B000DF048091190190911A01880F991F382F1F
:1021C000330F330F2370232B2093DF04382F3295E6
:1021D0003695369533702091E004207E892F8770E4
:1021E000880F880F232B282B2093E00480911B015C
:1021F00090911C01880F991F382F3295330F307E34
:102200002F71232B2093E0049295990F907E869551
:1022100086958695892B8093E10480911D0190918C
:102220001E01880F991F8093E204892F87702091E7
:10223000E304287F282B2093E30480911F019091D1
:102240002001880F991F382F330F330F330F27705A
:10225000232B2093E304282F229526952770809125
:10226000E404807C9770990F990F990F822B892B2A
:102270008093E4042091210130912201220F331F29
:10228000922F9295990F990F907C8F73892B809341
:10229000E404932F9295990F990F907C822F869545
:1022A0008695892B8093E50432FB882780F920915D
:1022B000E6042E7F282B2093E60480912301909141
:1022C0002401880F991F382F330F2170232B20935F
:1022D000E604382F331F3327331F2091E704207F74
:1022E000892F8770880F232B282B2093E704809158
:1022F000250190912601880F991F382F3295307F44
:102300002F70232B2093E704382F32953F702091B4
:10231000E8042078892F87708295807F232B282BD3
:102320002093E8048091270190912801880F991F3C
:102330002F772093E804292F279522272795869524
:10234000822B8093E904969593708091EA048C7FA8
:10235000892B8093EA042091290130912A01220FD0
:10236000331F922F990F990F8370892B8093EA0462
:1023700022952695269523708091EB04807E932FDD
:102380009770990F990F822B892B8093EB042091E2
:102390002B0130912C01220F331F922F9295990F10
:1023A000907E8F71892B8093EB04832F8295880F09
:1023B000807E269526952695282B2093EC04DD23F8
:1023C00011F088E001C080E0CC2311F094E001C05E
:1023D00090E0892B8093ED046FE084E195E00E940A
:1023E0002B01C7EDD4E0699184E195E00E942B01B7
:1023F00084E0CE3ED807B9F7CDB7DEB7E8E00C945D
:102400007322CF93C82F682F84E195E00E942B019F
:102410008C2F0E94E302CF910895A0E0B0E0E3E1A9
:10242000F2E10C945722C82F0E941F1F0091EF0465
:102430001091F0042091F1043091F2046B017C01C1
:10244000C01AD10AE20AF30A9701860141E1C416D3
:1024500047E2D406E104F10408F442C06093EF04BB
:102460007093F0048093F1049093F204109233057A
:102470001092320588EA0E940112CC2311F081E803
:1024800001C081E00E94011280E10E94011200E07F
:1024900010E0F801EE0FFF1FE35FFE4F8081918196
:1024A0000E945405EC0163E0CC0FDD1F6A95E1F753
:1024B0008D2F0E9401128C2F0E9401120F5F1F4F5F
:1024C0000031110531F7C09132056091330584E187
:1024D00095E00E942B016C2F84E195E00E942B0176
:1024E000CDB7DEB7E8E00C94732225B190E0FC0193
:1024F000EE0FFF1FE80FF91FEB5AFB4F8081282BCF
:1025000025B988B19181892B88B98BB19281892BAA
:102510008BB9089585B190915204892385B988B10A
:1025200090915304892388B98BB1909154048923E5
:102530008BB908951F920F920FB60F9211242F930B
:102540003F934F935F936F937F938F939F93AF933B
:10255000BF93CF93EF93FF93C091B1048091060195
:10256000C81708F03EC08091500490915104909398
:10257000870080938600EC2FF0E0EE0FFF1FE35FF3
:10258000FE4F808191810E945405880F991F90937E
:1025900051048093500480915004909151042091F3
:1025A000070130910801281B390B30930801209353
:1025B00007018091740590917505880F991F281760
:1025C000390720F490930801809307018091AF04AC
:1025D000811142C080916C0580FF41C0C830E0F598
:1025E0003EC0809150049091510490938700809355
:1025F0008600809107019091080190935104809387
:1026000050048091AF04882319F08FEF9FEF06C02C
:102610008091500490915104885592409093890084
:102620008093880080E49CE99093080180930701DF
:1026300080918400909185008097D0F30E948A1247
:102640008091B004811105C08091060181500E94E3
:1026500075121092B10427C08FEF9FEF06C08091D2
:102660005004909151048855924090938900809332
:10267000880080918400909185008097D0F30E941B
:102680008A128091B004811104C08091B10481113B
:1026900006C08091B1048F5F8093B10404C0815063
:1026A0000E947512F6CFFF91EF91CF91BF91AF913C
:1026B0009F918F917F916F915F914F913F912F915A
:1026C0000F900FBE0F901F90189524E0829FC001BD
:1026D00011248C30910538F0853F23E0920728F0D3
:1026E00084EF93E008958CE090E00895CF93DF931A
:1026F000C0916D05C03390F48C2F807339F0803118
:1027000041F48091B2048295807F05C08091B70426
:1027100002C08091B804CF70D0E015C0CF33E0F490
:10272000CF70D0E08091B2048295807F0E946513C3
:10273000DE01AA0FBB1FA35FBE4F11969C938E9321
:1027400021968091B8040E946513FE01EE0FFF1FD1
:10275000E35FFE4F91838083DF91CF910895809155
:10276000B3049091B4049F770E9475058093B204DE
:102770008F3029F48091B8048695805804C099E080
:10278000899F802D11248093B704F8940E947613BA
:102790007894809161058132E1F48091B7049FEFD4
:1027A000980F9E3F78F08091B0008F7D8093B000AD
:1027B00061E08091B704811101C060E083E00E9474
:1027C000102008958093B4008091B00080628093BF
:1027D000B0000895FF920F931F93CF93DF930FE5FF
:1027E00015E0C0E0D0E0B3E0FB2E8C2FD801ED91D6
:1027F0008D019E2F907F9031F1F4EF70F0E0EE0F9D
:10280000FF1FE35FFE4F208131816F2D0E94EC217D
:10281000E92FF0E0EE0FFF1FED56FD4F61E08081E4
:1028200091818217930708F060E0FE01EF55FD4F9C
:1028300080810E9410202196C830D105B1F6CDB715
:10284000DEB7E5E00C9476220F931F93CF93DF93CE
:102850000EE814E0C0E0D0E020916D05822F8F706B
:1028600090E0C817D907E9F00196C817D90711F405
:102870002033B8F4F801808191819F70892B79F021
:10288000F894F801808191819F700E942905FE01D2
:10289000EE0FFF1FE35FFE4F9183808378940E94C9
:1028A000EA1321960E5F1F4FC031D105A9F6DF91C3
:1028B000CF911F910F910895FF920F931F93CF9384
:1028C000DF9384E395E00E941804809306019091C1
:1028D0006D05292F2F70281304C081E0820F80938B
:1028E000060190539F3060F44091060130E0842F40
:1028F00090E001972817390719F44F5F40930601BC
:1029000080910601813118F080E180930601E7E5AE
:10291000F4E0DF0112971C92DF0111971C921082E4
:10292000339684E0EF36F807A1F74FEF3FEFABEABD
:10293000B2E00FE515E02FEFE80189918E018031BB
:10294000F8F490E0FD0132976081FC01EE0FFF1F6B
:10295000E80FF91FEB5AFB4F8081862B8083CD0156
:102960000197EC0158818181852B81839C91828123
:10297000892B828360955095909529233523462392
:102980001396D5E007361D07B9F6409352043093ED
:10299000530420935404C1EAD2E00FE515E0F12C72
:1029A000F80181918F01823230F08632B8F08632A0
:1029B00011F460E010C0F6E0FF1204C08091C10085
:1029C0008F7E06C087E0F81205C08091C100877F26
:1029D0008093C10061E088810E94D71FF394219603
:1029E000E8E0FE12DDCF80915F05803231F461E0D6
:1029F00089E00E94102082E801C082E0809380007C
:102A000081E08093B0048093AF04809161058132AE
:102A100011F08732D9F461E083E00E94D71F60E0B3
:102A200083E00E94102080916105813231F481E0C1
:102A30008093B0008093B10009C082E08093B00021
:102A400085E08093B1008EE38093B3008AE18093A8
:102A500081008FEF9FEF909389008093880080ED35
:102A600097E0909387008093860080E49CE99093A0
:102A700008018093070190935104809350041092B1
:102A8000B10480916F00816080936F0080916C052C
:102A900083FF0DC080918E0490918F049F70892BCD
:102AA00031F00E9424141092AF041092B004CDB7FC
:102AB000DEB7E5E00C947622CF93C82F80916405B1
:102AC0008B3221F46C2F8FE00E94102080916105E1
:102AD000873249F48091B000CC2311F0806101C0AD
:102AE0008F7E8093B000CF910895A4E2B0E0EBE731
:102AF000F5E10C944D226B017C010E94131F4B01E8
:102B00005C0181E00E94DB0683E0809331050E9436
:102B1000D90767ED71E084E195E00E94E1207BE157
:102B2000272EE0E53E2EF7E47F2EA6E44A2EB5E5FB
:102B30005B2EC114D104E104F10469F00E94131F5B
:102B4000681979098A099B096C157D058E059F0511
:102B500010F080E0D5C080913105843051F765EEEA
:102B600071E084E195E00E94E1208FE70E94C205B8
:102B70000E94D5058CA3823601F504E315E00E947E
:102B8000D505D8018D938D01B5E00E351B07B9F73A
:102B900080913405883309F0ADC06EEE71E084E1B8
:102BA00095E00E94E12082E48CA361E0CE0184964E
:102BB0000E94050A5D9A81E0A3C0803741F0893602
:102BC00011F581E00E94BD0C89E4898304C039823B
:102BD000C12CD12C76019091130580916C0599231D
:102BE00011F0806801C08F7780936C05EEE5F5E009
:102BF000DE011296822D01900D928A95E1F76CE12B
:102C0000CE01019675C08437E1F4E4E5E98383E001
:102C10008A8385E88B8388E08C838FE08D838EE1C7
:102C2000EDE2F1E0DE01169601900D928A95E1F752
:102C300063E2CE0101960E94050AC12CD12C7601D7
:102C400059C0853789F40EE515E00E94D505D801F5
:102C50008D938D01B5E009371B07B9F761E080E07E
:102C60000E940F0C5CA241C08636B9F44982EEE89E
:102C7000F4E0AE014D5F5F4F208131813296CA0191
:102C80000197DC013C93DA012C934E5F5F4FB4E077
:102C9000EE3AFB0789F761E2B3CF8736C9F40EE855
:102CA00014E00E94D505682E0E94D505262D30E03F
:102CB000322F2227280F311DF801219331938F01E4
:102CC000F4E00E3A1F0769F77CA20E94A90C0DC020
:102CD000873481F4EEE8F4E01192119284E0EE3A48
:102CE000F807D1F70E94A90C7CA261E0CE0184967E
:102CF0000E94050A83E0809331050E94B60719CF30
:102D0000A496E2E10C9469221F93CF93DF93C82F1E
:102D1000D62F61E00E94D71F61E08C2F0E94102007
:102D200061E08D2F0E9410208AE090E00E94681FD1
:102D30008D2F0E944320892B71F060E08C2F0E9420
:102D400010208AE090E00E94681F8D2F0E9443208F
:102D500011E0892B09F010E060E08C2F0E94D71F52
:102D600060E08C2F0E94102060E08D2F0E941020C8
:102D7000812FDF91CF911F91089580E48093BA0055
:102D80001092BD008DE192E09093FA048093F904D3
:102D900010928B0415E004E0C2E0FC2E80918B04BD
:102DA000813039F480E00E94DB06F0928B045E985B
:102DB000F5CFC0918B04C33061F45D988091CD0450
:102DC0000E94FD05C09331050E94B60700938B0455
:102DD000E5CF80918B04843009F7809131058430F0
:102DE000E9F68FE70E94C205CBE3D4E0E0915C05F1
:102DF000E770F0E0E756FD4F808190E09E012B5395
:102E000034402817390724F40E94D5058993EECF62
:102E100010938B045D9AC2CFABE2B0E0E2E1F7E140
:102E20000C945C221FEF19838AE2E4E3F5E0DE01F3
:102E3000129601900D928A95E1F721E04BE2BE01D6
:102E40006F5F7F4F80E20E94060F81110EC021E06C
:102E500041E0BE016F5F7F4F80E20E945B0F8111F6
:102E600004C082E080938B0402C010938B04809195
:102E70008B04823051F00E94131F6093870470937B
:102E800088048093890490938A04AB96E3E00C94C1
:102E90007822A1E0B0E0EFE4F7E10C945B2280E05F
:102EA0000E94FE0361E085E00E94D71F61E086E09A
:102EB0000E94D71F0E94D50360E080E00E94D71FC8
:102EC00061E081E00E94D71F00E410E02BED32E0CA
:102ED00040E051E06BE173E084E195E00E94CC02B8
:102EE00040E052EC61E070E084E195E00E946A010C
:102EF0000E94FB0C0E94AE0C69EF71E084E195E04A
:102F00000E94C22085E893E00E94AA0B60E172E073
:102F100084E195E00E94C2204AE050E065E070E064
:102F200084E195E00E9477210E94EA0378945E9AFA
:102F300063E183E00E948416882329F05E985D98FF
:102F40000E94F107FBCF62E189E00E9484168111A3
:102F500004C00E94970C811119C063E572E084E1FE
:102F600095E00E94C22060E070E0CB010E947515E0
:102F7000882349F00E94A40C68E172E084E195E0A6
:102F80000E94E1205D9A0E945C1410C00E945C14B3
:102F900080916005823209F0C5C08091620583325C
:102FA00009F0C0C080916C0581FDC2C080916005B0
:102FB000823231F580916205833211F581E00E9401
:102FC000710D80916C0582FF08C063E372E084E1BB
:102FD00095E00E94E1200E94BD1664E170E080E06F
:102FE00090E00E94421F21E041E0BE016F5F7F4FF1
:102FF00080E20E945B0F811103C081E080938B040B
:103000006EE372E084E195E00E94C2208FE00E94AE
:10301000FE0380E00E94DB061092CD0480E00E9457
:10302000FD0580E0883170F08093DA0283E08093C0
:1030300031050E94D90780918B04882371F00E948A
:103040000C170BC021E0280FE82FF0E0EC5CFA4FE2
:103050009785992349F3822FE5CF80916605982FB4
:103060009D7F983229F440E052EC61E070E027C087
:10307000893271F440EA56E861E070E084E195E05D
:103080000E946A018091C20080628093C2001BC0CE
:1030900080915C058873803129F440E855E260E056
:1030A00070E00DC0409135055091360560913705AF
:1030B000709138054A3051056105710570F384E15E
:1030C00095E00E946A0184E195E00E9419018091D7
:1030D0006505843229F08091C1008F7E8093C10004
:1030E00080916605853241F08852833028F08091C6
:1030F000C100877F8093C10010928D040E941F1F22
:103100006093C9047093CA048093CB049093CC0459
:103110001092D0041092D1041092D2042196E4E0CF
:103120000C94772280916C058B7F80936C053ACF4D
:1031300082FD3CCF64EF71E080E090E00E94751565
:10314000882309F433CF0E94A40C68E172E084E183
:1031500095E00E94E1200E945C145D9A27CFA1E0D7
:10316000B0E0E5EBF8E10C945D2280918B048230B5
:10317000D9F48091CD04805A898321E041E0BE01D9
:103180006F5F7F4F80E20E94060F882369F08FEF08
:1031900080938B040E94131F6093870470938804AC
:1031A0008093890490938A042196E2E00C9479221A
:1031B000A1E0B0E0EEEDF8E10C945D2280918B048B
:1031C0008230D1F421E041E0BE016F5F7F4F80E2A9
:1031D0000E945B0F882371F08FEF80938B040E9415
:1031E000131F6093870470938804809389049093DD
:1031F0008A0402C0898101C08FEF2196E2E00C941D
:103200007922AAE1B0E0E7E0F9E10C944F220E94B4
:10321000F5018CE00E94E40581110BC06BE872E0BF
:1032200084E195E00E94E12080E00E94DB060E949C
:10323000D9070E941F1F6B017C010E94D81891E0E2
:10324000853009F090E01FEF80913105843009F45A
:1032500004C2911102C282C00E9417069093B60464
:103260008093B5045D9A8092C9049092CA04A0929A
:10327000CB04B092CC0410928C048091B304909152
:10328000B404880F991F81609093B4048093B304B1
:103290005E9880E00E945C1580915C0588738032A6
:1032A00009F42CC280913B04982F9E7309F047C209
:1032B000F89480915C054CE354E06DE071E0877018
:1032C0000E94A3040E947613789490913B0480910D
:1032D000850490FF2EC2811124C06EE8E62E64E0C2
:1032E000F62E00E010E0D7018D919C9194FD0CC06A
:1032F000F801EE0FFF1FE35FFE4F808191810E9476
:103300005405F701918380830F5F1F4FF2E0EF0EAA
:10331000F11C0031110539F70E94A90C81E080935E
:10332000850480918D04811103C081E080938D0418
:103330001092AE041092B0041092AF0480915C051C
:10334000887309F072C20E94EA1383E0809331050A
:103350000E94B60781E0809386045D980E941F1F3B
:103360004B015C010E94131F6B017C0180918C0456
:10337000823008F063C04090C9045090CA04609045
:10338000CB047090CC048091C5049091C604A091A8
:10339000C704B091C80484159505A605B70509F4BE
:1033A0004DC084E395E00E9428046C5D754081095E
:1033B0009109950184010419150926093709601737
:1033C000710782079307D0F54092C5045092C60456
:1033D0006092C7047092C8040E941306282F80933D
:1033E000B9048091BA049091BB04820F911D90930F
:1033F000BB048093BA046091BC046F5F6093BC040B
:103400006930E0F070E00E94F8217093BB04609393
:10341000BA048091B80423E0829F600D711D1124CD
:1034200076956795769567956093B8040E94AF137B
:103430001092BB041092BA041092BC0480918D04C7
:103440000091DA02882351F110918C04101708F0D2
:10345000BDC24090C9045090CA046090CB047090E3
:10346000CC04A501940124193509460957092F8B6D
:10347000388F498F5A8F84E395E00E942804685161
:103480007C4F8F4F9F4F2F89388D498D5A8D6217F2
:1034900073078407950708F460C398C28091C90434
:1034A0009091CA04A091CB04B091CC047501640141
:1034B000C81AD90AEA0AFB0A84E395E00E942804A4
:1034C0009B01AC01A02FB0E00E94C9216C157D05C5
:1034D0008E059F0558F48092C9049092CA04A09268
:1034E000CB04B092CC0481E0809386048091AF0439
:1034F000811116C080916605883219F40E94B20FBE
:103500000FC0893239F460918C048091AE040E941E
:10351000101006C08A3221F48091AE040E940D1270
:1035200080918604882309F472C0E091CD04EF5F96
:10353000E093CD04E83131F0F0E0EC5CFA4F8785A0
:10354000811102C01092CD0480916E0590916F059B
:10355000A0917005B0917105892B8A2B8B2B09F4F2
:103560004EC08091BD049091BE04A091BF04B09163
:10357000C004892B8A2B8B2B09F441C00E94960A28
:10358000082F10E02091090130910A013695279506
:10359000369527952C5E3F4F2017310770F40E9417
:1035A000131F68517C4F8F4F9F4F6093BD047093E2
:1035B000BE048093BF049093C004C801880F991F74
:1035C000880F991F4091090150910A019A01220F19
:1035D000331F240F351F820F931F9695879596955D
:1035E000879590930A018093090160913905709144
:1035F0003A0580913B0590913C050E9470068091B0
:10360000CD040E94FD050E94AF181092860480919F
:103610008B048F3F09F016C30E94131F009187048B
:10362000109188042091890430918A04601B710BE9
:10363000820B930B693E73408105910508F402C328
:103640000E94131F609387047093880480938904F9
:1036500090938A040E940C17F5C20E941F1F4B0111
:103660005C01809131058430D1F48FE70E94C2055E
:103670000BE314E0E0915C05E770F0E0E756FD4FE6
:10368000808190E098012B533440281739070CF0C3
:10369000E3CD0E94D505D8018D938D01EBCFE0914C
:1036A0005C05E770F0E0E756FD4F40814F5F21E099
:1036B000BE016F5F7F4F80E20E945B0F882371F035
:1036C00010938B040E94131F6093870470938804E7
:1036D0008093890490938A0490E0B6CDE0915C05D4
:1036E000E770F0E0E756FD4F408150E0BE016E5FAD
:1036F0007F4F8BE394E00E948A22B5CD8091D20463
:103700008111D0CD8091D3049091D404A091D5049F
:10371000B091D604A7019601281B390B4A0B5B0B0D
:10372000DA01C90181349244AF40B10508F01AC1F1
:10373000B9CD882309F4F5CD10928504F2CD982FE8
:103740009873983309F0EDCD90911B04892787FF7A
:10375000E8CD905890931B0480916605853209F05E
:10376000E0CD80915C05887310E0803209F048C09C
:1037700037E0F32E42E0E42EDD24D394212F30E015
:1037800080913B04877090E0821793070CF4C9CDB9
:103790001F5FE12FF0E0E55CFB4F0081602F84E1CB
:1037A00095E00E942B012091D204822F90E0893075
:1037B000910520F7FC01EC5CFF4F0C9484220E3F36
:1037C000E9F61092D0041092D104D092D204D6CF50
:1037D0000093D004E092D204D1CF8091D1048F5FC6
:1037E0008093D1049091D004891740F2F092D204D2
:1037F000C5CF2F5F2093D204C1CF1092D204BECF89
:10380000212F30E080913B04877090E0821793076E
:103810000CF487CD1F5FE12FF0E0E55CFB4F60818A
:1038200084E195E00E942B01EBCF90911B04209145
:103830003B04292726FD8BC0907C20E4922790939F
:103840001B048032F1F410E0212F30E080915D05FF
:1038500090E00197281739070CF0AFC084E195E09C
:103860000E94A100181619060CF0A7C01F5F84E182
:1038700095E00E94D400E12FF0E0E55EFB4F8083ED
:10388000E3CF84E195E00E94A10018161906F4F434
:1038900010E0212F30E080915D0590E0019728171E
:1038A00039070CF08CC084E195E00E94A100181645
:1038B00019060CF084C01F5F84E195E00E94D400DB
:1038C000E12FF0E0E55EFB4F8083E3CF8091B90408
:1038D00080931C0480916005863211F482E105C05A
:1038E00080916305863251F48EE00E946C2095959C
:1038F00087959595879580931D0402C010921D04AD
:1039000080916205863211F483E105C080916405DF
:10391000863251F48FE00E946C209595879595959D
:10392000879580931E0402C010921E048091B504F6
:103930009091B60490931F04809320048091B30467
:103940009091B4049F770E94750580932104609143
:103950005D058BE194E00E94BE090E942D0A882338
:10396000E1F3F1CC84E195E00E94A10020E031E098
:10397000281B390B43E0369527954A95E1F744E635
:10398000429FC001439F900D11242091CE0430919D
:10399000CF044091B80450E065E0969587956A950C
:1039A000E1F760E00E94050DC092D304D092D404E8
:1039B000E092D504F092D60475CC1F7301C0177342
:1039C00080911B04182B10931B04C1CF10131EC031
:1039D0008091C9049091CA04A091CB04B091CC0409
:1039E00024013501481A590A6A0A7B0A84E395E0E2
:1039F0000E9428049B01AC01A12FB0E00E94C921C4
:103A0000641575058605970508F4E9C080918C0456
:103A1000882309F46BCD809176058823D9F09091A5
:103A2000AE04911117C04091C1045091C20460913D
:103A3000C3047091C40446015701841A950AA60A6A
:103A4000B70A90E00E94FC02681579058A059B057B
:103A500008F4D9C0809178058823D9F09091B004FA
:103A6000911117C04091C1045091C2046091C304E8
:103A70007091C40446015701841A950AA60AB70A30
:103A800090E00E94FC02681579058A059B0508F400
:103A9000D1C0809177058823D9F09091AF0491111E
:103AA00017C04091C1045091C2046091C304709149
:103AB000C40446015701841A950AA60AB70A90E081
:103AC0000E94FC02681579058A059B0508F4B6C0BA
:103AD00080916E0590916F05A0917005B091710570
:103AE000892B8A2B8B2B09F401CD8091BD049091F9
:103AF000BE04A091BF04B091C0040097A105B10518
:103B000009F4F4CCC81AD90AEA0AFB0AF7FCEECC8D
:103B100080916C05829581700E94D90A80E00E9494
:103B2000DB060E94B6070E94131F6B017C012091E7
:103B3000730530E0A8EEB3E00E94BA21C60ED71E8E
:103B4000E81EF91E6894C0F8C092BD04D092BE046D
:103B5000E092BF04F092C004C9CC8091B30490916C
:103B6000B404880F991F9093B4048093B30481E048
:103B700080938604111119C0C092C104D092C2046E
:103B8000E092C304F092C4041092BD041092BE04EB
:103B90001092BF041092C0048091CE049091CF0483
:103BA00001969093CF048093CE041F5F10938C04F2
:103BB00084E395E00E942804640D751D861D971D01
:103BC0006093C9047093CA048093CB049093CC048F
:103BD0005E9A81E00E945C150E94AF1317CF10928D
:103BE000B4041092B30481E0809386041092B80468
:103BF0000E94AF138092C9049092CA04A092CB0491
:103C0000B092CC0403CF81E08093AE040E942414D0
:103C1000809172050E9421036C0D7D1D8E1D9F1DDC
:103C200061606093BD047093BE048093BF04909361
:103C3000C00410CF81E08093B0042BCF81E080934B
:103C4000AF0446CF6A96E0E10C946B228F92AF925C
:103C5000CF92EF92FF920F931F93E0E28E2EF8E93E
:103C6000AF2ECC24C394A1ECEA2EF12C00EC10E092
:103C700024EC30E045EC50E060E084E195E00E9407
:103C80007A021092D0041092D1041092D2041F91A3
:103C90000F91FF90EF90CF90AF908F90089582306A
:103CA000E8F4E82FF0E0EE0FFF1FE257FA4F7183C0
:103CB0006083813041F0809169008C7F842B8093F8
:103CC0006900E89A089580916900440F551F440FD8
:103CD000551F837F842B80936900E99A08951F9272
:103CE0000F920FB60F9211242F933F934F935F9330
:103CF0006F937F938F939F93AF93BF93EF93FF93B4
:103D000080918E0590918F05892B29F0E0918E0589
:103D1000F0918F050995FF91EF91BF91AF919F9120
:103D20008F917F916F915F914F913F912F910F9064
:103D30000FBE0F901F9018951F920F920FB60F9203
:103D400011242F933F934F935F936F937F938F93A0
:103D50009F93AF93BF93EF93FF93809190059091C2
:103D60009105892B29F0E0919005F0919105099535
:103D7000FF91EF91BF91AF919F918F917F916F9143
:103D80005F914F913F912F910F900FBE0F901F9019
:103D900018951F920F920FB60F9211242F933F93F5
:103DA0008F939F93AF93BF938091930590919405C8
:103DB000A0919505B09196053091920523E0230FCF
:103DC0002D3720F40196A11DB11D05C026E8230F53
:103DD0000296A11DB11D20939205809393059093A7
:103DE0009405A0939505B0939605809197059091C1
:103DF0009805A0919905B0919A050196A11DB11D54
:103E00008093970590939805A0939905B0939A0590
:103E1000BF91AF919F918F913F912F910F900FBEC6
:103E20000F901F9018952FB7F8946091930570919B
:103E3000940580919505909196052FBF08953FB701
:103E4000F8948091970590919805A0919905B0916B
:103E50009A0526B5A89B05C02F3F19F00196A11D14
:103E6000B11D3FBF6627782F892F9A2F620F711DD2
:103E7000811D911D42E0660F771F881F991F4A958B
:103E8000D1F70895CF92DF92EF92FF92CF93DF9315
:103E90006B017C010E941F1FEB01C114D104E104DE
:103EA000F10479F00E941F1F6C1B7D0B683E73406C
:103EB000A0F381E0C81AD108E108F108C851DC4F2D
:103EC000ECCFDF91CF91FF90EF90DF90CF900895EE
:103ED0000197009739F0880F991F880F991F029753
:103EE0000197F1F70895789484B5826084BD84B514
:103EF000816084BD85B5826085BD85B5816085BDE5
:103F0000EEE6F0E0808181608083E1E8F0E01082FD
:103F1000808182608083808181608083E0E8F0E03E
:103F2000808181608083E1EBF0E080818460808328
:103F3000E0EBF0E0808181608083EAE7F0E080815F
:103F400084608083808182608083808181608083BF
:103F50008081806880831092C1000895833081F051
:103F600028F4813099F08230A1F008958630A9F0CC
:103F70008730B9F08430D1F4809180008F7D03C008
:103F8000809180008F7780938000089584B58F772B
:103F900002C084B58F7D84BD08958091B0008F7775
:103FA00003C08091B0008F7D8093B0000895CF93BF
:103FB000DF9390E0FC01E257FF4F2491FC01EE55A6
:103FC000FF4F8491882349F190E0880F991FFC01ED
:103FD000E653FF4FA591B49180549F4FFC01C591CA
:103FE000D4919FB7611108C0F8948C9120958223D9
:103FF0008C93888182230AC0623051F4F8948C91AA
:10400000322F309583238C938881822B888304C040
:10401000F8948C91822B8C939FBFDF91CF91089560
:10402000A1E0B0E0E6E1F0E20C945B22282F30E062
:10403000F901E658FF4F8491F901E257FF4F1491BF
:10404000F901EE55FF4F04910023C9F0882321F0B8
:1040500069830E94AE1F6981E02FF0E0EE0FFF1F21
:10406000E054FF4FA591B4919FB7F8948C916111E2
:1040700003C01095812301C0812B8C939FBF219693
:10408000E4E00C947722CF93DF93282F30E0F901FE
:10409000E658FF4F8491F901E257FF4FD491F9019F
:1040A000EE55FF4FC491CC2391F081110E94AE1FB9
:1040B000EC2FF0E0EE0FFF1FEA54FF4FA591B491F3
:1040C0002C912D2381E090E021F480E002C080E07B
:1040D00090E0DF91CF9108958E3008F08E50877078
:1040E0002091BD0190E4299F90011124822B80939F
:1040F0007C0080917A00806480937A0080917A00BD
:1041000086FDFCCF809178002091790090E0922B81
:104110000895A0E0B0E0EFE8F0E20C9457226C01C3
:104120007A01EB01E60EF71E00E010E0CE15DF0588
:1041300061F06991D601ED91FC910190F081E02D43
:10414000C6010995080F191FF1CFC801CDB7DEB719
:10415000E8E00C9473226115710589F0DB010D9084
:104160000020E9F7AD0141505109461B570BDC0116
:10417000ED91FC910280F381E02D0995089580E096
:1041800090E008950E94AB200895DC01ED91FC9130
:104190000190F081E02D099508950F931F93CF931F
:1041A000DF93EC016DE00E94C5208C016AE0CE0136
:1041B0000E94C520800F911FDF91CF911F910F9119
:1041C00008950F931F93CF93DF93EC010E94AB20D0
:1041D0008C01CE010E94CD20800F911FDF91CF91E5
:1041E0001F910F9108950F931F93CF93DF93EC01CD
:1041F0000E94C5208C01CE010E94CD20800F911F0E
:10420000DF91CF911F910F910895A1E2B0E0EBE013
:10421000F1E20C9453227C01C42EE52FCB01D22E67
:1042200019A221E02D1510F02AE0D22E8E010F5D8B
:104230001F4F8D2C912CA12CB12C6C2D7E2FA50104
:1042400094010E940C228C2DD29E801911240150C1
:1042500011098A3010F4805D01C0895CF801808307
:10426000211531054105510521F0C22EE32FCA0168
:10427000E4CFB801C7010E94AB20A196ECE00C94FA
:104280006F22A0E0B0E0E7E4F1E20C945722EC01E9
:104290006A017B012115310541F4E881F981019022
:1042A000F081E02D642F09951DC02A303105A9F455
:1042B00077FF12C06DE20E94C5208C01442755276C
:1042C000BA014C195D096E097F092AE0CE010E94EE
:1042D0000521800F911F06C02AE0B701A601CE017B
:1042E0000E940521CDB7DEB7E8E00C9473220F934E
:1042F0001F93CF93DF93EC019A01AB01662757FD23
:104300006095762F0E9441218C01CE010E94CD2024
:10431000800F911FDF91CF911F910F91089521156B
:10432000310549F4DC01ED91FC910190F081E02D23
:10433000642F099508950E94052108959A01462F3A
:1043400050E060E070E00E948F2108959A01AB0177
:1043500060E070E00E948F2108950E94731F0E9408
:104360004917C0E0D0E00E9401192097E1F30E94B4
:104370000000F9CFA29FB001B39FC001A39F700DB1
:10438000811D1124911DB29F700D811D1124911D5D
:1043900008950E94BA21A59F900DB49F900DA49FEF
:1043A000800D911D11240895B7FF0C94C9210E941E
:1043B000C921821B930B0895DB018F939F930E9469
:1043C000C921BF91AF91A29F800D911DA39F900D18
:1043D000B29F900D11240895991B79E004C0991F94
:1043E000961708F0961B881F7A95C9F7809508954F
:1043F000AA1BBB1B51E107C0AA1FBB1FA617B7070B
:1044000010F0A61BB70B881F991F5A95A9F7809526
:104410009095BC01CD010895A1E21A2EAA1BBB1BE9
:10442000FD010DC0AA1FBB1FEE1FFF1FA217B30780
:10443000E407F50720F0A21BB30BE40BF50B661F96
:10444000771F881F991F1A9469F76095709580955A
:1044500090959B01AC01BD01CF010895052E97FBFE
:104460001EF400940E94452257FD07D00E940C22A2
:1044700007FC03D04EF40C9445225095409530959E
:1044800021953F4F4F4F5F4F0895909580957095C0
:1044900061957F4F8F4F9F4F08952F923F924F927C
:1044A0005F926F927F928F929F92AF92BF92CF92C4
:1044B000DF92EF92FF920F931F93CF93DF93CDB7CD
:1044C000DEB7CA1BDB0B0FB6F894DEBF0FBECDBF45
:1044D00009942A88398848885F846E847D848C8416
:1044E0009B84AA84B984C884DF80EE80FD800C811F
:1044F0001B81AA81B981CE0FD11D0FB6F894DEBF02
:104500000FBECDBFED010895EE0FFF1F0590F49192
:10451000E02D0994FB01DC0102C001900D92415095
:104520005040D8F70895F999FECF92BD81BDF89A11
:10453000992780B50895262FF999FECF1FBA92BD0D
:1045400081BD20BD0FB6F894FA9AF99A0FBE019674
:064550000895F894FFCF6E
:1045560000009B05200008409CFF00881300020015
:104566000200020002000200020002000200020035
:104576000200020002000200020002000200200106
:1045860022012602210227032303260426052605E7
:104596002B0624072507280729072A80250000055A
:1045A600400AA1204EA50020244EA52C2330C0127F
:1045B60000001A400AA1204EA5001B1E27522C23DC
:1045C600308025000005400AA1204EA50020244E7B
:1045D600A52C2330004B000006400AD0009D490060
:1045E6007B289D492C233000E1000005400A450147
:1045F600D7DC03B81E0EBF00232E48E801008A4010
:104606000A6001555502AD1E20000023C8017363E0
:10461600616E6E6572206D6F646500545820746912
:104626006D656F7574210057616974696E672062E4
:10463600696E640A00476F7420706B740A006461C7
:10464600746120676F6F640A004F70656E4C525339
:104656006E672052582028676974736C7929200088
:10466600206F6E204857200053617665642062698A
:104676006E64206461746120746F20454550524F0A
:104686004D0A004920616D20736C61766500456EA8
:10469600746572696E67206E6F726D616C206D6FE6
:1046A600646500454550524F4D2064617461206E2B
:1046B6006F742076616C6964206F722062696E6423
:1046C600206A756D706572207365742C20666F7232
:1046D60063696E672062696E640A005258206861D9
:1046E6006E6700B200F4014C0300070B0C101115A5
:1046F60000091203130E0F00010200000010000053
:104706000008002000000100000200000001000077
:1047160002000000002B018920A100D400FB001933
:08472600019500B9006A0100D1
:00000001FF
