:100000000C9448060C94E52A0C94122B0C94700660
:100010000C940C1F0C9470060C9470060C947006D3
:100020000C9470060C9470060C9470060C94700678
:100030000C9470060C9470060C9470060C94700668
:100040000C943F2B0C9470060C94A4090C94E909B1
:100050000C9470060C9470060C9470060C94700648
:100060000C9470060C9470068915EE15CA15CD1502
:10007000D015D315D615D915DC15EE15E515EE15E9
:10008000E815871889188918871889188918891810
:100090008918891889188918891889188918891858
:1000A000891889180D1889188918891889188918C4
:1000B0007E17891889188918891889188918891844
:1000C0008918891889188918891889188918891828
:1000D0001918191819181918191819181918191898
:1000E00019188918891889188918891889187E1784
:1000F0001818181818181818891826182C183218D3
:1001000038183E1844184A1850185A1864186E18AF
:100110007818BF17811789188918891889180D1838
:1001200089188918891889188918891889188918C7
:100130001718171817181718891826182C18321896
:1001400038183E1844184A1850185A1864186E186F
:100150007818BF17811789188918891889180D18F8
:10016000BC18BC18BC18BC18BC18BC18BC18BC18EF
:10017000BC18BC18BC18BC18BC18D319D319D31997
:10018000D319D319D31901190B1915191F197D1971
:1001900087199619A7193C1B511B5D1B661B751B04
:1001A0009B1BA41B021CB71B021CCC1BAB24B12441
:1001B000B724BE24CC24EE240C25456E7465722031
:1001C0006D656E752E2E2E00546F67676C6564200A
:1001D0006D6963726F50504D00546F67676C656452
:1001E00020696E7665727465642050504D2100540C
:1001F0006F67676C6564205458206D7574696E670D
:100200002100546F67676C65642074656C656D656B
:10021000747279210050726F746F636F6C20657215
:10022000726F7220776974682052580054696D6546
:100230006F7574207768656E20636F6E6E6563748A
:10024000696E6720746F2052580050726573732076
:10025000616E79206B657920746F2063616E6365D0
:100260006C00436F6E6E656374696E6720746F20F7
:1002700052582C20706F77657220757020746865F5
:100280002052582028776974682062696E64207053
:100290006C7567206966206E6F74207573696E6770
:1002A00020616C776179732062696E642900546FF4
:1002B00067676C65642027696D6D65646961746545
:1002C000206F75747075742700546F67676C656470
:1002D0002027736C617665206D6F64652700546F0D
:1002E00067676C65642027616C7761797320626948
:1002F0006E642700546F67676C65642050504D2012
:100300006368616E6E656C206C696D69740053651D
:1003100074205253534920696E6A656374696F6E25
:10032000206368616E6E656C2028303D3D646973A2
:1003300061626C6529005365742050504D206D69D1
:100340006E696D756D2073796E63005365742062FC
:100350006561636F6E20696E74657276616C0053BF
:10036000657420626561636F6E2064656C617900FD
:1003700053657420626561636F6E20667265717586
:10038000656E637920696E20487A3A20303D646951
:100390007361626C652C2050783D504D522063682B
:1003A000616E6E656C20782C2046783D4652532055
:1003B0006368616E6E656C207800536574205057D9
:1003C0004D2073746F702064656C61792028302033
:1003D00064697361626C65642C20312D323535207F
:1003E0003D3D20302E3173202D2035306D696E2932
:1003F000005365742050504D2073746F70206465F5
:100400006C61792028302064697361626C65642CAA
:1004100020312D323535203D3D20302E3173202DB9
:100420002035306D696E2900536574206661696CF2
:10043000736166652064656C617920283020646989
:100440007361626C65642C20312D323535203D3D61
:1004500020302E3173202D2035306D696E29002A11
:100460002A2A2A2A2A2A2A2A2A2A2A2A2A2A2A2AEC
:100470002A2A2A2A2A2A2A2A2A2A2A2A00525820BA
:1004800041636B6564202D207265766572742073FC
:1004900075636365737366756C21002A2A2A2A2A9C
:1004A0002A2A2A2A2A2A2A2A2A2A2A2A2A2A2A2AAC
:1004B0002A2A2A2A2A2A2A2A002A2A2A2A2A2A2AC6
:1004C0002A2A2A2A2A2A2A2A2A2A2A2A2A2A2A2A8C
:1004D0002A2A2A2A2A2A0052582041636B6564205E
:1004E0002D20757064617465207375636365737323
:1004F00066756C21002A2A2A2A2A2A2A2A2A2A2AC6
:100500002A2A2A2A2A2A2A2A2A2A2A2A2A2A2A2A4B
:100510002A2A0056616C69642063686F6963657399
:10052000206172653A205B315D2D5B31365D20289C
:100530006368616E6E656C20312D3136290053651C
:1005400074206F757470757420666F7220706F728E
:100550007420005B585D2061626F72742063686173
:100560006E67657320616E642065786974205258E7
:1005700020636F6E666967005B535D20736176650B
:100580002073657474696E677320746F205258000D
:100590005B525D20726576657274205258207365D7
:1005A0007474696E677320746F2064656661756C1E
:1005B000747300557365206E756D62657273205B90
:1005C000312D445D20746F206564697420706F72F2
:1005D0007473205B452D515D20666F7220736574C6
:1005E00074696E677300202D207265636569766596
:1005F0007220636F6E666967757261746F722C200A
:10060000727820737720000A0A6F70656E4C52531F
:100610006E6720005365742074656C656D65747237
:1006200079207061636B65742073697A653A200084
:100630005365742073657269616C206261756472C0
:100640006174653A200056616C69642063686F6963
:100650006365733A2031202D20342B34202F203233
:10066000202D2038202F2033202D20382B34202FF0
:100670002034202D203132202F2035202D203132E2
:100680002B34202F2036202D203136005365742046
:100690004368616E6E656C20636F6E6669673A20B1
:1006A0000053657420446174617261746520283060
:1006B0002D32293A200053657420486F70206368FA
:1006C000616E6E656C7320286D61782032342C2049
:1006D00073657061726174656420627920636F6D07
:1006E0006D6173292076616C69642076616C756533
:1006F0007320312D3235353A2000536574206368FC
:10070000616E6E656C2073706163696E6720287816
:1007100031306B487A293A200053657420524620C4
:10072000706F7765722028302D37293A2000536585
:1007300074205246206D61676963202868657829B6
:1007400020652E672E2030784445414446303044A1
:100750003A2000536574206261736520667265718A
:1007600075656E63792028696E20487A293A2000E1
:100770005B5A5D20656E746572207265636569768B
:10078000657220636F6E66696775726174696F6EFA
:10079000207574696C79005B465D20646973706CC8
:1007A00061792061637475616C206672657175652D
:1007B0006E636965732075736564005B525D2063C9
:1007C000616C63756C6174652072616E646F6D201D
:1007D0006B657920616E6420686F70206C6973743A
:1007E000005B495D207265696E697469616C697A44
:1007F000652073657474696E677320746F20736B02
:10080000657463682064656661756C7473005B5819
:100810005D20726576657274206368616E676573CA
:1008200020616E642065786974206D656E75005B6B
:10083000535D20736176652073657474696E6773A8
:1008400020746F20454550524F4D20616E642065E5
:10085000786974206D656E7500557365206E756DD1
:1008600062657273205B302D395D20746F20656482
:10087000697420706172616D657465727300202DFA
:100880002053797374656D20636F6E666967757246
:100890006174696F6E000A0A6F70656E4C52536E18
:1008A0006720005129204F75747075742062656649
:1008B0006F7265206C696E6B20283D465329203A83
:1008C0002000502920536C617665206D6F6465208F
:1008D000286578706572696D656E74616C293A205F
:1008E000004F292054696D65642042494E442061BF
:1008F00074207374617274757020203A20004E2940
:100900002050504D206F7574707574206C696D693E
:1009100074656420202020203A200044495341423D
:100920004C4544004D292050504D205253534920EE
:10093000746F206368616E6E656C202020203A2001
:10094000004C292050504D206D696E696D756D20E9
:1009500073796E63202875732920203A200044495A
:100960005341424C4544004B29204661696C7361F8
:10097000666520626561636F6E20696E74762E20F5
:1009800028312D32353573293A20004A2920466115
:10099000696C7361666520626561636F6E20646572
:1009A0006C61792028302D323535203D3E203130A4
:1009B00073202D203135306D696E293A2000492988
:1009C000204661696C7361666520626561636F6E64
:1009D000206672712E203A200048292050574D2061
:1009E00073746F702064656C617920202020202052
:1009F000203A200047292050504D2073746F7020FA
:100A000064656C6179202020202020203A20004657
:100A100029204661696C736166652064656C617943
:100A2000202020202020203A200050574D206368AD
:100A3000616E6E656C200066756E6374696F6E3AE8
:100A400020002920706F72742000506F77657254F7
:100A50006F77657200445446205548462033322D46
:100A60006269742031306368004F70656E4C525378
:100A70006E675258206D696E6920342F36636800A6
:100A8000466C7974726F6E2F4F72616E6765525843
:100A900020554846203863680052582074797065A4
:100AA0003A200044697361626C656400487A0020F2
:100AB0003D3D200043616C63756C6174656420701A
:100AC00061636B657420696E74657276616C3A203F
:100AD0000044292054656C656D65747279207061DD
:100AE000636B65742073697A653A20004229204D52
:100AF0006963726F202868616C66292050504D2010
:100B00002020203A00412920496E76657274656480
:100B10002050504D20696E20202020203A0030299E
:100B2000204D7574652062757A7A657220286D6F24
:100B300073746C79293A0039292053657269616CA4
:100B40002062617564726174653A005472616E73FB
:100B5000706172656E7420284D61766C696E6B29C8
:100B600000736D617274506F7274004672536B79CA
:100B7000005472616E73706172656E7400446973C3
:100B800061626C65640038292054656C656D65741C
:100B900072793A2020202020202000372920436825
:100BA000616E6E656C20636F6E6669673A20200027
:100BB00036292044617461726174652028302D32B9
:100BC000293A20202000352920486F702063686171
:100BD0006E6E656C733A202020202000342920435B
:100BE00068616E6E656C2073706163696E673A2030
:100BF0002000332920524620706F776572202830FC
:100C00002D37293A202020003229205246206D61BC
:100C10006769633A202020202020202020003129ED
:100C20002042617365206672657175656E63793AFD
:100C3000202020000000000700020100000304063D
:100C400000000000000000000102040810204080A5
:100C50000102040810200102040810200404040406
:100C60000404040402020202020203030303030356
:100C700000000000230026002900000000002500DD
:100C800028002B0000000000240027002A00A22AD0
:100C900011241FBECFEFD8E0DEBFCDBF13E0A0E030
:100CA000B1E0E6E8F2E602C005900D92AE3CB10775
:100CB000D9F716E0AEECB3E001C01D92A93EB10732
:100CC000E1F71CE0C0E9DCE004C02297FE010E94CD
:100CD000452FCE38D107C9F70E94782E0C944131A8
:100CE0000C940000FC01A289B3899C918689258916
:100CF000822B809589238C93138E0895DC015B965B
:100D00002C915B97222379F05796ED91FC9158979F
:100D10008081918122813381821B930B26813781CF
:100D20008223932308958FEF9FEF0895DC015B9654
:100D30002C915B97222391F05996ED91FC915A9753
:100D40008081918122813381821B930B80959095C4
:100D50002681378182239323019608958FEF9FEF99
:100D60000895DC015B962C915B97222359F05796EE
:100D7000ED91FC91589720813181828193812817D0
:100D8000390719F48FEF9FEF089582819381A08531
:100D9000B185A80FB91F8C91228133812F5F3F4FFE
:100DA00046815781242335233383228390E008959D
:100DB000DC015B962C915B97222359F05796ED91BD
:100DC000FC915897208131818281938128173907BE
:100DD00019F48FEF9FEF0895828193810084F1854C
:100DE000E02DE80FF91F808190E00895DC0157960F
:100DF000ED91FC915897228133813183208359965C
:100E0000ED91FC915A97808191819383828308951B
:100E1000FC01838D8823C1F1A18DB28D2D913C9170
:100E200011972F5F3F4F16968D919C91179728230E
:100E30003923848D811108C012968D919C9113974E
:100E400028173907C9F308C012968D919C91139702
:100E50002817390789F718C08D919C91119718961A
:100E60000D90BC91A02DA80FB91F6C93A18DB28DD0
:100E700011963C932E93A289B3898C919689892BE4
:100E80008C9381E090E0089580E090E00895A4E0E4
:100E9000B0E0EDE4F7E00C941A2F8C019A01AB015D
:100EA000DC015B968C915B97882379F0ED91FC9146
:100EB0000484F585E02DC80129833A834B835C8344
:100EC00009955C814B813A812981D8015996ED9130
:100ED000FC915A9713821282118210825796ED91DB
:100EE000FC915897138212821182108281E05B96E6
:100EF0008C935B97121613061406150694F55096FC
:100F0000ED91FC9151972115B1EE3B07410551053B
:100F1000B1F181E090E0D80154960C9002C0880FA6
:100F2000991F0A94E2F7808360E079E08DE390E016
:100F30000E94ED2E2150310941095109CA01B90120
:100F400022E030E040E050E00E94ED2ED8011C96F7
:100F5000ED91FC911D9730831E96ED91FC911F97AA
:100F60002083D8015296ED91FC915397808155963C
:100F70009C91892B80832496E4E00C94362F108278
:100F800020E130E0E3CF80916206813019F482E005
:100F90008093620680916206833019F484E0809326
:100FA00062060895A8950895CF93C1E0A1E0B0E04E
:100FB0002C2F30E0FD010C2E02C0EE0FFF1F0A9413
:100FC000E2F74E175F0710F0CF5FF2CF21503109E3
:100FD00041E050E0FA0102C0EE0FFF1F2A95E2F750
:100FE0009F0121503109FC01378326837187608777
:100FF000CF9108954F925F926F927F928F92AF92AE
:10100000CF92EF92FF920F931F93CF93DF93CDB7C1
:10101000DEB7FC011382128288EE482E83E0582E40
:10102000612C712C448255826682778285E893E038
:10103000918380835587448737872687118B008B60
:10104000F38AE28AC48AA58A868A2AE0629FC0015E
:1010500011249C012053394F308F278B8A53994F8D
:10106000928F818F81E090E0062E01C0880F0A9454
:10107000EAF79091C506982B9093C506DF91CF9122
:101080001F910F91FF90EF90CF90AF908F907F9036
:101090006F905F904F900895EF92FF920F931F9380
:1010A000CF93DF93EC0179018F89988D0E94D4074B
:1010B000A801B701898D9A8D0E94D407CDB7DEB7FC
:1010C000E6E00C94342F20916306309164063827B3
:1010D00048E0C901880F991F37FF06C09C0151E203
:1010E000252750E1352701C09C01415091F73093ED
:1010F000640620936306089588E38093650680E084
:1011000091EEA0E0B0E08093660690936706A0930E
:101110006806B09369068DE180938E0687E0809320
:10112000720680EC92E9ADEEB9E180936A06909385
:101130006B06A0936C06B0936D0685E080937306F2
:101140008DEE9EEFADEABEED80936E0690936F0636
:10115000A0937006B0937106E4E7F6E080E090E0BB
:10116000863028F4DC01A953BC4F2C9101C020E04B
:10117000219301968831910599F782E080938C063E
:1011800082E280938D06089580EC91EDA8E9BBE1A1
:101190008093AB069093AC06A093AD06B093AE06D9
:1011A00080E090E0A0E0B0E58093AF069093B006B9
:1011B000A093B106B093B206E3EBF6E080E0819332
:1011C0008F5F8031E1F70895A0E0B0E0EAEEF8E04B
:1011D0000C940E2FD82F0E94952B61157105810557
:1011E0009105C9F30E94B12F10926E0610926F06FE
:1011F0001092700610927106C4E0812C912C54015B
:101200008A94C0906E06D0906F06E0907006F090C1
:101210007106FE2CED2CDC2CCC240E94AC2FA501F9
:1012200094010E94ED2E6C0D7D1D8E1D9F1D6093FF
:101230006E0670936F068093700690937106C1508E
:1012400001F7DD2309F450C004E716E0E801A12C02
:10125000B12C62E3C62ED12CE12CF12C888188239D
:1012600009F442C0B39419F40E947C083DC00E9466
:10127000AC2FA70196010E94ED2EE1E0E60FA4E756
:10128000B6E08A2F801B8A1520F48D918E13F9CF3A
:10129000E9CF2091730630E0A0E1B7E20E94852EED
:1012A0009B01AC01AE2FB0E00E94942E40906A06E4
:1012B00050906B0660906C0670906D06640D751D05
:1012C000861D971D4090AB065090AC066090AD0611
:1012D0007090AE06461657066806790618F2E9932E
:1012E000A39488E1A812BACFCDB7DEB7E0E10C94A1
:1012F0002A2F8436910520F4BC0180E090E017C0CD
:101300009C018E3B910528F42A553109AAE0B0E0F2
:101310000CC0823D910528F4245B3109A4E6B0E0BD
:1013200004C02D5C3109A8E5B2E00E94852EA4E638
:10133000B0E09B01AC010E94942E089590E08C597E
:101340009F4F0E94790908951F920F920FB60F9236
:1013500011242F933F934F938F939F93EF93FF937A
:101360004091C6008091D0069091D10601962091BF
:10137000D6063091D706822393232091D20630914E
:10138000D3068217930781F02091D0063091D106C1
:10139000E091D806F091D906E20FF31F40839093B5
:1013A000D1068093D00609C08091D4069091D506CD
:1013B00001969093D5068093D406FF91EF919F916B
:1013C0008F914F913F912F910F900FBE0F901F90D3
:1013D00018951F920F920FB60F9211242F933F93DF
:1013E0008F939F93EF93FF932091C8063091C90686
:1013F0008091C6069091C70628173907E9F08091B9
:10140000C8069091C906E091CE06F091CF06E80F8C
:10141000F91F80818093C6008091C8069091C9060B
:1014200001962091CC063091CD0682239323909390
:10143000C9068093C80610C02091C6063091C70621
:101440008091C8069091C9062817390729F4809120
:10145000C1008F7D8093C100FF91EF919F918F918B
:101460003F912F910F900FBE0F901F90189561E044
:1014700089E00E94422C60E089E00E947B2C089564
:10148000892B11F061E001C060E089E00E947B2CB3
:10149000089560E08EE00E94422C61E08FE00E949F
:1014A000422C61E082E00E94422C60E083E00E94D6
:1014B000422C61E084E00E94422C089542E050E01A
:1014C00063EC77E081E00E94C52A0895E3E0F0E054
:1014D00089E080935700E491E67081E0E63009F0FE
:1014E00080E00895CF93DF93C82F0E94660A882377
:1014F00081F0DFB781E080934406F8940E94D20720
:1015000088E180936000C0936000C1110E94D207FF
:10151000DFBFDF91CF9108958F929F92AF92BF92DC
:10152000CF92DF92EF92FF921F93CF93DF93EC0164
:1015300018A5E12FE770F0E0E758FC4FA081B0E07C
:1015400017FF03C084E190E002C08FE090E0EFA1BC
:1015500023E1E29FF0011124E25CFE4F8080918044
:10156000A280B380A80FB91F20E43FE14DE750E00F
:101570000E949F2EA50194010E94CB2E812F88737B
:1015800049F469017A0160EDC60E67E0D61EE11CE0
:10159000F11C21C089A590E017FF03C0A4E1B0E0D1
:1015A00002C0AFE0B0E069017A0168EBC60E6BE003
:1015B000D61EE11CF11CA80FB91F20E43FE14DE746
:1015C00050E00E949F2EA50194010E94CB2EC20ED6
:1015D000D31EE41EF51EC701B60169517C4F8F4F23
:1015E0009F4F28EE33E040E050E00E94CB2EA8EE63
:1015F000B3E00E94942EDF91CF911F91FF90EF9066
:10160000DF90CF90BF90AF909F908F9008958F3FC5
:10161000910551F048F0811522E0920738F08115CC
:10162000934030F482E0089580E0089581E00895C9
:1016300083E00895A0E0B0E0E0E2FBE00C94172F17
:10164000EB018A01B82FB695A0E028813981F80115
:1016500020832A813B8121832C813D8122832E811D
:101660003F812383688179814A815B812C813D811F
:10167000EE81FF819F2F9295990F990F907C272FD4
:101680002370922B252F2370220F220F922B232FB2
:1016900023702295207F922BF80194830B5F1F4FBC
:1016A0002896AF5FBA1788F680FF24C08881998199
:1016B0000E94070BD82E8A819B810E94070BE82E7F
:1016C0008C819D810E94070BF82E8E819F810E9444
:1016D000070BF0E4DF9EA001112490E1E99E900148
:1016E0001124242B282BE4E0FE9EB0011124262B8C
:1016F000F8012083CDB7DEB7E7E00C94332F8032BA
:1017000023E0920708F1883E23E0920740F48F51CE
:101710009340E4E096958795EA95E1F70895803D3A
:1017200027E0920718F48C5D93400895883928E0EB
:10173000920768F4885C974074E0969587957A954F
:10174000E1F78D509C4F089580E090E008958FEF71
:1017500093E008958C30910540F4A4E0880F991F20
:10176000AA95E1F7885D9C4F0895843F23E0920796
:1017700018F484529C4F0895811524E0920740F498
:101780008657934FF4E0880F991FFA95E1F7089573
:1017900080E998E008959C01369527952575357563
:1017A000821B930B9C0123733373969587959695B3
:1017B000879583739373820F931F9C0154E0369532
:1017C00027955A95E1F7280F391F2F703F7041E098
:1017D00051E0249FC001259F900D349F900D11244E
:1017E000892F08955A98882319F00000419A02C061
:1017F0000000419800005A9A000008955A9A00008B
:1018000086B15A98000081700895CF93DF93D82F46
:101810005C9A5A985C98C8E08D2F80780E94F20BF1
:10182000DD0FC150C9F75A98DF91CF9108958F7796
:101830000E94050C0895CF93DF93D82FC8E08D2F19
:1018400080780E94F20BDD0FC150C9F75A98DF91E2
:10185000CF910895CF93DF935A98C8E080E0D82FB6
:10186000DD0F0E94FE0B8D0FC150C9F7DF91CF91A4
:1018700008950E94170C0E942A0C5C9A0895A1E01A
:10188000B0E0E5E4FCE00C941C2F806869830E94C2
:10189000050C6981862F0E941B0C5C9A2196E2E060
:1018A0000C94382FCF93C0916E06C827E82FF0E034
:1018B000EB59F94F678589E70E943F0C6C2F8DE348
:1018C0000E943F0C6C2F82E40E943F0CCF91089540
:1018D00086E20E94390C0895CF93DF93EC016C816E
:1018E0008CE10E943F0C6D818DE10E943F0C6E8166
:1018F0008EE10E943F0C6F8180E20E943F0C688560
:1019000081E20E943F0C698582E20E943F0C6A8559
:1019100083E20E943F0C6B8584E20E943F0C6C8541
:1019200085E20E943F0C6D858AE20E943F0C6E8525
:101930008EE60E943F0C6F858FE60E943F0C6889FF
:1019400080E70E943F0C698981E70E943F0C6A8909
:1019500082E70E943F0CDF91CF910895CF92DF92F2
:10196000EF92FF92CF93DF936B017C01C11488E368
:10197000D8068CE9E8068CE1F80628F5C701B6011F
:1019800020E836E948E950E00E94CB2EE90168974B
:1019900060E879E687E69FEF0E94A72E6C0D7D1D1B
:1019A0008E1D9F1DF2E0660F771F881F991FFA9505
:1019B000D1F721E732E040E050E00E94CB2EF22E3A
:1019C000E32E80E421C0C701B60120E03DE241E3FF
:1019D00051E00E94CB2EE901689760E073ED8EEC38
:1019E0009EEF0E94A72E6C0D7D1D8E1D9F1D660F04
:1019F000771F881F991F21E732E040E050E00E94E6
:101A0000CB2EF22EE32E80E66C2F6F71680F85E7E8
:101A10000E943F0C6E2D86E70E943F0C6F2D87E7DA
:101A20000E943F0CDF91CF91FF90EF90DF90CF901D
:101A30000895682F8DE60E943F0C08958F929F9223
:101A4000AF92BF92CF92DF92EF92FF92CF93DF934C
:101A5000D82F83E00E94390C8093430684E00E94D3
:101A6000390C8093420660E086E00E943F0C61E002
:101A700087E00E943F0C6FE789E00E943F0C65E021
:101A80008AE00E943F0C62E18BE00E943F0C65E11E
:101A90008CE00E943F0C6DEF8DE00E943F0C60E0F7
:101AA0008EE00E943F0CDD2319F08BE291E008C02C
:101AB00020918C0633E1239FC0011124825C9E4F4C
:101AC0000E946C0C6CE880E30E943F0C6FE082E3A4
:101AD0000E943F0C62E483E30E943F0C80918D06DC
:101AE00087FF02C064E101C06AE084E30E943F0C0A
:101AF0006AE285E30E943F0C6DE286E30E943F0CA0
:101B000064ED87E30E943F0C60E088E30E943F0C95
:101B100060E089E30E943F0CD11109C0C0906E06BD
:101B2000D0906F06E0907006F090710607C0C5E98E
:101B3000CC2EC1ECDC2EED2CCEEDFC2ECAE38F2C8E
:101B40009924AA24BB24682D8C2F0E943F0C682D59
:101B500085E08C0F0E943F0CFE2CED2CDC2CCC245D
:101B6000CF5FCE3361F76FEF83E40E943F0C6FEFDE
:101B700084E40E943F0C6FEF85E40E943F0C6FEFFE
:101B800086E40E943F0CDD2311F066E002C0609104
:101B900072068DE60E943F0C60E089E70E943F0CD0
:101BA000609173068AE70E943F0C60E083E70E9421
:101BB0003F0C60E084E70E943F0CD11109C06091A6
:101BC0006A0670916B0680916C0690916D0604C058
:101BD00060EC72E98DEE99E10E94AE0CDF91CF913D
:101BE000FF90EF90DF90CF90BF90AF909F908F903D
:101BF000089561E087E00E943F0C64E28EE70E9456
:101C00003F0C63E088E00E943F0C60E088E00E94A7
:101C10003F0C65E087E00E943F0C62E085E00E9497
:101C20003F0C83E00E94390C8093430684E00E94BD
:101C3000390C80934206089583E00E94390C80930A
:101C4000430684E00E94390C8093420661E087E0FD
:101C50000E943F0C6AE070E080E090E00E94B82BA8
:101C60000E94F90D00000895A2E2B0E0EAE3FEE070
:101C70000C940C2F9E012F5F3F4F80E1D9011D92E4
:101C80008A95E9F76DE971E085E496E029A33AA326
:101C90000E94642D0E941C0E1D8A1E8A1F8A188EA7
:101CA000312C212C00E0812C912C540180E4482E11
:101CB00081EE582E8DE9682E88E1782E90E5C92EA8
:101CC00093ECD92EE12CF12C84EF91E0A0E0B0E070
:101CD0008D8F9E8FAF8FB8A380EC91EDA8E9BBE10B
:101CE000898F9A8FAB8FBC8F80E491EEADE9B8E11C
:101CF000898B9A8BAB8BBC8B85E496E00E947E0629
:101D0000892B09F4E1C085E496E00E94B1069C01AC
:101D100033272C32310509F442C0ACF423323105AB
:101D200009F0ABC019821A821B821C821D821E829E
:101D30001F82188619861A861B861C861D861E869B
:101D40001F86188A60C02434310529F023353105F7
:101D500009F4B2C092C064E485E496E00E94362D96
:101D60002AE030E040E451EE6DE978E185E496E068
:101D70000E94C42D6CE285E496E00E94362D2AE094
:101D800030E040EC51ED68E97BE185E496E00E94AB
:101D9000C42D6CE285E496E00E94762DADCF0F5FF6
:101DA000043009F0A9CF29813A814B815C81A8EEEA
:101DB000B3E00E94942E698B7A8B8B8B9C8B2D8148
:101DC0003E814F8158850E94942E698F7A8F8B8F28
:101DD0009C8F29853A854B855C852D8F3E8F4F8F53
:101DE00058A32D853E854F8558890E94942E6B01FE
:101DF0007C0160323EE473078105910530F462E3B3
:101E00008CE10E943F0C00E077CF603345E7740718
:101E10008105910510F462E2F3CF60345CE9750747
:101E20008105910510F466E2EBCF80E5C81683ECDE
:101E3000D806E104F10410F462E1E2CF90E6C9169D
:101E40009AEED906E104F10410F465E1D9CFA0E7D8
:101E5000CA16A1E1DA06A1E0EA06F10410F461E095
:101E6000CFCFB0EACB16B6E8DB06B1E0EB06F10463
:101E700010F463E0C5CF65E0C3CF10ED180F1A3042
:101E800008F03ACFE1E0F0E0EC0FFD1F24E0029F04
:101E9000E00DF11D11242081318142815381AAE09E
:101EA000B0E00E94942E610F711D811D911D608311
:101EB00071838283938320CF49885A886B887C887A
:101EC000812C912C540118CF81149104A104B104E8
:101ED00089F4C301B2010E94AE0C61E070E080E0C1
:101EE00090E00E94B82B1D8A1E8A1F8A188E312C02
:101EF00022242A948D8D9E8DAF8DB8A188169906C7
:101F0000AA06BB06D0F40E94680C2D893E894F8931
:101F1000588D280F311D411D511D2D8B3E8B4F8B30
:101F2000588F381608F4382E821508F4282E3FEF03
:101F3000831A930AA30AB30A56C0C301B20128EE5A
:101F400033E040E050E00E94CB2EBA01A9012AE024
:101F500030E085E496E00E941B2E6CE285E496E07A
:101F60000E94362D4AE050E0632D85E496E00E9401
:101F70002A2E6CE285E496E00E94362D6D897E89DA
:101F80008F89988DA50194010E94CB2EBA01A901D9
:101F90002AE030E085E496E00E941B2E6CE285E4A6
:101FA00096E00E94362D4AE050E0622D85E496E0EE
:101FB0000E942A2E6CE285E496E00E94762D4C0C5D
:101FC0005D1C6E1C7F1C898D9A8DAB8DBC8D84151C
:101FD0009505A605B70520F449885A886B887C8842
:101FE000812C912C540129893A894B895C89283E9E
:101FF00033404105510509F07FCEA296E2E10C94F1
:10200000282FCF92DF92FF920F931F93CF93DF93EE
:102010001F92CDB7DEB7082F162F8EE399830E944B
:102020003F0CF02EC02E9981D92E8C2D8F1981173F
:1020300038F4F60161916F018FE70E943F0CF5CFF4
:1020400064E085E00E943F0C83E00E94390C80939D
:10205000430684E00E94390C809342060E94952B2F
:1020600060933E0670933F0680934006909341062E
:1020700069E087E00E943F0C81E0809362060F9048
:10208000DF91CF911F910F91FF90DF90CF90089536
:102090000F931F930E94011080916206813099F482
:1020A0000E94952B00913E0610913F06209140061C
:1020B00030914106601B710B820B930B603A76489E
:1020C0008140910548F380916206813031F46AEADB
:1020D00071E085E496E00E94642D1F910F910895B0
:1020E0000F931F9380916206823021F41092620652
:1020F00081E020C0809162068130D9F40E94952B46
:1021000000913E0610913F06209140063091410615
:10211000601B710B820B930B613A764881409105ED
:1021200040F061E087E00E943F0C1092620682E07E
:1021300001C080E01F910F910895CF93DF93EC01D0
:102140004AE050E06D2F70E085E496E00E94322E68
:102150006EE285E496E00E94362DBE0134E076956D
:1021600067953A95E1F76F7077274AE050E085E48C
:1021700096E00E94322E6EE285E496E00E94362DB3
:10218000BE016F7077274AE050E085E496E00E9438
:10219000322EDF91CF910895D82FC0E0CD1780F473
:1021A0002C9A64E670E080E090E00E94B82B2C98B6
:1021B00064E670E080E090E00E94B82BCF5FEECF45
:1021C0006CE271E080E090E00E94B82BE6CF0F93C4
:1021D0001F93CF93DF93EC01062F15E0115051F0C0
:1021E000CE010E942831081741F0602FCE010E94D5
:1021F0003031F4CF82E00E94CC10DF91CF911F915B
:102200000F910895A0E0B0E0E8E0F1E10C940E2F0A
:10221000482E562EC0E0D0E0612C712CE12CF12C20
:1022200000E010E041100CC06090C40687E4689E96
:1022300030011124E9E1EE2EF12C0AEA16E01EC06D
:1022400091E049120FC06090C406E7E46E9E300131
:102250001124FBE16F0E711C7AE2E72EF12C05E6EA
:1022600016E00CC082E0481209C05CE1652E7724BC
:102270007394EE24E394F12C03EC16E043018C0EEE
:102280009D1E10926406109263063401A62CA818B5
:10229000B12CC30101966C01AE14BF04A8F4A00ECA
:1022A000B11E511006C0C3010E942831F501808380
:1022B00005C0F5016081C3010E94E710F50180812E
:1022C0000E9463083601E2CFC301511018C0C30158
:1022D0000E942831B82EC6010E9428312B2D30E0F3
:1022E000322F2227282B8091630690916406821753
:1022F000930779F4C0E0D0E05524539493CF36018E
:10230000609164060E94E71060916306C6010E9416
:10231000E710C05EDE4FC13E92E0D90708F482CFDD
:10232000852DCDB7DEB7E0E10C942A2F61E082E085
:102330000E940211089560E082E00E9402118091E3
:10234000C306853020F01092C3060E94961180913A
:10235000C3068093C406089561E080E00E940211E4
:1023600061E081E00E940211089560E080E00E9437
:102370000211882351F060E081E00E94021188235D
:1023800021F080916506883349F00E94C4080E94BC
:102390007C0881E00E94E4080E94AC110895CF936C
:1023A000C82F682F85E496E00E94080790913C06AC
:1023B0009C2790933C06CF910895A1E0B0E0E3EE16
:1023C000F1E10C941C2F99830E94CF119981892FE0
:1023D0000E94CF112196E2E00C94382F1F93CF93E7
:1023E000DF93182FEB0110923C0665EB85E496E035
:1023F0000E94080762E685E496E00E940807812FA4
:102400000E94CF11CE010E94DD11DF91CF911F916B
:10241000089560913C0685E496E00E9408070895BF
:10242000ACE1B0E0E6E1F2E10C94162F0E94952BAE
:102430006B017C0181E00E941E0D14E703E019830B
:1024400061E0CE0101960E944810009362060E944E
:10245000F90D6AEF70E080E090E00E94B82B809167
:102460006206833089F485E496E00E947E06892B1B
:1024700059F40E94952B6C197D098E099F096038CB
:10248000734C894C9140D8F280916206833009F4F4
:102490004FC08FE70E94170C0E942A0C8983843555
:1024A00011F083E05CC00E942A0C10921806809301
:1024B00019060E942A0C2091180630911906280F3F
:1024C000311D30931906209318060E942A0C809320
:1024D0001A060E942A0C80931B06813110F7F12CFA
:1024E0000F2D10E080911B0690E0880F991F0817B0
:1024F000190740F40E942A0CF801E45EF94F80832A
:10250000F394EECF80E7898361E0CE0101960E94CB
:10251000481083E0809362060E94F90D62E370E048
:1025200080E090E00E94B82B80916206833011F425
:1025300082E015C08FE70E94170C0E942A0C898345
:10254000803509F0AECF0FE816E00E942A0CF801A2
:1025500081938F01F6E00A3A1F07B9F781E06C9684
:10256000E8E00C94322F882319F066EB71E002C08A
:102570006AEB71E085E496E00E94642D0895FF9275
:102580000F931F93CF93DF936EE17CE085E496E099
:102590000E94102D40916A0650916B0660916C0666
:1025A00070916D062AE030E085E496E00E94392EB5
:1025B00068E07CE085E496E00E94102D40916E0674
:1025C00050916F06609170067091710620E130E0C5
:1025D00085E496E00E94392E62EF7BE085E496E088
:1025E0000E94102D4AE050E06091720685E496E06A
:1025F0000E94612E6CED7BE085E496E00E94102D38
:102600004AE050E06091730685E496E00E94612EF6
:1026100066EC7BE085E496E00E94102DC4E7D6E0EE
:10262000F12C8E0188818823A9F0FF2031F06DEB19
:1026300071E085E496E00E94332D21964AE050E057
:10264000F801608185E496E00E942A2EF394F8E177
:10265000FF12E7CF85E496E00E943E2D60EB7BE021
:1026600085E496E00E94102D4AE050E060918C06CF
:1026700085E496E00E94612E6BE97BE085E496E0BC
:102680000E94102DE0918D06E770F0E0EE0FFF1F25
:10269000E956FC4F6081718185E496E00E94642DCB
:1026A00066E87BE085E496E00E94102D80918D061F
:1026B0008873803191F038F4882361F08830B1F468
:1026C00061E77BE00FC0883159F0803279F46BE428
:1026D0007BE008C06DE77BE005C06BE67BE002C0F5
:1026E00061E67BE085E496E00E94522D67E37BE0A3
:1026F00085E496E00E94102D409166065091670691
:1027000060916806709169062AE030E085E496E001
:102710000E94392E6EE17BE085E496E00E94102D48
:102720008091AF0680710E94B31265E07BE085E482
:1027300096E00E94102D8091AF0680740E94B31223
:102740006CEE7AE085E496E00E94102D8091AF0651
:1027500080720E94B31280918D068873803271F46A
:1027600061ED7AE085E496E00E94102D4AE050E0A9
:1027700060918E0685E496E00E94612E64EB7AE01B
:1027800085E496E00E94102D85E696E00E948C0A72
:10279000AB01BC012AE030E085E496E00E941B2EEC
:1027A0006FEA7AE085E496E00E94102D85E696E0D7
:1027B0000E948C0A9B01AC0160E472E48FE090E01F
:1027C0000E94CB2EBA01A9012AE030E085E496E010
:1027D0000E941B2E6CEA7AE085E496E00E94522D5E
:1027E000CDB7DEB7E5E00C94352F8F929F92AF9274
:1027F000BF92CF92DF92EF92FF92811107C063EAFE
:102800007AE085E496E00E94522D2FC090E00E946D
:10281000790924E630E040E050E00E94CB2ECA0166
:10282000B9012AE030E040E050E00E94CB2E49019F
:102830005A016B017C012AE030E0B501A40185E476
:1028400096E00E941B2E6EE285E496E00E94362DF3
:102850002AE030E0B701A60185E496E00E941B2E35
:1028600063E785E496E00E94762DFF90EF90DF907D
:10287000CF90BF90AF909F908F9008951F93CF936C
:10288000DF9369E97AE085E496E00E94102D80915B
:102890008F06813041F460E87AE085E496E00E949A
:1028A000522D10E050C0823019F469E67AE0F5CF7D
:1028B000843019F465E57AE0F0CF853091F76AE469
:1028C0007AE0EBCFC12FD0E0C930D1050CF441C084
:1028D00068E3610F85E496E00E94362D62E47AE0B9
:1028E00085E496E00E94102DBE016F5F7F4F4AE0A5
:1028F00050E085E496E00E94FA2D67E37AE085E4F3
:1029000096E00E94102DC157D94FE981E03218F5A9
:102910006AE27AE085E496E00E94102D8981803198
:1029200030F06CE673E085E496E00E94332D698117
:102930006F7070E06F5F7F4F4AE050E085E496E093
:102940000E94032E1F5F80911A06181708F4BACF51
:102950000FC061E3BECFEF70F0E0EE0FFF1FE9554F
:10296000FC4F6081718185E496E00E94642DEACF7E
:102970006FE07AE085E496E00E94102D8091A70632
:102980000E94F51364EF79E085E496E00E94102D33
:102990008091A8060E94F51369ED79E085E496E040
:1029A0000E94102D8091A9060E94F5136EEB79E02C
:1029B00085E496E00E94102D40919F065091A0065C
:1029C0006091A1067091A20641155105610571053E
:1029D00039F12AE030E085E496E00E94392E6BE878
:1029E00079E085E496E00E94102D8091A3060E9474
:1029F0009E09AB01BC012AE030E085E496E00E942C
:102A0000392E67E679E085E496E00E94102D4AE0D1
:102A100050E06091A40685E496E00E94612E06C015
:102A20006EE579E085E496E00E94522D61E479E05C
:102A300085E496E00E94102D6091A5067091A6068F
:102A40004AE050E085E496E00E944B2E64E279E093
:102A500085E496E00E94102D60919E06603450F44B
:102A600070E06F5F7F4F4AE050E085E496E00E949F
:102A7000032E06C06BE179E085E496E00E94522DBA
:102A80006EEF78E085E496E00E94102D80919D061F
:102A900080FF03C06FEB71E002C063EC71E085E47E
:102AA00096E00E94642D61EE78E085E496E00E9455
:102AB000102D80919D0682700E94B31262EC78E026
:102AC00085E496E00E94102D80919D0684700E94FE
:102AD000B31263EA78E085E496E00E94102D8091BD
:102AE0009D0688700E94B312DF91CF911F910895C7
:102AF00080911706992787FD9095A92FB92FFC0182
:102B00003196ED30F10508F069C0EC5CFF4F0C9494
:102B1000432F66E978E085E496E00E94522D85E82F
:102B200093E00E949D106EE778E085E496E00E94B5
:102B3000522D69E578E085E496E00E94522D6FE21F
:102B400078E085E496E00E94522D6EE078E085E41E
:102B500096E00E94522D61EE77E085E496E00E94B7
:102B6000522D6BEB77E085E496E00E94522D67E9E9
:102B700077E085E496E00E94522D60E777E085E4F7
:102B800096E00E94522D85E496E00E943E2D0E9420
:102B9000BF1224C063E577E01DC06EE277E01AC083
:102BA00069E177E017C06AEF76E014C066EB76E083
:102BB00011C061EA76E00EC06CE876E085E496E04C
:102BC0000E94522D66E476E005C060E376E002C024
:102BD00064E176E085E496E00E94522D6AE070E0C0
:102BE00080E090E00E94B82B85E496E00E947E068B
:102BF000892B29F085E496E00E94B106F5CF08956F
:102C00000F931F93CF93DF93209117062F3FA9F5C2
:102C100067E076E085E496E00E94102D85E893E079
:102C20000E949D1066EE75E085E496E00E94102DEE
:102C300080911806909119060E949D1063EB75E033
:102C400085E496E00E94522D60E975E085E496E007
:102C50000E94522D68E775E085E496E00E94522DAF
:102C600063E575E085E496E00E94522D85E496E0E8
:102C70000E943E2D0E943E1468C012160CF065C0E2
:102C8000332727FD309580911A0690E0821793072D
:102C90000CF45BC06EE375E085E496E00E94102DB5
:102CA00060911706772767FD70954AE050E085E44C
:102CB00096E00E94032E63E175E085E496E00E94B1
:102CC000102D10E008E280911B061817D0F5C12FD7
:102CD000D0E0CC0FDD1FC45ED94F288130E0809159
:102CE0001706992787FD909501972817390739F519
:102CF00067EC71E085E496E00E94332D4AE050E0F5
:102D0000602F85E496E00E942A2E6BEC71E085E44A
:102D100096E00E94332DE981EF70F0E0EE0FFF1F87
:102D2000E955FC4F6081718185E496E00E94332D66
:102D30006FEC71E085E496E00E94332D0F5F1F5F1A
:102D4000C2CF85E496E00E943E2DDF91CF911F9186
:102D50000F910895FF920F931F93CF93DF93C4E7D2
:102D6000D6E0F12C8E0188818823D1F161ED71E0EC
:102D700085E496E00E94332D4AE050E06F2D85E413
:102D800096E00E942A2E6EED71E085E496E00E94A6
:102D9000332D2196F801208130E0A0E1B7E20E94B6
:102DA000852E9B01AC01A0917306B0E00E94942E89
:102DB000AB01BC0180916A0690916B06A0916C06F4
:102DC000B0916D06480F591F6A1F7B1F2AE030E043
:102DD00085E496E00E94392EF394F8E1FF12C2CF09
:102DE000CDB7DEB7E5E00C94352F1092B10585E63E
:102DF000E2EBF5E0DF011D928A95E9F70895CF93A4
:102E0000C82F8F3719F0883009F040C0E091B10524
:102E1000EE23B1F1E150E093B105F0E0EE54FA4F4A
:102E200010826DE085E496E00E940807C0E0809182
:102E3000B105C81758F4EC2FF0E0EE54FA4F60815A
:102E400085E496E00E940807CF5FF1CF60E285E459
:102E500096E00E9408076DE085E496E00E9408076E
:102E6000C0E08091B105C81768F5EC2FF0E0EE5492
:102E7000FA4F608185E496E00E940807CF5FF1CFAA
:102E800067E085E496E00E94362D1CC08B3119F472
:102E90000E94F51619C08D30B9F08A30A9F08091E2
:102EA000B105843668F76C2F85E496E00E94080728
:102EB000E091B10581E08E0F8093B105F0E0EE5412
:102EC000FA4FC08380E001C081E0CF910895ACE16A
:102ED000B0E0EDE6F7E10C94162F909117069F3FB6
:102EE00009F023C1482F50E0FA013A97EF36F10577
:102EF00008F00FC1EF5BFF4F0C94432F62EE71E0BF
:102F0000A0C06EEE71E085E496E00E94642D85E736
:102F100089838BE1EFE8F6E0DE01129601900D92D5
:102F20008A95E1F76CE1CE0101960E9448100E945B
:102F3000F90D83E08093620668EC70E080E090E039
:102F40000E94B82B80916206843009F0E2C08FE7BE
:102F50000E94170C0E942A0C8983853509F0D9C07C
:102F600065EF74E085E496E00E94522D67ED74E011
:102F700085E496E00E94522D69EB74E096C066E00D
:102F800072E085E496E00E94642D89E6898361E021
:102F9000CE0101960E9448100E94F90D83E08093B3
:102FA000620668EC70E080E090E00E94B82B8091AF
:102FB0006206843009F0ADC08FE70E94170C0E94B2
:102FC0002A0C89838E010E5F1F4F7E014DE1E40EB6
:102FD000F11C0E942A0CF80181938F01EE15FF0568
:102FE000C1F78BE1FE013296AFE8B6E001900D9299
:102FF0008A95E1F78981893409F08BC06BE974E027
:1030000085E496E00E94522D6DE774E085E496E039
:103010000E94522D6FE574E048C060E272E085E4E2
:1030200096E00E94642D8EEF8093170672C0805246
:103030008750805390911A06981708F066C06FE287
:1030400072E085E496E00E94642D63C084E1809381
:10305000170668E274E029C085E18093170661EFE6
:1030600073E023C086E1809317066AEB73E01DC00E
:1030700087E18093170660E773E017C088E18093CB
:1030800017066FE573E011C089E1809317066BE4C2
:1030900073E00BC08AE18093170666E373E005C016
:1030A0008BE1809317066EE073E085E496E00E9462
:1030B000522D2FC064EF72E085E496E00E94522DFD
:1030C00080919D0691E01DC06EED72E085E496E072
:1030D0000E94522D80919D0692E013C069EC72E02F
:1030E00085E496E00E94522D80919D0694E009C0EF
:1030F0006EEA72E085E496E00E94522D80919D0672
:1031000098E0892780939D068FEF809317060E9491
:10311000001685E496E00E947E06892B09F45BC1C7
:1031200085E496E00E94B106F4CF0E94FF16882342
:1031300009F451C18091B105811104C08FEF8093D2
:10314000170641C140E050E060E070E082EB95E09E
:103150000E94BA2F40911706042F112707FD1095E2
:10316000212F312FF8013197EB31F10508F01BC108
:10317000E055FF4F0C94432F552747FD5095209164
:103180001A0630E0241735070CF40DC18B019C01A1
:1031900001501109210931090032110521053105BC
:1031A00058F0C0901B06EDE1F6E0F12CD12C28E29E
:1031B000E22E415051090FC0FA01E157F94F615019
:1031C0006083D9C0DF0111972C9130E024173507B7
:1031D00029F0F3943296FC10F5CFCBC00E2D10E001
:1031E00020E030E0061717072807390741F420814F
:1031F000DA01A157B94F11962C93DD24D394E394AF
:10320000E8CF6F3F71058105910511F008F0CBC043
:103210006093A706B0C06F3F71058105910511F05D
:1032200008F0C1C06093A806A6C06F3F7105810574
:10323000910511F008F0B7C06093A9069CC02091D9
:10324000B20520622037E9F440E050E060E070E031
:1032500083EB95E00E94BA2F9B01AC01DC01CB010E
:103260000197A109B1090897A105B10508F0AEC001
:10327000A4EDB0E30E94942E6A5E7C4A8A46954E85
:1032800024C02636E9F440E050E060E070E083EBD3
:1032900095E00E94BA2F9B01AC01DC01CB010197A4
:1032A000A109B1090797A105B10508F08FC0A8EAE7
:1032B000B1E60E94942E645E7C438E46944E05C017
:1032C000611571058105910579F08B019C01005410
:1032D000114E2D4938410138F0EF1F07FAEF2F0743
:1032E000F2E03F0708F05FC060939F067093A0066E
:1032F0008093A1069093A2063EC06F3F71058105A1
:10330000910511F008F04FC06093A30634C08B0103
:103310009C0101501109210931090F3F11052105B7
:10332000310508F040C06093A40625C08B019C01C4
:10333000045C1940210931090D344DE114072105C0
:10334000310528F47093A6066093A50614C0611594
:1033500071058105910521F48FEF80939E060BC0C6
:103360006134710581059105F0F4615060939E060A
:1033700002C0DD20C1F08091B00581111AC080919A
:103380006E0690916F06A0917006B091710601963D
:10339000A11DB11D80936E0690936F06A0937006D9
:1033A000B093710606C061E472E085E496E00E9485
:1033B000642D0E94F5168FEF809317066AE085E46E
:1033C00096E00E94762D0E94001605C061E070E034
:1033D00080E090E07ACF6C96E8E00C94322F62E6C1
:1033E00072E085E496E00E94522D6AE472E085E482
:1033F00096E00E94522D85E496E00E947E06892B7D
:1034000031F085E496E00E94B1060E9467170E94A1
:103410001012823029F0833051F465E172E002C06D
:103420006CE272E085E496E00E94522D08958FEFE1
:10343000809317061092B0050E940016809117061F
:103440008E3F69F085E496E00E947E06892BB1F3F9
:1034500085E496E00E94B1060E946717EFCF0895B9
:103460000F931F93109117061F3F09F0DFC0893497
:1034700009F45DC018F5883309F46FC058F480333F
:1034800009F47EC008F067C08B3109F446C0813270
:10349000E1F1C6C0813409F48EC030F4893309F4F7
:1034A0006DC0803491F1BCC0843409F4AEC0863460
:1034B00009F44EC0823409F0B3C08EC0843609F4DA
:1034C000A4C090F4883549F128F48235D9F18335C8
:1034D000F9F0A6C0813609F46EC0823609F47CC0CA
:1034E0008A3509F09DC097C0823761F128F486368D
:1034F00079F18936E1F094C0883779F08A3709F498
:103500008AC0833709F08CC003C062EE71E015C039
:103510000E94AC116FE572E004C00E94B51169E72A
:1035200072E085E496E00E94642D8EEF77C00E94E1
:103530007C080E94C40868E972E085E496E00E9475
:10354000642D6EC081E00E94E40861EB72E0F5CF6B
:103550000E94AA1665C0805361C062E072E085E4F3
:1035600096E00E94522D80918D0690E0089668E2C8
:1035700070E00E94B72E80938D061AC089E04EC07D
:103580006FEE71E085E496E00E94522D8091AF06C7
:103590009091B006A091B106B091B20620E18227C9
:1035A0008093AF069093B006A093B106B093B20695
:1035B0001093170635C069ED71E085E496E00E942E
:1035C000522D8091AF069091B006A091B106B091B6
:1035D000B20640E4842710C068EC71E085E496E010
:1035E0000E94522D8091AF069091B006A091B10635
:1035F000B091B20620E282278093AF069093B00686
:10360000A093B106B093B20608C08BE08093170672
:103610000E94781505C00E94EF198FEF809317065E
:10362000809117068E3F09F0EAC0F3C00E94FF1692
:10363000882309F4EEC08091B105811104C08FEF99
:1036400080931706DCC040E050E060E070E082EB61
:1036500095E00E94BA2F00911706112707FD1095DB
:10366000212F312FF8013197EB30F10508F0CAC056
:10367000E553FF4F0C94432F8B019C010154114ED5
:103680002D4938410F37104F2A4F324008F0BAC049
:1036900060936A0670936B0680936C0690936D0638
:1036A0008DC060936E0670936F0680937006909342
:1036B000710681E08093B00581C068307105810595
:1036C000910508F09FC06093720678C08B019C0141
:1036D00001501109210931090A301105210531056F
:1036E00008F090C06093730669C06DEB71E082EBE7
:1036F00095E00E94F43010E0009799F00E94CE30DF
:10370000009779F0183130F4E12FF0E0EB59F94FE0
:1037100087871F5F6DEB71E080E090E00E94F430DE
:10372000EBCF183108F04AC0E12FF0E0EB59F94F28
:1037300017861F5FF6CF653071058105910508F08A
:1037400061C060938C063AC08B019C010150110945
:1037500021093109063011052105310508F052C053
:1037600020918D06287F262B20938D0627C08B0164
:103770009C0101501109210931090115124C214008
:10378000310508F03FC0609366067093670680932A
:1037900068069093690612C020918D062873203226
:1037A00069F48B019C010950110921093109073184
:1037B00011052105310510F460938E068091B00546
:1037C000811113C080916E0690916F06A0917006D2
:1037D000B09171060196A11DB11D80936E06909364
:1037E0006F06A0937006B09371060E94F5168FEFD6
:1037F000809317066AE085E496E00E94762D0E9489
:10380000781507C061E472E085E496E00E94642DBB
:10381000ECCF1F910F9108958FEF809317061092B0
:10382000B0050E947815809117068E3F69F085E4F7
:1038300096E00E947E06892BB1F385E496E00E9413
:10384000B1060E94301AEFCF6AE070E080E090E0AD
:103850000E94B82B85E496E00E947E06892B29F011
:1038600085E496E00E94B106F5CF0895CF93C82F66
:103870000E94952B60939A0570939B0580939C05FD
:1038800090939D05C093AF05CC2329F040E051EE05
:1038900060E070E004C040E855E260E070E085E47C
:1038A00096E00E944707CF91089590919E05492F79
:1038B0004F7050E0BA016F5F7F4F292F30E0E4E096
:1038C00035952795EA95E1F76217730759F0FA01E4
:1038D000E156FA4F808381E0890F8F70907F892BAA
:1038E00080939E050895EF92FF920F931F93CF93BD
:1038F000DF938C016EE785E496E00E940807E801FB
:10390000F12CF0E2EF2E8E0188818D57823040F449
:103910006DE785E496E00E94080788818E258883FC
:103920002196F801608185E496E00E940807F394EF
:10393000F9E0FF12E8CF6EE785E496E00E94080701
:10394000CDB7DEB7E6E00C94342FA9E0B0E0EBEAA7
:10395000FCE10C941C2F9091990591110EC09EEFE3
:1039600099838A836B8350E0559547954C832D83CB
:10397000198618861F821E822EC040919E05842FB4
:1039800090E0B4E095958795BA95E1F7242F2F70D4
:1039900030E08217930719F18DEF89831B82FE01B6
:1039A000349650E0842F90E0A4E095958795AA95F1
:1039B000E1F7242F2F7030E08217930749F0DC01E4
:1039C000A156BA4F8C918193405F5F5F563051F79B
:1039D00040939E055A83CE0101960E94731C8091EC
:1039E000990590E0019666E070E00E94B72E809302
:1039F00099052996E2E00C94382FA0E0B0E0E3E0CE
:103A0000FDE10C94152F6C016EE785E496E00E94B1
:103A100008078601E12CF12CC0E0D0E030E2B32EA3
:103A2000F801608183E8860F823040F46DE785E419
:103A300096E00E940807F80160816B2585E496E016
:103A40000E940807E114F10459F0F80180819E01F9
:103A5000280F311DC901C92FDD27C80FD91FDD2748
:103A60003FEFE31AF30A89E0E816F10459F028E081
:103A7000E216F10421F48C2F8095F60180870F5F08
:103A80001F4FCECFCDB7DEB7E9E00C94312F6EE7F4
:103A900085E496E00E9408070895A9E0B0E0E3E518
:103AA000FDE10C941C2FE82F362F8091990590E0B2
:103AB000019664E270E00E94B72E8093990558E960
:103AC000598350E15A83813089F048F08230B9F04F
:103AD0008330D9F48B8381EF8C833D8319C085E0DB
:103AE0008B8381EF8C832F5F2D8312C08B8381EFBB
:103AF0008C8384E6489FA00111245D8309C084E083
:103B00008B8381EF8C83ED8303C00E94471D04C02B
:103B1000CE0101960E94FD1C2996E2E00C94382FFC
:103B2000A2E0B0E0E6E9FDE10C94112F182F762E0B
:103B30002A8349830E94952B6B017C018091AF05FC
:103B400080909A0590909B05A0909C05B0909D0553
:103B50002A8149818823C1F0D701C60188199909B2
:103B6000AA09BB094C015D0191EE89169EE29906F6
:103B7000A104B10420F1241708F4422F202F672D4F
:103B8000812F0E944D1D13C0D701C60188199909C4
:103B9000AA09BB094C015D0191E3891695E79906D5
:103BA000A104B10460F0672D812F0E94A51CC09272
:103BB0009A05D0929B05E0929C05F0929D05229675
:103BC000EDE00C942D2FA3E1B1E0E9EEFDE10C94C2
:103BD0000F2FE4E7F6E0712C8191882321F0739494
:103BE00028E17212F9CF6EEC72E085E496E00E9453
:103BF000642D4AE050E0672D85E496E00E94612E36
:103C000080E00E941E0D0E94F90D8E010E5F1F4F75
:103C1000C12CD12C7601C39466246A945C2C0E943A
:103C2000892B4B015C012091730630E0A0E1B7E2E3
:103C30000E94852E9B01AC01C701B6010E94A72EF0
:103C400020916A0630916B0640916C0650916D068A
:103C5000620F731F841F951F2091AB063091AC0635
:103C60004091AD065091AE06261737074807590711
:103C700018F4F801608225C08C2D0E94520C61E07E
:103C800070E080E090E00E94B82BF80110820E9462
:103C9000892B681979098A099B09643F714081055C
:103CA000910540F40E94680CF8019081981778F70C
:103CB0008083EDCF50FE03C02B982C9A02C02B9A24
:103CC0002C982FEFC21AD20AE20AF20A0F5F1F4F96
:103CD0008FEFC816D104E104F10409F09FCFCE01A3
:103CE0009395FC01D82E7FEF68EC2E2F281B27150B
:103CF00010F051E056C0DE01129651E02FEF41E086
:103D00003D91321710F0322F01C0452F5F5F5F3FAA
:103D100011F0232FF5CF4193242F30E0A1E0B0E044
:103D2000AC0FBD1FA20FB31F5C93413079F0DE01D1
:103D3000A20FB31F5C93423049F0AFEFBFEFAC0F5F
:103D4000BD1FA20FB31F6C934E3F78F6A2E0B0E008
:103D5000AC0FBD1FA20FB31F7C934D3F30F6A3E005
:103D6000B0E0AC0FBD1FA20FB31F6C93BECF452FA9
:103D7000242F30E0FC01E20FF31F6081AFEFB0E0D1
:103D8000AC0FBD1FA20FB31F2C91621748F4415016
:103D9000DC01A40FB11D2C9120836C934111E8CF5D
:103DA0005F5F571520F3372D369520E0231770F409
:103DB000DC01A20FB11D4C91522F530FFC01E50FF6
:103DC000F11D50815C9340832E5FF0CF44E7E42ED9
:103DD00046E0F42E8C01802F8D19871598F4F80198
:103DE000C1908F014AE050E06C2D85E496E00E947E
:103DF0002A2E6CE285E496E00E94362DF701C192EE
:103E00007F01E9CF85E496E00E943E2D81E0CD5E02
:103E1000DE4FEFE00C942B2F1F920F920FB60F92F4
:103E200011240F931F932F933F934F935F936F939F
:103E30007F938F939F93AF93BF93EF93FF934091A3
:103E4000AF065091B0066091B1067091B20686B18E
:103E50008A019B01007411272227332785FB8827BD
:103E600080F990E0A0E0B0E0081719072A073B07A7
:103E700009F468C0809184009091850010928500BB
:103E8000109284002091790521115CC045FD02C08B
:103E900096958795853C29E09207C0F180910A01AB
:103EA00090E0A0E0B0E0ECE17695679557954795F6
:103EB000EA95D1F7411551056105710521F441E0FD
:103EC00050E060E070E0481759076A077B07D8F4B4
:103ED00080910A018F3FB9F040E080910A014817B4
:103EE00080F4842F90E0880F991FFC01E75AFA4F65
:103EF00020813181FC01E55FFE4F318320834F5FDC
:103F0000ECCF10927A0510920A011CC08D3B22E082
:103F10009207A8F020910A01203188F410910A013B
:103F200021E0210F20930A010E947F0BE12FF0E096
:103F3000EE0FFF1FE75AFA4F9183808303C08FEF84
:103F400080930A01FF91EF91BF91AF919F918F9163
:103F50007F916F915F914F913F912F911F910F91A1
:103F60000F900FBE0F901F90189583E080938000F4
:103F70008AE1809381008FEF9FEF90938900809377
:103F8000880010926F0080E280936C00E8E6F0E019
:103F900080818260808308950E949B118091C40675
:103FA000843011F41092C40608956F3018F086958D
:103FB0008058089589E0689F802D11240895A0E01D
:103FC000B0E0E5EEFFE10C94162FC82F0E94952B70
:103FD00000913E0410913F0420914004309141042F
:103FE0006B017C01C01AD10AE20AF30A970186012B
:103FF00049E8C41643E1D406E104F10410F010923C
:10400000420460933E0470933F0480934004909375
:104010004104209179058FEF820F8230D8F5E0912D
:104020004204EE2309F44EC1E13011F482E0B8C13C
:10403000E03108F034C181E08E0F80934204F0E05B
:10404000E75AFA4FC083803109F0ACC1EBE5F5E0E7
:10405000213029F4A181A695A695808108C0808190
:104060009181A92FA695A695A69596958795A0319D
:1040700048F4B0E090E0AA0FBB1FA55FBE4F1196B9
:104080009C938E9310927A05329685E0E936F80774
:10409000F9F688C1233009F005C1E0914204E1112D
:1040A00004C0CF3009F07EC10DC1E83148F481E091
:1040B0008E0F80934204F0E0E85AFA4FC08372C139
:1040C000E83109F0ECC0C111EAC040E050E0ABE0DB
:1040D000CA0163E0880F991F6A95E1F7A49F9001D8
:1040E000A59F300D1124F901E75AFA4F6081E18153
:1040F0007E2F777075956795FC01EE0FFF1FE55FCA
:10410000FE4F71836083F901E65AFA4FB081B6958C
:10411000B695B695E181FE2FF295FF0FF07E6F2FD9
:104120006B2BE695E695E6957E2F777075956795EE
:10413000FC01EE0FFF1FE35FFE4F71836083F90107
:10414000E55AFA4FB081B295B695B695B370C18174
:10415000DC2FDD0FDD0F6D2F6B2BC295C695C6953D
:10416000C370E281E170EE0FEE0F7E2F7C2B759510
:104170006795FC01EE0FFF1FE15FFE4F71836083C7
:10418000F901E35AFA4FB081B695E181FE2FF79518
:10419000FF27F7956F2F6B2BE6957E2F7770759520
:1041A0006795FC01EE0FFF1FEF5EFE4F718360838A
:1041B000F901E25AFA4FB081B295BF70E181FE2F4A
:1041C000F295F07F6F2F6B2BE295EF707E2F77705B
:1041D00075956795FC01EE0FFF1FED5EFE4F718335
:1041E0006083F901E15AFA4FB081BB1FBB27BB1FA7
:1041F000C181DC2FDD0F6D2F6B2BCC1FCC27CC1F8B
:10420000E281E370EE0F7E2F7C2B75956795FC01A4
:10421000EE0FFF1FEB5EFE4F71836083F901EF59D4
:10422000FA4FB081B695B695E181FE2FF295FF0F5A
:10423000FF0FF07C6F2F6B2BE695E6957E2F777046
:1042400075956795FC01EE0FFF1FE95EFE4F7183C8
:104250006083F901EE59FA4F208122952695277047
:104260003181E32FEE0FEE0FEE0F6E2F622B732FC7
:1042700072957695777075956795FC01EE0FFF1F27
:10428000E75EFE4F718360834F5F5F4F42305105A1
:1042900009F01ECF80916F0583FF10927A0510926E
:1042A000420480C0243009F07DC060914204611155
:1042B0000BC0C83AB1F4109264061092630688EA03
:1042C0000E94630881E06CC0613019F4C0933D0422
:1042D00004C0623031F4C0933C048C2F0E94630808
:1042E0005AC0E0913C042E2F30E0220F331F462F9E
:1042F00050E0C9010296841795073CF0633268F7D5
:10430000FA01EA5AFA4FC083E8CF2D5F3F4F8C2F56
:1043100090E060916306709164064217530749F478
:10432000982F8827862797279093640680936306A3
:1043300032C06817790769F580913D04813049F5ED
:10434000E13118F080E180933C04F0903C04CAE530
:10435000D5E000E010E00F15D0F4FE013197808128
:1043600090E0982F88272881822BB3E09695879537
:10437000BA95E1F70E947F0BF801EE0FFF1FE55F92
:10438000FE4F918380830F5F1F4F2296E4CF1092E0
:104390007A051092420480914204882319F08F5FBD
:1043A00080934204CDB7DEB7E8E00C94322FE82FBB
:1043B000F0E0E655F94FE185E03150F4F894F0E093
:1043C000EE0FFF1FE55FFE4F808191817894089585
:1043D0008EE08E0F8B3058F4F0E0E25FF10924E6B6
:1043E0002E9FC0012F9F900D11240C960895E13F40
:1043F00059F018F4E03F89F004C0ED3F41F0EE3F82
:1044000049F080E092E0089586E090E008958AEF18
:1044100093E008958FEF93E0089580E090E0089591
:10442000A1E2B0E0E6E1F2E20C94182F7B018A01F0
:104430008C3009F452C108F040C0863009F4BCC089
:1044400018F5833009F491C070F4813009F472C01A
:10445000823009F047C26BE170E082E00E94EE1109
:104460000FE816E078C0843009F487C0853009F081
:1044700039C260911B0670E0660F771F85E00E94CD
:10448000EE110CE116E086C0893009F4A7C070F483
:10449000873009F49BC0883009F024C261E070E0E5
:1044A00088E00E94EE118091C40622C28A3009F48D
:1044B000CAC08B3009F4F1C015C28A3609F474C140
:1044C000D8F4873609F439C138F4853609F40DC1BA
:1044D000863609F41EC106C2883609F436C189360B
:1044E00009F000C261E070E089E60E94EE110E94CE
:1044F0007C080E94C408F4C18D3609F4D3C138F495
:104500008B3609F490C18C3609F499C1EBC18E3613
:1045100009F4DBC1873C09F0E5C161E070E087EC9C
:104520000E94EE1181E00E94CF110E9409121092A8
:104530003D06E2C16AE270E081E00E94EE1105E60C
:1045400016E0F80181918F010E94CF11F6E00F383B
:104550001F07B9F7CFC1F80181918F010E94CF11D8
:10456000F6E00A3A1F07B9F7C5C161E070E083E0E1
:104570000E94EE110E941012BBC161E070E084E065
:104580000E94EE1181E00E94CF110E9409120E9448
:10459000340EB2C180911B0690E0880F991F9801DC
:1045A0002C5136402817390708F0A4C1F801819131
:1045B0008F010E94CF11EECF62E070E086E00E9492
:1045C000EE1185E893E00E94DD1194C161E070E096
:1045D00087E00E94EE1180911A068AC186E68983DF
:1045E00061E0CE0101960E9448100E94F90D83E01F
:1045F0008093620668EC70E080E090E00E94B82B47
:10460000809162068430D9F48FE70E94170C0E94D3
:104610002A0C8983863469F460E270E089E00E94A4
:10462000EE1110E20E942A0C0E94CF111150D1F716
:1046300061C161E070E089E00E94EE1151C161E06A
:1046400070E089E052C169E170E08AE00E94EE11F9
:104650001092AA06209144068091AF069091B00670
:10466000A091B106B091B206222311F0806801C07A
:104670008F778093AF069093B006A093B106B09366
:10468000B2060AEA16E0F80181918F010E94CF116B
:10469000F6E0033C1F07B9F72DC161E270E08BE043
:1046A0000E94EE1180917A058F3F39F080917A0552
:1046B00091E0980F90937A0502C080917A050E944C
:1046C000CF1110E0812F0E94D7210E94AA0B0E94D7
:1046D000DD111F5F1031B1F70DC161E070E08CE0BA
:1046E0000E94EE118091C30603C161E070E085E68F
:1046F0000E94EE118AE2E816F10409F0F8C0D80130
:10470000E5E6F6E08D91819386E0EF38F807D1F782
:10471000E7C061E070E086E60E94EE11EBE1EE1684
:10472000F10409F0E4C0D801EFE8F6E08D9181933F
:1047300086E0EA3AF807D1F7D3C061E070E087E697
:104740000E94EE110E94AC11CBC061E070E088E6DF
:104750000E94EE1185E789838BE1EFE8F6E0DE0148
:10476000129601900D928A95E1F76CE1CE010196C7
:104770000E9448100E94F90D83E08093620660E277
:1047800073E080E090E00E94B82B80916206843054
:1047900009F0ADC08FE70E94170C0E942A0C898394
:1047A000853509F0A4C09CC061E070E08AE60E94F3
:1047B000EE1189E6898361E0CE0101960E944810DE
:1047C0000E94F90D83E08093620660E273E080E06E
:1047D00090E00E94B82B80916206843009F087C077
:1047E0008FE70E94170C0E942A0C89838E010E5FAE
:1047F0001F4F7E01EDE1EE0EF11C0E942A0CF80124
:1048000081938F01EE15FF05C1F78BE1FE01329612
:10481000AFE8B6E001900D928A95E1F7898189347D
:1048200009F065C05DC061E070E08BE60E94EE11AA
:10483000F80180818093C4060E94B51151C061E0E7
:1048400070E08CE60E94EE11F0E2EF16F10461F4E4
:1048500087E6898380E2F801DE01129601900D92CD
:104860008A95E1F761E203C087E4898361E0CE01C4
:1048700001960E9448100E94F90D83E08093620621
:104880006CE474E080E090E00E94B82B80916206B6
:10489000843069F58FE70E94170C0E942A0C873438
:1048A00031F51EC061E070E08DE60E94EE1189E1F5
:1048B000E816F104E1F4D801EAEAF6E08D9181937B
:1048C00086E0E33CF807D1F70BC061E070E08EE6CC
:1048D0000E94EE11F80180818093C3060E94961118
:1048E00081E006C061E070E08AEC0E94EE1180E099
:1048F0000E94CF110E940912A196E6E00C94342F79
:10490000A0E0B0E0E6E8F4E20C94162FC0EDD3E0AE
:1049100014E606E0A5E0FA2EB4E0EB2E83E0D82EF4
:1049200092E0C92E85E496E00E947E06892B09F468
:104930009BC085E496E00E94B106282F80933B043B
:1049400040913A0450E04730510560F7FA01EA52CD
:10495000FF4F0C94432F853B29F781E080933A0465
:10496000E1CF823609F07DC0C0923A04DBCF80935C
:10497000390480933804D0923A04D4CF9C01332771
:1049800030933704209336049091380498279093FD
:104990003804E0923A04C6CF382F222740913604DB
:1049A00050913704242B352B309337042093360451
:1049B00090913804982790933804F0923A04253661
:1049C000310508F4AFCF61E070E08CEC0E94EE118D
:1049D00081E00E94CF110E94091243C0209134044B
:1049E00030913504F901E053FC4F808390913804F5
:1049F000982790933804C9010196909335048093C9
:104A0000340420913604309137048217930708F458
:104A100089CF00933A0486CF8091380482130BC06B
:104A2000609134047091350440ED53E08091390475
:104A30000E9410220DC062E070E08BEC0E94EE112B
:104A4000809139040E94CF1180913C060E94CF11C1
:104A5000FE01812F11928A95E9F710923504109288
:104A6000340410923A045ECFCDB7DEB7E8E00C9480
:104A7000322F81E080933D0680913D06882349F0E6
:104A800085E496E00E947E06892BB1F30E94802483
:104A9000F3CF0895ABE2B0E0E0E5F5E20C94142F1B
:104AA0000E94892B6B017C0181E00E941E0D85E430
:104AB00096E00E94F6062C9811E022E6B22E3AE229
:104AC000A32E03E00E94892B6C197D098E099F0992
:104AD000693C710581059105D0F11123C1F10E9456
:104AE000892B6B017C012B9A80ED97E00E94400A94
:104AF000B982E5E6F6E0DE0112968A2D01900D926C
:104B00008A95E1F76BE2CE0101960E9448102B983E
:104B100080E090E00E94400A009362060E94F90D36
:104B200062E370E080E090E00E94B82B8091620622
:104B3000843061F4009362068FE70E94170C0E9494
:104B40002A0C11E0823419F410E001C011E08AE06F
:104B50000E94AE2C892B81F411E00EC02C9A2B9A66
:104B600085E496E00E94B1068D309105A9F05CF4D1
:104B70000A9791F02C982B9885E496E00E947E0687
:104B8000892B61F79FCF8332910579F082349105AB
:104B900089F70E943925EECF6AEB71E085E496E053
:104BA0000E94522D0E940C1CE5CF0E94340EE2CFD1
:104BB0008F929F92AF92BF92CF92DF92EF92FF922D
:104BC0001F93CF93DF938AE00E94AE2C892B09F0CC
:104BD00089C068EC70E080E090E00E94B82B80E033
:104BE00090E00E94400A0E94892B4B015C016B01FE
:104BF0007C0180ECC80E82E1D81EE11CF11C0E94F1
:104C0000892B6C157D058E059F0530F48AE00E9486
:104C1000AE2C892BA1F364C08AE00E94AE2C892BB4
:104C200009F05EC080ED97E00E94400A0E94892B47
:104C30006B017C01D0E0C1E088E4880E86E2981E1A
:104C4000A11CB11C11E08AE00E94AE2C892B21F539
:104C50008C149D04AE04BF0430F480ED97E00E94F4
:104C6000400AD1E0F0CF0E94892B6C197D098E0992
:104C70009F09693C71058105910528F30E94892BE4
:104C80006B017C01C12719F080ED97E002C080E044
:104C900090E00E94400AD7CF80E090E00E94400A56
:104CA000DD23B9F08091C30690E0019665E070E0E5
:104CB0000E94B72E8093C3060E9496110E94CC1FBB
:104CC0000E94B51164EF71E080E090E00E94B82B83
:104CD00009C080E00E94E4080E94E31D0E94AC111C
:104CE0000E944A25DF91CF911F91FF90EF90DF90B6
:104CF000CF90BF90AF909F908F900895CF92DF920A
:104D0000EF92FF920F931F9380E00E94720A0E941D
:104D1000490A61E08CE00E94422C61E08BE00E9435
:104D2000422C60E08AE00E94422C60E083E10E9415
:104D3000422C61E083E10E947B2C61E082E10E94D1
:104D4000422C60E082E10E947B2C0E94370A00E83E
:104D500010E024E634E040E450E064EE74E085E4E2
:104D600096E00E944C0840E052EC61E070E085E47F
:104D700096E00E9447070E94CC1F0E94B5110E9436
:104D8000B51F8FEF80937A050E945E0A78940E9487
:104D9000892B6B017C0180917A058F3F59F40E9429
:104DA000892B6C197D098E099F09603D774081052B
:104DB000910588F380ED97E00E94400A61E08AE067
:104DC0000E947B2C2C9A85E496E00E94F6066CEFFC
:104DD00072E085E496E00E94332D85E893E00E941E
:104DE0009D1063E173E085E496E00E94332D4AE074
:104DF00050E060E070E085E496E00E94032E62E3FC
:104E000070E080E090E00E94B82B85E496E00E947C
:104E10007E0604970CF185E496E00E94B106823488
:104E20009105D1F485E496E00E94B1068E34910597
:104E300099F485E496E00E94B1068434910561F40A
:104E400085E496E00E94B106819731F480E090E01D
:104E50000E94400A0E944A254091660650916706CA
:104E60006091680670916906DB01CA010197A1098A
:104E7000B1090497A105B10568F440937905433061
:104E800029F440EA56E861E070E004C040E052ECEA
:104E900061E070E085E496E00E9447070E94D82513
:104EA0002C9880E090E00E94400A0E94B51F10926A
:104EB00095058091AF0683FF11C080917A06882303
:104EC00051F080918106882331F0809188068823F3
:104ED00011F087E001C085E08093950580E00E9495
:104EE0001E0D809196050E94520C0E94F90D1092A1
:104EF0004304F12C8091C4068F15B0F062E370E09A
:104F000080E090E00E94B82B80ED97E00E94400A7C
:104F100062E370E080E090E00E94B82B80E090E0D7
:104F20000E94400AF394E6CF80918D0684FF08C06A
:104F3000982F987381E0983109F080E00E94361C28
:104F40008FE00E94720A1F910F91FF90EF90DF9007
:104F5000CF900895A2E2B0E0E0EBF7E20C94122FBC
:104F60008CE00E94390C81110DC06BE173E085E487
:104F700096E00E94642D2C9A80E00E941E0D0E94F3
:104F8000F90D2C9880917905811106C080916206F7
:104F9000843009F0B3C00DC085E496E00E947E061F
:104FA000892BA1F385E496E00E94B1060E94DF1FE1
:104FB000F3CF0E94952B611571058105910549F08C
:104FC00060938705709388058093890590938A057F
:104FD0000CC081E090E0A0E0B0E080938705909362
:104FE0008805A0938905B0938A0580917D059091ED
:104FF0007E05816090937E0580937D0583E080939C
:1050000062068FE70E94170C04E215E080918E067D
:1050100090E09801245235402817390734F40E9453
:105020002A0CF80181938F01F1CF209144058091E2
:105030002405982F922796FF54C090E492279093CE
:10504000440590918D0698739032A1F48F73D82EF9
:1050500065E2E62E65E0F62E8701802F8E198D150C
:1050600008F03FC0F80161918F0185E496E00E944D
:105070000807F3CF982F98739833F1F410E0212F9D
:1050800030E080912405877090E0821793074CF1FF
:105090001F5F20918D06812F90E0FC01EC5DFA4F9F
:1050A00024FF04C080810E94551CE9CF608185E403
:1050B00096E00E940807E3CF8F7399F4809125054D
:1050C000809386058091260580938405809127052D
:1050D0008093830580912A0590E090937C058093CE
:1050E0007B0580914304813019F482E0809343046E
:1050F00080914304833011F4109243040E94952B55
:105100006B017C0180917F0590918005A0918105C4
:10511000B09182050097A105B105C9F0A7019601DC
:10512000281B390B4A0B5B0BDA01C901883B9B40FA
:10513000A105B10560F00E94680C8093850510926E
:105140007F05109280051092810510928205809152
:105150008B0590918C05A0918D05B0918E0546012F
:105160005701881A990AAA0ABB0A85E696E00E94A6
:105170008C0A86169706A806B90608F4B9C0C0922C
:105180008B05D0928C05E0928D05F0928E050E94E1
:10519000D20780917A058830A0F08091AF06909177
:1051A000B006A091B106B091B2065CE1B695A795A4
:1051B000979587955A95D1F7892B8A2B8B2B09F0D8
:1051C0003FC180917A058F5F80937A058091870532
:1051D00090918805A0918905B0918A050097A10555
:1051E000B10539F1C81AD90AEA0AFB0A85E696E040
:1051F0000E948C0A6C157D058E059F0508F017C16D
:105200008091AF0684FD04C080ED97E00E94400AC3
:1052100080919705909198050196909398058093B9
:1052200097051092870510928805109289051092B3
:105230008A0580914405807C8093440585E496E04E
:105240000E947E0620914304181619060CF4F4C03F
:10525000243009F43CC180919305823009F017C1D4
:10526000809144058160809344052C9A8E010F5FE4
:105270001F4FF12CB8018F2D69A37AA30E94D7216B
:10528000F801819391938F01F39469A17AA1F0E1E0
:10529000FF12F1CF80918D0645E455E087700E94A2
:1052A0001A0B2B9A8091720690919505911100C16D
:1052B0000E94190D809196050E94520CE0918D0676
:1052C000E770F0E0E758FC4F608184E495E00E94CD
:1052D0000110E0919605EF5FE0939605E83109F43F
:1052E000F3C0F0E0EB59F94F8785882309F4ECC04F
:1052F0000E947010813069F580918D06887349F1A4
:1053000080917D0590917E05880F991F90937E0571
:1053100080937D0583E0809362060E94F90D0E94D0
:10532000952B60937F057093800580938105909302
:105330008205672B682B692B61F481E090E0A0E087
:10534000B0E080937F0590938005A0938105B09392
:10535000820580918D0684FF1FC080917D0590910C
:105360007E058E7F0E94CB0B182F60917B0580916C
:1053700086050E94D51F482F612F8091850549A37E
:105380000E94D51F0091C406282F49A16091830572
:10539000809184050E94901D2B9880919305813007
:1053A000C1F018F08230B1F1C9C08AE00E94AE2C81
:1053B000892B09F0C3C081E0809393050E94892B5B
:1053C00060938F057093900580939105909392055B
:1053D000B5C08AE00E94AE2C892B31F50E94892B42
:1053E000C0908F05D0909005E0909105F0909205C7
:1053F0006C197D098E099F09693E734081059105ED
:1054000008F49CC082E08093930580ED97E00E94B1
:10541000400A94C08AE00E94AE2C892B09F48EC009
:1054200080E090E00E94400A1092930587C080E0DF
:1054300090E00E94400AFDCE223009F009CF09C059
:1054400080917A05883009F42C9A89E080937A0556
:105450004FCF80914405805880934405E0918D069C
:10546000E770F0E0E758FC4F0081093070F401501C
:1054700010E0101709F441C085E496E00E947E0612
:10548000181619060CF446C038C008E0F1CF2C9865
:1054900080914304811103C081E080934304809193
:1054A0004304833009F0E2CE84E080934304DECEEF
:1054B000882309F4FDCE2091940531E0320F30931A
:1054C00094052913F5CE36C01092960511CF209180
:1054D000440485E494E0A5E4B5E0FC013E2F381BCC
:1054E000321718F431913D93F9CF87E3820F9091F1
:1054F0004405892B8093440509C087E3810F90916F
:105500004405892B809344051093440483E08093E1
:105510004304C7CE1F5F85E496E00E94B106212FA9
:1055200030E0F901EC5BFA4F8083F901EC5BFB4F53
:1055300080839FCF109294058150BACEA296ECE062
:105540000C942E2F8F92AF92CF92EF92FF920F93E7
:105550001F9370E2872EE8E9AE2ECC24C394F1ECC1
:10556000EF2EF12C00EC10E024EC30E045EC50E0A4
:1055700060E085E496E00E94FA071F910F91FF908A
:10558000EF90CF90AF908F9008958230E8F4E82F9D
:10559000F0E0EE0FFF1FE652F94F71836083813018
:1055A00041F0809169008C7F842B80936900E89A98
:1055B000089580916900440F551F440F551F837F44
:1055C000842B80936900E99A08951F920F920FB679
:1055D0000F9211242F933F934F935F936F937F9379
:1055E0008F939F93AF93BF93EF93FF938091DA06CE
:1055F0009091DB06892B29F0E091DA06F091DB0629
:105600000995FF91EF91BF91AF919F918F917F91FC
:105610006F915F914F913F912F910F900FBE0F901F
:105620001F9018951F920F920FB60F9211242F936F
:105630003F934F935F936F937F938F939F93AF931A
:10564000BF93EF93FF938091DC069091DD06892B49
:1056500029F0E091DC06F091DD060995FF91EF91CC
:10566000BF91AF919F918F917F916F915F914F917A
:105670003F912F910F900FBE0F901F9018951F9282
:105680000F920FB60F9211242F933F938F939F93F6
:10569000AF93BF938091DF069091E006A091E10661
:1056A000B091E2063091DE0623E0230F2D3720F47F
:1056B0000196A11DB11D05C026E8230F0296A11D6C
:1056C000B11D2093DE068093DF069093E006A09341
:1056D000E106B093E2068091E3069091E406A09182
:1056E000E506B091E6060196A11DB11D8093E30683
:1056F0009093E406A093E506B093E606BF91AF91C0
:105700009F918F913F912F910F900FBE0F901F90FF
:1057100018952FB7F8946091DF067091E00680919C
:10572000E1069091E2062FBF08953FB7F89480916B
:10573000E3069091E406A091E506B091E60626B551
:10574000A89B05C02F3F19F00196A11DB11D3FBFB9
:105750006627782F892F9A2F620F711D811D911D49
:1057600042E0660F771F881F991F4A95D1F7089569
:10577000CF92DF92EF92FF92CF93DF936B017C0188
:105780000E94952BEB01C114D104E104F10479F0DE
:105790000E94952B6C1B7D0B683E7340A0F381E04B
:1057A000C81AD108E108F108C851DC4FECCFDF91ED
:1057B000CF91FF90EF90DF90CF900895789484B5CB
:1057C000826084BD84B5816084BD85B5826085BDFD
:1057D00085B5816085BDEEE6F0E0808181608083E3
:1057E000E1E8F0E0108280818260808380818160C6
:1057F0008083E0E8F0E0808181608083E1EBF0E08D
:10580000808184608083E0EBF0E080818160808330
:10581000EAE7F0E080818460808380818260808319
:105820008081816080838081806880831092C10044
:105830000895833081F028F4813099F08230A1F00E
:1058400008958630A9F08730B9F08430D1F4809182
:1058500080008F7D03C0809180008F7780938000CF
:10586000089584B58F7702C084B58F7D84BD089577
:105870008091B0008F7703C08091B0008F7D8093BE
:10588000B0000895CF93DF9390E0FC01E85BF34F05
:105890002491FC01E45AF34F8491882349F190E06C
:1058A000880F991FFC01EC57F34FA591B4918658CE
:1058B000934FFC01C591D4919FB7611108C0F89432
:1058C0008C91209582238C93888182230AC0623038
:1058D00051F4F8948C91322F309583238C938881E6
:1058E000822B888304C0F8948C91822B8C939FBF69
:1058F000DF91CF910895A1E0B0E0E1E8FCE20C94E3
:105900001A2F282F30E0F901EC5CF34F8491F90154
:10591000E85BF34F1491F901E45AF34F049100232B
:10592000C9F0882321F069830E94192C6981E02F36
:10593000F0E0EE0FFF1FE658F34FA591B4919FB72B
:10594000F8948C91611103C01095812301C0812BC3
:105950008C939FBF2196E4E00C94362FCF93DF9376
:10596000282F30E0F901EC5CF34F8491F901E85BFA
:10597000F34FD491F901E45AF34FC491CC2391F041
:1059800081110E94192CEC2FF0E0EE0FFF1FE0595F
:10599000F34FA591B4912C912D2381E090E021F457
:1059A00080E002C080E090E0DF91CF910895A0E018
:1059B000B0E0EDEDFCE20C94162F6C017A01EB01E6
:1059C000E60EF71E00E010E0CE15DF0561F06991EC
:1059D000D601ED91FC910190F081E02DC601099571
:1059E000080F191FF1CFC801CDB7DEB7E8E00C945E
:1059F000322F6115710589F0DB010D900020E9F768
:105A0000AD0141505109461B570BDC01ED91FC9152
:105A10000280F381E02D0995089580E090E00895DB
:105A2000EF92FF920F931F93CF93DF938C01FB01B3
:105A3000C0E0D0E064917F018FEFE81AF80A662396
:105A400061F0D801ED91FC910190F081E02DC80149
:105A50000995C80FD91FF701EDCFCE01CDB7DEB73D
:105A6000E6E00C94342F0E94F92C0895DC01ED91AE
:105A7000FC910190F081E02D099508950F931F93FB
:105A8000CF93DF93EC016DE00E94362D8C016AE02C
:105A9000CE010E94362D800F911FDF91CF911F9173
:105AA0000F9108950F931F93CF93DF93EC010E9402
:105AB000102D8C01CE010E943E2D800F911FDF9191
:105AC000CF911F910F9108950F931F93CF93DF9361
:105AD000EC010E94F92C8C01CE010E943E2D800F1A
