:100000000C9448060C94722B0C949F2B0C94700645
:100010000C9470060C940D1F0C9470060C947006D2
:100020000C9470060C9470060C9470060C94700678
:100030000C9470060C9470060C9470060C94700668
:100040000C94CC2B0C9470060C94A4090C94E90924
:100050000C9470060C9470060C9470060C94700648
:100060000C9470060C9470068A15EF15CB15CE15FE
:10007000D115D415D715DA15DD15EF15E615EF15E1
:10008000E91588188A188A1888188A188A188A1808
:100090008A188A188A188A188A188A188A188A1850
:1000A0008A188A180E188A188A188A188A188A18BC
:1000B0007F178A188A188A188A188A188A188A183C
:1000C0008A188A188A188A188A188A188A188A1820
:1000D0001A181A181A181A181A181A181A181A1890
:1000E0001A188A188A188A188A188A188A187F177C
:1000F00019181918191819188A1827182D183318CB
:1001000039183F1845184B1851185B1865186F18A7
:100110007918C01782178A188A188A188A180E1830
:100120008A188A188A188A188A188A188A188A18BF
:1001300018181818181818188A1827182D1833188E
:1001400039183F1845184B1851185B1865186F1867
:100150007918C01782178A188A188A188A180E18F0
:10016000BD18BD18BD18BD18BD18BD18BD18BD18E7
:10017000BD18BD18BD18BD18BD18D419D419D4198F
:10018000D419D419D41902190C19161920197E1969
:1001900088199719A8193D1B521B5E1B671B761BFC
:1001A0009C1BA51B031CB81B031CCD1B0F25152571
:1001B0001B252225302552257025456E7465722039
:1001C0006D656E752E2E2E00546F67676C6564200A
:1001D0006D6963726F50504D00546F67676C656452
:1001E00020696E7665727465642050504D2100540C
:1001F0006F67676C6564205458206D7574696E670D
:100200002100546F67676C65642074656C656D656B
:10021000747279210050726F746F636F6C20657215
:10022000726F7220776974682052580054696D6546
:100230006F7574207768656E20636F6E6E6563748A
:10024000696E6720746F2052580050726573732076
:10025000616E79206B657920746F2063616E6365D0
:100260006C00436F6E6E656374696E6720746F20F7
:1002700052582C20706F77657220757020746865F5
:100280002052582028776974682062696E64207053
:100290006C7567206966206E6F74207573696E6770
:1002A00020616C776179732062696E642900546FF4
:1002B00067676C65642027696D6D65646961746545
:1002C000206F75747075742700546F67676C656470
:1002D0002027736C617665206D6F64652700546F0D
:1002E00067676C65642027616C7761797320626948
:1002F0006E642700546F67676C65642050504D2012
:100300006368616E6E656C206C696D69740053651D
:1003100074205253534920696E6A656374696F6E25
:10032000206368616E6E656C2028303D3D646973A2
:1003300061626C6529005365742050504D206D69D1
:100340006E696D756D2073796E63005365742062FC
:100350006561636F6E20696E74657276616C0053BF
:10036000657420626561636F6E2064656C617900FD
:1003700053657420626561636F6E20667265717586
:10038000656E637920696E20487A3A20303D646951
:100390007361626C652C2050783D504D522063682B
:1003A000616E6E656C20782C2046783D4652532055
:1003B0006368616E6E656C207800536574205057D9
:1003C0004D2073746F702064656C61792028302033
:1003D00064697361626C65642C20312D323535207F
:1003E0003D3D20302E3173202D2035306D696E2932
:1003F000005365742050504D2073746F70206465F5
:100400006C61792028302064697361626C65642CAA
:1004100020312D323535203D3D20302E3173202DB9
:100420002035306D696E2900536574206661696CF2
:10043000736166652064656C617920283020646989
:100440007361626C65642C20312D323535203D3D61
:1004500020302E3173202D2035306D696E29002A11
:100460002A2A2A2A2A2A2A2A2A2A2A2A2A2A2A2AEC
:100470002A2A2A2A2A2A2A2A2A2A2A2A00525820BA
:1004800041636B6564202D207265766572742073FC
:1004900075636365737366756C21002A2A2A2A2A9C
:1004A0002A2A2A2A2A2A2A2A2A2A2A2A2A2A2A2AAC
:1004B0002A2A2A2A2A2A2A2A002A2A2A2A2A2A2AC6
:1004C0002A2A2A2A2A2A2A2A2A2A2A2A2A2A2A2A8C
:1004D0002A2A2A2A2A2A0052582041636B6564205E
:1004E0002D20757064617465207375636365737323
:1004F00066756C21002A2A2A2A2A2A2A2A2A2A2AC6
:100500002A2A2A2A2A2A2A2A2A2A2A2A2A2A2A2A4B
:100510002A2A0056616C69642063686F6963657399
:10052000206172653A205B315D2D5B31365D20289C
:100530006368616E6E656C20312D3136290053651C
:1005400074206F757470757420666F7220706F728E
:100550007420005B585D2061626F72742063686173
:100560006E67657320616E642065786974205258E7
:1005700020636F6E666967005B535D20736176650B
:100580002073657474696E677320746F205258000D
:100590005B525D20726576657274205258207365D7
:1005A0007474696E677320746F2064656661756C1E
:1005B000747300557365206E756D62657273205B90
:1005C000312D445D20746F206564697420706F72F2
:1005D0007473205B452D515D20666F7220736574C6
:1005E00074696E677300202D207265636569766596
:1005F0007220636F6E666967757261746F722C200A
:10060000727820737720000A0A6F70656E4C52531F
:100610006E6720005365742074656C656D65747237
:1006200079207061636B65742073697A653A200084
:100630005365742073657269616C206261756472C0
:100640006174653A200056616C69642063686F6963
:100650006365733A2031202D20342B34202F203233
:10066000202D2038202F2033202D20382B34202FF0
:100670002034202D203132202F2035202D203132E2
:100680002B34202F2036202D203136005365742046
:100690004368616E6E656C20636F6E6669673A20B1
:1006A0000053657420446174617261746520283060
:1006B0002D32293A200053657420486F70206368FA
:1006C000616E6E656C7320286D61782032342C2049
:1006D00073657061726174656420627920636F6D07
:1006E0006D6173292076616C69642076616C756533
:1006F0007320312D3235353A2000536574206368FC
:10070000616E6E656C2073706163696E6720287816
:1007100031306B487A293A200053657420524620C4
:10072000706F7765722028302D37293A2000536585
:1007300074205246206D61676963202868657829B6
:1007400020652E672E2030784445414446303044A1
:100750003A2000536574206261736520667265718A
:1007600075656E63792028696E20487A293A2000E1
:100770005B5A5D20656E746572207265636569768B
:10078000657220636F6E66696775726174696F6EFA
:10079000207574696C79005B465D20646973706CC8
:1007A00061792061637475616C206672657175652D
:1007B0006E636965732075736564005B525D2063C9
:1007C000616C63756C6174652072616E646F6D201D
:1007D0006B657920616E6420686F70206C6973743A
:1007E000005B495D207265696E697469616C697A44
:1007F000652073657474696E677320746F20736B02
:10080000657463682064656661756C7473005B5819
:100810005D20726576657274206368616E676573CA
:1008200020616E642065786974206D656E75005B6B
:10083000535D20736176652073657474696E6773A8
:1008400020746F20454550524F4D20616E642065E5
:10085000786974206D656E7500557365206E756DD1
:1008600062657273205B302D395D20746F20656482
:10087000697420706172616D657465727300202DFA
:100880002053797374656D20636F6E666967757246
:100890006174696F6E000A0A6F70656E4C52536E18
:1008A0006720005129204F75747075742062656649
:1008B0006F7265206C696E6B20283D465329203A83
:1008C0002000502920536C617665206D6F6465208F
:1008D000286578706572696D656E74616C293A205F
:1008E000004F292054696D65642042494E442061BF
:1008F00074207374617274757020203A20004E2940
:100900002050504D206F7574707574206C696D693E
:1009100074656420202020203A200044495341423D
:100920004C4544004D292050504D205253534920EE
:10093000746F206368616E6E656C202020203A2001
:10094000004C292050504D206D696E696D756D20E9
:1009500073796E63202875732920203A200044495A
:100960005341424C4544004B29204661696C7361F8
:10097000666520626561636F6E20696E74762E20F5
:1009800028312D32353573293A20004A2920466115
:10099000696C7361666520626561636F6E20646572
:1009A0006C61792028302D323535203D3E203130A4
:1009B00073202D203135306D696E293A2000492988
:1009C000204661696C7361666520626561636F6E64
:1009D000206672712E203A200048292050574D2061
:1009E00073746F702064656C617920202020202052
:1009F000203A200047292050504D2073746F7020FA
:100A000064656C6179202020202020203A20004657
:100A100029204661696C736166652064656C617943
:100A2000202020202020203A200050574D206368AD
:100A3000616E6E656C200066756E6374696F6E3AE8
:100A400020002920706F72742000506F77657254F7
:100A50006F77657200445446205548462033322D46
:100A60006269742031306368004F70656E4C525378
:100A70006E675258206D696E6920342F36636800A6
:100A8000466C7974726F6E2F4F72616E6765525843
:100A900020554846203863680052582074797065A4
:100AA0003A200044697361626C656400487A0020F2
:100AB0003D3D200043616C63756C6174656420701A
:100AC00061636B657420696E74657276616C3A203F
:100AD0000044292054656C656D65747279207061DD
:100AE000636B65742073697A653A20004229204D52
:100AF0006963726F202868616C66292050504D2010
:100B00002020203A00412920496E76657274656480
:100B10002050504D20696E20202020203A0030299E
:100B2000204D7574652062757A7A657220286D6F24
:100B300073746C79293A0039292053657269616CA4
:100B40002062617564726174653A005472616E73FB
:100B5000706172656E7420284D61766C696E6B29C8
:100B600000736D617274506F7274004672536B79CA
:100B7000005472616E73706172656E7400446973C3
:100B800061626C65640038292054656C656D65741C
:100B900072793A2020202020202000372920436825
:100BA000616E6E656C20636F6E6669673A20200027
:100BB00036292044617461726174652028302D32B9
:100BC000293A20202000352920486F702063686171
:100BD0006E6E656C733A202020202000342920435B
:100BE00068616E6E656C2073706163696E673A2030
:100BF0002000332920524620706F776572202830FC
:100C00002D37293A202020003229205246206D61BC
:100C10006769633A202020202020202020003129ED
:100C20002042617365206672657175656E63793AFD
:100C3000202020000000000700020100000304063D
:100C400000000000000000000102040810204080A5
:100C50000102040810200102040810200404040406
:100C60000404040402020202020203030303030356
:100C700000000000230026002900000000002500DD
:100C800028002B0000000000240027002A002F2B42
:100C900011241FBECFEFD8E0DEBFCDBF13E0A0E030
:100CA000B1E0EAEDF3E602C005900D92AE3CB1076B
:100CB000D9F716E0AEECB3E001C01D92A93EB10732
:100CC000E1F71CE0C0E9DCE004C02297FE010E94CD
:100CD000EF2FCE38D107C9F70E94222F0C94EB31A9
:100CE0000C940000FC01A289B3899C918689258916
:100CF000822B809589238C93138E0895DC015B965B
:100D00002C915B97222379F05796ED91FC9158979F
:100D10008081918122813381821B930B26813781CF
:100D20008223932308958FEF9FEF0895DC015B9654
:100D30002C915B97222391F05996ED91FC915A9753
:100D40008081918122813381821B930B80959095C4
:100D50002681378182239323019608958FEF9FEF99
:100D60000895DC015B962C915B97222359F05796EE
:100D7000ED91FC91589720813181828193812817D0
:100D8000390719F48FEF9FEF089582819381A08531
:100D9000B185A80FB91F8C91228133812F5F3F4FFE
:100DA00046815781242335233383228390E008959D
:100DB000DC015B962C915B97222359F05796ED91BD
:100DC000FC915897208131818281938128173907BE
:100DD00019F48FEF9FEF0895828193810084F1854C
:100DE000E02DE80FF91F808190E00895DC0157960F
:100DF000ED91FC915897228133813183208359965C
:100E0000ED91FC915A97808191819383828308951B
:100E1000FC01838D8823C1F1A18DB28D2D913C9170
:100E200011972F5F3F4F16968D919C91179728230E
:100E30003923848D811108C012968D919C9113974E
:100E400028173907C9F308C012968D919C91139702
:100E50002817390789F718C08D919C91119718961A
:100E60000D90BC91A02DA80FB91F6C93A18DB28DD0
:100E700011963C932E93A289B3898C919689892BE4
:100E80008C9381E090E0089580E090E00895A4E0E4
:100E9000B0E0EDE4F7E00C94C42F8C019A01AB01B3
:100EA000DC015B968C915B97882379F0ED91FC9146
:100EB0000484F585E02DC80129833A834B835C8344
:100EC00009955C814B813A812981D8015996ED9130
:100ED000FC915A9713821282118210825796ED91DB
:100EE000FC915897138212821182108281E05B96E6
:100EF0008C935B97121613061406150694F55096FC
:100F0000ED91FC9151972115B1EE3B07410551053B
:100F1000B1F181E090E0D80154960C9002C0880FA6
:100F2000991F0A94E2F7808360E079E08DE390E016
:100F30000E94972F2150310941095109CA01B90175
:100F400022E030E040E050E00E94972FD8011C964C
:100F5000ED91FC911D9730831E96ED91FC911F97AA
:100F60002083D8015296ED91FC915397808155963C
:100F70009C91892B80832496E4E00C94E02F1082CE
:100F800020E130E0E3CF80916206813019F482E005
:100F90008093620680916206833019F484E0809326
:100FA00062060895A8950895CF93C1E0A1E0B0E04E
:100FB0002C2F30E0FD010C2E02C0EE0FFF1F0A9413
:100FC000E2F74E175F0710F0CF5FF2CF21503109E3
:100FD00041E050E0FA0102C0EE0FFF1F2A95E2F750
:100FE0009F0121503109FC01378326837187608777
:100FF000CF9108954F925F926F927F928F92AF92AE
:10100000CF92EF92FF920F931F93CF93DF93CDB7C1
:10101000DEB7FC011382128288EE482E83E0582E40
:10102000612C712C448255826682778286E893E037
:10103000918380835587448737872687118B008B60
:10104000F38AE28AC48AA58A868A2AE0629FC0015E
:1010500011249C012053394F308F278B8A53994F8D
:10106000928F818F81E090E0062E01C0880F0A9454
:10107000EAF79091C506982B9093C506DF91CF9122
:101080001F910F91FF90EF90CF90AF908F907F9036
:101090006F905F904F900895EF92FF920F931F9380
:1010A000CF93DF93EC0179018F89988D0E94D4074B
:1010B000A801B701898D9A8D0E94D407CDB7DEB7FC
:1010C000E6E00C94DE2F2091630630916406382709
:1010D00048E0C901880F991F37FF06C09C0151E203
:1010E000252750E1352701C09C01415091F73093ED
:1010F000640620936306089588E38093650680E084
:1011000091EEA0E0B0E08093660690936706A0930E
:101110006806B09369068DE180938E0687E0809320
:10112000720680EC92E9ADEEB9E180936A06909385
:101130006B06A0936C06B0936D0685E080937306F2
:101140008DEE9EEFADEABEED80936E0690936F0636
:10115000A0937006B0937106E4E7F6E080E090E0BB
:10116000863028F4DC01A853BC4F2C9101C020E04C
:10117000219301968831910599F782E080938C063E
:1011800082E280938D06089580EC91EDA8E9BBE1A1
:101190008093AB069093AC06A093AD06B093AE06D9
:1011A00080E090E0A0E0B0E58093AF069093B006B9
:1011B000A093B106B093B206E3EBF6E080E0819332
:1011C0008F5F8031E1F70895A0E0B0E0EAEEF8E04B
:1011D0000C94B82FD82F0E94222C6115710581051F
:1011E0009105C9F30E945B3010926E0610926F0653
:1011F0001092700610927106C4E0812C912C54015B
:101200008A94C0906E06D0906F06E0907006F090C1
:101210007106FE2CED2CDC2CCC240E945630A5014E
:1012200094010E94972F6C0D7D1D8E1D9F1D609354
:101230006E0670936F068093700690937106C1508E
:1012400001F7DD2309F450C004E716E0E801A12C02
:10125000B12C62E3C62ED12CE12CF12C888188239D
:1012600009F442C0B39419F40E947C083DC00E9466
:101270005630A70196010E94972FE1E0E60FA4E700
:10128000B6E08A2F801B8A1520F48D918E13F9CF3A
:10129000E9CF2091730630E0A0E1B7E20E942F2F42
:1012A0009B01AC01AE2FB0E00E943E2F40906A0639
:1012B00050906B0660906C0670906D06640D751D05
:1012C000861D971D4090AB065090AC066090AD0611
:1012D0007090AE06461657066806790618F2E9932E
:1012E000A39488E1A812BACFCDB7DEB7E0E10C94A1
:1012F000D42F8436910520F4BC0180E090E017C023
:101300009C018E3B910528F42A553109AAE0B0E0F2
:101310000CC0823D910528F4245B3109A4E6B0E0BD
:1013200004C02D5C3109A8E5B2E00E942F2FA4E68D
:10133000B0E09B01AC010E943E2F089590E08C59D3
:101340009F4F0E94790908951F920F920FB60F9236
:1013500011242F933F934F938F939F93EF93FF937A
:101360004091C6008091D0069091D10601962091BF
:10137000D6063091D706822393232091D20630914E
:10138000D3068217930781F02091D0063091D106C1
:10139000E091D806F091D906E20FF31F40839093B5
:1013A000D1068093D00609C08091D4069091D506CD
:1013B00001969093D5068093D406FF91EF919F916B
:1013C0008F914F913F912F910F900FBE0F901F90D3
:1013D00018951F920F920FB60F9211242F933F93DF
:1013E0008F939F93EF93FF932091C8063091C90686
:1013F0008091C6069091C70628173907E9F08091B9
:10140000C8069091C906E091CE06F091CF06E80F8C
:10141000F91F80818093C6008091C8069091C9060B
:1014200001962091CC063091CD0682239323909390
:10143000C9068093C80610C02091C6063091C70621
:101440008091C8069091C9062817390729F4809120
:10145000C1008F7D8093C100FF91EF919F918F918B
:101460003F912F910F900FBE0F901F90189561E044
:101470008AE00E94CF2C60E08AE00E94082D089547
:10148000892B11F061E001C060E08AE00E94082D24
:10149000089560E089E00E94CF2C61E088E00E941E
:1014A000CF2C61E087E00E94CF2C60E082E00E94B8
:1014B000CF2C61E084E00E94CF2C089542E050E000
:1014C00063EC77E080E00E94522B0895E3E0F0E0C7
:1014D00089E080935700E491E67081E0E63009F0FE
:1014E00080E00895CF93DF93C82F0E94660A882377
:1014F00081F0DFB781E080934406F8940E94D20720
:1015000088E180936000C0936000C1110E94D207FF
:10151000DFBFDF91CF9108958F929F92AF92BF92DC
:10152000CF92DF92EF92FF921F93CF93DF93EC0164
:1015300018A5E12FE770F0E0E658FC4FA081B0E07D
:1015400017FF03C084E190E002C08FE090E0EFA1BC
:1015500023E1E29FF0011124E25CFE4F8080918044
:10156000A280B380A80FB91F20E43FE14DE750E00F
:101570000E94492FA50194010E94752F812F887325
:1015800049F469017A0160EDC60E67E0D61EE11CE0
:10159000F11C21C089A590E017FF03C0A4E1B0E0D1
:1015A00002C0AFE0B0E069017A0168EBC60E6BE003
:1015B000D61EE11CF11CA80FB91F20E43FE14DE746
:1015C00050E00E94492FA50194010E94752FC20E80
:1015D000D31EE41EF51EC701B60169517C4F8F4F23
:1015E0009F4F28EE33E040E050E00E94752FA8EEB8
:1015F000B3E00E943E2FDF91CF911F91FF90EF90BB
:10160000DF90CF90BF90AF909F908F9008958F3FC5
:10161000910551F048F0811522E0920738F08115CC
:10162000934030F482E0089580E0089581E00895C9
:1016300083E00895A0E0B0E0E0E2FBE00C94C12F6D
:10164000EB018A01B82FB695A0E028813981F80115
:1016500020832A813B8121832C813D8122832E811D
:101660003F812383688179814A815B812C813D811F
:10167000EE81FF819F2F9295990F990F907C272FD4
:101680002370922B252F2370220F220F922B232FB2
:1016900023702295207F922BF80194830B5F1F4FBC
:1016A0002896AF5FBA1788F680FF24C08881998199
:1016B0000E94070BD82E8A819B810E94070BE82E7F
:1016C0008C819D810E94070BF82E8E819F810E9444
:1016D000070BF0E4DF9EA001112490E1E99E900148
:1016E0001124242B282BE4E0FE9EB0011124262B8C
:1016F000F8012083CDB7DEB7E7E00C94DD2F803210
:1017000023E0920708F1883E23E0920740F48F51CE
:101710009340E4E096958795EA95E1F70895803D3A
:1017200027E0920718F48C5D93400895883928E0EB
:10173000920768F4885C974074E0969587957A954F
:10174000E1F78D509C4F089580E090E008958FEF71
:1017500093E008958C30910540F4A4E0880F991F20
:10176000AA95E1F7885D9C4F0895843F23E0920796
:1017700018F484529C4F0895811524E0920740F498
:101780008657934FF4E0880F991FFA95E1F7089573
:1017900080E998E008959C01369527952575357563
:1017A000821B930B9C0123733373969587959695B3
:1017B000879583739373820F931F9C0154E0369532
:1017C00027955A95E1F7280F391F2F703F7041E098
:1017D00051E0249FC001259F900D349F900D11244E
:1017E000892F08955F98882319F00000289A02C075
:1017F0000000289800005F9A000008955F9A00009A
:1018000083B15F980000869581700895CF93DF9330
:10181000D82F5C9A5F985C98C8E08D2F80780E94E2
:10182000F20BDD0FC150C9F75F98DF91CF9108959A
:101830008F770E94060C0895CF93DF93D82FC8E0CE
:101840008D2F80780E94F20BDD0FC150C9F75F9891
:10185000DF91CF910895CF93DF935F98C8E080E048
:10186000D82FDD0F0E94FE0B8D0FC150C9F7DF91FD
:10187000CF9108950E94180C0E942B0C5C9A089539
:10188000A1E0B0E0E6E4FCE00C94C62F8068698338
:101890000E94060C6981862F0E941C0C5C9A21967E
:1018A000E2E00C94E22FCF93C0916E06C827E82F98
:1018B000F0E0EB59F94F678589E70E94400C6C2FE7
:1018C0008DE30E94400C6C2F82E40E94400CCF916B
:1018D000089586E20E943A0C0895CF93DF93EC01BD
:1018E0006C818CE10E94400C6D818DE10E94400C66
:1018F0006E818EE10E94400C6F8180E20E94400C5C
:10190000688581E20E94400C698582E20E94400C59
:101910006A8583E20E94400C6B8584E20E94400C41
:101920006C8585E20E94400C6D858AE20E94400C25
:101930006E858EE60E94400C6F858FE60E94400CFB
:10194000688980E70E94400C698981E70E94400C09
:101950006A8982E70E94400CDF91CF910895CF926F
:10196000DF92EF92FF92CF93DF936B017C01C11462
:1019700088E3D8068CE9E8068CE1F80628F5C7016B
:10198000B60120E836E948E950E00E94752FE901E8
:10199000689760E879E687E69FEF0E94512F6C0D0B
:1019A0007D1D8E1D9F1DF2E0660F771F881F991FFA
:1019B000FA95D1F721E732E040E050E00E94752F20
:1019C000F22EE32E80E421C0C701B60120E03DE203
:1019D00041E351E00E94752FE901689760E073EDE3
:1019E0008EEC9EEF0E94512F6C0D7D1D8E1D9F1D54
:1019F000660F771F881F991F21E732E040E050E013
:101A00000E94752FF22EE32E80E66C2F6F71680F07
:101A100085E70E94400C6E2D86E70E94400C6F2DDA
:101A200087E70E94400CDF91CF91FF90EF90DF900D
:101A3000CF900895682F8DE60E94400C08958F92F4
:101A40009F92AF92BF92CF92DF92EF92FF92CF938D
:101A5000DF93D82F83E00E943A0C8093430684E002
:101A60000E943A0C8093420660E086E00E94400C9F
:101A700061E087E00E94400C6FE789E00E94400C23
:101A800065E08AE00E94400C62E18BE00E94400C1D
:101A900065E18CE00E94400C6DEF8DE00E94400CEF
:101AA00060E08EE00E94400CDD2319F08BE291E0B3
:101AB00008C020918C0633E1239FC0011124825C71
:101AC0009E4F0E946D0C6CE880E30E94400C6FE01A
:101AD00082E30E94400C62E483E30E94400C809108
:101AE0008D0687FF02C064E101C06AE084E30E94C2
:101AF000400C6AE285E30E94400C6DE286E30E949E
:101B0000400C64ED87E30E94400C60E088E30E9493
:101B1000400C60E089E30E94400CD11109C0C090E4
:101B20006E06D0906F06E0907006F090710607C0C8
:101B3000C5E9CC2EC1ECDC2EED2CCEEDFC2ECAE39B
:101B40008F2C9924AA24BB24682D8C2F0E94400C32
:101B5000682D85E08C0F0E94400CFE2CED2CDC2CB7
:101B6000CC24CF5FCE3361F76FEF83E40E94400C4B
:101B70006FEF84E40E94400C6FEF85E40E94400CFC
:101B80006FEF86E40E94400CDD2311F066E002C096
:101B9000609172068DE60E94400C60E089E70E9429
:101BA000400C609173068AE70E94400C60E083E776
:101BB0000E94400C60E084E70E94400CD11109C0F3
:101BC00060916A0670916B0680916C0690916D062B
:101BD00004C060EC72E98DEE99E10E94AF0CDF91D8
:101BE000CF91FF90EF90DF90CF90BF90AF909F90FC
:101BF0008F90089561E087E00E94400C64E28EE7D8
:101C00000E94400C63E088E00E94400C60E088E0A5
:101C10000E94400C65E087E00E94400C62E085E095
:101C20000E94400C83E00E943A0C8093430684E0BB
:101C30000E943A0C80934206089583E00E943A0C79
:101C40008093430684E00E943A0C8093420661E050
:101C500087E00E94400C6AE070E080E090E00E9423
:101C6000452C0E94FA0D00000895A2E2B0E0EBE3DB
:101C7000FEE00C94B62F9E012F5F3F4F80E1D9010B
:101C80001D928A95E9F76EE971E085E496E029A353
:101C90003AA30E940E2E0E941D0E1D8A1E8A1F8AC4
:101CA000188E312C212C00E0812C912C540180E4E1
:101CB000482E81EE582E8DE9682E88E1782E90E529
:101CC000C92E93ECD92EE12CF12C84EF91E0A0E009
:101CD000B0E08D8F9E8FAF8FB8A380EC91EDA8E917
:101CE000BBE1898F9A8FAB8FBC8F80E491EEADE919
:101CF000B8E1898B9A8BAB8BBC8B85E496E00E9414
:101D00007E06892B09F4E1C085E496E00E94B106C5
:101D10009C0133272C32310509F442C0ACF4233244
:101D2000310509F0ABC019821A821B821C821D8208
:101D30001E821F82188619861A861B861C861D869F
:101D40001E861F86188A60C02434310529F0233589
:101D5000310509F4B2C092C064E485E496E00E94C3
:101D6000E02D2AE030E040E451EE6DE978E185E4D1
:101D700096E00E946E2E6CE285E496E00E94E02DD3
:101D80002AE030E040EC51ED68E97BE185E496E043
:101D90000E946E2E6CE285E496E00E94202EADCF6C
:101DA0000F5F043009F0A9CF29813A814B815C8112
:101DB000A8EEB3E00E943E2F698B7A8B8B8B9C8BB5
:101DC0002D813E814F8158850E943E2F698F7A8FE9
:101DD0008B8F9C8F29853A854B855C852D8F3E8F17
:101DE0004F8F58A32D853E854F8558890E943E2FE1
:101DF0006B017C0160323EE473078105910530F48C
:101E000062E38CE10E94400C00E077CF603345E74D
:101E100074078105910510F462E2F3CF60345CE948
:101E200075078105910510F466E2EBCF80E5C816D1
:101E300083ECD806E104F10410F462E1E2CF90E60D
:101E4000C9169AEED906E104F10410F465E1D9CF80
:101E5000A0E7CA16A1E1DA06A1E0EA06F10410F44F
:101E600061E0CFCFB0EACB16B6E8DB06B1E0EB0617
:101E7000F10410F463E0C5CF65E0C3CF10ED180F97
:101E80001A3008F03ACFE1E0F0E0EC0FFD1F24E05B
:101E9000029FE00DF11D1124208131814281538187
:101EA000AAE0B0E00E943E2F610F711D811D911DBF
:101EB000608371838283938320CF49885A886B889B
:101EC0007C88812C912C540118CF81149104A10499
:101ED000B10489F4C301B2010E94AF0C61E070E06B
:101EE00080E090E00E94452C1D8A1E8A1F8A188E71
:101EF000312C22242A948D8D9E8DAF8DB8A1881609
:101F00009906AA06BB06D0F40E94690C2D893E8969
:101F10004F89588D280F311D411D511D2D8B3E8B32
:101F20004F8B588F381608F4382E821508F4282E57
:101F30003FEF831A930AA30AB30A56C0C301B20142
:101F400028EE33E040E050E00E94752FBA01A9016D
:101F50002AE030E085E496E00E94C52E6CE285E43C
:101F600096E00E94E02D4AE050E0632D85E496E083
:101F70000E94D42E6CE285E496E00E94E02D6D89EB
:101F80007E898F89988DA50194010E94752FBA01D1
:101F9000A9012AE030E085E496E00E94C52E6CE2BB
:101FA00085E496E00E94E02D4AE050E0622D85E451
:101FB00096E00E94D42E6CE285E496E00E94202EEA
:101FC0004C0C5D1C6E1C7F1C898D9A8DAB8DBC8D5D
:101FD00084159505A605B70520F449885A886B88AD
:101FE0007C88812C912C540129893A894B895C8900
:101FF000283E33404105510509F07FCEA296E2E12B
:102000000C94D22FCF92DF92FF920F931F93CF9316
:10201000DF931F92CDB7DEB7082F162F8EE399837B
:102020000E94400CF02EC02E9981D92E8C2D8F1934
:10203000811738F4F60161916F018FE70E94400C1F
:10204000F5CF64E085E00E94400C83E00E943A0CEA
:102050008093430684E00E943A0C809342060E94DB
:10206000222C60933E0670933F0680934006909327
:10207000410669E087E00E94400C81E0809362069F
:102080000F90DF91CF911F910F91FF90DF90CF9034
:1020900008950F931F930E94021080916206813071
:1020A00099F40E94222C00913E0610913F06209147
:1020B000400630914106601B710B820B930B603A16
:1020C00076488140910548F380916206813031F471
:1020D0006BEA71E085E496E00E940E2E1F910F914D
:1020E00008950F931F9380916206823021F410921D
:1020F000620681E020C0809162068130D9F40E949E
:10210000222C00913E0610913F062091400630910E
:102110004106601B710B820B930B613A764881403C
:10212000910540F061E087E00E94400C1092620649
:1021300082E001C080E01F910F910895CF93DF935B
:10214000EC014AE050E06D2F70E085E496E00E94DB
:10215000DC2E6EE285E496E00E94E02DBE0134E0C4
:10216000769567953A95E1F76F7077274AE050E0EA
:1021700085E496E00E94DC2E6EE285E496E00E9403
:10218000E02DBE016F7077274AE050E085E496E0CD
:102190000E94DC2EDF91CF910895D82FC0E0CD179B
:1021A00080F42D9A64E670E080E090E00E94452C77
:1021B0002D9864E670E080E090E00E94452CCF5FAF
:1021C000EECF6CE271E080E090E00E94452CE6CF1B
:1021D0000F931F93CF93DF93EC01062F15E011505F
:1021E00051F0CE010E94D231081741F0602FCE018C
:1021F0000E94DA31F4CF82E00E94CD10DF91CF91BE
:102200001F910F910895A0E0B0E0E9E0F1E10C9496
:10221000B82F482E562EC0E0D0E0612C712CE12C56
:10222000F12C00E010E041100CC06090C40687E47F
:10223000689E30011124E9E1EE2EF12C0AEA16E045
:102240001EC091E049120FC06090C406E7E46E9E84
:1022500030011124FBE16F0E711C7AE2E72EF12CA4
:1022600005E616E00CC082E0481209C05CE1652E6C
:1022700077247394EE24E394F12C03EC16E04301ED
:102280008C0E9D1E10926406109263063401A62CDB
:10229000A818B12CC30101966C01AE14BF04A8F4B8
:1022A000A00EB11E511006C0C3010E94D231F5012B
:1022B000808305C0F5016081C3010E94E810F5012B
:1022C00080810E9463083601E2CFC301511018C01B
:1022D000C3010E94D231B82EC6010E94D2312B2DEB
:1022E00030E0322F2227282B8091630690916406DC
:1022F0008217930779F4C0E0D0E05524539493CF2C
:102300003601609164060E94E81060916306C60180
:102310000E94E810C05EDE4FC13E92E0D90708F48B
:1023200082CF852DCDB7DEB7E0E10C94D42F61E0EC
:1023300082E00E940311089560E082E00E94031190
:102340008091C306853020F01092C3060E94971139
:102350008091C3068093C406089561E080E00E94E6
:10236000031161E081E00E940311089560E080E0C4
:102370000E940311882351F060E081E00E94031164
:10238000882321F080916506883349F00E94C408B3
:102390000E947C0881E00E94E4080E94AD1108952B
:1023A000CF93C82F682F85E496E00E94080790918C
:1023B0003C069C2790933C06CF910895A1E0B0E0A5
:1023C000E4EEF1E10C94C62F99830E94D01199811B
:1023D000892F0E94D0112196E2E00C94E22F1F93E6
:1023E000CF93DF93182FEB0110923C0665EB85E449
:1023F00096E00E94080762E685E496E00E940807DE
:10240000812F0E94D011CE010E94DE11DF91CF9169
:102410001F91089560913C0685E496E00E940807AC
:102420000895ACE1B0E0E7E1F2E10C94C02F0E9426
:10243000222C6B017C0181E00E941F0D14E703E058
:10244000198361E0CE0101960E9449100093620653
:102450000E94FA0D6AEF70E080E090E00E94452C47
:1024600080916206833089F485E496E00E947E06BE
:10247000892B59F40E94222C6C197D098E099F0921
:102480006038734C894C9140D8F280916206833059
:1024900009F44FC08FE70E94180C0E942B0C89830F
:1024A000843511F083E05CC00E942B0C109218065A
:1024B000809319060E942B0C209118063091190662
:1024C000280F311D30931906209318060E942B0CFB
:1024D00080931A060E942B0C80931B06813110F703
:1024E000F12C0F2D10E080911B0690E0880F991FB2
:1024F0000817190740F40E942B0CF801E45EF94F0D
:102500008083F394EECF80E7898361E0CE0101966A
:102510000E94491083E0809362060E94FA0D62E3F4
:1025200070E080E090E00E94452C8091620683304C
:1025300011F482E015C08FE70E94180C0E942B0C4A
:102540008983803509F0AECF0FE816E00E942B0C8E
:10255000F80181938F01F6E00A3A1F07B9F781E08D
:102560006C96E8E00C94DC2F882319F067EB71E09F
:1025700002C06BEB71E085E496E00E940E2E089598
:10258000FF920F931F93CF93DF936EE17CE085E47E
:1025900096E00E94BA2D40916A0650916B066091B8
:1025A0006C0670916D062AE030E085E496E00E94AA
:1025B000E32E68E07CE085E496E00E94BA2D40912D
:1025C0006E0650916F06609170067091710620E161
:1025D00030E085E496E00E94E32E62EF7BE085E444
:1025E00096E00E94BA2D4AE050E06091720685E4C0
:1025F00096E00E940B2F6CED7BE085E496E00E9454
:10260000BA2D4AE050E06091730685E496E00E949E
:102610000B2F66EC7BE085E496E00E94BA2DC4E7C0
:10262000D6E0F12C8E0188818823A9F0FF2031F0BB
:102630006EEB71E085E496E00E94DD2D21964AE084
:1026400050E0F801608185E496E00E94D42EF39476
:10265000F8E1FF12E7CF85E496E00E94E82D60EBF9
:102660007BE085E496E00E94BA2D4AE050E060915C
:102670008C0685E496E00E940B2F6BE97BE085E4F5
:1026800096E00E94BA2DE0918D06E770F0E0EE0F23
:10269000FF1FE856FC4F6081718185E496E00E943F
:1026A0000E2E66E87BE085E496E00E94BA2D8091CC
:1026B0008D068873803191F038F4882361F088307A
:1026C000B1F461E77BE00FC0883159F0803279F4D2
:1026D0006BE47BE008C06DE77BE005C06BE67BE068
:1026E00002C061E67BE085E496E00E94FC2D67E392
:1026F0007BE085E496E00E94BA2D409166065091F9
:10270000670660916806709169062AE030E085E40A
:1027100096E00E94E32E6EE17BE085E496E00E9465
:10272000BA2D8091AF0680710E94B41265E07BE003
:1027300085E496E00E94BA2D8091AF0680740E94D5
:10274000B4126CEE7AE085E496E00E94BA2D809196
:10275000AF0680720E94B41280918D068873803219
:1027600071F461ED7AE085E496E00E94BA2D4AE0CA
:1027700050E060918E0685E496E00E940B2F64EB9A
:102780007AE085E496E00E94BA2D85E696E00E9404
:102790008C0AAB01BC012AE030E085E496E00E949F
:1027A000C52E6FEA7AE085E496E00E94BA2D85E6B0
:1027B00096E00E948C0A9B01AC0160E472E48FE019
:1027C00090E00E94752FBA01A9012AE030E085E46B
:1027D00096E00E94C52E6CEA7AE085E496E00E94BD
:1027E000FC2DCDB7DEB7E5E00C94DF2F8F929F92E2
:1027F000AF92BF92CF92DF92EF92FF92811107C00A
:1028000063EA7AE085E496E00E94FC2D2FC090E018
:102810000E94790924E630E040E050E00E94752FE4
:10282000CA01B9012AE030E040E050E00E94752F73
:1028300049015A016B017C012AE030E0B501A40195
:1028400085E496E00E94C52E6EE285E496E00E9443
:10285000E02D2AE030E0B701A60185E496E00E9471
:10286000C52E63E785E496E00E94202EFF90EF904E
:10287000DF90CF90BF90AF909F908F9008951F935F
:10288000CF93DF9369E97AE085E496E00E94BA2D60
:1028900080918F06813041F460E87AE085E496E02B
:1028A0000E94FC2D10E050C0823019F469E67AE0F5
:1028B000F5CF843019F465E57AE0F0CF853091F7F3
:1028C0006AE47AE0EBCFC12FD0E0C930D1050CF437
:1028D00041C068E3610F85E496E00E94E02D62E468
:1028E0007AE085E496E00E94BA2DBE016F5F7F4FCB
:1028F0004AE050E085E496E00E94A42E67E37AE087
:1029000085E496E00E94BA2DC157D94FE981E032A3
:1029100018F56AE27AE085E496E00E94BA2D898192
:10292000803130F06DE673E085E496E00E94DD2DA5
:1029300069816F7070E06F5F7F4F4AE050E085E41F
:1029400096E00E94AD2E1F5F80911A06181708F4BA
:10295000BACF0FC061E3BECFEF70F0E0EE0FFF1F04
:10296000E855FC4F6081718185E496E00E940E2E4F
:10297000EACF6FE07AE085E496E00E94BA2D80917C
:10298000A7060E94F61364EF79E085E496E00E94C2
:10299000BA2D8091A8060E94F61369ED79E085E4CE
:1029A00096E00E94BA2D8091A9060E94F6136EEB64
:1029B00079E085E496E00E94BA2D40919F065091FF
:1029C000A0066091A1067091A2064115510561050E
:1029D000710539F12AE030E085E496E00E94E32EAB
:1029E0006BE879E085E496E00E94BA2D8091A30619
:1029F0000E949E09AB01BC012AE030E085E496E02C
:102A00000E94E32E67E679E085E496E00E94BA2D05
:102A10004AE050E06091A40685E496E00E940B2F06
:102A200006C06EE579E085E496E00E94FC2D61E445
:102A300079E085E496E00E94BA2D6091A506709138
:102A4000A6064AE050E085E496E00E94F52E64E296
:102A500079E085E496E00E94BA2D60919E0660348C
:102A600050F470E06F5F7F4F4AE050E085E496E0FD
:102A70000E94AD2E06C06BE179E085E496E00E94ED
:102A8000FC2D6EEF78E085E496E00E94BA2D8091EF
:102A90009D0680FF03C060EC71E002C064EC71E051
:102AA00085E496E00E940E2E61EE78E085E496E0E3
:102AB0000E94BA2D80919D0682700E94B41262EC31
:102AC00078E085E496E00E94BA2D80919D0684709E
:102AD0000E94B41263EA78E085E496E00E94BA2D81
:102AE00080919D0688700E94B412DF91CF911F9152
:102AF000089580911706992787FD9095A92FB92FE2
:102B0000FC013196ED30F10508F069C0EC5CFF4F37
:102B10000C94ED2F66E978E085E496E00E94FC2DA8
:102B200085E893E00E949E106EE778E085E496E0E9
:102B30000E94FC2D69E578E085E496E00E94FC2D7A
:102B40006FE278E085E496E00E94FC2D6EE078E08C
:102B500085E496E00E94FC2D61EE77E085E496E046
:102B60000E94FC2D6BEB77E085E496E00E94FC2D43
:102B700067E977E085E496E00E94FC2D60E777E066
:102B800085E496E00E94FC2D85E496E00E94E82D05
:102B90000E94C01224C063E577E01DC06EE277E0BA
:102BA0001AC069E177E017C06AEF76E014C066EBFF
:102BB00076E011C061EA76E00EC06CE876E085E46C
:102BC00096E00E94FC2D66E476E005C060E376E0C6
:102BD00002C064E176E085E496E00E94FC2D6AE0A4
:102BE00070E080E090E00E94452C85E496E00E9431
:102BF0007E06892B29F085E496E00E94B106F5CF88
:102C000008950F931F93CF93DF93209117062F3FC3
:102C1000A9F567E076E085E496E00E94BA2D85E8A4
:102C200093E00E949E1066EE75E085E496E00E94B7
:102C3000BA2D80911806909119060E949E1063EBA0
:102C400075E085E496E00E94FC2D60E975E085E47E
:102C500096E00E94FC2D68E775E085E496E00E940E
:102C6000FC2D63E575E085E496E00E94FC2D85E48B
:102C700096E00E94E82D0E943F1468C012160CF0E6
:102C800065C0332727FD309580911A0690E08217A2
:102C900093070CF45BC06EE375E085E496E00E9458
:102CA000BA2D60911706772767FD70954AE050E0CE
:102CB00085E496E00E94AD2E63E175E085E496E040
:102CC0000E94BA2D10E008E280911B061817D0F57B
:102CD000C12FD0E0CC0FDD1FC45ED94F288130E07A
:102CE00080911706992787FD909501972817390736
:102CF00039F568EC71E085E496E00E94DD2D4AE04C
:102D000050E0602F85E496E00E94D42E6CEC71E0D8
:102D100085E496E00E94DD2DE981EF70F0E0EE0F92
:102D2000FF1FE855FC4F6081718185E496E00E94A9
:102D3000DD2D60ED71E085E496E00E94DD2D0F5FF2
:102D40001F5FC2CF85E496E00E94E82DDF91CF910E
:102D50001F910F910895FF920F931F93CF93DF93CD
:102D6000C4E7D6E0F12C8E0188818823D1F162ED91
:102D700071E085E496E00E94DD2D4AE050E06F2D81
:102D800085E496E00E94D42E6FED71E085E496E034
:102D90000E94DD2D2196F801208130E0A0E1B7E20C
:102DA0000E942F2F9B01AC01A0917306B0E00E94FE
:102DB0003E2FAB01BC0180916A0690916B06A091F9
:102DC0006C06B0916D06480F591F6A1F7B1F2AE0E1
:102DD00030E085E496E00E94E32EF394F8E1FF12E0
:102DE000C2CFCDB7DEB7E5E00C94DF2F1092B1056E
:102DF00085E6E2EBF5E0DF011D928A95E9F708959B
:102E0000CF93C82F8F3719F0883009F040C0E09178
:102E1000B105EE23B1F1E150E093B105F0E0EE54DD
:102E2000FA4F10826DE085E496E00E940807C0E04A
:102E30008091B105C81758F4EC2FF0E0EE54FA4F2A
:102E4000608185E496E00E940807CF5FF1CF60E2E1
:102E500085E496E00E9408076DE085E496E00E9414
:102E60000807C0E08091B105C81768F5EC2FF0E0C5
:102E7000EE54FA4F608185E496E00E940807CF5F28
:102E8000F1CF67E085E496E00E94E02D1CC08B3115
:102E900019F40E94F61619C08D30B9F08A30A9F0E5
:102EA0008091B105843668F76C2F85E496E00E9426
:102EB0000807E091B10581E08E0F8093B105F0E045
:102EC000EE54FA4FC08380E001C081E0CF910895B5
:102ED000ACE1B0E0EEE6F7E10C94C02F909117065C
:102EE0009F3F09F023C1482F50E0FA013A97EF368F
:102EF000F10508F00FC1EF5BFF4F0C94ED2F63EE6F
:102F000071E0A0C06FEE71E085E496E00E940E2EA5
:102F100085E789838BE1EFE8F6E0DE011296019008
:102F20000D928A95E1F76CE1CE0101960E9449105D
:102F30000E94FA0D83E08093620668EC70E080E006
:102F400090E00E94452C80916206843009F0E2C036
:102F50008FE70E94180C0E942B0C8983853509F09D
:102F6000D9C065EF74E085E496E00E94FC2D67ED22
:102F700074E085E496E00E94FC2D69EB74E096C055
:102F800067E072E085E496E00E940E2E89E6898370
:102F900061E0CE0101960E9449100E94FA0D83E083
:102FA0008093620668EC70E080E090E00E94452C1F
:102FB00080916206843009F0ADC08FE70E94180C42
:102FC0000E942B0C89838E010E5F1F4F7E014DE105
:102FD000E40EF11C0E942B0CF80181938F01EE1579
:102FE000FF05C1F78BE1FE013296AFE8B6E0019034
:102FF0000D928A95E1F78981893409F08BC06BE9DC
:1030000074E085E496E00E94FC2D6DE774E085E4B1
:1030100096E00E94FC2D6FE574E048C061E272E02A
:1030200085E496E00E940E2E8EEF8093170672C004
:1030300080528750805390911A06981708F066C006
:1030400060E372E085E496E00E940E2E63C084E1A6
:103050008093170668E274E029C085E18093170623
:1030600061EF73E023C086E1809317066AEB73E09B
:103070001DC087E18093170660E773E017C088E101
:10308000809317066FE573E011C089E180931706FE
:103090006BE473E00BC08AE18093170666E373E08C
:1030A00005C08BE1809317066EE073E085E496E03F
:1030B0000E94FC2D2FC064EF72E085E496E00E9430
:1030C000FC2D80919D0691E01DC06EED72E085E4BF
:1030D00096E00E94FC2D80919D0692E013C069EC61
:1030E00072E085E496E00E94FC2D80919D0694E0BC
:1030F00009C06EEA72E085E496E00E94FC2D8091A2
:103100009D0698E0892780939D068FEF8093170690
:103110000E94011685E496E00E947E06892B09F440
:103120005BC185E496E00E94B106F4CF0E940017CF
:10313000882309F451C18091B105811104C08FEF3A
:103140008093170641C140E050E060E070E082EB00
:1031500095E00E94643040911706042F112707FD67
:103160001095212F312FF8013197EB31F10508F03F
:103170001BC1E055FF4F0C94ED2F552747FD50958F
:1031800020911A0630E0241735070CF40DC18B018D
:103190009C01015011092109310900321105210555
:1031A000310558F0C0901B06EDE1F6E0F12CD12C72
:1031B00028E2E22E415051090FC0FA01E157F94FC0
:1031C00061506083D9C0DF0111972C9130E0241742
:1031D000350729F0F3943296FC10F5CFCBC00E2DB5
:1031E00010E020E030E0061717072807390741F400
:1031F0002081DA01A157B94F11962C93DD24D39485
:10320000E394E8CF6F3F71058105910511F008F057
:10321000CBC06093A706B0C06F3F710581059105D3
:1032200011F008F0C1C06093A806A6C06F3F7105F9
:103230008105910511F008F0B7C06093A9069CC004
:103240002091B20520622037E9F440E050E060E0D0
:1032500070E083EB95E00E9464309B01AC01DC01DF
:10326000CB010197A109B1090897A105B10508F0A3
:10327000AEC0A4EDB0E30E943E2F6A5E7C4A8A464F
:10328000954E24C02636E9F440E050E060E070E05E
:1032900083EB95E00E9464309B01AC01DC01CB0123
:1032A0000197A109B1090797A105B10508F08FC0E1
:1032B000A8EAB1E60E943E2F645E7C438E46944E9F
:1032C00005C0611571058105910579F08B019C019F
:1032D0000054114E2D4938410138F0EF1F07FAEF25
:1032E0002F07F2E03F0708F05FC060939F067093DE
:1032F000A0068093A1069093A2063EC06F3F710581
:103300008105910511F008F04FC06093A30634C009
:103310008B019C0101501109210931090F3F110551
:103320002105310508F040C06093A40625C08B013B
:103330009C01045C1940210931090D344DE1140749
:103340002105310528F47093A6066093A50614C0E4
:10335000611571058105910521F48FEF80939E061B
:103360000BC06134710581059105F0F461506093E3
:103370009E0602C0DD20C1F08091B00581111AC007
:1033800080916E0690916F06A0917006B0917106C3
:103390000196A11DB11D80936E0690936F06A093B8
:1033A0007006B093710606C062E472E085E496E0B0
:1033B0000E940E2E0E94F6168FEF809317066AE089
:1033C00085E496E00E94202E0E94011605C061E06F
:1033D00070E080E090E07ACF6C96E8E00C94DC2F0F
:1033E00062E672E085E496E00E94FC2D6AE472E0F9
:1033F00085E496E00E94FC2D85E496E00E947E061E
:10340000892B31F085E496E00E94B1060E9468178E
:103410000E941112823029F0833051F465E172E08C
:1034200002C06CE272E085E496E00E94FC2D0895F3
:103430008FEF809317061092B0050E9401168091BD
:1034400017068E3F69F085E496E00E947E06892B80
:10345000B1F385E496E00E94B1060E946817EFCFB1
:1034600008950F931F93109117061F3F09F0DFC0B7
:10347000893409F45DC018F5883309F46FC058F435
:10348000803309F47EC008F067C08B3109F446C070
:103490008132E1F1C6C0813409F48EC030F4893341
:1034A00009F46DC0803491F1BCC0843409F4AEC01D
:1034B000863409F44EC0823409F0B3C08EC084361D
:1034C00009F4A4C090F4883549F128F48235D9F183
:1034D0008335F9F0A6C0813609F46EC0823609F44E
:1034E0007CC08A3509F09DC097C0823761F128F40D
:1034F000863679F18936E1F094C0883779F08A37D9
:1035000009F48AC0833709F08CC003C063EE71E010
:1035100015C00E94AD1160E672E004C00E94B611B1
:103520006AE772E085E496E00E940E2E8EEF77C087
:103530000E947C080E94C40869E972E085E496E074
:103540000E940E2E6EC081E00E94E40862EB72E0E1
:10355000F5CF0E94AB1665C0805361C062E072E097
:1035600085E496E00E94FC2D80918D0690E00896FF
:1035700068E270E00E94612F80938D061AC089E096
:103580004EC06FEE71E085E496E00E94FC2D8091C4
:10359000AF069091B006A091B106B091B20620E1BD
:1035A00082278093AF069093B006A093B106B093A4
:1035B000B2061093170635C069ED71E085E496E018
:1035C0000E94FC2D8091AF069091B006A091B106AB
:1035D000B091B20640E4842710C068EC71E085E445
:1035E00096E00E94FC2D8091AF069091B006A091CC
:1035F000B106B091B20620E282278093AF06909385
:10360000B006A093B106B093B20608C08BE08093D9
:1036100017060E94791505C00E94F0198FEF80935C
:103620001706809117068E3F09F0EAC0F3C00E948A
:103630000017882309F4EEC08091B105811104C000
:103640008FEF80931706DCC040E050E060E070E050
:1036500082EB95E00E94643000911706112707FD68
:103660001095212F312FF8013197EB30F10508F03B
:10367000CAC0E553FF4F0C94ED2F8B019C01015400
:10368000114E2D4938410F37104F2A4F324008F064
:10369000BAC060936A0670936B0680936C06909331
:1036A0006D068DC060936E0670936F0680937006F2
:1036B0009093710681E08093B00581C068307105F8
:1036C0008105910508F09FC06093720678C08B0158
:1036D0009C0101501109210931090A301105210508
:1036E000310508F090C06093730669C06EEB71E01D
:1036F00082EB95E00E949E3110E0009799F00E94C5
:103700007831009779F0183130F4E12FF0E0EB597F
:10371000F94F87871F5F6EEB71E080E090E00E94B9
:103720009E31EBCF183108F04AC0E12FF0E0EB59A1
:10373000F94F17861F5FF6CF65307105810591053A
:1037400008F061C060938C063AC08B019C01015067
:10375000110921093109063011052105310508F04B
:1037600052C020918D06287F262B20938D0627C0DE
:103770008B019C0101501109210931090115124CDD
:103780002140310508F03FC06093660670936706DC
:10379000809368069093690612C020918D06287365
:1037A000203269F48B019C0109501109210931096A
:1037B000073111052105310510F460938E068091C3
:1037C000B005811113C080916E0690916F06A09193
:1037D0007006B09171060196A11DB11D80936E0611
:1037E00090936F06A0937006B09371060E94F61630
:1037F0008FEF809317066AE085E496E00E94202E02
:103800000E94791507C062E472E085E496E00E94A8
:103810000E2EECCF1F910F9108958FEF8093170616
:103820001092B0050E947915809117068E3F69F0BD
:1038300085E496E00E947E06892BB1F385E496E04C
:103840000E94B1060E94311AEFCF6AE070E080E07A
:1038500090E00E94452C85E496E00E947E06892B2C
:1038600029F085E496E00E94B106F5CF0895CF9344
:10387000C82F0E94222C60939A0570939B05809319
:103880009C0590939D05C093AF05CC2329F040E0A3
:1038900051EE60E070E004C040E855E260E070E0A6
:1038A00085E496E00E944707CF91089590919E0588
:1038B000492F4F7050E0BA016F5F7F4F292F30E0E2
:1038C000E4E035952795EA95E1F76217730759F01B
:1038D000FA01E156FA4F808381E0890F8F70907F63
:1038E000892B80939E050895EF92FF920F931F936B
:1038F000CF93DF938C016EE785E496E00E94080782
:10390000E801F12CF0E2EF2E8E0188818D57823094
:1039100040F46DE785E496E00E94080788818E25D3
:1039200088832196F801608185E496E00E9408076B
:10393000F394F9E0FF12E8CF6EE785E496E00E9489
:103940000807CDB7DEB7E6E00C94DE2FA9E0B0E0C3
:10395000ECEAFCE10C94C62F9091990591110EC0F0
:103960009EEF99838A836B8350E0559547954C83EE
:103970002D83198618861F821E822EC040919E05B7
:10398000842F90E0B4E095958795BA95E1F7242FC0
:103990002F7030E08217930719F18DEF89831B8216
:1039A000FE01349650E0842F90E0A4E09595879531
:1039B000AA95E1F7242F2F7030E08217930749F082
:1039C000DC01A156BA4F8C918193405F5F5F563006
:1039D00051F740939E055A83CE0101960E94741CB4
:1039E0008091990590E0019666E070E00E94612F59
:1039F000809399052996E2E00C94E22FA0E0B0E0D4
:103A0000E4E0FDE10C94BF2F6C016EE785E496E0E5
:103A10000E9408078601E12CF12CC0E0D0E030E2E2
:103A2000B32EF801608183E8860F823040F46DE7A1
:103A300085E496E00E940807F80160816B2585E423
:103A400096E00E940807E114F10459F0F801808122
:103A50009E01280F311DC901C92FDD27C80FD91FAD
:103A6000DD273FEFE31AF30A89E0E816F10459F085
:103A700028E0E216F10421F48C2F8095F60180876E
:103A80000F5F1F4FCECFCDB7DEB7E9E00C94DB2F31
:103A90006EE785E496E00E9408070895A9E0B0E08B
:103AA000E4E5FDE10C94C62FE82F362F80919905AF
:103AB00090E0019664E270E00E94612F8093990586
:103AC00058E9598350E15A83813089F048F08230B7
:103AD000B9F08330D9F48B8381EF8C833D8319C097
:103AE00085E08B8381EF8C832F5F2D8312C08B83C6
:103AF00081EF8C8384E6489FA00111245D8309C077
:103B000084E08B8381EF8C83ED8303C00E94481D8A
:103B100004C0CE0101960E94FE1C2996E2E00C949E
:103B2000E22FA2E0B0E0E7E9FDE10C94BB2F182FF3
:103B3000762E2A8349830E94222C6B017C0180917E
:103B4000AF0580909A0590909B05A0909C05B09041
:103B50009D052A8149818823C1F0D701C6018819B2
:103B60009909AA09BB094C015D0191EE89169EE2F3
:103B70009906A104B10420F1241708F4422F202F44
:103B8000672D812F0E944E1D13C0D701C6018819D1
:103B90009909AA09BB094C015D0191E3891695E7D2
:103BA0009906A104B10460F0672D812F0E94A61C24
:103BB000C0929A05D0929B05E0929C05F0929D05DB
:103BC0002296EDE00C94D72FA3E1B1E0EAEEFDE1FF
:103BD0000C94B92FE4E7F6E0712C8191882321F051
:103BE000739428E17212F9CF6FEC72E085E496E0ED
:103BF0000E940E2E4AE050E0672D85E496E00E9478
:103C00000B2F80E00E941F0D0E94FA0D8E010E5FA7
:103C10001F4FC12CD12C7601C39466246A945C2C6E
:103C20000E94162C4B015C012091730630E0A0E14C
:103C3000B7E20E942F2F9B01AC01C701B6010E9481
:103C4000512F20916A0630916B0640916C0650917D
:103C50006D06620F731F841F951F2091AB06309174
:103C6000AC064091AD065091AE06261737074807BF
:103C7000590718F4F801608225C08C2D0E94530C5E
:103C800061E070E080E090E00E94452CF801108235
:103C90000E94162C681979098A099B09643F7140B2
:103CA0008105910540F40E94690CF80190819817F4
:103CB00078F78083EDCF50FE03C02C982D9A02C078
:103CC0002C9A2D982FEFC21AD20AE20AF20A0F5F3D
:103CD0001F4F8FEFC816D104E104F10409F09FCF04
:103CE000CE019395FC01D82E7FEF68EC2E2F281B78
:103CF000271510F051E056C0DE01129651E02FEF6B
:103D000041E03D91321710F0322F01C0452F5F5F27
:103D10005F3F11F0232FF5CF4193242F30E0A1E036
:103D2000B0E0AC0FBD1FA20FB31F5C93413079F020
:103D3000DE01A20FB31F5C93423049F0AFEFBFEF3B
:103D4000AC0FBD1FA20FB31F6C934E3F78F6A2E0DD
:103D5000B0E0AC0FBD1FA20FB31F7C934D3F30F6F8
:103D6000A3E0B0E0AC0FBD1FA20FB31F6C93BECF9A
:103D7000452F242F30E0FC01E20FF31F6081AFEFED
:103D8000B0E0AC0FBD1FA20FB31F2C91621748F417
:103D90004150DC01A40FB11D2C9120836C93411183
:103DA000E8CF5F5F571520F3372D369520E02317B6
:103DB00070F4DC01A20FB11D4C91522F530FFC0186
:103DC000E50FF11D50815C9340832E5FF0CF44E7F7
:103DD000E42E46E0F42E8C01802F8D19871598F47F
:103DE000F801C1908F014AE050E06C2D85E496E027
:103DF0000E94D42E6CE285E496E00E94E02DF7014B
:103E0000C1927F01E9CF85E496E00E94E82D81E030
:103E1000CD5EDE4FEFE00C94D52F1F920F920FB6C0
:103E20000F9211240F931F932F933F934F935F9300
:103E30006F937F938F939F93AF93BF93EF93FF9372
:103E40004091AF065091B0066091B1067091B206F4
:103E500089B18A019B01007411272227332783FB34
:103E6000882780F990E0A0E0B0E0081719072A073A
:103E70003B0709F468C080918400909185001092FE
:103E80008500109284002091790521115CC045FDC8
:103E900002C096958795853C29E09207C0F18091F4
:103EA0000A0190E0A0E0B0E0ECE1769567955795C7
:103EB0004795EA95D1F7411551056105710521F442
:103EC00041E050E060E070E0481759076A077B075F
:103ED000D8F480910A018F3FB9F040E080910A0147
:103EE000481780F4842F90E0880F991FFC01E75A4F
:103EF000FA4F20813181FC01E55FFE4F3183208341
:103F00004F5FECCF10927A0510920A011CC08D3BD6
:103F100022E09207A8F020910A01203188F4109144
:103F20000A0121E0210F20930A010E947F0BE12F5B
:103F3000F0E0EE0FFF1FE75AFA4F9183808303C032
:103F40008FEF80930A01FF91EF91BF91AF919F9105
:103F50008F917F916F915F914F913F912F911F9121
:103F60000F910F900FBE0F901F90189583E08093D4
:103F700080008AE1809381008FEF9FEF909389000A
:103F80008093880010926F0088E080936D00E8E6CF
:103F9000F0E08081846080830895CF93DF930E9456
:103FA0009C118091C406843039F585E00E943B2D38
:103FB000C1E0D0E0892B11F4C0E0D0E086E00E949F
:103FC0003B2D892B19F082E090E002C080E090E068
:103FD0008C2B9D2B8230910539F08330910539F07F
:103FE000019739F481E006C01092C40605C082E052
:103FF00001C083E08093C406DF91CF9108956F30B4
:1040000018F086958058089589E0689F802D1124C6
:104010000895A0E0B0E0EFE0F0E20C94C02FC82FCC
:104020000E94222C00913E0410913F0420914004F4
:10403000309141046B017C01C01AD10AE20AF30AF3
:104040009701860149E8C41643E1D406E104F1046E
:1040500010F01092420460933E0470933F048093EA
:10406000400490934104209179058FEF820F8230B4
:10407000D8F5E0914204EE2309F44EC1E13011F489
:1040800082E0B8C1E03108F034C181E08E0F809346
:104090004204F0E0E75AFA4FC083803109F0ACC126
:1040A000EBE5F5E0213029F4A181A695A695808164
:1040B00008C080819181A92FA695A695A695969571
:1040C0008795A03148F4B0E090E0AA0FBB1FA55F30
:1040D000BE4F11969C938E9310927A05329685E08E
:1040E000E936F807F9F688C1233009F005C1E091F7
:1040F0004204E11104C0CF3009F07EC10DC1E831A6
:1041000048F481E08E0F80934204F0E0E85AFA4FC1
:10411000C08372C1E83109F0ECC0C111EAC040E0CF
:1041200050E0ABE0CA0163E0880F991F6A95E1F7A0
:10413000A49F9001A59F300D1124F901E75AFA4F71
:104140006081E1817E2F777075956795FC01EE0F98
:10415000FF1FE55FFE4F71836083F901E65AFA4F56
:10416000B081B695B695B695E181FE2FF295FF0F19
:10417000F07E6F2F6B2BE695E695E6957E2F777098
:1041800075956795FC01EE0FFF1FE35FFE4F71838E
:104190006083F901E55AFA4FB081B295B695B695AC
:1041A000B370C181DC2FDD0FDD0F6D2F6B2BC2953E
:1041B000C695C695C370E281E170EE0FEE0F7E2FBB
:1041C0007C2B75956795FC01EE0FFF1FE15FFE4F9D
:1041D00071836083F901E35AFA4FB081B695E181AA
:1041E000FE2FF795FF27F7956F2F6B2BE6957E2F08
:1041F000777075956795FC01EE0FFF1FEF5EFE4F20
:1042000071836083F901E25AFA4FB081B295BF70B1
:10421000E181FE2FF295F07F6F2F6B2BE295EF700F
:104220007E2F777075956795FC01EE0FFF1FED5E91
:10423000FE4F71836083F901E15AFA4FB081BB1FD1
:10424000BB27BB1FC181DC2FDD0F6D2F6B2BCC1F5C
:10425000CC27CC1FE281E370EE0F7E2F7C2B75956F
:104260006795FC01EE0FFF1FEB5EFE4F71836083CD
:10427000F901EF59FA4FB081B695B695E181FE2F5D
:10428000F295FF0FFF0FF07C6F2F6B2BE695E695F5
:104290007E2F777075956795FC01EE0FFF1FE95E25
:1042A000FE4F71836083F901EE59FA4F2081229508
:1042B000269527703181E32FEE0FEE0FEE0F6E2F54
:1042C000622B732F72957695777075956795FC01C3
:1042D000EE0FFF1FE75EFE4F718360834F5F5F4FFE
:1042E0004230510509F01ECF80916F0583FF109277
:1042F0007A051092420480C0243009F07DC060919C
:10430000420461110BC0C83AB1F4109264061092D5
:10431000630688EA0E94630881E06CC0613019F48A
:10432000C0933D0404C0623031F4C0933C048C2F30
:104330000E9463085AC0E0913C042E2F30E0220F07
:10434000331F462F50E0C9010296841795073CF0B1
:10435000633268F7FA01EA5AFA4FC083E8CF2D5F5B
:104360003F4F8C2F90E06091630670916406421776
:10437000530749F4982F8827862797279093640638
:104380008093630632C06817790769F580913D0410
:10439000813049F5E13118F080E180933C04F090E0
:1043A0003C04CAE5D5E000E010E00F15D0F4FE01B2
:1043B0003197808190E0982F88272881822BB3E065
:1043C00096958795BA95E1F70E947F0BF801EE0F5D
:1043D000FF1FE55FFE4F918380830F5F1F4F229683
:1043E000E4CF10927A05109242048091420488230F
:1043F00019F08F5F80934204CDB7DEB7E8E00C94EC
:10440000DC2FCF93DF93E82FF0E0E655F94FE185FD
:10441000E03150F4F894F0E0EE0FFF1FE55FFE4F3F
:104420008081918178945DC08EE08E0F8B3058F43E
:10443000F0E0E25FF10924E62E9FC0012F9F900D6E
:1044400011240C964EC0E03F09F446C038F4E13127
:1044500081F0E23191F0E03139F409C0ED3FB1F182
:10446000EE3FB9F1E13F79F180E092E03AC082E1BC
:1044700001C083E10E94642D34C085E00E943B2D81
:10448000C1E0D0E0892B11F4C0E0D0E086E00E94CA
:104490003B2D892B19F082E090E002C080E090E093
:1044A0008C2B9D2B8230910541F08330910541F09A
:1044B0000197A9F086EA92E014C08CE090E011C068
:1044C00089E591E00EC086E090E00BC08AEF93E0B2
:1044D00008C08FEF93E005C080E090E002C084EF59
:1044E00093E0DF91CF910895A1E2B0E0EAE7F2E234
:1044F0000C94C22F7B018A018C3009F452C108F060
:1045000040C0863009F4BCC018F5833009F491C06E
:1045100070F4813009F472C0823009F047C26BE157
:1045200070E082E00E94EF110FE816E078C084305E
:1045300009F487C0853009F039C260911B0670E02C
:10454000660F771F85E00E94EF110CE116E086C030
:10455000893009F4A7C070F4873009F49BC0883013
:1045600009F024C261E070E088E00E94EF118091C0
:10457000C40622C28A3009F4CAC08B3009F4F1C0E3
:1045800015C28A3609F474C1D8F4873609F439C1E2
:1045900038F4853609F40DC1863609F41EC106C209
:1045A000883609F436C1893609F000C261E070E04E
:1045B00089E60E94EF110E947C080E94C408F4C1A1
:1045C0008D3609F4D3C138F48B3609F490C18C369A
:1045D00009F499C1EBC18E3609F4DBC1873C09F0BF
:1045E000E5C161E070E087EC0E94EF1181E00E947C
:1045F000D0110E940A1210923D06E2C16AE270E0F8
:1046000081E00E94EF1105E616E0F80181918F012B
:104610000E94D011F6E00F381F07B9F7CFC1F8019B
:1046200081918F010E94D011F6E00A3A1F07B9F775
:10463000C5C161E070E083E00E94EF110E94111299
:10464000BBC161E070E084E00E94EF1181E00E9454
:10465000D0110E940A120E94350EB2C180911B0631
:1046600090E0880F991F98012C5136402817390780
:1046700008F0A4C1F80181918F010E94D011EECF02
:1046800062E070E086E00E94EF1185E893E00E940E
:10469000DE1194C161E070E087E00E94EF1180912B
:1046A0001A068AC186E6898361E0CE0101960E94DE
:1046B00049100E94FA0D83E08093620668EC70E076
:1046C00080E090E00E94452C809162068430D9F40D
:1046D0008FE70E94180C0E942B0C8983863469F4A2
:1046E00060E270E089E00E94EF1110E20E942B0C62
:1046F0000E94D0111150D1F761C161E070E089E0F2
:104700000E94EF1151C161E070E089E052C169E19E
:1047100070E08AE00E94EF111092AA0620914406F0
:104720008091AF069091B006A091B106B091B2060B
:10473000222311F0806801C08F778093AF06909399
:10474000B006A093B106B093B2060AEA16E0F801EB
:1047500081918F010E94D011F6E0033C1F07B9F749
:104760002DC161E270E08BE00E94EF1180917A052B
:104770008F3F39F080917A0591E0980F90937A05F8
:1047800002C080917A050E94D01110E0812F0E9412
:1047900001220E94AA0B0E94DE111F5F1031B1F7A7
:1047A0000DC161E070E08CE00E94EF118091C306C2
:1047B00003C161E070E085E60E94EF118AE2E8162D
:1047C000F10409F0F8C0D801E5E6F6E08D91819397
:1047D00086E0EF38F807D1F7E7C061E070E086E6E1
:1047E0000E94EF11EBE1EE16F10409F0E4C0D801EC
:1047F000EFE8F6E08D91819386E0EA3AF807D1F789
:10480000D3C061E070E087E60E94EF110E94AD1115
:10481000CBC061E070E088E60E94EF1185E78983F4
:104820008BE1EFE8F6E0DE01129601900D928A9599
:10483000E1F76CE1CE0101960E9449100E94FA0D49
:1048400083E08093620660E273E080E090E00E9483
:10485000452C80916206843009F0ADC08FE70E943C
:10486000180C0E942B0C8983853509F0A4C09CC0CC
:1048700061E070E08AE60E94EF1189E6898361E0D9
:10488000CE0101960E9449100E94FA0D83E08093A8
:10489000620660E273E080E090E00E94452C809127
:1048A0006206843009F087C08FE70E94180C0E94CE
:1048B0002B0C89838E010E5F1F4F7E01EDE1EE0E02
:1048C000F11C0E942B0CF80181938F01EE15FF055E
:1048D000C1F78BE1FE013296AFE8B6E001900D9290
:1048E0008A95E1F78981893409F065C05DC061E08E
:1048F00070E08BE60E94EF11F80180818093C4067E
:104900000E94B61151C061E070E08CE60E94EF1188
:10491000F0E2EF16F10461F487E6898380E2F801A2
:10492000DE01129601900D928A95E1F761E203C0D3
:1049300087E4898361E0CE0101960E9449100E94BC
:10494000FA0D83E0809362066CE474E080E090E00E
:104950000E94452C80916206843069F58FE70E94A1
:10496000180C0E942B0C873431F51EC061E070E0FA
:104970008DE60E94EF1189E1E816F104E1F4D80117
:10498000EAEAF6E08D91819386E0E33CF807D1F7FF
:104990000BC061E070E08EE60E94EF11F8018081AB
:1049A0008093C3060E94971181E006C061E070E029
:1049B0008AEC0E94EF1180E00E94D0110E940A123E
:1049C000A196E6E00C94DE2FA0E0B0E0EAEEF4E27F
:1049D0000C94C02FC0EDD3E014E606E0A5E0FA2E5B
:1049E000B4E0EB2E83E0D82E92E0C92E85E496E069
:1049F0000E947E06892B09F49BC085E496E00E9404
:104A0000B106282F80933B0440913A0450E0473090
:104A1000510560F7FA01EA52FF4F0C94ED2F853BE8
:104A200029F781E080933A04E1CF823609F07DC016
:104A3000C0923A04DBCF8093390480933804D0923B
:104A40003A04D4CF9C0133273093370420933604A3
:104A500090913804982790933804E0923A04C6CF96
:104A6000382F22274091360450913704242B352BC0
:104A7000309337042093360490913804982790930C
:104A80003804F0923A042536310508F4AFCF61E0DE
:104A900070E08CEC0E94EF1181E00E94D0110E9426
:104AA0000A1243C02091340430913504F901E053D7
:104AB000FC4F808390913804982790933804C90163
:104AC00001969093350480933404209136043091FC
:104AD00037048217930708F489CF00933A0486CFEE
:104AE0008091380482130BC06091340470913504B6
:104AF00040ED53E0809139040E9474220DC062E0C1
:104B000070E08BEC0E94EF11809139040E94D0116B
:104B100080913C060E94D011FE01812F11928A954E
:104B2000E9F7109235041092340410923A045ECFE3
:104B3000CDB7DEB7E8E00C94DC2F81E080933D0632
:104B400080913D06882349F085E496E00E947E0628
:104B5000892BB1F30E94E424F3CF0895ABE2B0E0D7
:104B6000E4EBF5E20C94BE2F0E94162C6B017C0145
:104B700081E00E941F0D85E496E00E94F6062D98C4
:104B800011E022E6B22E3AE2A32E03E00E94162C98
:104B90006C197D098E099F09693C71058105910594
:104BA000D0F11123C1F10E94162C6B017C012C9ACB
:104BB00080ED97E00E94400AB982E5E6F6E0DE016A
:104BC00012968A2D01900D928A95E1F76BE2CE0143
:104BD00001960E9449102C9880E090E00E94400AC3
:104BE000009362060E94FA0D62E370E080E090E0BC
:104BF0000E94452C80916206843061F40093620625
:104C00008FE70E94180C0E942B0C11E0823419F4DB
:104C100010E001C011E08BE00E943B2D892B81F454
:104C200011E00EC02D9A2C9A85E496E00E94B10600
:104C30008D309105A9F05CF40A9791F02D982C988D
:104C400085E496E00E947E06892B61F79FCF833230
:104C5000910579F08234910589F70E949D25EECF68
:104C60006AEB71E085E496E00E94FC2D0E940D1C29
:104C7000E5CF0E94350EE2CF8F929F92AF92BF9206
:104C8000CF92DF92EF92FF921F93CF93DF938BE04F
:104C90000E943B2D892B09F089C068EC70E080E010
:104CA00090E00E94452C80E090E00E94400A0E9423
:104CB000162C4B015C016B017C0180ECC80E82E17B
:104CC000D81EE11CF11C0E94162C6C157D058E056A
:104CD0009F0530F48BE00E943B2D892BA1F364C02B
:104CE0008BE00E943B2D892B09F05EC080ED97E0A0
:104CF0000E94400A0E94162C6B017C01D0E0C1E0AA
:104D000088E4880E86E2981EA11CB11C11E08BE09D
:104D10000E943B2D892B21F58C149D04AE04BF0409
:104D200030F480ED97E00E94400AD1E0F0CF0E947D
:104D3000162C6C197D098E099F09693C7105810546
:104D4000910528F30E94162C6B017C01C12719F0F4
:104D500080ED97E002C080E090E00E94400AD7CF4B
:104D600080E090E00E94400ADD23B9F08091C30604
:104D700090E0019665E070E00E94612F8093C30689
:104D80000E9497110E94CD1F0E94B61164EF71E03E
:104D900080E090E00E94452C09C080E00E94E40879
:104DA0000E94E41D0E94AD110E94AE25DF91CF91BB
:104DB0001F91FF90EF90DF90CF90BF90AF909F90AA
:104DC0008F900895CF92DF92EF92FF920F931F93EF
:104DD00080E00E94720A0E94490A61E08DE00E9410
:104DE000CF2C61E08CE00E94CF2C60E08BE00E9431
:104DF000CF2C60E085E00E94CF2C61E085E00E942E
:104E0000082D60E086E00E94CF2C61E086E00E94E1
:104E1000082D60E083E00E94CF2C61E083E00E94D7
:104E2000082D61E08EE00E94CF2C60E08EE00E94B1
:104E3000082D0E94370A00E810E024E634E040E440
:104E400050E064EE74E085E496E00E944C0840E097
:104E500052EC61E070E085E496E00E9447070E9412
:104E6000CD1F0E94B6110E94B61F8FEF80937A0566
:104E70000E945E0A78940E94162C6B017C0180913E
:104E80007A058F3F59F40E94162C6C197D098E0902
:104E90009F09603D77408105910588F380ED97E09B
:104EA0000E94400A61E08BE00E94082D2D9A85E463
:104EB00096E00E94F6066DEF72E085E496E00E94AF
:104EC000DD2D85E893E00E949E1064E173E085E4A7
:104ED00096E00E94DD2D4AE050E062E070E085E45B
:104EE00096E00E94AD2E62E370E080E090E00E94C8
:104EF000452C85E496E00E947E0604970CF185E43B
:104F000096E00E94B10682349105D1F485E496E0E2
:104F10000E94B1068E34910599F485E496E00E94D2
:104F2000B1068434910561F485E496E00E94B106EF
:104F3000819731F480E090E00E94400A0E94AE2503
:104F40004091660650916706609168067091690607
:104F5000DB01CA010197A109B1090497A105B105B7
:104F600068F440937905433029F440EA56E861E05B
:104F700070E004C040E052EC61E070E085E496E04F
:104F80000E9447070E943C262D9880E090E00E94F6
:104F9000400A0E94B61F109295058091AF0683FFCC
:104FA00011C080917A06882351F080918106882370
:104FB00031F080918806882311F087E001C085E0F8
:104FC0008093950580E00E941F0D809196050E94B8
:104FD000530C0E94FA0D10924304F12C8091C406E8
:104FE0008F15B0F062E370E080E090E00E94452C05
:104FF00080ED97E00E94400A62E370E080E090E07C
:105000000E94452C80E090E00E94400AF394E6CF95
:1050100080918D0684FF08C0982F987381E09831A5
:1050200009F080E00E94371C8FE00E94720A1F91F5
:105030000F91FF90EF90DF90CF900895A2E2B0E043
:10504000E4E2F8E20C94BC2F8CE00E943A0C81114F
:105050000DC06CE173E085E496E00E940E2E2D9A5F
:1050600080E00E941F0D0E94FA0D2D988091790515
:10507000811106C080916206843009F0B3C00DC072
:1050800085E496E00E947E06892BA1F385E496E0F4
:105090000E94B1060E940920F3CF0E94222C6115C4
:1050A00071058105910549F0609387057093880526
:1050B0008093890590938A050CC081E090E0A0E080
:1050C000B0E08093870590938805A0938905B093FD
:1050D0008A0580917D0590917E05816090937E0583
:1050E00080937D0583E0809362068FE70E94180C11
:1050F00004E215E080918E0690E09801245235403C
:105100002817390734F40E942B0CF80181938F0182
:10511000F1CF2091440580912405982F922796FF86
:1051200054C090E492279093440590918D06987313
:105130009032A1F48F73D82E65E2E62E65E0F62E4C
:105140008701802F8E198D1508F03FC0F8016191FD
:105150008F0185E496E00E940807F3CF982F98739B
:105160009833F1F410E0212F30E08091240587700E
:1051700090E0821793074CF11F5F20918D06812FDD
:1051800090E0FC01EC5DFA4F24FF04C080810E9496
:10519000561CE9CF608185E496E00E940807E3CFC2
:1051A0008F7399F48091250580938605809126055B
:1051B00080938405809127058093830580912A053B
:1051C00090E090937C0580937B058091430481302F
:1051D00019F482E08093430480914304833011F4F6
:1051E000109243040E94222C6B017C0180917F0568
:1051F00090918005A0918105B09182050097A1054D
:10520000B105C9F0A7019601281B390B4A0B5B0BAE
:10521000DA01C901883B9B40A105B10560F00E94FD
:10522000690C8093850510927F051092800510927D
:1052300081051092820580918B0590918C05A0913B
:105240008D05B0918E0546015701881A990AAA0A60
:10525000BB0A85E696E00E948C0A86169706A80689
:10526000B90608F4C2C0C0928B05D0928C05E092BA
:105270008D05F0928E050E94D20780917A058830C4
:10528000A0F08091AF069091B006A091B106B091C8
:10529000B2065CE1B695A795979587955A95D1F793
:1052A000892B8A2B8B2B09F03FC180917A058F5F68
:1052B00080937A058091870590918805A091890552
:1052C000B0918A050097A105B10539F1C81AD90A2C
:1052D000EA0AFB0A85E696E00E948C0A6C157D05B9
:1052E0008E059F0508F029C18091AF0684FD04C09A
:1052F00080ED97E00E94400A809197059091980573
:1053000001969093980580939705109287051092C7
:1053100088051092890510928A0580914405807C49
:105320008093440585E496E00E947E062091430424
:10533000181619060CF406C1243009F455C18091E1
:105340009305823009F01FC18091440581608093EC
:1053500044052D9A8E010F5F1F4FF12CB8018F2D40
:1053600069A37AA30E940122F801819391938F018E
:10537000F39469A17AA1F0E1FF12F1CF80918D063B
:1053800045E455E087700E941A0B2C9A1091720622
:1053900080919505811108C18091AF0682FD10C1F1
:1053A000812F0E941A0D809196050E94530CE09166
:1053B0008D06E770F0E0E658FC4F608184E495E0EC
:1053C0000E9402108091AF0682FD03C1E091960514
:1053D000EF5FE0939605E83109F403C1F0E0EB5983
:1053E000F94F8785882309F4FCC00E947110813031
:1053F00069F580918D06887349F180917D059091C2
:105400007E05880F991F90937E0580937D0583E02C
:10541000809362060E94FA0D0E94222C60937F0501
:10542000709380058093810590938205672B682B8C
:10543000692B61F481E090E0A0E0B0E080937F050B
:1054400090938005A0938105B093820580918D068D
:1054500084FF1FC080917D0590917E058E7F0E9404
:10546000CB0B182F60917B05809186050E94FF1F52
:10547000482F612F8091850549A30E94FF1F00914D
:10548000C406282F49A160918305809184050E945C
:10549000911D2C98809193058130C1F018F08230D5
:1054A000B1F1D9C08BE00E943B2D892B09F0D3C00C
:1054B00081E0809393050E94162C60938F05709372
:1054C00090058093910590939205C5C08BE00E9452
:1054D0003B2D892B31F50E94162CC0908F05D09062
:1054E0009005E0909105F09092056C197D098E0968
:1054F0009F09693E73408105910508F4ACC082E0C4
:105500008093930580ED97E00E94400AA4C08BE051
:105510000E943B2D892B09F49EC080E090E00E9400
:10552000400A1092930597C080917A05883009F45B
:105530002D9A89E080937A0558CF80E090E00E9410
:10554000400AEBCE223009F0F7CE80914405805816
:1055500080934405E0918D06E770F0E0E658FC4F3B
:105560000081093070F4015010E0101709F452C0A6
:1055700085E496E00E947E06181619060CF457C0C2
:1055800049C008E0F1CF2D9880914304811103C0F8
:1055900081E08093430480914304833009F0DACEA4
:1055A00084E080934304D6CE112309F4F5CE909184
:1055B000940521E0290F209394059813EDCE47C060
:1055C00085E00E943B2D892B09F0EACE2D9A17E049
:1055D000E7CE85E00E943B2D892B09F0F7CE2D9870
:1055E000F5CE1092960501CF2091440485E494E015
:1055F000A5E4B5E0FC013E2F381B321718F43191B9
:105600003D93F9CF87E3820F90914405892B8093D6
:10561000440509C087E3810F90914405892B80934D
:1056200044051093440483E080934304AECE1F5F8F
:1056300085E496E00E94B106212F30E0F901EC5B91
:10564000FA4F8083F901EC5BFB4F80838ECF109281
:1056500094051150A1CEA296ECE00C94D82F8F9215
:10566000AF92CF92EF92FF920F931F9370E2872E2B
:10567000E8E9AE2ECC24C394F1ECEF2EF12C00EC33
:1056800010E024EC30E045EC50E060E085E496E08A
:105690000E94FA071F910F91FF90EF90CF90AF906B
:1056A0008F9008958230E8F4E82FF0E0EE0FFF1FAE
:1056B000E652F94F71836083813041F08091690037
:1056C0008C7F842B80936900E89A0895809169000B
:1056D000440F551F440F551F837F842B809369000F
:1056E000E99A08951F920F920FB60F9211242F93EB
:1056F0003F934F935F936F937F938F939F93AF935A
:10570000BF93EF93FF938091DA069091DB06892B8C
:1057100029F0E091DA06F091DB060995FF91EF910F
:10572000BF91AF919F918F917F916F915F914F91B9
:105730003F912F910F900FBE0F901F9018951F92C1
:105740000F920FB60F9211242F933F934F935F93B5
:105750006F937F938F939F93AF93BF93EF93FF9339
:105760008091DC069091DD06892B29F0E091DC0622
:10577000F091DD060995FF91EF91BF91AF919F9157
:105780008F917F916F915F914F913F912F910F90EA
:105790000FBE0F901F9018951F920F920FB60F9289
:1057A00011242F933F938F939F93AF93BF93809137
:1057B000DF069091E006A091E106B091E2063091FB
:1057C000DE0623E0230F2D3720F40196A11DB11D25
:1057D00005C026E8230F0296A11DB11D2093DE0609
:1057E0008093DF069093E006A093E106B093E20673
:1057F0008091E3069091E406A091E506B091E6065B
:105800000196A11DB11D8093E3069093E406A09339
:10581000E506B093E606BF91AF919F918F913F91BE
:105820002F910F900FBE0F901F9018952FB7F894DF
:105830006091DF067091E0068091E1069091E206AA
:105840002FBF08953FB7F8948091E3069091E40646
:10585000A091E506B091E60626B5A89B05C02F3FAE
:1058600019F00196A11DB11D3FBF6627782F892F22
:105870009A2F620F711D811D911D42E0660F771FE7
:10588000881F991F4A95D1F70895CF92DF92EF9222
:10589000FF92CF93DF936B017C010E94222CEB01DE
:1058A000C114D104E104F10479F00E94222C6C1B94
:1058B0007D0B683E7340A0F381E0C81AD108E1086F
:1058C000F108C851DC4FECCFDF91CF91FF90EF9002
:1058D000DF90CF900895789484B5826084BD84B5BC
:1058E000816084BD85B5826085BD85B5816085BDDB
:1058F000EEE6F0E0808181608083E1E8F0E01082F4
:10590000808182608083808181608083E0E8F0E034
:10591000808181608083E1EBF0E08081846080831E
:10592000E0EBF0E0808181608083EAE7F0E0808155
:1059300084608083808182608083808181608083B5
:105940008081806880831092C1000895833081F047
:1059500028F4813099F08230A1F008958630A9F0C2
:105960008730B9F08430D1F4809180008F7D03C0FE
:10597000809180008F7780938000089584B58F7721
:1059800002C084B58F7D84BD08958091B0008F776B
:1059900003C08091B0008F7D8093B0000895CF93B5
:1059A000DF9390E0FC01E85BF34F2491FC01E45AA3
:1059B000F34F8491882349F190E0880F991FFC01EF
:1059C000EC57F34FA591B4918658934FFC01C591C4
:1059D000D4919FB7611108C0F8948C9120958223CF
:1059E0008C93888182230AC0623051F4F8948C91A0
:1059F000322F309583238C938881822B888304C037
:105A0000F8948C91822B8C939FBFDF91CF91089556
:105A1000A1E0B0E0EEE0FDE20C94C42F282F30E0CE
:105A2000F901EC5CF34F8491F901E85BF34F1491B9
:105A3000F901E45AF34F04910023C9F0882321F0BF
:105A400069830E94A62C6981E02FF0E0EE0FFF1F12
:105A5000E658F34FA591B4919FB7F8948C916111DA
:105A600003C01095812301C0812B8C939FBF219689
:105A7000E4E00C94E02FCF93DF93282F30E0F9017E
:105A8000EC5CF34F8491F901E85BF34FD491F90199
:105A9000E45AF34FC491CC2391F081110E94A62CBB
:105AA000EC2FF0E0EE0FFF1FE059F34FA591B491FA
:105AB0002C912D2381E090E021F480E002C080E071
:105AC00090E0DF91CF9108958E3008F08E5087706E
:105AD00020919D0190E4299F90011124822B8093B5
