:100000000C9448060C94432B0C94702B0C947006A3
:100010000C9470060C9470060C9470060C94700688
:100020000C9470060C9470060C94561F0C94700679
:100030000C9470060C9470060C9470060C94700668
:100040000C949D2B0C9470060C94A4090C94E90953
:100050000C9470060C9470060C9470060C94700648
:100060000C9470060C947006CF15341610161316E7
:10007000161619161C161F16221634162B163416B1
:100080002E16CD18CF18CF18CD18CF18CF18CF18DF
:10009000CF18CF18CF18CF18CF18CF18CF18CF1828
:1000A000CF18CF185318CF18CF18CF18CF18CF1894
:1000B000C417CF18CF18CF18CF18CF18CF18CF1814
:1000C000CF18CF18CF18CF18CF18CF18CF18CF18F8
:1000D0005F185F185F185F185F185F185F185F1868
:1000E0005F18CF18CF18CF18CF18CF18CF18C41754
:1000F0005E185E185E185E18CF186C1872187818A3
:100100007E1884188A1890189618A018AA18B4187F
:10011000BE180518C717CF18CF18CF18CF18531807
:10012000CF18CF18CF18CF18CF18CF18CF18CF1897
:100130005D185D185D185D18CF186C187218781866
:100140007E1884188A1890189618A018AA18B4183F
:10015000BE180518C717CF18CF18CF18CF185318C7
:1001600002190219021902190219021902190219B7
:1001700002190219021902190219191A191A191A5F
:10018000191A191A191A471951195B196519C3193E
:10019000CD19DC19ED19821B971BA31BAC1BBB1BD4
:1001A000E11BEA1B481CFD1B481C121CF924FF2400
:1001B00005250C251A253C255A25456E74657220A7
:1001C0006D656E752E2E2E00546F67676C6564200A
:1001D0006D6963726F50504D00546F67676C656452
:1001E00020696E7665727465642050504D2100540C
:1001F0006F67676C6564205458206D7574696E670D
:100200002100546F67676C65642074656C656D656B
:10021000747279210050726F746F636F6C20657215
:10022000726F7220776974682052580054696D6546
:100230006F7574207768656E20636F6E6E6563748A
:10024000696E6720746F2052580050726573732076
:10025000616E79206B657920746F2063616E6365D0
:100260006C00436F6E6E656374696E6720746F20F7
:1002700052582C20706F77657220757020746865F5
:100280002052582028776974682062696E64207053
:100290006C7567206966206E6F74207573696E6770
:1002A00020616C776179732062696E642900546FF4
:1002B00067676C65642027696D6D65646961746545
:1002C000206F75747075742700546F67676C656470
:1002D0002027736C617665206D6F64652700546F0D
:1002E00067676C65642027616C7761797320626948
:1002F0006E642700546F67676C65642050504D2012
:100300006368616E6E656C206C696D69740053651D
:1003100074205253534920696E6A656374696F6E25
:10032000206368616E6E656C2028303D3D646973A2
:1003300061626C6529005365742050504D206D69D1
:100340006E696D756D2073796E63005365742062FC
:100350006561636F6E20696E74657276616C0053BF
:10036000657420626561636F6E2064656C617900FD
:1003700053657420626561636F6E20667265717586
:10038000656E637920696E20487A3A20303D646951
:100390007361626C652C2050783D504D522063682B
:1003A000616E6E656C20782C2046783D4652532055
:1003B0006368616E6E656C207800536574205057D9
:1003C0004D2073746F702064656C61792028302033
:1003D00064697361626C65642C20312D323535207F
:1003E0003D3D20302E3173202D2035306D696E2932
:1003F000005365742050504D2073746F70206465F5
:100400006C61792028302064697361626C65642CAA
:1004100020312D323535203D3D20302E3173202DB9
:100420002035306D696E2900536574206661696CF2
:10043000736166652064656C617920283020646989
:100440007361626C65642C20312D323535203D3D61
:1004500020302E3173202D2035306D696E29002A11
:100460002A2A2A2A2A2A2A2A2A2A2A2A2A2A2A2AEC
:100470002A2A2A2A2A2A2A2A2A2A2A2A00525820BA
:1004800041636B6564202D207265766572742073FC
:1004900075636365737366756C21002A2A2A2A2A9C
:1004A0002A2A2A2A2A2A2A2A2A2A2A2A2A2A2A2AAC
:1004B0002A2A2A2A2A2A2A2A002A2A2A2A2A2A2AC6
:1004C0002A2A2A2A2A2A2A2A2A2A2A2A2A2A2A2A8C
:1004D0002A2A2A2A2A2A0052582041636B6564205E
:1004E0002D20757064617465207375636365737323
:1004F00066756C21002A2A2A2A2A2A2A2A2A2A2AC6
:100500002A2A2A2A2A2A2A2A2A2A2A2A2A2A2A2A4B
:100510002A2A0056616C69642063686F6963657399
:10052000206172653A205B315D2D5B31365D20289C
:100530006368616E6E656C20312D3136290053651C
:1005400074206F757470757420666F7220706F728E
:100550007420005B585D2061626F72742063686173
:100560006E67657320616E642065786974205258E7
:1005700020636F6E666967005B535D20736176650B
:100580002073657474696E677320746F205258000D
:100590005B525D20726576657274205258207365D7
:1005A0007474696E677320746F2064656661756C1E
:1005B000747300557365206E756D62657273205B90
:1005C000312D445D20746F206564697420706F72F2
:1005D0007473205B452D515D20666F7220736574C6
:1005E00074696E677300202D207265636569766596
:1005F0007220636F6E666967757261746F722C200A
:10060000727820737720000A0A6F70656E4C52531F
:100610006E6720005365742074656C656D65747237
:1006200079207061636B65742073697A653A200084
:100630005365742073657269616C206261756472C0
:100640006174653A200056616C69642063686F6963
:100650006365733A2031202D20342B34202F203233
:10066000202D2038202F2033202D20382B34202FF0
:100670002034202D203132202F2035202D203132E2
:100680002B34202F2036202D203136005365742046
:100690004368616E6E656C20636F6E6669673A20B1
:1006A0000053657420446174617261746520283060
:1006B0002D32293A200053657420486F70206368FA
:1006C000616E6E656C7320286D61782032342C2049
:1006D00073657061726174656420627920636F6D07
:1006E0006D6173292076616C69642076616C756533
:1006F0007320312D3235353A2000536574206368FC
:10070000616E6E656C2073706163696E6720287816
:1007100031306B487A293A200053657420524620C4
:10072000706F7765722028302D37293A2000536585
:1007300074205246206D61676963202868657829B6
:1007400020652E672E2030784445414446303044A1
:100750003A2000536574206261736520667265718A
:1007600075656E63792028696E20487A293A2000E1
:100770005B5A5D20656E746572207265636569768B
:10078000657220636F6E66696775726174696F6EFA
:10079000207574696C79005B465D20646973706CC8
:1007A00061792061637475616C206672657175652D
:1007B0006E636965732075736564005B525D2063C9
:1007C000616C63756C6174652072616E646F6D201D
:1007D0006B657920616E6420686F70206C6973743A
:1007E000005B495D207265696E697469616C697A44
:1007F000652073657474696E677320746F20736B02
:10080000657463682064656661756C7473005B5819
:100810005D20726576657274206368616E676573CA
:1008200020616E642065786974206D656E75005B6B
:10083000535D20736176652073657474696E6773A8
:1008400020746F20454550524F4D20616E642065E5
:10085000786974206D656E7500557365206E756DD1
:1008600062657273205B302D395D20746F20656482
:10087000697420706172616D657465727300202DFA
:100880002053797374656D20636F6E666967757246
:100890006174696F6E000A0A6F70656E4C52536E18
:1008A0006720005129204F75747075742062656649
:1008B0006F7265206C696E6B20283D465329203A83
:1008C0002000502920536C617665206D6F6465208F
:1008D000286578706572696D656E74616C293A205F
:1008E000004F292054696D65642042494E442061BF
:1008F00074207374617274757020203A20004E2940
:100900002050504D206F7574707574206C696D693E
:1009100074656420202020203A200044495341423D
:100920004C4544004D292050504D205253534920EE
:10093000746F206368616E6E656C202020203A2001
:10094000004C292050504D206D696E696D756D20E9
:1009500073796E63202875732920203A200044495A
:100960005341424C4544004B29204661696C7361F8
:10097000666520626561636F6E20696E74762E20F5
:1009800028312D32353573293A20004A2920466115
:10099000696C7361666520626561636F6E20646572
:1009A0006C61792028302D323535203D3E203130A4
:1009B00073202D203135306D696E293A2000492988
:1009C000204661696C7361666520626561636F6E64
:1009D000206672712E203A200048292050574D2061
:1009E00073746F702064656C617920202020202052
:1009F000203A200047292050504D2073746F7020FA
:100A000064656C6179202020202020203A20004657
:100A100029204661696C736166652064656C617943
:100A2000202020202020203A200050574D206368AD
:100A3000616E6E656C200066756E6374696F6E3AE8
:100A400020002920706F72742000506F77657254F7
:100A50006F77657200445446205548462033322D46
:100A60006269742031306368004F70656E4C525378
:100A70006E675258206D696E6920342F36636800A6
:100A8000466C7974726F6E2F4F72616E6765525843
:100A900020554846203863680052582074797065A4
:100AA0003A200044697361626C656400487A0020F2
:100AB0003D3D200043616C63756C6174656420701A
:100AC00061636B657420696E74657276616C3A203F
:100AD0000044292054656C656D65747279207061DD
:100AE000636B65742073697A653A20004229204D52
:100AF0006963726F202868616C66292050504D2010
:100B00002020203A00412920496E76657274656480
:100B10002050504D20696E20202020203A0030299E
:100B2000204D7574652062757A7A657220286D6F24
:100B300073746C79293A0039292053657269616CA4
:100B40002062617564726174653A005472616E73FB
:100B5000706172656E7420284D61766C696E6B29C8
:100B600000736D617274506F7274004672536B79CA
:100B7000005472616E73706172656E7400446973C3
:100B800061626C65640038292054656C656D65741C
:100B900072793A2020202020202000372920436825
:100BA000616E6E656C20636F6E6669673A20200027
:100BB00036292044617461726174652028302D32B9
:100BC000293A20202000352920486F702063686171
:100BD0006E6E656C733A202020202000342920435B
:100BE00068616E6E656C2073706163696E673A2030
:100BF0002000332920524620706F776572202830FC
:100C00002D37293A202020003229205246206D61BC
:100C10006769633A202020202020202020003129ED
:100C20002042617365206672657175656E63793AFD
:100C3000202020000000000700020100000304063D
:100C400000000000000000000102040810204080A5
:100C50000102040810200102040810200404040406
:100C60000404040402020202020203030303030356
:100C700000000000230026002900000000002500DD
:100C800028002B0000000000240027002A00002B71
:100C900011241FBECFEFD8E0DEBFCDBF13E0A0E030
:100CA000B1E0ECE7F3E602C005900D92AE3CB1076F
:100CB000D9F716E0AEECB3E001C01D92AB3EB10730
:100CC000E1F71CE0C0E9DCE004C02297FE010E94CD
:100CD000C02FCE38D107C9F70E94F32E0C94BC3137
:100CE0000C940000FC01A289B3899C918689258916
:100CF000822B809589238C93138E0895DC015B965B
:100D00002C915B97222379F05796ED91FC9158979F
:100D10008081918122813381821B930B26813781CF
:100D20008223932308958FEF9FEF0895DC015B9654
:100D30002C915B97222391F05996ED91FC915A9753
:100D40008081918122813381821B930B80959095C4
:100D50002681378182239323019608958FEF9FEF99
:100D60000895DC015B962C915B97222359F05796EE
:100D7000ED91FC91589720813181828193812817D0
:100D8000390719F48FEF9FEF089582819381A08531
:100D9000B185A80FB91F8C91228133812F5F3F4FFE
:100DA00046815781242335233383228390E008959D
:100DB000DC015B962C915B97222359F05796ED91BD
:100DC000FC915897208131818281938128173907BE
:100DD00019F48FEF9FEF0895828193810084F1854C
:100DE000E02DE80FF91F808190E00895DC0157960F
:100DF000ED91FC915897228133813183208359965C
:100E0000ED91FC915A97808191819383828308951B
:100E1000FC01838D8823C1F1A18DB28D2D913C9170
:100E200011972F5F3F4F16968D919C91179728230E
:100E30003923848D811108C012968D919C9113974E
:100E400028173907C9F308C012968D919C91139702
:100E50002817390789F718C08D919C91119718961A
:100E60000D90BC91A02DA80FB91F6C93A18DB28DD0
:100E700011963C932E93A289B3898C919689892BE4
:100E80008C9381E090E0089580E090E00895A4E0E4
:100E9000B0E0EDE4F7E00C94952F8C019A01AB01E2
:100EA000DC015B968C915B97882379F0ED91FC9146
:100EB0000484F585E02DC80129833A834B835C8344
:100EC00009955C814B813A812981D8015996ED9130
:100ED000FC915A9713821282118210825796ED91DB
:100EE000FC915897138212821182108281E05B96E6
:100EF0008C935B97121613061406150694F55096FC
:100F0000ED91FC9151972115B1EE3B07410551053B
:100F1000B1F181E090E0D80154960C9002C0880FA6
:100F2000991F0A94E2F7808360E079E08DE390E016
:100F30000E94682F2150310941095109CA01B901A4
:100F400022E030E040E050E00E94682FD8011C967B
:100F5000ED91FC911D9730831E96ED91FC911F97AA
:100F60002083D8015296ED91FC915397808155963C
:100F70009C91892B80832496E4E00C94B12F1082FD
:100F800020E130E0E3CF80916406813019F482E003
:100F90008093640680916406833019F484E0809322
:100FA00064060895A8950895CF93C1E0A1E0B0E04C
:100FB0002C2F30E0FD010C2E02C0EE0FFF1F0A9413
:100FC000E2F74E175F0710F0CF5FF2CF21503109E3
:100FD00041E050E0FA0102C0EE0FFF1F2A95E2F750
:100FE0009F0121503109FC01378326837187608777
:100FF000CF9108954F925F926F927F928F92AF92AE
:10100000CF92EF92FF920F931F93CF93DF93CDB7C1
:10101000DEB7FC011382128288EE482E83E0582E40
:10102000612C712C448255826682778286E893E037
:10103000918380835587448737872687118B008B60
:10104000F38AE28AC48AA58A868A2AE0629FC0015E
:1010500011249C012E52394F308F278B8853994F82
:10106000928F818F81E090E0062E01C0880F0A9454
:10107000EAF79091C706982B9093C706DF91CF911E
:101080001F910F91FF90EF90CF90AF908F907F9036
:101090006F905F904F900895EF92FF920F931F9380
:1010A000CF93DF93EC0179018F89988D0E94D4074B
:1010B000A801B701898D9A8D0E94D407CDB7DEB7FC
:1010C000E6E00C94AF2F2091650630916606382734
:1010D00048E0C901880F991F37FF06C09C0151E203
:1010E000252750E1352701C09C01415091F73093ED
:1010F000660620936506089588E38093670680E07E
:1011000091EEA0E0B0E08093680690936906A0930A
:101110006A06B0936B068DE18093900687E080931A
:10112000740680EC92E9ADEEB9E180936C06909381
:101130006D06A0936E06B0936F0685E080937506EA
:101140008DEE9EEFADEABEED809370069093710632
:10115000A0937206B0937306E6E7F6E080E090E0B5
:10116000863028F4DC01A853BC4F2C9101C020E04C
:10117000219301968831910599F782E080938E063C
:1011800082E280938F06089580EC91EDA8E9BBE19F
:101190008093AD069093AE06A093AF06B093B006D1
:1011A00080E090E0A0E0B0E58093B1069093B206B5
:1011B000A093B306B093B406E5EBF6E080E081932C
:1011C0008F5F8031E1F70895A0E0B0E0EAEEF8E04B
:1011D0000C94892FD82F0E94F32B6115710581057E
:1011E0009105C9F30E942C3010927006109271067E
:1011F0001092720610927306C4E0812C912C540157
:101200008A94C0907006D0907106E0907206F090BB
:101210007306FE2CED2CDC2CCC240E942730A5017B
:1012200094010E94682F6C0D7D1D8E1D9F1D609383
:101230007006709371068093720690937306C15086
:1012400001F7DD2309F450C006E716E0E801A12C00
:10125000B12C62E3C62ED12CE12CF12C888188239D
:1012600009F442C0B39419F40E947C083DC00E9466
:101270002730A70196010E94682FE1E0E60FA6E75C
:10128000B6E08A2F801B8A1520F48D918E13F9CF3A
:10129000E9CF2091750630E0A0E1B7E20E94002F6F
:1012A0009B01AC01AE2FB0E00E940F2F40906C0666
:1012B00050906D0660906E0670906F06640D751DFF
:1012C000861D971D4090AD065090AE066090AF060B
:1012D0007090B006461657066806790618F2E9932C
:1012E000A39488E1A812BACFCDB7DEB7E0E10C94A1
:1012F000A52F8436910520F4BC0180E090E017C052
:101300009C018E3B910528F42A553109AAE0B0E0F2
:101310000CC0823D910528F4245B3109A4E6B0E0BD
:1013200004C02D5C3109A8E5B2E00E94002FA4E6BC
:10133000B0E09B01AC010E940F2F089590E08C5902
:101340009F4F0E94790908951F920F920FB60F9236
:1013500011242F933F934F938F939F93EF93FF937A
:101360004091C6008091D2069091D30601962091BB
:10137000D8063091D906822393232091D406309148
:10138000D5068217930781F02091D2063091D306BB
:10139000E091DA06F091DB06E20FF31F40839093B1
:1013A000D3068093D20609C08091D6069091D706C5
:1013B00001969093D7068093D606FF91EF919F9167
:1013C0008F914F913F912F910F900FBE0F901F90D3
:1013D00018951F920F920FB60F9211242F933F93DF
:1013E0008F939F93EF93FF932091CA063091CB0682
:1013F0008091C8069091C90628173907E9F08091B5
:10140000CA069091CB06E091D006F091D106E80F84
:10141000F91F80818093C6008091CA069091CB0607
:1014200001962091CE063091CF068223932390938C
:10143000CB068093CA0610C02091C8063091C90619
:101440008091CA069091CB062817390729F480911C
:10145000C1008F7D8093C100FF91EF919F918F918B
:101460003F912F910F900FBE0F901F90189561E044
:1014700083E10E94A02C60E083E10E94D92C82E0ED
:101480008093B00085E08093B10061E083E00E942A
:10149000A02C60E083E00E94D92C0895A4E0B0E085
:1014A000E4E5FAE00C94972F009749F19C0140E0A5
:1014B00050E068E478EE81E090E00E94682F61E0FF
:1014C00083E129833A834B835C830E94D92C298151
:1014D000822F3A81932F4B81A42F5C81B52F8F3FB0
:1014E0009105A105B10529F020F08FEF90E0A0E073
:1014F000B0E08093B3008091B000806107C060E0ED
:1015000083E10E94D92C8091B0008F7E8093B0003F
:101510002496E2E00C94B32F60E08CE00E94A02CB3
:1015200061E08BE00E94A02C61E08DE00E94A02C85
:1015300060E082E00E94A02C61E084E00E94A02C88
:10154000089542E050E063EC77E080E00E94232BB6
:101550000895E3E0F0E089E080935700E491E670BD
:1015600081E0E63009F080E00895CF93DF93C82F43
:101570000E94A90A882381F0DFB781E080934606A4
:10158000F8940E94D20788E180936000C0936000C5
:10159000C1110E94D207DFBFDF91CF9108958F92D2
:1015A0009F92AF92BF92CF92DF92EF92FF921F93E2
:1015B000CF93DF93EC0118A5E12FE770F0E0E65838
:1015C000FC4FA081B0E017FF03C084E190E002C0AF
:1015D0008FE090E0EFA123E1E29FF0011124E25CB3
:1015E000FE4F80809180A280B380A80FB91F20E4B5
:1015F0003FE14DE750E00E941A2FA50194010E949F
:10160000462F812F887349F469017A0160EDC60E77
:1016100067E0D61EE11CF11C21C089A590E017FFF0
:1016200003C0A4E1B0E002C0AFE0B0E069017A011C
:1016300068EBC60E6BE0D61EE11CF11CA80FB91FAB
:1016400020E43FE14DE750E00E941A2FA5019401EC
:101650000E94462FC20ED31EE41EF51EC701B6011E
:1016600069517C4F8F4F9F4F28EE33E040E050E0B0
:101670000E94462FA8EEB3E00E940F2FDF91CF917A
:101680001F91FF90EF90DF90CF90BF90AF909F9011
:101690008F9008958F3F910551F048F0811522E019
:1016A000920738F08115934030F482E0089580E08D
:1016B000089581E0089583E00895A0E0B0E0E3E6B6
:1016C000FBE00C94922FEB018A01B82FB695A0E0B5
:1016D00028813981F80120832A813B8121832C8153
:1016E0003D8122832E813F812383688179814A81D4
:1016F0005B812C813D81EE81FF819F2F9295990F17
:10170000990F907C272F2370922B252F2370220F67
:10171000220F922B232F23702295207F922BF801EA
:1017200094830B5F1F4F2896AF5FBA1788F680FF30
:1017300024C0888199810E944A0BD82E8A819B817E
:101740000E944A0BE82E8C819D810E944A0BF82E44
:101750008E819F810E944A0BF0E4DF9EA00111243C
:1017600090E1E99E90011124242B282BE4E0FE9EB9
:10177000B0011124262BF8012083CDB7DEB7E7E0B6
:101780000C94AE2F803223E0920708F1883E23E0CC
:10179000920740F48F519340E4E096958795EA953F
:1017A000E1F70895803D27E0920718F48C5D93409F
:1017B0000895883928E0920768F4885C974074E0BF
:1017C000969587957A95E1F78D509C4F089580E026
:1017D00090E008958FEF93E008958C30910540F4E8
:1017E000A4E0880F991FAA95E1F7885D9C4F0895A2
:1017F000843F23E0920718F484529C4F089581158A
:1018000024E0920740F48657934FF4E0880F991F25
:10181000FA95E1F7089580E998E008959C013695DE
:10182000279525753575821B930B9C0123733373A4
:10183000969587959695879583739373820F931FDB
:101840009C0154E0369527955A95E1F7280F391FEA
:101850002F703F7041E051E0249FC001259F900D03
:10186000349F900D1124892F08952D98882319F005
:1018700000002B9A02C000002B9800002D9A000057
:1018800008952D9A000083B12D98000082958170F3
:101890000895CF93DF93D82F5C9A2D985C98C8E079
:1018A0008D2F80780E94350CDD0FC150C9F72D981F
:1018B000DF91CF9108958F770E94490C0895CF93BF
:1018C000DF93D82FC8E08D2F80780E94350CDD0F74
:1018D000C150C9F72D98DF91CF910895CF93DF9331
:1018E0002D98C8E080E0D82FDD0F0E94410C8D0FAD
:1018F000C150C9F7DF91CF9108950E945B0C0E94FF
:101900006E0C5C9A0895A1E0B0E0E9E8FCE00C946C
:10191000972F806869830E94490C6981862F0E94F5
:101920005F0C5C9A2196E2E00C94B32FCF93C091A8
:101930007006C827E82FF0E0E959F94F678589E775
:101940000E94830C6C2F8DE30E94830C6C2F82E429
:101950000E94830CCF91089586E20E947D0C089529
:10196000CF93DF93EC016C818CE10E94830C6D813D
:101970008DE10E94830C6E818EE10E94830C6F8149
:1019800080E20E94830C688581E20E94830C698555
:1019900082E20E94830C6A8583E20E94830C6B853D
:1019A00084E20E94830C6C8585E20E94830C6D8525
:1019B0008AE20E94830C6E858EE60E94830C6F85FE
:1019C0008FE60E94830C688980E70E94830C6989F6
:1019D00081E70E94830C6A8982E70E94830CDF9171
:1019E000CF910895CF92DF92EF92FF92CF93DF9342
:1019F0006B017C01C11488E3D8068CE9E8068CE110
:101A0000F80628F5C701B60120E836E948E950E0B4
:101A10000E94462FE901689760E879E687E69FEF24
:101A20000E94222F6C0D7D1D8E1D9F1DF2E0660F02
:101A3000771F881F991FFA95D1F721E732E040E020
:101A400050E00E94462FF22EE32E80E421C0C70111
:101A5000B60120E03DE241E351E00E94462FE9015A
:101A6000689760E073ED8EEC9EEF0E94222F6C0D64
:101A70007D1D8E1D9F1D660F771F881F991F21E7F3
:101A800032E040E050E00E94462FF22EE32E80E646
:101A90006C2F6F71680F85E70E94830C6E2D86E7AF
:101AA0000E94830C6F2D87E70E94830CDF91CF91FA
:101AB000FF90EF90DF90CF900895682F8DE60E9401
:101AC000830C08958F929F92AF92BF92CF92DF9234
:101AD000EF92FF92CF93DF93D82F83E00E947D0C8B
:101AE0008093450684E00E947D0C8093440660E06C
:101AF00086E00E94830C61E087E00E94830C6FE720
:101B000089E00E94830C65E08AE00E94830C62E118
:101B10008BE00E94830C65E18CE00E94830C6DEFEA
:101B20008DE00E94830C60E08EE00E94830CDD2338
:101B300019F08BE291E008C020918E0633E1239FDB
:101B4000C0011124825C9E4F0E94B00C6CE880E3BF
:101B50000E94830C6FE082E30E94830C62E483E3C3
:101B60000E94830C80918F0687FF02C064E101C050
:101B70006AE084E30E94830C6AE285E30E94830C9E
:101B80006DE286E30E94830C64ED87E30E94830C80
:101B900060E088E30E94830C60E089E30E94830C8C
:101BA000D11109C0C0907006D0907106E090720605
:101BB000F090730607C0C5E9CC2EC1ECDC2EED2CED
:101BC000CEEDFC2ECAE38F2C9924AA24BB24682DC9
:101BD0008C2F0E94830C682D85E08C0F0E94830C53
:101BE000FE2CED2CDC2CCC24CF5FCE3361F76FEFD5
:101BF00083E40E94830C6FEF84E40E94830C6FEFF8
:101C000085E40E94830C6FEF86E40E94830CDD2341
:101C100011F066E002C0609174068DE60E94830CAC
:101C200060E089E70E94830C609175068AE70E9454
:101C3000830C60E083E70E94830C60E084E70E94ED
:101C4000830CD11109C060916C0670916D06809172
:101C50006E0690916F0604C060EC72E98DEE99E11A
:101C60000E94F20CDF91CF91FF90EF90DF90CF9028
:101C7000BF90AF909F908F90089561E087E00E94A1
:101C8000830C64E28EE70E94830C63E088E00E948C
:101C9000830C60E088E00E94830C65E087E00E948E
:101CA000830C62E085E00E94830C83E00E947D0C3F
:101CB0008093450684E00E947D0C8093440608953D
:101CC00083E00E947D0C8093450684E00E947D0C99
:101CD0008093440661E087E00E94830C6AE070E034
:101CE00080E090E00E94162C0E943D0E00000895B6
:101CF000A2E2B0E0EEE7FEE00C94872F9E012F5F9A
:101D00003F4F80E1D9011D928A95E9F76EE971E0B4
:101D100087E496E029A33AA30E94DF2D0E94600E7B
:101D20001D8A1E8A1F8A188E312C212C00E0812CDE
:101D3000912C540180E4482E81EE582E8DE9682EB6
:101D400088E1782E90E5C92E93ECD92EE12CF12C68
:101D500084EF91E0A0E0B0E08D8F9E8FAF8FB8A3AD
:101D600080EC91EDA8E9BBE1898F9A8FAB8FBC8F96
:101D700080E491EEADE9B8E1898B9A8BAB8BBC8B9B
:101D800087E496E00E947E06892B09F4E1C087E48F
:101D900096E00E94B1069C0133272C32310509F4EC
:101DA00042C0ACF42332310509F0ABC019821A826B
:101DB0001B821C821D821E821F82188619861A862B
:101DC0001B861C861D861E861F86188A60C02434CA
:101DD000310529F02335310509F4B2C092C064E41D
:101DE00087E496E00E94B12D2AE030E040E451EE15
:101DF0006DE978E187E496E00E943F2E6CE287E48B
:101E000096E00E94B12D2AE030E040EC51ED68E907
:101E10007BE187E496E00E943F2E6CE287E496E047
:101E20000E94F12DADCF0F5F043009F0A9CF2981B9
:101E30003A814B815C81A8EEB3E00E940F2F698B41
:101E40007A8B8B8B9C8B2D813E814F8158850E9494
:101E50000F2F698F7A8F8B8F9C8F29853A854B85C1
:101E60005C852D8F3E8F4F8F58A32D853E854F85E6
:101E700058890E940F2F6B017C0160323EE473078A
:101E80008105910530F462E38CE10E94830C00E04F
:101E900077CF603345E774078105910510F462E25E
:101EA000F3CF60345CE975078105910510F466E2B3
:101EB000EBCF80E5C81683ECD806E104F10410F4FA
:101EC00062E1E2CF90E6C9169AEED906E104F10488
:101ED00010F465E1D9CFA0E7CA16A1E1DA06A1E0C6
:101EE000EA06F10410F461E0CFCFB0EACB16B6E811
:101EF000DB06B1E0EB06F10410F463E0C5CF65E06A
:101F0000C3CF10ED180F1A3008F03ACFE1E0F0E03F
:101F1000EC0FFD1F24E0029FE00DF11D1124208134
:101F2000318142815381AAE0B0E00E940F2F610FFE
:101F3000711D811D911D608371838283938320CFE6
:101F400049885A886B887C88812C912C540118CF41
:101F500081149104A104B10489F4C301B2010E9467
:101F6000F20C61E070E080E090E00E94162C1D8A87
:101F70001E8A1F8A188E312C22242A948D8D9E8DC4
:101F8000AF8DB8A188169906AA06BB06D0F40E94A8
:101F9000AC0C2D893E894F89588D280F311D411D6C
:101FA000511D2D8B3E8B4F8B588F381608F4382ED1
:101FB000821508F4282E3FEF831A930AA30AB30A66
:101FC00056C0C301B20128EE33E040E050E00E9469
:101FD000462FBA01A9012AE030E087E496E00E948A
:101FE000962E6CE287E496E00E94B12D4AE050E024
:101FF000632D87E496E00E94A52E6CE287E496E0CC
:102000000E94B12D6D897E898F89988DA5019401DB
:102010000E94462FBA01A9012AE030E087E496E049
:102020000E94962E6CE287E496E00E94B12D4AE071
:1020300050E0622D87E496E00E94A52E6CE287E4D2
:1020400096E00E94F12D4C0C5D1C6E1C7F1C898D4E
:102050009A8DAB8DBC8D84159505A605B70520F42A
:1020600049885A886B887C88812C912C5401298955
:102070003A894B895C89283E33404105510509F076
:102080007FCEA296E2E10C94A32FCF92DF92FF9233
:102090000F931F93CF93DF931F92CDB7DEB7082F17
:1020A000162F8EE399830E94830CF02EC02E998107
:1020B000D92E8C2D8F19811738F4F60161916F019B
:1020C0008FE70E94830CF5CF64E085E00E94830CCB
:1020D00083E00E947D0C8093450684E00E947D0C85
:1020E000809344060E94F32B609340067093410650
:1020F000809342069093430669E087E00E94830C38
:1021000081E0809364060F90DF91CF911F910F9132
:10211000FF90DF90CF9008950F931F930E9445107A
:1021200080916406813099F40E94F32B009140065F
:10213000109141062091420630914306601B710BBD
:10214000820B930B603A76488140910548F3809169
:102150006406813031F46BEA71E087E496E00E9416
:10216000DF2D1F910F9108950F931F9380916406A7
:10217000823021F41092640681E020C080916406D0
:102180008130D9F40E94F32B009140061091410652
:102190002091420630914306601B710B820B930B1A
:1021A000613A76488140910540F061E087E00E9405
:1021B000830C1092640682E001C080E01F910F91B1
:1021C0000895CF93DF93EC014AE050E06D2F70E06B
:1021D00087E496E00E94AD2E6EE287E496E00E94CE
:1021E000B12DBE0134E0769567953A95E1F76F70B1
:1021F00077274AE050E087E496E00E94AD2E6EE239
:1022000087E496E00E94B12DBE016F7077274AE007
:1022100050E087E496E00E94AD2EDF91CF910895C3
:10222000D82FC0E0CD1790F45E9A409A64E670E033
:1022300080E090E00E94162C5E98409864E670E082
:1022400080E090E00E94162CCF5FECCF6CE271E052
:1022500080E090E00E94162CE4CF0F931F93CF9361
:10226000DF93EC01062F15E0115051F0CE010E94D2
:10227000A331081741F0602FCE010E94AB31F4CF9B
:1022800082E00E941011DF91CF911F910F9108956C
:10229000A0E0B0E0EEE4F1E10C94892F482E562E38
:1022A000C0E0D0E0612C712CE12CF12C00E010E0BA
:1022B00041100CC06090C60687E4689E300111246E
:1022C000E9E1EE2EF12C0CEA16E01EC091E0491275
:1022D0000FC06090C606E7E46E9E30011124FBE15A
:1022E0006F0E711C7AE2E72EF12C07E616E00CC0A7
:1022F00082E0481209C05CE1652E77247394EE24D5
:10230000E394F12C05EC16E043018C0E9D1E109217
:102310006606109265063401A62CA818B12CC301DC
:1023200001966C01AE14BF04A8F4A00EB11E5110AA
:1023300006C0C3010E94A331F501808305C0F501E9
:102340006081C3010E942D11F50180810E94630804
:102350003601E2CFC301511018C0C3010E94A3315E
:10236000B82EC6010E94A3312B2D30E0322F222738
:10237000282B80916506909166068217930779F461
:10238000C0E0D0E05524539493CF360160916606A7
:102390000E942D1160916506C6010E942D11C05E3C
:1023A000DE4FC13E92E0D90708F482CF852DCDB72C
:1023B000DEB7E0E10C94A52F61E082E00E944811B5
:1023C000089560E082E00E9448118091C506853042
:1023D00020F01092C5060E94DC118091C506809302
:1023E000C606089561E080E00E94481161E081E046
:1023F0000E944811089560E080E00E9448118823FF
:1024000051F060E081E00E944811882321F0809122
:102410006706883349F00E94C4080E947C0881E066
:102420000E94E4080E94F2110895CF93C82F682FEC
:1024300087E496E00E94080790913E069C279093BF
:102440003E06CF910895A1E0B0E0E9E2F2E10C94FC
:10245000972F99830E9415129981892F0E94151236
:102460002196E2E00C94B32F1F93CF93DF93182FA4
:10247000EB0110923E0665EB87E496E00E940807A8
:1024800062E687E496E00E940807812F0E941512F9
:10249000CE010E942312DF91CF911F910895609188
:1024A0003E0687E496E00E9408070895ACE1B0E09C
:1024B000ECE5F2E10C94912F0E94F32B6B017C016F
:1024C00081E00E94620D14E703E0198361E0CE0110
:1024D00001960E948C10009364060E943D0E6AEFE4
:1024E00070E080E090E00E94162C809164068330BA
:1024F00089F487E496E00E947E06892B59F40E94B5
:10250000F32B6C197D098E099F096038734C894C37
:102510009140D8F280916406833009F44FC08FE770
:102520000E945B0C0E946E0C8983843511F083E05D
:102530005CC00E946E0C10921A0680931B060E94CB
:102540006E0C20911A0630911B06280F311D309316
:102550001B0620931A060E946E0C80931C060E9494
:102560006E0C80931D06813110F7F12C0F2D10E0B9
:1025700080911D0690E0880F991F0817190740F4F5
:102580000E946E0CF801E25EF94F8083F394EECF67
:1025900080E7898361E0CE0101960E948C1083E080
:1025A000809364060E943D0E62E370E080E090E05C
:1025B0000E94162C80916406833011F482E015C0CD
:1025C0008FE70E945B0C0E946E0C8983803509F0B6
:1025D000AECF01E916E00E946E0CF80181938F01E5
:1025E000F6E00C3A1F07B9F781E06C96E8E00C942E
:1025F000AD2F882319F067EB71E002C06BEB71E03F
:1026000087E496E00E94DF2D0895FF920F931F93B9
:10261000CF93DF936EE17CE087E496E00E948B2D00
:1026200040916C0650916D0660916E0670916F0638
:102630002AE030E087E496E00E94B42E68E07CE077
:1026400087E496E00E948B2D4091700650917106B0
:10265000609172067091730620E130E087E496E0A5
:102660000E94B42E62EF7BE087E496E00E948B2DFF
:102670004AE050E06091740687E496E00E94DC2E08
:102680006CED7BE087E496E00E948B2D4AE050E001
:102690006091750687E496E00E94DC2E66EC7BE094
:1026A00087E496E00E948B2DC6E7D6E0F12C8E01E0
:1026B00088818823A9F0FF2031F06EEB71E087E478
:1026C00096E00E94AE2D21964AE050E0F80160812C
:1026D00087E496E00E94A52EF394F8E1FF12E7CF7D
:1026E00087E496E00E94B92D60EB7BE087E496E0FA
:1026F0000E948B2D4AE050E060918E0687E496E0C0
:102700000E94DC2E6BE97BE087E496E00E948B2D33
:10271000E0918F06E770F0E0EE0FFF1FE856FC4FE8
:102720006081718187E496E00E94DF2D66E87BE09E
:1027300087E496E00E948B2D80918F06887380310C
:1027400091F038F4882361F08830B1F461E77BE0E0
:102750000FC0883159F0803279F46BE47BE008C017
:102760006DE77BE005C06BE67BE002C061E67BE0E5
:1027700087E496E00E94CD2D67E37BE087E496E056
:102780000E948B2D409168065091690660916A06FF
:1027900070916B062AE030E087E496E00E94B42E48
:1027A0006EE17BE087E496E00E948B2D8091B1067C
:1027B00080710E94F91265E07BE087E496E00E9458
:1027C0008B2D8091B10680740E94F9126CEE7AE034
:1027D00087E496E00E948B2D8091B10680720E9462
:1027E000F91280918F068873803271F461ED7AE07E
:1027F00087E496E00E948B2D4AE050E060919006BD
:1028000087E496E00E94DC2E64EB7AE087E496E0B1
:102810000E948B2D87E696E00E94CF0AAB01BC0197
:102820002AE030E087E496E00E94962E6FEA7AE094
:1028300087E496E00E948B2D87E696E00E94CF0AFF
:102840009B01AC0160E472E48FE090E00E94462FAF
:10285000BA01A9012AE030E087E496E00E94962EB2
:102860006CEA7AE087E496E00E94CD2DCDB7DEB722
:10287000E5E00C94B02F8F929F92AF92BF92CF92CF
:10288000DF92EF92FF92811107C063EA7AE087E45A
:1028900096E00E94CD2D2FC090E00E94790924E699
:1028A00030E040E050E00E94462FCA01B9012AE022
:1028B00030E040E050E00E94462F49015A016B0190
:1028C0007C012AE030E0B501A40187E496E00E9493
:1028D000962E6EE287E496E00E94B12D2AE030E069
:1028E000B701A60187E496E00E94962E63E787E48D
:1028F00096E00E94F12DFF90EF90DF90CF90BF9077
:10290000AF909F908F9008951F93CF93DF9369E9C5
:102910007AE087E496E00E948B2D809191068130C9
:1029200041F460E87AE087E496E00E94CD2D10E063
:1029300050C0823019F469E67AE0F5CF843019F49A
:1029400065E57AE0F0CF853091F76AE47AE0EBCF85
:10295000C12FD0E0C930D1050CF441C068E3610F4C
:1029600087E496E00E94B12D62E47AE087E496E085
:102970000E948B2DBE016F5F7F4F4AE050E087E4DD
:1029800096E00E94752E67E37AE087E496E00E9465
:102990008B2DCF56D94FE981E03218F56AE27AE003
:1029A00087E496E00E948B2D8981803130F06DE6BE
:1029B00073E087E496E00E94AE2D69816F7070E04D
:1029C0006F5F7F4F4AE050E087E496E00E947E2EE2
:1029D0001F5F80911C06181708F4BACF0FC061E37F
:1029E000BECFEF70F0E0EE0FFF1FE855FC4F6081A7
:1029F000718187E496E00E94DF2DEACF6FE07AE0F4
:102A000087E496E00E948B2D8091A9060E943B14DA
:102A100064EF79E087E496E00E948B2D8091AA060E
:102A20000E943B1469ED79E087E496E00E948B2DCB
:102A30008091AB060E943B146EEB79E087E496E050
:102A40000E948B2D4091A1065091A2066091A30691
:102A50007091A406411551056105710539F12AE00F
:102A600030E087E496E00E94B42E6BE879E087E4DA
:102A700096E00E948B2D8091A5060E949E09AB01D5
:102A8000BC012AE030E087E496E00E94B42E67E6BD
:102A900079E087E496E00E948B2D4AE050E0609157
:102AA000A60687E496E00E94DC2E06C06EE579E07B
:102AB00087E496E00E94CD2D61E479E087E496E01A
:102AC0000E948B2D6091A7067091A8064AE050E005
:102AD00087E496E00E94C62E64E279E087E496E0FF
:102AE0000E948B2D6091A006603450F470E06F5FFF
:102AF0007F4F4AE050E087E496E00E947E2E06C0B9
:102B00006BE179E087E496E00E94CD2D6EEF78E0EE
:102B100087E496E00E948B2D80919F0680FF03C082
:102B200060EC71E002C064EC71E087E496E00E9422
:102B3000DF2D61EE78E087E496E00E948B2D809196
:102B40009F0682700E94F91262EC78E087E496E0BA
:102B50000E948B2D80919F0684700E94F91263EA77
:102B600078E087E496E00E948B2D80919F06887024
:102B70000E94F912DF91CF911F910895809119065B
:102B8000992787FD9095A92FB92FFC013196ED303B
:102B9000F10508F069C0EC5CFF4F0C94BE2F66E9AC
:102BA00078E087E496E00E94CD2D85E893E00E94CE
:102BB000E1106EE778E087E496E00E94CD2D69E5AC
:102BC00078E087E496E00E94CD2D6FE278E087E41C
:102BD00096E00E94CD2D6EE078E087E496E00E94BA
:102BE000CD2D61EE77E087E496E00E94CD2D6BEB72
:102BF00077E087E496E00E94CD2D67E977E087E4EF
:102C000096E00E94CD2D60E777E087E496E00E9491
:102C1000CD2D87E496E00E94B92D0E94051324C0B3
:102C200063E577E01DC06EE277E01AC069E177E006
:102C300017C06AEF76E014C066EB76E011C061EA77
:102C400076E00EC06CE876E087E496E00E94CD2D39
:102C500066E476E005C060E376E002C064E176E019
:102C600087E496E00E94CD2D6AE070E080E090E07D
:102C70000E94162C87E496E00E947E06892B29F09C
:102C800087E496E00E94B106F5CF08950F931F9355
:102C9000CF93DF93209119062F3FA9F567E076E0E7
:102CA00087E496E00E948B2D85E893E00E94E11076
:102CB00066EE75E087E496E00E948B2D80911A06FF
:102CC00090911B060E94E11063EB75E087E496E0AB
:102CD0000E94CD2D60E975E087E496E00E94CD2D3D
:102CE00068E775E087E496E00E94CD2D63E575E026
:102CF00087E496E00E94CD2D87E496E00E94B92DEE
:102D00000E94841468C012160CF065C0332727FD9A
:102D1000309580911C0690E0821793070CF45BC0FD
:102D20006EE375E087E496E00E948B2D60911906B2
:102D3000772767FD70954AE050E087E496E00E94AF
:102D40007E2E63E175E087E496E00E948B2D10E013
:102D500008E280911D061817D0F5C12FD0E0CC0FE6
:102D6000DD1FC25ED94F288130E080911906992776
:102D700087FD909501972817390739F568EC71E0C0
:102D800087E496E00E94AE2D4AE050E0602F87E491
:102D900096E00E94A52E6CEC71E087E496E00E941C
:102DA000AE2DE981EF70F0E0EE0FFF1FE855FC4F0C
:102DB0006081718187E496E00E94AE2D60ED71E044
:102DC00087E496E00E94AE2D0F5F1F5FC2CF87E4BD
:102DD00096E00E94B92DDF91CF911F910F91089538
:102DE000FF920F931F93CF93DF93C6E7D6E0F12CAA
:102DF0008E0188818823D1F162ED71E087E496E04D
:102E00000E94AE2D4AE050E06F2D87E496E00E94CC
:102E1000A52E6FED71E087E496E00E94AE2D21961D
:102E2000F801208130E0A0E1B7E20E94002F9B0171
:102E3000AC01A0917506B0E00E940F2FAB01BC0160
:102E400080916C0690916D06A0916E06B0916F0610
:102E5000480F591F6A1F7B1F2AE030E087E496E085
:102E60000E94B42EF394F8E1FF12C2CFCDB7DEB7C3
:102E7000E5E00C94B02F1092B30585E6E4EBF5E0A5
:102E8000DF011D928A95E9F70895CF93C82F8F37F8
:102E900019F0883009F040C0E091B305EE23B1F19C
:102EA000E150E093B305F0E0EC54FA4F10826DE08E
:102EB00087E496E00E940807C0E08091B305C81738
:102EC00058F4EC2FF0E0EC54FA4F608187E496E080
:102ED0000E940807CF5FF1CF60E287E496E00E948E
:102EE00008076DE087E496E00E940807C0E0809143
:102EF000B305C81768F5EC2FF0E0EC54FA4F608189
:102F000087E496E00E940807CF5FF1CF67E087E48F
:102F100096E00E94B12D1CC08B3119F40E943B1722
:102F200019C08D30B9F08A30A9F08091B30584368C
:102F300068F76C2F87E496E00E940807E091B305DC
:102F400081E08E0F8093B305F0E0EC54FA4FC0831C
:102F500080E001C081E0CF910895ACE1B0E0E3EB07
:102F6000F7E10C94912F909119069F3F09F023C12E
:102F7000482F50E0FA013A97EF36F10508F00FC1FB
:102F8000EF5BFF4F0C94BE2F63EE71E0A0C06FEEBD
:102F900071E087E496E00E94DF2D85E789838BE16D
:102FA000E1E9F6E0DE01129601900D928A95E1F7D3
:102FB0006CE1CE0101960E948C100E943D0E83E0D0
:102FC0008093640668EC70E080E090E00E94162C2C
:102FD00080916406843009F0E2C08FE70E945B0CA8
:102FE0000E946E0C8983853509F0D9C065EF74E0C5
:102FF00087E496E00E94CD2D67ED74E087E496E0CB
:103000000E94CD2D69EB74E096C067E072E087E422
:1030100096E00E94DF2D89E6898361E0CE0101966A
:103020000E948C100E943D0E83E08093640668EC41
:1030300070E080E090E00E94162C8091640684305D
:1030400009F0ADC08FE70E945B0C0E946E0C898373
:103050008E010E5F1F4F7E014DE1E40EF11C0E94B8
:103060006E0CF80181938F01EE15FF05C1F78BE11E
:10307000FE013296A1E9B6E001900D928A95E1F742
:103080008981893409F08BC06BE974E087E496E0AC
:103090000E94CD2D6DE774E087E496E00E94CD2D6F
:1030A0006FE574E048C061E272E087E496E00E9458
:1030B000DF2D8EEF8093190672C0805287508053A7
:1030C00090911C06981708F066C060E372E087E4F0
:1030D00096E00E94DF2D63C084E18093190668E2C8
:1030E00074E029C085E18093190661EF73E023C085
:1030F00086E1809319066AEB73E01DC087E1809337
:10310000190660E773E017C088E1809319066FE540
:1031100073E011C089E1809319066BE473E00BC082
:103120008AE18093190666E373E005C08BE1809322
:1031300019066EE073E087E496E00E94CD2D2FC063
:1031400064EF72E087E496E00E94CD2D80919F06A7
:1031500091E01DC06EED72E087E496E00E94CD2DF7
:1031600080919F0692E013C069EC72E087E496E0DC
:103170000E94CD2D80919F0694E009C06EEA72E016
:1031800087E496E00E94CD2D80919F0698E08927E4
:1031900080939F068FEF809319060E94461687E45E
:1031A00096E00E947E06892B09F45BC187E496E0D5
:1031B0000E94B106F4CF0E944517882309F451C13B
:1031C0008091B305811104C08FEF8093190641C12E
:1031D00040E050E060E070E084EB95E00E94353024
:1031E00040911906042F112707FD1095212F312F2B
:1031F000F8013197EB31F10508F01BC1E055FF4FA5
:103200000C94BE2F552747FD509520911C0630E0A9
:10321000241735070CF40DC18B019C0101501109D5
:1032200021093109003211052105310558F0C090FE
:103230001D06EFE1F6E0F12CD12C28E2E22E415000
:1032400051090FC0FA01EF56F94F61506083D9C0A0
:10325000DF0111972C9130E02417350729F0F39402
:103260003296FC10F5CFCBC00E2D10E020E030E000
:10327000061717072807390741F42081DA01AF56EE
:10328000B94F11962C93DD24D394E394E8CF6F3F8C
:1032900071058105910511F008F0CBC06093A90676
:1032A000B0C06F3F71058105910511F008F0C1C0F4
:1032B0006093AA06A6C06F3F71058105910511F0C4
:1032C00008F0B7C06093AB069CC02091B4052062A3
:1032D0002037E9F440E050E060E070E085EB95E0F5
:1032E0000E9435309B01AC01DC01CB010197A109A3
:1032F000B1090897A105B10508F0AEC0A4EDB0E38F
:103300000E940F2F6A5E7C4A8A46954E24C026365C
:10331000E9F440E050E060E070E085EB95E00E9469
:1033200035309B01AC01DC01CB010197A109B1094A
:103330000797A105B10508F08FC0A8EAB1E60E9481
:103340000F2F645E7C438E46944E05C06115710557
:103350008105910579F08B019C010054114E2D4996
:1033600038410138F0EF1F07FAEF2F07F2E03F076F
:1033700008F05FC06093A1067093A2068093A30635
:103380009093A4063EC06F3F71058105910511F031
:1033900008F04FC06093A50634C08B019C0101501A
:1033A0001109210931090F3F11052105310508F0E7
:1033B00040C06093A60625C08B019C01045C1940A7
:1033C000210931090D344DE114072105310528F497
:1033D0007093A8066093A70614C061157105810556
:1033E000910521F48FEF8093A0060BC06134710525
:1033F00081059105F0F461506093A00602C0DD20C4
:10340000C1F08091B20581111AC08091700690912F
:103410007106A0917206B09173060196A11DB11DAF
:103420008093700690937106A0937206B093730612
:1034300006C062E472E087E496E00E94DF2D0E94FD
:103440003B178FEF809319066AE087E496E00E94AD
:10345000F12D0E94461605C061E070E080E090E02A
:103460007ACF6C96E8E00C94AD2F62E672E087E4C8
:1034700096E00E94CD2D6AE472E087E496E00E9417
:10348000CD2D87E496E00E947E06892B31F087E4FB
:1034900096E00E94B1060E94AD170E94561282303B
:1034A00029F0833051F465E172E002C06CE272E011
:1034B00087E496E00E94CD2D08958FEF8093190642
:1034C0001092B2050E944616809119068E3F69F04F
:1034D00087E496E00E947E06892BB1F387E496E0AC
:1034E0000E94B1060E94AD17EFCF08950F931F936E
:1034F000109119061F3F09F0DFC0893409F45DC03F
:1035000018F5883309F46FC058F4803309F47EC08D
:1035100008F067C08B3109F446C08132E1F1C6C0C2
:10352000813409F48EC030F4893309F46DC08034DD
:1035300091F1BCC0843409F4AEC0863409F44EC0A5
:10354000823409F0B3C08EC0843609F4A4C090F46C
:10355000883549F128F48235D9F18335F9F0A6C0D0
:10356000813609F46EC0823609F47CC08A3509F0D0
:103570009DC097C0823761F128F4863679F189368B
:10358000E1F094C0883779F08A3709F48AC083372C
:1035900009F08CC003C063EE71E015C00E94F21107
:1035A00060E672E004C00E94FB116AE772E087E403
:1035B00096E00E94DF2D8EEF77C00E947C080E946B
:1035C000C40869E972E087E496E00E94DF2D6EC0CE
:1035D00081E00E94E40862EB72E0F5CF0E94F016F1
:1035E00065C0805361C062E072E087E496E00E94AB
:1035F000CD2D80918F0690E0089668E270E00E94E1
:10360000322F80938F061AC089E04EC06FEE71E0B2
:1036100087E496E00E94CD2D8091B1069091B2068C
:10362000A091B306B091B40620E182278093B10641
:103630009093B206A093B306B093B4061093190604
:1036400035C069ED71E087E496E00E94CD2D809150
:10365000B1069091B206A091B306B091B40640E4D1
:10366000842710C068EC71E087E496E00E94CD2DBD
:103670008091B1069091B206A091B306B091B406C4
:1036800020E282278093B1069093B206A093B306FE
:10369000B093B40608C08BE0809319060E94BE1553
:1036A00005C00E94351A8FEF809319068091190684
:1036B0008E3F09F0EAC0F3C00E944517882309F441
:1036C000EEC08091B305811104C08FEF809319067D
:1036D000DCC040E050E060E070E084EB95E00E94E8
:1036E000353000911906112707FD1095212F312F34
:1036F000F8013197EB30F10508F0CAC0E553FF4FF0
:103700000C94BE2F8B019C010154114E2D49384160
:103710000F37104F2A4F324008F0BAC060936C0642
:1037200070936D0680936E0690936F068DC06093C4
:10373000700670937106809372069093730681E011
:103740008093B20581C0683071058105910508F04C
:103750009FC06093740678C08B019C0101501109D1
:10376000210931090A3011052105310508F090C001
:103770006093750669C06EEB71E084EB95E00E9482
:103780006F3110E0009799F00E944931009779F06D
:10379000183130F4E12FF0E0E959F94F87871F5FC6
:1037A0006EEB71E080E090E00E946F31EBCF18315A
:1037B00008F04AC0E12FF0E0E959F94F17861F5F82
:1037C000F6CF653071058105910508F061C0609301
:1037D0008E063AC08B019C01015011092109310963
:1037E000063011052105310508F052C020918F06E1
:1037F000287F262B20938F0627C08B019C01015028
:103800001109210931090115124C2140310508F037
:103810003FC0609368067093690680936A06909330
:103820006B0612C020918F062873203269F48B0139
:103830009C010950110921093109073111052105A0
:10384000310510F4609390068091B205811113C088
:103850008091700690917106A0917206B0917306E6
:103860000196A11DB11D8093700690937106A093DF
:103870007206B09373060E943B178FEF8093190670
:103880006AE087E496E00E94F12D0E94BE1507C011
:1038900062E472E087E496E00E94DF2DECCF1F9196
:1038A0000F9108958FEF809319061092B2050E9430
:1038B000BE15809119068E3F69F087E496E00E945C
:1038C0007E06892BB1F387E496E00E94B1060E9440
:1038D000761AEFCF6AE070E080E090E00E94162C4C
:1038E00087E496E00E947E06892B29F087E496E023
:1038F0000E94B106F5CF0895CF93C82F0E94F32BF5
:1039000060939C0570939D0580939E0590939F0501
:10391000C093B105CC2329F040E051EE60E070E0A7
:1039200004C040E855E260E070E087E496E00E9461
:103930004707CF9108959091A005492F4F7050E00F
:10394000BA016F5F7F4F292F30E0E4E0359527956E
:10395000EA95E1F76217730759F0FA01EF55FA4F4C
:10396000808381E0890F8F70907F892B8093A005E1
:103970000895EF92FF920F931F93CF93DF938C01E3
:103980006EE787E496E00E940807E801F12CF0E278
:10399000EF2E8E0188818D57823040F46DE787E4E9
:1039A00096E00E94080788818E2588832196F80179
:1039B000608187E496E00E940807F394F9E0FF1223
:1039C000E8CF6EE787E496E00E940807CDB7DEB740
:1039D000E6E00C94AF2FA9E0B0E0E1EFFCE10C943D
:1039E000972F90919B0591110EC09EEF99838A832A
:1039F0006B8350E0559547954C832D831986188627
:103A00001F821E822EC04091A005842F90E0B4E05A
:103A100095958795BA95E1F7242F2F7030E082179E
:103A2000930719F18DEF89831B82FE01349650E0D4
:103A3000842F90E0A4E095958795AA95E1F7242F2F
:103A40002F7030E08217930749F0DC01AF55BA4F71
:103A50008C918193405F5F5F563051F74093A00592
:103A60005A83CE0101960E94B91C80919B0590E07B
:103A7000019666E070E00E94322F80939B052996A4
:103A8000E2E00C94B32FA0E0B0E0E9E4FDE10C9497
:103A9000902F6C016EE787E496E00E94080786018C
:103AA000E12CF12CC0E0D0E030E2B32EF8016081CF
:103AB00083E8860F823040F46DE787E496E00E9449
:103AC0000807F80160816B2587E496E00E940807EB
:103AD000E114F10459F0F80180819E01280F311D95
:103AE000C901C92FDD27C80FD91FDD273FEFE31A12
:103AF000F30A89E0E816F10459F028E0E216F1042F
:103B000021F48C2F8095F60180870F5F1F4FCECF59
:103B1000CDB7DEB7E9E00C94AC2F6EE787E496E012
:103B20000E9408070895A9E0B0E0E9E9FDE10C94DE
:103B3000972FE82F362F80919B0590E0019664E245
:103B400070E00E94322F80939B0558E9598350E121
:103B50005A83813089F048F08230B9F08330D9F44B
:103B60008B8381EF8C833D8319C085E08B8381EF4C
:103B70008C832F5F2D8312C08B8381EF8C8384E62F
:103B8000489FA00111245D8309C084E08B8381EFED
:103B90008C83ED8303C00E948D1D04C0CE0101966D
:103BA0000E94431D2996E2E00C94B32FA2E0B0E0FE
:103BB000ECEDFDE10C948C2F182F762E2A8349838F
:103BC0000E94F32B6B017C018091B10580909C05D4
:103BD00090909D05A0909E05B0909F052A814981F7
:103BE0008823C1F0D701C60188199909AA09BB0920
:103BF0004C015D0191EE89169EE29906A104B10483
:103C000020F1241708F4422F202F672D812F0E94C6
:103C1000931D13C0D701C60188199909AA09BB09C8
:103C20004C015D0191E3891695E79906A104B10461
:103C300060F0672D812F0E94EB1CC0929C05D092F2
:103C40009D05E0929E05F0929F052296EDE00C9472
:103C5000A82FA3E1B1E0EFE2FEE10C948A2FE6E7A2
:103C6000F6E0712C8191882321F0739428E172127F
:103C7000F9CF6FEC72E087E496E00E94DF2D4AE016
:103C800050E0672D87E496E00E94DC2E80E00E94E1
:103C9000620D0E943D0E8E010E5F1F4FC12CD12C74
:103CA0007601C39466246A945C2C0E94E72B4B0136
:103CB0005C012091750630E0A0E1B7E20E94002F80
:103CC0009B01AC01C701B6010E94222F20916C0616
:103CD00030916D0640916E0650916F06620F731F12
:103CE000841F951F2091AD063091AE064091AF061E
:103CF0005091B006261737074807590718F4F801FE
:103D0000608229C08C2D0E94960C61E070E080E0FA
:103D100090E00E94162CF80110820E94E72B68198F
:103D200079098A099B09643F71408105910540F436
:103D30000E94AC0CF8019081981778F78083EDCF42
:103D400050FE05C05D9841985E9A409A04C05D9A05
:103D5000419A5E9840982FEFC21AD20AE20AF20AFC
:103D60000F5F1F4F8FEFC816D104E104F10409F073
:103D70009BCFCE019395FC01D82E7FEF68EC2E2FC0
:103D8000281B271510F051E056C0DE01129651E0B5
:103D90002FEF41E03D91321710F0322F01C0452F37
:103DA0005F5F5F3F11F0232FF5CF4193242F30E069
:103DB000A1E0B0E0AC0FBD1FA20FB31F5C93413078
:103DC00079F0DE01A20FB31F5C93423049F0AFEFF0
:103DD000BFEFAC0FBD1FA20FB31F6C934E3F78F621
:103DE000A2E0B0E0AC0FBD1FA20FB31F7C934D3F0C
:103DF00030F6A3E0B0E0AC0FBD1FA20FB31F6C9371
:103E0000BECF452F242F30E0FC01E20FF31F60816D
:103E1000AFEFB0E0AC0FBD1FA20FB31F2C91621724
:103E200048F44150DC01A40FB11D2C9120836C9308
:103E30004111E8CF5F5F571520F3372D369520E00D
:103E4000231770F4DC01A20FB11D4C91522F530FB8
:103E5000FC01E50FF11D50815C9340832E5FF0CF94
:103E600046E7E42E46E0F42E8C01802F8D1987154D
:103E700098F4F801C1908F014AE050E06C2D87E47E
:103E800096E00E94A52E6CE287E496E00E94B12D98
:103E9000F701C1927F01E9CF87E496E00E94B92D36
:103EA00081E0CD5EDE4FEFE00C94A62F1F920F92C3
:103EB0000FB60F9211241F932F933F934F935F934D
:103EC0006F937F938F939F93AF93BF93CF93DF9322
:103ED000EF93FF93C0918600D091870080915905A0
:103EE00090915A0520917B05211155C09E01281BF8
:103EF000390B8091B1069091B206A091B306B091B2
:103F0000B40685FD02C036952795253C49E0340767
:103F1000B8F140910A0150E060E070E0ECE1B69544
:103F2000A79597958795EA95D1F70097A105B105D3
:103F300021F481E090E0A0E0B0E084179507A607A7
:103F4000B707D8F480910A018F3FB9F040E0809123
:103F50000A01481780F4842F90E0880F991FFC0114
:103F6000E55AFA4F20813181FC01E55FFE4F318334
:103F700020834F5FECCF10927C0510920A010BC09A
:103F80002D3B82E0380720F080910A018031D8F083
:103F90008FEF80930A01D0935A05C0935905FF9182
:103FA000EF91DF91CF91BF91AF919F918F917F91D1
:103FB0006F915F914F913F912F911F910F900FBE85
:103FC0000F901F90189510910A0181E0810F809346
:103FD0000A01C9010E94C20BE12FF0E0EE0FFF1FA2
:103FE000E55AFA4F91838083D6CF83E08093800097
:103FF0008AE9809381008091B10686FD05C0809199
:1040000081008064809381008FEF9FEF90938900FF
:104010008093880080916F00806280936F00089584
:104020000E94E1118091C606843011F41092C606F8
:1040300008956F3018F086958058089589E0689F3C
:10404000802D11240895A0E0B0E0E9E2F0E20C94A4
:10405000912FC82F0E94F32B00913E0410913F0432
:1040600020914004309141046B017C01C01AD10AB7
:10407000E20AF30A9701860149E8C41643E1D4062F
:10408000E104F10410F01092420460933E04709336
:104090003F04809340049093410420917B058FEF6F
:1040A000820F8230D8F5E0914204EE2309F44EC12C
:1040B000E13011F482E0B8C1E03108F034C181E0B0
:1040C0008E0F80934204F0E0E55AFA4FC0838031AE
:1040D00009F0ACC1EDE5F5E0213029F4A181A69508
:1040E000A695808108C080819181A92FA695A6956B
:1040F000A69596958795A03148F4B0E090E0AA0F78
:10410000BB1FA55FBE4F11969C938E9310927C05AA
:10411000329685E0EB36F807F9F688C1233009F0CE
:1041200005C1E0914204E11104C0CF3009F07EC125
:104130000DC1E83148F481E08E0F80934204F0E035
:10414000E65AFA4FC08372C1E83109F0ECC0C111E0
:10415000EAC040E050E0ABE0CA0163E0880F991F7D
:104160006A95E1F7A49F9001A59F300D1124F901F4
:10417000E55AFA4F6081E1817E2F777075956795DA
:10418000FC01EE0FFF1FE55FFE4F71836083F901B5
:10419000E45AFA4FB081B695B695B695E181FE2FF7
:1041A000F295FF0FF07E6F2F6B2BE695E695E69567
:1041B0007E2F777075956795FC01EE0FFF1FE35F0B
:1041C000FE4F71836083F901E35AFA4FB081B295D3
:1041D000B695B695B370C181DC2FDD0FDD0F6D2F65
:1041E0006B2BC295C695C695C370E281E170EE0F48
:1041F000EE0F7E2F7C2B75956795FC01EE0FFF1F50
:10420000E15FFE4F71836083F901E15AFA4FB0819B
:10421000B695E181FE2FF795FF27F7956F2F6B2B52
:10422000E6957E2F777075956795FC01EE0FFF1F61
:10423000EF5EFE4F71836083F901E05AFA4FB0815F
:10424000B295BF70E181FE2FF295F07F6F2F6B2B3F
:10425000E295EF707E2F777075956795FC01EE0FF4
:10426000FF1FED5EFE4F71836083F901EF59FA4F36
:10427000B081BB1FBB27BB1FC181DC2FDD0F6D2FA2
:104280006B2BCC1FCC27CC1FE281E370EE0F7E2F6F
:104290007C2B75956795FC01EE0FFF1FEB5EFE4FC3
:1042A00071836083F901ED59FA4FB081B695B695E7
:1042B000E181FE2FF295FF0FFF0FF07C6F2F6B2B2C
:1042C000E695E6957E2F777075956795FC01EE0F64
:1042D000FF1FE95EFE4F71836083F901EC59FA4FCD
:1042E00020812295269527703181E32FEE0FEE0F66
:1042F000EE0F6E2F622B732F7295769577707595F2
:104300006795FC01EE0FFF1FE75EFE4F7183608330
:104310004F5F5F4F4230510509F01ECF809171050C
:1043200083FF10927C051092420480C0243009F073
:104330007DC06091420461110BC0C83AB1F4109283
:1043400066061092650688EA0E94630881E06CC0E8
:10435000613019F4C0933D0404C0623031F4C0935D
:104360003C048C2F0E9463085AC0E0913C042E2F1D
:1043700030E0220F331F462F50E0C9010296841708
:1043800095073CF0633268F7FA01E85AFA4FC083A8
:10439000E8CF2D5F3F4F8C2F90E0609165067091C4
:1043A00066064217530749F4982F882786279727D0
:1043B000909366068093650632C06817790769F5A1
:1043C00080913D04813049F5E13118F080E180931E
:1043D0003C04F0903C04CCE5D5E000E010E00F1583
:1043E000D0F4FE013197808190E0982F88272881B2
:1043F000822BB3E096958795BA95E1F70E94C20BA0
:10440000F801EE0FFF1FE55FFE4F918380830F5F82
:104410001F4F2296E4CF10927C05109242048091A7
:104420004204882319F08F5F80934204CDB7DEB732
:10443000E8E00C94AD2FE82FF0E0E455F94FE1856A
:10444000E03150F4F894F0E0EE0FFF1FE55FFE4F0F
:1044500080819181789408958EE08E0F8B3058F48E
:10446000F0E0E25FF10924E62E9FC0012F9F900D3E
:1044700011240C960895E03FF1F028F4E03161F04A
:10448000E13161F006C0ED3F81F0EE3F89F0E13FA0
:1044900049F080E092E0089582E101C083E10E944A
:1044A000352D089586E090E008958AEF93E0089511
:1044B0008FEF93E0089580E090E00895A1E2B0E0EE
:1044C000E4E6F2E20C94932F7B018A018C3009F42C
:1044D00052C108F040C0863009F4BCC018F58330E2
:1044E00009F491C070F4813009F472C0823009F08F
:1044F00047C26BE170E082E00E94341201E916E0ED
:1045000078C0843009F487C0853009F039C26091E1
:104510001D0670E0660F771F85E00E9434120EE1E1
:1045200016E086C0893009F4A7C070F4873009F41A
:104530009BC0883009F024C261E070E088E00E94EE
:1045400034128091C60622C28A3009F4CAC08B3068
:1045500009F4F1C015C28A3609F474C1D8F487365B
:1045600009F439C138F4853609F40DC1863609F4E9
:104570001EC106C2883609F436C1893609F000C268
:1045800061E070E089E60E9434120E947C080E947B
:10459000C408F4C18D3609F4D3C138F48B3609F45C
:1045A00090C18C3609F499C1EBC18E3609F4DBC198
:1045B000873C09F0E5C161E070E087EC0E943412AD
:1045C00081E00E9415120E944F1210923F06E2C134
:1045D0006AE270E081E00E94341207E616E0F8011A
:1045E00081918F010E941512F6E001391F07B9F77A
:1045F000CFC1F80181918F010E941512F6E00C3AAB
:104600001F07B9F7C5C161E070E083E00E94341272
:104610000E945612BBC161E070E084E00E94341237
:1046200081E00E9415120E944F120E94780EB2C1C2
:1046300080911D0690E0880F991F98012E513640F9
:104640002817390708F0A4C1F80181918F010E9451
:104650001512EECF62E070E086E00E94341285E829
:1046600093E00E94231294C161E070E087E00E9411
:10467000341280911C068AC186E6898361E0CE01EE
:1046800001960E948C100E943D0E83E08093640688
:1046900068EC70E080E090E00E94162C8091640647
:1046A0008430D9F48FE70E945B0C0E946E0C8983E2
:1046B000863469F460E270E089E00E94341210E20E
:1046C0000E946E0C0E9415121150D1F761C161E079
:1046D00070E089E00E94341251C161E070E089E02D
:1046E00052C169E170E08AE00E9434121092AC0677
:1046F000209146068091B1069091B206A091B30632
:10470000B091B406222311F0806801C08F778093A6
:10471000B1069093B206A093B306B093B4060CEA28
:1047200016E0F80181918F010E941512F6E0053C18
:104730001F07B9F72DC161E270E08BE00E943412CF
:1047400080917C058F3F39F080917C0591E0980F36
:1047500090937C0502C080917C050E94151210E0A8
:10476000812F0E941B220E94ED0B0E9423121F5FCB
:104770001031B1F70DC161E070E08CE00E9434129D
:104780008091C50603C161E070E085E60E943412A5
:104790008AE2E816F10409F0F8C0D801E7E6F6E08D
:1047A0008D91819386E0E139F807D1F7E7C061E0A8
:1047B00070E086E60E943412EBE1EE16F10409F097
:1047C000E4C0D801E1E9F6E08D91819386E0EC3A0E
:1047D000F807D1F7D3C061E070E087E60E94341299
:1047E0000E94F211CBC061E070E088E60E943412B2
:1047F00085E789838BE1E1E9F6E0DE01129601901D
:104800000D928A95E1F76CE1CE0101960E948C1021
:104810000E943D0E83E08093640660E273E080E0D6
:1048200090E00E94162C80916406843009F0ADC09F
:104830008FE70E945B0C0E946E0C8983853509F01E
:10484000A4C09CC061E070E08AE60E94341289E650
:10485000898361E0CE0101960E948C100E943D0E7A
:1048600083E08093640660E273E080E090E00E9461
:10487000162C80916406843009F087C08FE70E946F
:104880005B0C0E946E0C89838E010E5F1F4F7E01B0
:10489000EDE1EE0EF11C0E946E0CF80181938F0188
:1048A000EE15FF05C1F78BE1FE013296A1E9B6E0F6
:1048B00001900D928A95E1F78981893409F065C0EC
:1048C0005DC061E070E08BE60E943412F8018081E7
:1048D0008093C6060E94FB1151C061E070E08CE637
:1048E0000E943412F0E2EF16F10461F487E6898346
:1048F00080E2F801DE01129601900D928A95E1F7AF
:1049000061E203C087E4898361E0CE0101960E94E1
:104910008C100E943D0E83E0809364066CE474E08A
:1049200080E090E00E94162C80916406843069F546
:104930008FE70E945B0C0E946E0C873431F51EC01D
:1049400061E070E08DE60E94341289E1E816F1041E
:10495000E1F4D801ECEAF6E08D91819386E0E53C44
:10496000F807D1F70BC061E070E08EE60E943412C8
:10497000F80180818093C5060E94DC1181E006C0A9
:1049800061E070E08AEC0E94341280E00E9415120F
:104990000E944F12A196E6E00C94AF2FA0E0B0E089
:1049A000E4EDF4E20C94912FC0EDD3E014E606E0C0
:1049B000A5E0FA2EB4E0EB2E83E0D82E92E0C92ECB
:1049C00087E496E00E947E06892B09F49BC087E469
:1049D00096E00E94B106282F80933B0440913A0450
:1049E00050E04730510560F7FA01EA52FF4F0C944E
:1049F000BE2F853B29F781E080933A04E1CF8236D0
:104A000009F07DC0C0923A04DBCF809339048093D3
:104A10003804D0923A04D4CF9C0133273093370422
:104A20002093360490913804982790933804E092AC
:104A30003A04C6CF382F22274091360450913704CC
:104A4000242B352B3093370420933604909138046F
:104A5000982790933804F0923A042536310508F4EB
:104A6000AFCF61E070E08CEC0E94341281E00E94D4
:104A700015120E944F1243C0209134043091350426
:104A8000F901E053FC4F808390913804982790936C
:104A90003804C90101969093350480933404209121
:104AA0003604309137048217930708F489CF0093B6
:104AB0003A0486CF8091380482130BC0609134048D
:104AC0007091350440ED53E0809139040E945E22DC
:104AD0000DC062E070E08BEC0E94341280913904CA
:104AE0000E94151280913E060E941512FE01812F30
:104AF00011928A95E9F710923504109234041092BD
:104B00003A045ECFCDB7DEB7E8E00C94AD2F81E07C
:104B100080933F0680913F06882349F087E496E022
:104B20000E947E06892BB1F30E94CE24F3CF089514
:104B3000ABE2B0E0EEE9F5E20C948F2F0E94E72B98
:104B40006B017C0181E00E94620D87E496E00E9487
:104B5000F6065E98409811E022E6B22E3AE2A32EC5
:104B600003E00E94E72B6C197D098E099F09693CBF
:104B7000710581059105E0F11123D1F10E94E72B28
:104B80006B017C015D9A419A80ED97E00E944E0A8C
:104B9000B982E7E6F6E0DE0112968A2D01900D92C9
:104BA0008A95E1F76BE2CE0101960E948C105D9828
:104BB000419880E090E00E944E0A009364060E94B3
:104BC0003D0E62E370E080E090E00E94162C809140
:104BD0006406843061F4009364068FE70E945B0CE6
:104BE0000E946E0C11E0823419F410E001C011E053
:104BF00082E10E940C2D892BA1F411E012C05E9A73
:104C0000409A5D9A419A87E496E00E94B1068D3001
:104C10009105B9F06CF40A97A1F05E9840985D9800
:104C2000419887E496E00E947E06892B41F799CF50
:104C30008332910579F08234910579F70E948725B6
:104C4000ECCF6AEB71E087E496E00E94CD2D0E94E4
:104C5000521CE3CF0E94780EE0CF8F929F92AF92CA
:104C6000BF92CF92DF92EF92FF921F93CF93DF9389
:104C700082E10E940C2D892B09F089C068EC70E05C
:104C800080E090E00E94162C80E090E00E944E0AA6
:104C90000E94E72B4B015C016B017C0180ECC80E8C
:104CA00082E1D81EE11CF11C0E94E72B6C157D05EA
:104CB0008E059F0530F482E10E940C2D892BA1F313
:104CC00064C082E10E940C2D892B09F05EC080ED4A
:104CD00097E00E944E0A0E94E72B6B017C01D0E016
:104CE000C1E088E4880E86E2981EA11CB11C11E088
:104CF00082E10E940C2D892B21F58C149D04AE04B9
:104D0000BF0430F480ED97E00E944E0AD1E0F0CF6E
:104D10000E94E72B6C197D098E099F09693C71057A
:104D20008105910528F30E94E72B6B017C01C127C7
:104D300019F080ED97E002C080E090E00E944E0AFA
:104D4000D7CF80E090E00E944E0ADD23B9F0809139
:104D5000C50690E0019665E070E00E94322F8093D6
:104D6000C5060E94DC110E9410200E94FB1164EF16
:104D700071E080E090E00E94162C09C080E00E9463
:104D8000E4080E94291E0E94F2110E949825DF91DA
:104D9000CF911F91FF90EF90DF90CF90BF90AF9099
:104DA0009F908F900895CF92DF92EF92FF920F9392
:104DB0001F9380E00E94B50A0E948C0A61E086E0A1
:104DC0000E94A02C61E085E00E94A02C61E08EE0B2
:104DD0000E94A02C61E08FE00E94A02C60E082E1A4
:104DE0000E94A02C60E088E00E94A02C61E088E096
:104DF0000E94D92C0E94370A00E810E024E634E033
:104E000040E450E064EE74E087E496E00E944C08D1
:104E100040E052EC61E070E087E496E00E944707D2
:104E20000E9410200E94FB110E94F51F8FEF8093BB
:104E30007C050E94A10A78940E94E72B6B017C01FB
:104E400080917C058F3F59F40E94E72B6C197D09F6
:104E50008E099F09603D77408105910588F380EDBB
:104E600097E00E944E0A61E082E10E94D92C5E9A8E
:104E7000409A87E496E00E94F6066DEF72E087E4C0
:104E800096E00E94AE2D85E893E00E94E11064E177
:104E900073E087E496E00E94AE2D4AE050E065E0C2
:104EA00070E087E496E00E947E2E62E370E080E08E
:104EB00090E00E94162C87E496E00E947E060497FC
:104EC0000CF187E496E00E94B10682349105D1F49A
:104ED00087E496E00E94B1068E34910599F487E448
:104EE00096E00E94B1068434910561F487E496E06F
:104EF0000E94B106819731F480E090E00E944E0A52
:104F00000E949825409168065091690660916A0652
:104F100070916B06DB01CA010197A109B1090497E1
:104F2000A105B10568F440937B05433029F440EABC
:104F300056E861E070E004C040E052EC61E070E0EF
:104F400087E496E00E9447070E942D265E984098CD
:104F500080E090E00E944E0A0E94F51F1092970593
:104F60008091B10683FF11C080917C06882351F0A7
:104F700080918306882331F080918A06882311F07E
:104F800087E001C085E08093970580E00E94620D74
:104F9000809198050E94960C0E943D0E1092430449
:104FA000F12C8091C6068F15B0F062E370E080E0CE
:104FB00090E00E94162C80ED97E00E944E0A62E37A
:104FC00070E080E090E00E94162C80E090E00E946B
:104FD0004E0AF394E6CF80918F0684FF08C0982F85
:104FE000987381E0983109F080E00E947C1C8FE08A
:104FF0000E94B50A1F910F91FF90EF90DF90CF9024
:105000000895A2E2B0E0E7E0F8E20C948D2F8CE086
:105010000E947D0C81110FC06CE173E087E496E083
:105020000E94DF2D5E9A409A80E00E94620D0E94ED
:105030003D0E5E98409880917B05811106C080915D
:105040006406843009F0B3C00DC087E496E00E9486
:105050007E06892BA1F387E496E00E94B1060E94A8
:105060002320F3CF0E94F32B611571058105910573
:1050700049F06093890570938A0580938B0590931E
:105080008C050CC081E090E0A0E0B0E08093890541
:1050900090938A05A0938B05B0938C0580917F0532
:1050A0009091800581609093800580937F0583E0D7
:1050B000809364068FE70E945B0C04E215E0809108
:1050C000900690E09801245235402817390734F4AF
:1050D0000E946E0CF80181938F01F1CF209144055D
:1050E00080912405982F922796FF54C090E4922730
:1050F0009093440590918F0698739032A1F48F732A
:10510000D82E65E2E62E65E0F62E8701802F8E19F7
:105110008D1508F03FC0F80161918F0187E496E09A
:105120000E940807F3CF982F98739833F1F410E09A
:10513000212F30E080912405877090E0821793073B
:105140004CF11F5F20918F06812F90E0FC01EC5DF8
:10515000FA4F24FF04C080810E949B1CE9CF60812C
:1051600087E496E00E940807E3CF8F7399F480915B
:10517000250580938805809126058093860580917A
:1051800027058093850580912A0590E090937E0500
:1051900080937D0580914304813019F482E08093EF
:1051A000430480914304833011F4109243040E941D
:1051B000F32B6B017C018091810590918205A09178
:1051C0008305B09184050097A105B105C9F0A70139
:1051D0009601281B390B4A0B5B0BDA01C901883B8E
:1051E0009B40A105B10560F00E94AC0C809387053F
:1051F0001092810510928205109283051092840509
:1052000080918D0590918E05A0918F05B0919005AC
:1052100046015701881A990AAA0ABB0A87E696E04E
:105220000E94CF0A86169706A806B90608F4BBC0E6
:10523000C0928D05D0928E05E0928F05F092900578
:105240000E94D20780917C058830A0F08091B10641
:105250009091B206A091B306B091B4065CE1B69508
:10526000A795979587955A95D1F7892B8A2B8B2BE4
:1052700009F042C180917C058F5F80937C0580910D
:10528000890590918A05A0918B05B0918C050097B6
:10529000A105B10539F1C81AD90AEA0AFB0A87E65D
:1052A00096E00E94CF0A6C157D058E059F0508F0DB
:1052B0001AC18091B10684FD04C080ED97E00E9480
:1052C0004E0A8091990590919A05019690939A05BE
:1052D000809399051092890510928A0510928B058A
:1052E00010928C0580914405807C8093440587E46E
:1052F00096E00E947E0620914304181619060CF4CD
:10530000F7C0243009F441C180919505823009F03D
:105310001BC1809144058160809344055E9A409A48
:105320008E010F5F1F4FF12CB8018F2D69A37AA357
:105330000E941B22F801819391938F01F39469A13C
:105340007AA1F0E1FF12F1CF80918F0645E455E09C
:1053500087700E945D0B5D9A419A809174069091CE
:105360009705911103C10E945D0D809198050E94DF
:10537000960CE0918F06E770F0E0E658FC4F6081F4
:1053800084E495E00E944510E0919805EF5FE0937A
:105390009805E83109F4F6C0F0E0E959F94F87853E
:1053A000882309F4EFC00E94B410813069F5809120
:1053B0008F06887349F180917F0590918005880F51
:1053C000991F9093800580937F0583E08093640606
:1053D0000E943D0E0E94F32B60938105709382051D
:1053E0008093830590938405672B682B692B61F468
:1053F00081E090E0A0E0B0E0809381059093820589
:10540000A0938305B093840580918F0684FF1FC00D
:1054100080917F05909180058E7F0E940E0C182F41
:1054200060917D05809188050E941920482F612F89
:105430008091870549A30E9419200091C606282F54
:1054400049A160918505809186050E94D61D5D98D1
:105450004198809195058130C1F018F08230B1F10A
:10546000CBC082E10E940C2D892B09F0C5C081E0E0
:10547000809395050E94E72B6093910570939205A8
:105480008093930590939405B7C082E10E940C2D00
:10549000892B31F50E94E72BC0909105D0909205A1
:1054A000E0909305F09094056C197D098E099F0991
:1054B000693E73408105910508F49EC082E08093A7
:1054C000950580ED97E00E944E0A96C082E10E9409
:1054D0000C2D892B09F490C080E090E00E944E0AC8
:1054E0001092950589C080E090E00E944E0AFACEA5
:1054F000223009F006CF0AC080917C05883011F473
:105500005E9A409A89E080937C054DCF8091440556
:10551000805880934405E0918F06E770F0E0E658EC
:10552000FC4F0081093070F4015010E0101709F4AD
:1055300042C087E496E00E947E06181619060CF415
:1055400047C039C008E0F1CF5E984098809143048D
:10555000811103C081E08093430480914304833030
:1055600009F0DECE84E080934304DACE882309F488
:10557000FACE2091960531E0320F3093960529132B
:10558000F2CE36C0109298050ECF2091440485E4E7
:1055900094E0A5E4B5E0FC013E2F381B321718F467
:1055A00031913D93F9CF87E3820F90914405892B88
:1055B0008093440509C087E3810F90914405892BAE
:1055C000809344051093440483E080934304C3CE46
:1055D0001F5F87E496E00E94B106212F30E0F901B9
:1055E000EC5BFA4F8083F901EC5BFB4F80839ECF2D
:1055F000109296058150B7CEA296ECE00C94A92F9C
:105600008F92AF92CF92EF92FF920F931F9370E21F
:10561000872EE8E9AE2ECC24C394F1ECEF2EF12CCA
:1056200000EC10E024EC30E045EC50E060E087E472
:1056300096E00E94FA071F910F91FF90EF90CF9094
:10564000AF908F9008958230E8F4E82FF0E0EE0FED
:10565000FF1FE452F94F71836083813041F08091E4
:1056600069008C7F842B80936900E89A089580916B
:105670006900440F551F440F551F837F842B80936F
:105680006900E99A08951F920F920FB60F921124A4
:105690002F933F934F935F936F937F938F939F933A
:1056A000AF93BF93EF93FF938091DC069091DD065B
:1056B000892B29F0E091DC06F091DD060995FF9138
:1056C000EF91BF91AF919F918F917F916F915F917A
:1056D0004F913F912F910F900FBE0F901F901895F3
:1056E0001F920F920FB60F9211242F933F934F9357
:1056F0005F936F937F938F939F93AF93BF93EF933A
:10570000FF938091DE069091DF06892B29F0E091CE
:10571000DE06F091DF060995FF91EF91BF91AF9101
:105720009F918F917F916F915F914F913F912F91B9
:105730000F900FBE0F901F9018951F920F920FB6EB
:105740000F9211242F933F938F939F93AF93BF9307
:105750008091E1069091E206A091E306B091E40603
:105760003091E00623E0230F2D3720F40196A11D90
:10577000B11D05C026E8230F0296A11DB11D20937F
:10578000E0068093E1069093E206A093E306B093CF
:10579000E4068091E5069091E606A091E706B091B7
:1057A000E8060196A11DB11D8093E5069093E606DB
:1057B000A093E706B093E806BF91AF919F918F91B8
:1057C0003F912F910F900FBE0F901F9018952FB7FC
:1057D000F8946091E1067091E2068091E306909161
:1057E000E4062FBF08953FB7F8948091E5069091A5
:1057F000E606A091E706B091E80626B5A89B05C08D
:105800002F3F19F00196A11DB11D3FBF6627782FCC
:10581000892F9A2F620F711D811D911D42E0660F25
:10582000771F881F991F4A95D1F70895CF92DF926D
:10583000EF92FF92CF93DF936B017C010E94F32BD9
:10584000EB01C114D104E104F10479F00E94F32BBF
:105850006C1B7D0B683E7340A0F381E0C81AD10831
:10586000E108F108C851DC4FECCFDF91CF91FF90F8
:10587000EF90DF90CF900895789484B5826084BDD6
:1058800084B5816084BD85B5826085BD85B5816044
:1058900085BDEEE6F0E0808181608083E1E8F0E0A4
:1058A0001082808182608083808181608083E0E8D3
:1058B000F0E0808181608083E1EBF0E080818460B2
:1058C0008083E0EBF0E0808181608083EAE7F0E0B4
:1058D0008081846080838081826080838081816018
:1058E00080838081806880831092C1000895833016
:1058F00081F028F4813099F08230A1F0089586304B
:10590000A9F08730B9F08430D1F4809180008F7D88
:1059100003C0809180008F7780938000089584B5C4
:105920008F7702C084B58F7D84BD08958091B000CB
:105930008F7703C08091B0008F7D8093B000089571
:10594000CF93DF9390E0FC01E85BF34F2491FC01DF
:10595000E45AF34F8491882349F190E0880F991F0E
:10596000FC01EC57F34FA591B4918658934FFC017D
:10597000C591D4919FB7611108C0F8948C9120957E
:1059800082238C93888182230AC0623051F4F89478
:105990008C91322F309583238C938881822B88833E
:1059A00004C0F8948C91822B8C939FBFDF91CF9190
:1059B0000895A1E0B0E0EFEDFCE20C94952F282FC4
:1059C00030E0F901EC5CF34F8491F901E85BF34FAF
:1059D0001491F901E45AF34F04910023C9F088238C
:1059E00021F069830E94772C6981E02FF0E0EE0FAF
:1059F000FF1FE658F34FA591B4919FB7F8948C918F
:105A0000611103C01095812301C0812B8C939FBF2E
:105A10002196E4E00C94B12FCF93DF93282F30E050
:105A2000F901EC5CF34F8491F901E85BF34FD491F9
:105A3000F901E45AF34FC491CC2391F081110E94F3
:105A4000772CEC2FF0E0EE0FFF1FE059F34FA591FC
:105A5000B4912C912D2381E090E021F480E002C0EC
:105A600080E090E0DF91CF9108958E3008F08E5065
:105A7000877020919D0190E4299F90011124822B31
:105A800080937C0080917A00806480937A0080917A
:105A90007A0086FDFCCF809178002091790090E01B
:105AA000922B0895A0E0B0E0E8E5FDE20C94912F80
:105AB0006C017A01EB01E60EF71E00E010E0CE1556
:105AC000DF0561F06991D601ED91FC910190F081C3
:105AD000E02DC6010995080F191FF1CFC801CDB7F8
