:100000000C9496010C94BE010C94BE010C94BE019C
:100010000C94BE010C94BE010C94BE010C94BE0164
:100020000C94BE010C94A5050C9458240C940A233E
:100030000C94BE010C94BE010C94BE010C94BE0144
:100040000C94340E0C94BE010C94BE010C94BE01B1
:100050000C94BE010C94BE010C94BE010C942B1D9B
:100060000C94BE010C94CE040C9413050C94BE01A8
:100070000C94BE010C94BE010C94BE010C94BE0104
:100080000C94BE010C94BE010C94BE010C94BE01F4
:100090000C94BE010C94BE010C94BE010C94BE01E4
:1000A0000C94BE010C94BE010C94BE01281A2E1AA9
:1000B000341A3B1A491A6B1A891A341E371E2A1E23
:1000C0002E1E581E581E581E3B1E3F1E431E491E04
:1000D0004D1E581E531E434C49206E6F742061768E
:1000E00061696C61626C652C2075736520636F6E4D
:1000F000666967757261746F72210000000002000A
:10010000080E0000030401000B00000000000000C6
:100110000000000000000000000408020110408000
:1001200040102040804080080204018040201002DE
:10013000011080102040400404040404030405025C
:100140000202020403020202020606060606060472
:100150000402020204000000002300260029002CF3
:10016000002F0000000000250028002B002E003189
:100170000000000000240027002A002D00300008A5
:100180000B0002020201000904000001020200004B
:1001900005240010010524010101042402060524A0
:1001A0000600010705810310004009040100020A4E
:1001B000000000070502024000000705830240001E
:1001C0000000C18081C112010002020000404123F1
:1001D000368000010102000112010002000000400F
:1001E0004123368000010102000118034100720022
:1001F0006400750069006E006F0020004C004C0028
:1002000043002203410072006400750069006E0023
:100210006F0020004C0065006F006E0061007200EE
:1002200064006F00040309040000000000000000E7
:100230002A2B280000000000000000000000000041
:1002400000000000000000002C9EB4A0A1A2A43475
:10025000A6A7A5AE362D3738271E1F20212223241E
:100260002526B333B62EB7B89F8485868788898ABA
:100270008B8C8D8E8F909192939495969798999A56
:100280009B9C9D2F3130A3AD350405060708090A54
:100290000B0C0D0E0F101112131415161718191A36
:1002A0001B1C1DAFB1B0B500090402000103000022
:1002B00000092101010001226500070584034000B7
:1002C0000105010902A1010901A100850105091922
:1002D000012903150025019503750181029501751A
:1002E00005810305010930093109381581257F751C
:1002F0000895038106C0C005010906A10185020514
:100300000719E029E7150025017501950881029577
:1003100001750881039506750815002565050719FF
:100320000029658100C09711E51FF42511241FBE27
:10033000CFEFDAE0DEBFCDBF12E0A0E0B1E0E4E94C
:10034000FEE402C005900D92A036B107D9F715E082
:10035000A0E6B2E001C01D92A938B107E1F713E0B1
:10036000CCE2D3E004C02297FE010E94BD26C63233
:10037000D107C9F70E946C210C9448270C94000007
:10038000FC01A289B3899C9186892589822B80955D
:1003900089238C93138E0895DC015B962C915B97D7
:1003A000222379F05796ED91FC91589780819181A5
:1003B00022813381821B930B2681378182239323F1
:1003C00008958FEF9FEF0895DC015B962C915B976A
:1003D000222391F05996ED91FC915A978081918159
:1003E00022813381821B930B8095909526813781E2
:1003F00082239323019608958FEF9FEF0895DC01E8
:100400005B962C915B97222359F05796ED91FC91C6
:10041000589720813181828193812817390719F4F7
:100420008FEF9FEF089582819381A085B185A80FFA
:10043000B91F8C91228133812F5F3F4F46815781B5
:10044000242335233383228390E00895DC015B96D7
:100450002C915B97222359F05796ED91FC91589778
:1004600020813181828193812817390719F48FEF18
:100470009FEF0895828193810084F185E02DE80F3C
:10048000F91F808190E00895DC015796ED91FC9171
:10049000589722813381318320835996ED91FC91C5
:1004A0005A9780819181938382830895FC01838D83
:1004B0008823C1F1A18DB28D2D913C9111972F5FB1
:1004C0003F4F16968D919C91179728233923848D41
:1004D000811108C012968D919C91139728173907A6
:1004E000C9F308C012968D919C911397281739076C
:1004F00089F718C08D919C91119718960D90BC9119
:10050000A02DA80FB91F6C93A18DB28D11963C93AD
:100510002E93A289B3898C919689892B8C9381E043
:1005200090E0089580E090E00895A4E0B0E0EBE969
:10053000F2E00C9492268C019A01AB01DC015B96EF
:100540008C915B97882379F0ED91FC910484F5857B
:10055000E02DC80129833A834B835C8309955C8134
:100560004B813A812981D8015996ED91FC915A9796
:1005700013821282118210825796ED91FC91589746
:10058000138212821182108281E05B968C935B97BA
:10059000121613061406150694F55096ED91FC916B
:1005A00051972115B1EE3B0741055105B1F181E0AD
:1005B00090E0D80154960C9002C0880F991F0A94BD
:1005C000E2F7808360E079E08DE390E00E946526A9
:1005D0002150310941095109CA01B90122E030E035
:1005E00040E050E00E946526D8011C96ED91FC91F8
:1005F0001D9730831E96ED91FC911F972083D801A3
:100600005296ED91FC915397808155969C91892B40
:1006100080832496E4E00C94AE26108220E130E042
:10062000E3CF80910008909101088737974709F040
:10063000A8950895CF93C1E0A1E0B0E02C2F30E061
:10064000FD010C2E02C0EE0FFF1F0A94E2F74E17B9
:100650005F0710F0CF5FF2CF2150310941E050E049
:10066000FA0102C0EE0FFF1F2A95E2F79F01215009
:100670003109FC013783268371876087CF91089504
:100680004F925F926F927F928F92AF92CF92EF9242
:10069000FF920F931F93CF93DF93CDB7DEB7FC018B
:1006A0001382128288EE482E83E0582E612C712C22
:1006B000448255826682778288E292E091838083C9
:1006C0005587448737872687118B008BF38AE28A08
:1006D000C48AA58A868A2AE0629FC00111249C01EF
:1006E0002C5F3A4F308F278B80519B4F928F818F99
:1006F00081E090E0062E01C0880F0A94EAF79091FD
:10070000EF04982B9093EF04DF91CF911F910F91FD
:10071000FF90EF90CF90AF908F907F906F905F9011
:100720004F900895EF92FF920F931F93CF93DF9313
:10073000EC0179018F89988D0E941A03A801B701F5
:10074000898D9A8D0E941A03CDB7DEB7E6E00C942E
:10075000AC2620918D0430918E04382748E0C901E1
:10076000880F991F37FF06C09C0151E2252750E1F1
:10077000352701C09C01415091F730938E0420939E
:100780008D04089588E380938F0480E091EEA0E0CB
:10079000B0E08093900490939104A0939204B0935E
:1007A00093048DE18093B80487E080939C0480ECEF
:1007B00092E9ADEEB9E18093940490939504A093EF
:1007C0009604B093970485E080939D048DEE9EEF90
:1007D000ADEABEED8093980490939904A0939A0497
:1007E000B0939B04EEE9F4E080E090E0863028F4DA
:1007F000DC01A65CBD4F2C9101C020E02193019645
:100800008831910599F782E08093B60482E2809363
:10081000B704089580EC91EDA8E9BBE18093D5047D
:100820009093D604A093D704B093D80480E090E0CE
:10083000A0E0B0E58093D9049093DA04A093DB04A0
:10084000B093DC04EDEDF4E080E081938F5F8031C4
:10085000E1F70895A0E0B0E0E0E3F4E00C94862630
:10086000D82F0E94811D6115710581059105C9F37D
:100870000E942927109298041092990410929A04C9
:1008800010929B04C4E0812C912C54018A94C09056
:100890009804D0909904E0909A04F0909B04FE2C68
:1008A000ED2CDC2CCC240E942427A50194010E946D
:1008B00065266C0D7D1D8E1D9F1D609398047093A1
:1008C000990480939A0490939B04C15001F7DD230F
:1008D00009F450C00EE914E0E801A12CB12C62E348
:1008E000C62ED12CE12CF12C8881882309F442C03A
:1008F000B39419F40E94C2033DC00E942427A701AB
:1009000096010E946526E1E0E60FAEE9B4E08A2F89
:10091000801B8A1520F48D918E13F9CFE9CF209199
:100920009D0430E0A0E1B7E20E94FD259B01AC01EF
:10093000AE2FB0E00E940C26409094045090950495
:100940006090960470909704640D751D861D971D28
:100950004090D5045090D6046090D7047090D8048D
:10096000461657066806790618F2E993A39488E1BB
:10097000A812BACFCDB7DEB7E0E10C94A2268091E1
:100980008C04813019F482E080938C0480918C0473
:10099000833019F484E080938C0408951F920F92A1
:1009A0000FB60F9211242F933F934F938F939F93E2
:1009B000EF93FF934091CE0080910E0590910F052B
:1009C00001962091140530911505822393232091DF
:1009D0001005309111058217930781F020910E05C3
:1009E00030910F05E0911605F0911705E20FF31F06
:1009F000408390930F0580930E0509C080911205E6
:100A00009091130501969093130580931205FF9121
:100A1000EF919F918F914F913F912F910F900FBE2A
:100A20000F901F9018951F920F920FB60F921124DE
:100A30002F933F938F939F93EF93FF932091FC0409
:100A40003091FD048091FA049091FB042817390736
:100A5000E9F08091FC049091FD04E0910205F09191
:100A60000305E80FF91F80818093CE008091FC047C
:100A70009091FD040196209100053091010582239B
:100A800093239093FD048093FC0410C02091FA04FA
:100A90003091FB048091FC049091FD0428173907E4
:100AA00029F48091C9008F7D8093C900FF91EF9157
:100AB0009F918F913F912F910F900FBE0F901F909C
:100AC000189588E08093C10061E08AE00E94591E79
:100AD00060E08AE00E94921E08950097C9F09C0190
:100AE00040E050E068E478EE81E090E00E94652606
:100AF0002F3F31054105510529F020F02FEF30E05F
:100B000040E050E02093D1008091C000806103C09C
:100B10008091C0008F7E8093C0000895219A229A10
:100B2000239860E08BE00E94591E61E08CE00E94F7
:100B3000591E0895EBE6F0E0808180688083E8E646
:100B4000F0E080818160808308951F920F920FB63C
:100B50000F9211242F933F934F935F936F937F9343
:100B60008F939F93AF93BF93EF93FF931F9B0E942D
:100B7000BF04FF91EF91BF91AF919F918F917F91B2
:100B80006F915F914F913F912F910F900FBE0F90FA
:100B90001F901895A1E0B0E0E0EDF5E00C949326ED
:100BA0001FB791E090936E04F89489830E9411031B
:100BB00098E19093600089818093600081110E9488
:100BC00011031FBF2196E3E00C94AF268F929F92F2
:100BD000AF92BF92CF92DF92EF92FF921F93CF938B
:100BE000DF93EC0118A5E12FE770F0E0E45EFD4F24
:100BF000A081B0E017FF03C084E190E002C08FE065
:100C000090E0EFA123E1E29FF0011124E25CFE4FAE
:100C100080809180A280B380A80FB91F20E43FE1BB
:100C20004DE750E00E941726A50194010E9443263B
:100C3000812F887349F469017A0160EDC60E67E07F
:100C4000D61EE11CF11C21C089A590E017FF03C04E
:100C5000A4E1B0E002C0AFE0B0E069017A0168EB66
:100C6000C60E6BE0D61EE11CF11CA80FB91F20E4D4
:100C70003FE14DE750E00E941726A50194010E9434
:100C80004326C20ED31EE41EF51EC701B6016951EC
:100C90007C4F8F4F9F4F28EE33E040E050E00E94A2
:100CA0004326A8EEB3E00E940C26DF91CF911F915E
:100CB000FF90EF90DF90CF90BF90AF909F908F907C
:100CC00008958F3F910551F048F0811522E0920779
:100CD00038F08115934030F482E0089580E0089563
:100CE00081E0089583E00895A0E0B0E0EAE7F6E04F
:100CF0000C948F26EB018A01B82FB695A0E02881CD
:100D00003981F80120832A813B8121832C813D8117
:100D100022832E813F812383688179814A815B818F
:100D20002C813D81EE81FF819F2F9295990F990F24
:100D3000907C272F2370922B252F2370220F220FB8
:100D4000922B232F23702295207F922BF8019483DE
:100D50000B5F1F4F2896AF5FBA1788F680FF24C03D
:100D6000888199810E946106D82E8A819B810E9488
:100D70006106E82E8C819D810E946106F82E8E818D
:100D80009F810E946106F0E4DF9EA001112490E1A2
:100D9000E99E90011124242B282BE4E0FE9EB00153
:100DA0001124262BF8012083CDB7DEB7E7E00C94A1
:100DB000AB26803223E0920708F1883E23E09207B9
:100DC00040F48F519340E4E096958795EA95E1F7DA
:100DD0000895803D27E0920718F48C5D93400895B4
:100DE000883928E0920768F4885C974074E096950B
:100DF00087957A95E1F78D509C4F089580E090E0BB
:100E000008958FEF93E008958C30910540F4A4E0AD
:100E1000880F991FAA95E1F7885D9C4F0895843F3C
:100E200023E0920718F484529C4F0895811524E022
:100E3000920740F48657934FF4E0880F991FFA9574
:100E4000E1F7089580E998E008959C01369527958B
:100E500025753575821B930B9C012373337396950F
:100E600087959695879583739373820F931F9C0143
:100E700054E0369527955A95E1F7280F391F2F70C2
:100E80003F7041E051E0249FC001259F900D349FA9
:100E9000900D1124892F08952998882319F00000B6
:100EA0002A9A02C000002A980000299A000008959A
:100EB000299A000083B12998000083FB882780F9D4
:100EC0000895CF93DF93D82F5E9A29985E98C8E053
:100ED0008D2F80780E944C07DD0FC150C9F72998EB
:100EE000DF91CF9108958F770E9461070895CF9386
:100EF000DF93D82FC8E08D2F80780E944C07DD0F3C
:100F0000C150C9F72998DF91CF910895CF93DF930E
:100F10002998C8E080E0D82FDD0F0E9458078D0F78
:100F2000C150C9F7DF91CF9108950E9473070E94C5
:100F300086075E9A0895A1E0B0E0E1EAF7E00C943C
:100F40009426806869830E9461076981862F0E94C8
:100F500077075E9A2196E2E00C94B026CF93C09179
:100F60009804C827E82FF0E0E157FB4F678589E731
:100F70000E949B076C2F8DE30E949B076C2F82E4DD
:100F80000E949B07CF91089586E20E9495070895DD
:100F9000CF93DF93EC016C818CE10E949B076D8104
:100FA0008DE10E949B076E818EE10E949B076F81FD
:100FB00080E20E949B07688581E20E949B07698509
:100FC00082E20E949B076A8583E20E949B076B85F1
:100FD00084E20E949B076C8585E20E949B076D85D9
:100FE0008AE20E949B076E858EE60E949B076F85B2
:100FF0008FE60E949B07688980E70E949B076989AA
:1010000081E70E949B076A8982E70E949B07DF9124
:10101000CF910895CF92DF92EF92FF92CF93DF931B
:101020006B017C01C11488E3D8068CE9E8068CE1E9
:10103000F80628F5C701B60120E836E948E950E08E
:101040000E944326E901689760E879E687E69FEF0A
:101050000E941F266C0D7D1D8E1D9F1DF2E0660FE8
:10106000771F881F991FFA95D1F721E732E040E0FA
:1010700050E00E944326F22EE32E80E421C0C701F7
:10108000B60120E03DE241E351E00E944326E90140
:10109000689760E073ED8EEC9EEF0E941F266C0D4A
:1010A0007D1D8E1D9F1D660F771F881F991F21E7CD
:1010B00032E040E050E00E944326F22EE32E80E62C
:1010C0006C2F6F71680F85E70E949B076E2D86E776
:1010D0000E949B076F2D87E70E949B07DF91CF91AE
:1010E000FF90EF90DF90CF900895682F8DE60E94DB
:1010F0009B0708958F929F92AF92BF92CF92DF92FB
:10110000EF92FF92CF93DF93D82F83E00E94950751
:1011100080936D0484E00E94950780936C0460E0E6
:1011200086E00E949B0761E087E00E949B076FE7D3
:1011300089E00E949B0765E08AE00E949B0765E1C9
:101140008BE00E949B0762E18CE00E949B076DEFA1
:101150008DE00E949B0760E08EE00E949B07DD23EC
:1011600019F08BE291E008C02091B60433E1239F8F
:10117000C0011124825C9E4F0E94C8076CE880E386
:101180000E949B076FE082E30E949B0762E483E377
:101190000E949B078091B70487FF02C064E101C0F1
:1011A0006AE084E30E949B076AE285E30E949B0752
:1011B0006DE286E30E949B0764ED87E30E949B0734
:1011C00060E088E30E949B0760E089E30E949B0740
:1011D000D11109C0C0909804D0909904E0909A046D
:1011E000F0909B0407C0C5E9CC2EC1ECDC2EED2CA1
:1011F000CEEDFC2ECAE38F2C9924AA24BB24682DA3
:101200008C2F0E949B07682D85E08C0F0E949B0706
:10121000FE2CED2CDC2CCC24CF5FCE3361F76FEFAE
:1012200083E40E949B076FEF84E40E949B076FEFAB
:1012300085E40E949B076FEF86E40E949B07DD23F5
:1012400011F066E002C060919C048DE60E949B074D
:1012500060E089E70E949B0760919D048AE70E94F5
:101260009B0760E083E70E949B0760E084E70E94A1
:101270009B07D11109C060919404709195048091ED
:1012800096049091970404C060EC72E98DEE99E1A8
:101290000E940A08DF91CF91FF90EF90DF90CF90EE
:1012A000BF90AF909F908F90089561E087E00E947B
:1012B0009B0764E28EE70E949B0763E088E00E9440
:1012C0009B0760E088E00E949B0765E087E00E9442
:1012D0009B0762E085E00E949B0783E00E949507E0
:1012E00080936D0484E00E94950780936C040895B8
:1012F00083E00E94950780936D0484E00E94950727
:1013000080936C0461E087E00E949B076AE070E0D4
:1013100080E090E00E94A41D0E94550900000895FD
:10132000CF92DF92FF920F931F93CF93DF931F9281
:10133000CDB7DEB7082F162F8EE399830E949B0747
:10134000F02EC02E9981D92E8C2D8F19811738F44B
:10135000F60161916F018FE70E949B07F5CF64E072
:1013600085E00E949B0783E00E94950780936D04AF
:1013700084E00E94950780936C040E94811D609315
:1013800068047093690480936A0490936B0469E025
:1013900087E00E949B0781E080938C040F90DF918F
:1013A000CF911F910F91FF90DF90CF9008950F93F1
:1013B0001F930E94900980918C04813099F40E94BF
:1013C000811D009168041091690420916A04309194
:1013D0006B04601B710B820B930B603A7648814063
:1013E000910548F380918C04813031F467EA71E013
:1013F00081E295E00E9489201F910F9108950F933B
:101400001F9380918C04823021F410928C0481E02F
:1014100020C080918C048130D9F40E94811D0091FC
:1014200068041091690420916A0430916B04601B78
:10143000710B820B930B613A76488140910540F025
:1014400061E087E00E949B0710928C0482E001C05B
:1014500080E01F910F910895CF93DF93EC014AE054
:1014600050E06D2F70E081E295E00E944E216EE227
:1014700081E295E00E945B20BE0184E0769567954D
:101480008A95E1F76F7077274AE050E081E295E0B6
:101490000E944E216EE281E295E00E945B20BE0137
:1014A0006F7077274AE050E081E295E00E944E217C
:1014B000DF91CF910895D82FC0E0CD1780F45F9AC7
:1014C00064E670E080E090E00E94A41D5F9864E60E
:1014D00070E080E090E00E94A41DCF5FEECF6CE250
:1014E00071E080E090E00E94A41DE6CF0F931F936F
:1014F000CF93DF93EC01062F15E0115051F0CE0190
:101500000E943227081741F0602FCE010E943A272F
:10151000F4CF82E00E945B0ADF91CF911F910F917F
:101520000895A0E0B0E0E7E9FAE00C948626482EA2
:10153000562EC0E0D0E0612C712CE12CF12C00E0A3
:1015400010E041100CC06090EE0487E4689E30010A
:10155000112459E1E52EF12C04ED14E01EC091E0B8
:1015600049120FC06090EE04E7E46E9E3001112432
:10157000FBE16F0E711C4AE2E42EF12C0FE814E03F
:101580000CC082E0481209C02CE1622E77247394CB
:10159000EE24E394F12C0DEE14E043018C0E9D1E1D
:1015A00010928E0410928D043401A62CA818B12C30
:1015B000C30101966C01AE14BF04A8F4A00EB11EC5
:1015C000511006C0C3010E943227F501808305C077
:1015D000F5016081C3010E94760AF50180810E94B5
:1015E000A9033601E2CFC301511018C0C3010E9404
:1015F0003227B82EC6010E9432272B2D30E0322F21
:101600002227282B80918D0490918E0482179307B6
:1016100079F4C0E0D0E05524539493CF3601609123
:101620008E040E94760A60918D04C6010E94760A9B
:10163000C05EDE4FC13E92E0D90708F482CF852D0F
:10164000CDB7DEB7E0E10C94A22661E082E00E9413
:10165000910A089560E082E00E94910A8091ED0471
:10166000853020F01092ED040E94250B8091ED044E
:101670008093EE04089561E080E00E94910A61E0A9
:1016800081E00E94910A089560E080E00E94910A42
:10169000882351F060E081E00E94910A882321F0C4
:1016A00080918F04883349F00E940A040E94C2038B
:1016B00081E00E942A040E943B0B0895CF93C82F1B
:1016C0000E94811D60932C0470932D0480932E043E
:1016D00090932F04C0934104CC2329F040E051EEB5
:1016E00060E070E004C040E855E260E070E08FE642
:1016F00094E00E949502CF91089590913004492F73
:101700004F7050E0BA016F5F7F4F292F30E0E4E067
:1017100035952795EA95E1F76217730759F0FA01B5
:10172000EF5CFB4F808381E0890F8F70907F892B66
:10173000809330040895EF92FF920F931F93CF93FD
:10174000DF938C016EE78FE694E00E945602E80179
:10175000F12CF0E2EF2E8E0188818D57823040F41B
:101760006DE78FE694E00E94560288818E2588837B
:101770002196F80160818FE694E00E945602F3946E
:10178000F9E0FF12E8CF6EE78FE694E00E94560280
:10179000CDB7DEB7E6E00C94AC26A9E0B0E0E3ED0F
:1017A000FBE00C94942690912B0491110EC09EEFB7
:1017B00099838A836B8350E0559547954C832D839D
:1017C000198618861F821E822EC040913004842FF5
:1017D00090E0B4E095958795BA95E1F7242F2F70A6
:1017E00030E08217930719F18DEF89831B82FE0188
:1017F000349650E0842F90E0A4E095958795AA95C3
:10180000E1F7242F2F7030E08217930749F0DC01B5
:10181000AF5CBB4F8C918193405F5F5F563051F757
:10182000409330045A83CE0101960E949B0B809115
:101830002B0490E0019666E070E00E942F268093D2
:101840002B042996E2E00C94B026A0E0B0E0EBE295
:10185000FCE00C948D266C016EE78FE694E00E940C
:1018600056028601E12CF12CC0E0D0E030E2B32E2C
:10187000F801608183E8860F823040F46DE78FE6DF
:1018800094E00E945602F80160816B258FE694E097
:101890000E945602E114F10459F0F80180819E0182
:1018A000280F311DC901C92FDD27C80FD91FDD271A
:1018B0003FEFE31AF30A89E0E816F10459F028E053
:1018C000E216F10421F48C2F8095F60180870F5FDA
:1018D0001F4FCECFCDB7DEB7E9E00C94A9266EE757
:1018E0008FE694E00E9456020895A9E0B0E0EBE78D
:1018F000FCE00C949426E82F362F80912B0490E086
:10190000019664E270E00E942F2680932B0458E930
:10191000598350E15A83813089F048F08230B9F020
:101920008330D9F48B8381EF8C833D8319C085E0AC
:101930008B8381EF8C832F5F2D8312C08B8381EF8C
:101940008C8384E6489FA00111245D8309C084E054
:101950008B8381EF8C83ED8303C00E946F0C04C0E6
:10196000CE0101960E94250C2996E2E00C94B02647
:10197000A2E0B0E0EEEBFCE00C948926182F762E66
:101980002A8349830E94811D6B017C01809141045F
:1019900080902C0490902D04A0902E04B0902F04E1
:1019A0002A8149818823C1F0D701C6018819990984
:1019B000AA09BB094C015D0191EE89169EE29906C8
:1019C000A104B10420F1241708F4422F202F672D21
:1019D000812F0E94750C13C0D701C601881999097F
:1019E000AA09BB094C015D0191E3891695E79906A7
:1019F000A104B10460F0672D812F0E94CD0BC0922D
:101A00002C04D0922D04E0922E04F0922F04229602
:101A1000EDE00C94A526A3E1B1E0E1E1FDE00C943A
:101A20008726EEE9F4E0712C8191882321F07394EC
:101A300028E17212F9CF63EB71E081E295E00E9438
:101A400089204AE050E0672D81E295E00E9455210F
:101A500080E00E947A080E9455098E010E5F1F4F98
:101A6000C12CD12C7601C39466246A945C2C0E940C
:101A7000751D4B015C0120919D0430E0A0E1B7E2AF
:101A80000E94FD259B01AC01C701B6010E941F26E3
:101A900020919404309195044091960450919704BC
:101AA000620F731F841F951F2091D5043091D604B7
:101AB0004091D7045091D804261737074807590793
:101AC00018F4F801608225C08C2D0E94AE0761E0F9
:101AD00070E080E090E00E94A41DF80110820E9456
:101AE000751D681979098A099B09643F7140810550
:101AF000910540F40E94C407F8019081981778F787
:101B00008083EDCF50FE03C046985F9A02C0469A8C
:101B10005F982FEFC21AD20AE20AF20A0F5F1F4F34
:101B20008FEFC816D104E104F10409F09FCFCE0174
:101B30009395FC01D82E7FEF68EC2E2F281B2715DC
:101B400010F051E056C0DE01129651E02FEF41E057
:101B50003D91321710F0322F01C0452F5F5F5F3F7C
:101B600011F0232FF5CF4193242F30E0A1E0B0E016
:101B7000AC0FBD1FA20FB31F5C93413079F0DE01A3
:101B8000A20FB31F5C93423049F0AFEFBFEFAC0F31
:101B9000BD1FA20FB31F6C934E3F78F6A2E0B0E0DA
:101BA000AC0FBD1FA20FB31F7C934D3F30F6A3E0D7
:101BB000B0E0AC0FBD1FA20FB31F6C93BECF452F7B
:101BC000242F30E0FC01E20FF31F6081AFEFB0E0A3
:101BD000AC0FBD1FA20FB31F2C91621748F44150E8
:101BE000DC01A40FB11D2C9120836C934111E8CF2F
:101BF0005F5F571520F3372D369520E0231770F4DB
:101C0000DC01A20FB11D4C91522F530FFC01E50FC7
:101C1000F11D50815C9340832E5FF0CF4EE9E42E9E
:101C200044E0F42E8C01802F8D19871598F4F8016B
:101C3000C1908F014AE050E06C2D81E295E00E9456
:101C400046216CE281E295E00E945B20F701C1929F
:101C50007F01E9CF81E295E00E94632081E0CD5EC3
:101C6000DE4FEFE00C94A3261F920F920FB60F9257
:101C700011241F932F933F934F935F936F937F9301
:101C80008F939F93AF93BF93CF93DF93EF93FF9384
:101C9000C0918600D09187008091E9039091EA037A
:101CA00020910B04211155C09E01281B390B8091F6
:101CB000D9049091DA04A091DB04B091DC0485FD95
:101CC00002C036952795253C49E03407B8F140918C
:101CD0000A0150E060E070E0ECE1B695A7959795B9
:101CE0008795EA95D1F70097A105B10521F481E028
:101CF00090E0A0E0B0E084179507A607B707D8F4F6
:101D000080910A018F3FB9F040E080910A014817A5
:101D100080F4842F90E0880F991FFC01E551FC4F5F
:101D200020813181FC01E55FFE4F318320834F5FCD
:101D3000ECCF10920C0410920A010BC02D3B82E0F4
:101D4000380720F080910A018031D8F08FEF80931E
:101D50000A01D093EA03C093E903FF91EF91DF9169
:101D6000CF91BF91AF919F918F917F916F915F9133
:101D70004F913F912F911F910F900FBE0F901F9089
:101D8000189510910A0181E0810F80930A01C90121
:101D90000E94D906E12FF0E0EE0FFF1FE551FC4F46
:101DA00091838083D6CF83E0809380008AE98093FB
:101DB00081008091D90486FD05C0809181008064F6
:101DC000809381008FEF9FEF90938900809388002C
:101DD00080916F00806280936F000895CF93DF93AE
:101DE0000E942A0B8091EE04843039F582E00E9433
:101DF000C51EC1E0D0E0892B11F4C0E0D0E083E043
:101E00000E94C51E892B19F082E090E002C080E09C
:101E100090E08C2B9D2B8230910539F08330910519
:101E200039F0019739F481E006C01092EE0405C044
:101E300082E001C083E08093EE04DF91CF910895AA
:101E40006F3018F086958058089589E0689F802D3E
:101E500011240895A0E0B0E0E0E3FFE00C948E26AA
:101E6000C82F0E94811D0091CE021091CF022091B7
:101E7000D0023091D1026B017C01C01AD10AE20A72
:101E8000F30A9701860149E8C41643E1D406E10448
:101E9000F10410F01092D2026093CE027093CF0240
:101EA0008093D0029093D10220910B048FEF820F88
:101EB0008230D8F5E091D202EE2309F44EC1E13030
:101EC00011F482E0B8C1E03108F034C181E08E0F36
:101ED0008093D202F0E0E551FC4FC083803109F0DD
:101EE000ACC1EDEEF3E0213029F4A181A695A695D1
:101EF000808108C080819181A92FA695A695A6957D
:101F000096958795A03148F4B0E090E0AA0FBB1FEA
:101F1000A55FBE4F11969C938E9310920C0432963F
:101F200083E0EB3FF807F9F688C1233009F005C1DB
:101F3000E091D202E11104C0CF3009F07EC10DC1A1
:101F4000E83148F481E08E0F8093D202F0E0E65150
:101F5000FC4FC08372C1E83109F0ECC0C111EAC086
:101F600040E050E0ABE0CA0163E0880F991F6A953A
:101F7000E1F7A49F9001A59F300D1124F901E551CF
:101F8000FC4F6081E1817E2F777075956795FC012C
:101F9000EE0FFF1FE55FFE4F71836083F901E4518F
:101FA000FC4FB081B695B695B695E181FE2FF295BE
:101FB000FF0FF07E6F2F6B2BE695E695E6957E2F53
:101FC000777075956795FC01EE0FFF1FE35FFE4F7D
:101FD00071836083F901E351FC4FB081B295B695EE
:101FE000B695B370C181DC2FDD0FDD0F6D2F6B2B2C
:101FF000C295C695C695C370E281E170EE0FEE0FF3
:102000007E2F7C2B75956795FC01EE0FFF1FE15F1E
:10201000FE4F71836083F901E151FC4FB081B695A9
:10202000E181FE2FF795FF27F7956F2F6B2BE69534
:102030007E2F777075956795FC01EE0FFF1FEF5EA1
:10204000FE4F71836083F901E051FC4FB081B2957E
:10205000BF70E181FE2FF295F07F6F2F6B2BE29521
:10206000EF707E2F777075956795FC01EE0FFF1F5F
:10207000ED5EFE4F71836083F901EF50FC4FB0813C
:10208000BB1FBB27BB1FC181DC2FDD0F6D2F6B2B4F
:10209000CC1FCC27CC1FE281E370EE0F7E2F7C2B70
:1020A00075956795FC01EE0FFF1FEB5EFE4F718388
:1020B0006083F901ED50FC4FB081B695B695E18192
:1020C000FE2FF295FF0FFF0FF07C6F2F6B2BE69525
:1020D000E6957E2F777075956795FC01EE0FFF1FD3
:1020E000E95EFE4F71836083F901EC50FC4F208163
:1020F0002295269527703181E32FEE0FEE0FEE0F1C
:102100006E2F622B732F7295769577707595679504
:10211000FC01EE0FFF1FE75EFE4F718360834F5F90
:102120005F4F4230510509F01ECF8091010483FFBB
:1021300010920C041092D20280C0243009F07DC0AD
:102140006091D20261110BC0C83AB1F410928E04B2
:1021500010928D0488EA0E94A90381E06CC061306E
:1021600019F4C093CD0204C0623031F4C093CC02A4
:102170008C2F0E94A9035AC0E091CC022E2F30E090
:10218000220F331F462F50E0C9010296841795078E
:102190003CF0633268F7FA01E851FC4FC083E8CFA6
:1021A0002D5F3F4F8C2F90E060918D0470918E04D5
:1021B0004217530749F4982F88278627972790932B
:1021C0008E0480938D0432C06817790769F5809179
:1021D000CD02813049F5E13118F080E18093CC02E5
:1021E000F090CC02CCEED3E000E010E00F15D0F47C
:1021F000FE013197808190E0982F88272881822BDB
:10220000B3E096958795BA95E1F70E94D906F80153
:10221000EE0FFF1FE55FFE4F918380830F5F1F4F1F
:102220002296E4CF10920C041092D2028091D20236
:10223000882319F08F5F8093D202CDB7DEB7E8E034
:102240000C94AA26CF93DF93E82FF0E0EC52FB4FDB
:10225000E185E03150F4F894F0E0EE0FFF1FE55F08
:10226000FE4F8081918178945FC08EE08E0F8B301D
:1022700058F4F0E0E25FF10924E62E9FC0012F9FA1
:10228000900D11240C9650C0E03F09F448C038F47A
:10229000E131A1F0E231A1F0E03139F409C0ED3FC4
:1022A000C1F1EE3FC9F1E13F89F180E092E03CC02D
:1022B00082E00E94C51E892B19F134C083E0F9CF5A
:1022C00082E00E94C51EC1E0D0E0892B11F4C0E07D
:1022D000D0E083E00E94C51E892B19F082E090E0D7
:1022E00002C080E090E08C2B9D2B8230910541F064
:1022F0008330910541F00197A9F086EA92E014C07D
:102300008CE090E011C089E591E00EC086E090E09D
:102310000BC08AEF93E008C08FEF93E005C080E028
:1023200090E002C084EF93E0DF91CF9108958F9207
:10233000AF92CF92EF92FF920F931F9360E2862E9F
:1023400078E9A72ECC24C394E9ECEE2EF12C08EC0E
:1023500010E02CEC30E04DEC50E061E08FE694E0D2
:102360000E9440031F910F91FF90EF90CF90AF908C
:102370008F900895A2E2B0E0E0ECF1E10C948426A5
:102380009E012F5F3F4F80E1D9011D928A95E9F7A9
:1023900061EE71E081E295E029A33AA30E948920D1
:1023A0000E9478091D8A1E8A1F8A188E312C212CC2
:1023B00000E0812C912C5401F0E44F2EF1EE5F2EC1
:1023C000FDE96F2EF8E17F2EA0E5CA2EA3ECDA2EF0
:1023D000E12CF12C84EF91E0A0E0B0E08D8F9E8F96
:1023E000AF8FB8A380EC91EDA8E9BBE1898F9A8FFC
:1023F000AB8FBC8F80E491EEADE9B8E1898B9A8B0D
:10240000AB8BBC8B81E295E00E94EE1E892B09F418
:10241000E1C081E295E00E94121F9C0133272C321B
:10242000310509F442C0ACF42332310509F0ABC0E8
:1024300019821A821B821C821D821E821F821886AC
:1024400019861A861B861C861D861E861F86188A7C
:1024500060C02434310529F02335310509F4B2C0B8
:1024600092C064E481E295E00E945B202AE030E0C3
:1024700040E451EE6DE978E181E295E00E94E920C7
:102480006CE281E295E00E945B202AE030E040ECC3
:1024900051ED68E97BE181E295E00E94E9206CE280
:1024A00081E295E00E949B20ADCF0F5F043009F0E0
:1024B000A9CF29813A814B815C81A8EEB3E00E94CB
:1024C0000C26698B7A8B8B8B9C8B2D813E814F8167
:1024D00058850E940C26698F7A8F8B8F9C8F298557
:1024E0003A854B855C852D8F3E8F4F8F58A32D8568
:1024F0003E854F8558890E940C266B017C01603215
:102500003EE473078105910530F462E38CE10E949B
:102510009B0700E077CF603345E77407810591059D
:1025200010F462E2F3CF60345CE975078105910530
:1025300010F466E2EBCF80E5C81683ECD806E10420
:10254000F10410F462E1E2CF90E6C9169AEED906E2
:10255000E104F10410F465E1D9CFA0E7CA16A1E1C6
:10256000DA06A1E0EA06F10410F461E0CFCFB0EAA8
:10257000CB16B6E8DB06B1E0EB06F10410F463E03D
:10258000C5CF65E0C3CF10ED180F1A3008F03ACF71
:10259000E1E0F0E0EC0FFD1F24E0029FE00DF11DF3
:1025A00011242081318142815381AAE0B0E00E9450
:1025B0000C26610F711D811D911D608371838283C3
:1025C000938320CF49885A886B887C88812C912CF2
:1025D000540118CF81149104A104B10489F4C301FA
:1025E000B2010E940A0861E070E080E090E00E9481
:1025F000A41D1D8A1E8A1F8A188E312C22242A941B
:102600008D8D9E8DAF8DB8A188169906AA06BB0642
:10261000D0F40E94C4072D893E894F89588D280F18
:10262000311D411D511D2D8B3E8B4F8B588F381600
:1026300008F4382E821508F4282E3FEF831A930AE7
:10264000A30AB30A56C0C301B20128EE33E040E04A
:1026500050E00E944326BA01A9012AE030E081E25D
:1026600095E00E9437216CE281E295E00E945B20B8
:102670004AE050E0632D81E295E00E9446216CE241
:1026800081E295E00E945B206D897E898F89988D1B
:10269000A50194010E944326BA01A9012AE030E075
:1026A00081E295E00E9437216CE281E295E00E9490
:1026B0005B204AE050E0622D81E295E00E944621D5
:1026C0006CE281E295E00E949B204C0C5D1C6E1C2C
:1026D0007F1C898D9A8DAB8DBC8D84159505A605C3
:1026E000B70520F449885A886B887C88812C912C06
:1026F000540129893A894B895C89283E3340410538
:10270000510509F07FCEA296E2E10C94A026ACE13F
:10271000B0E0EDE8F3E10C948E260E94811D6B0180
:102720007C0181E00E947A0814E703E0198361E0EC
:10273000CE0101960E94D70900938C040E9455098E
:102740006AEF70E080E090E00E94A41D80918C040C
:10275000833089F481E295E00E94EE1E892B59F4C2
:102760000E94811D6C197D098E099F096038734C88
:10277000894C9140D8F280918C04833009F44FC089
:102780008FE70E9473070E9486078983843511F0C2
:1027900083E05CC00E948607109242048093430449
:1027A0000E9486072091420430914304280F311D76
:1027B00030934304209342040E948607809344048C
:1027C0000E94860780934504813110F7F12C0F2D6C
:1027D00010E08091450490E0880F991F08171907B1
:1027E00040F40E948607F801EA5BFB4F8083F39474
:1027F000EECF80E7898361E0CE0101960E94D70980
:1028000083E080938C040E94550962E370E080E0CD
:1028100090E00E94A41D80918C04833011F482E02A
:1028200015C08FE70E9473070E9486078983803551
:1028300009F0AECF09EB14E00E948607F8018193FE
:102840008F01F4E0043D1F07B9F781E06C96E8E0E2
:102850000C94AA26A2E2B0E0E0E3F4E10C948A260C
:102860008CE00E94950781110DC06EEE71E081E24F
:1028700095E00E9489205F9A80E00E947A080E9479
:1028800055095F9880910B04811105C080910B045C
:10289000811114C00DC08FE694E00E94CC01892BF9
:1028A000A9F38FE694E00E94FF010E942A0FF3CF64
:1028B00080918C04843009F0B3C00DC081E295E0B2
:1028C0000E94EE1E892BA1F381E295E00E94121F67
:1028D0000E942A0FF3CF0E94811D611571058105A9
:1028E000910549F06093190470931A0480931B04B6
:1028F00090931C040CC081E090E0A0E0B0E08093D5
:10290000190490931A04A0931B04B0931C048091A3
:102910000F049091100481609093100480930F0431
:1029200083E080938C048FE70E94730704EB13E02D
:102930008091B80490E09801245B33402817390750
:1029400034F40E948607F80181938F01F1CF209122
:10295000D4038091B403982F922796FF54C090E43B
:1029600092279093D4039091B70498739032A1F476
:102970008F73D82E45EBE42E43E0F42E8701802F91
:102980008E198D1508F03FC0F80161918F018FE617
:1029900094E00E945602F3CF982F98739833F1F485
:1029A00010E0212F30E08091B403877090E082170F
:1029B00093074CF11F5F2091B704812F90E0FC0139
:1029C000EC54FC4F24FF04C080810E947D0BE9CFB2
:1029D00060818FE694E00E945602E3CF8F7399F4F2
:1029E0008091B503809318048091B60380931604F8
:1029F0008091B703809315048091BA0390E090937F
:102A00000E0480930D048091D302813019F482E08A
:102A10008093D3028091D302833011F41092D302B9
:102A20000E94811D6B017C01809111049091120420
:102A3000A0911304B09114040097A105B105C9F049
:102A4000A7019601281B390B4A0B5B0BDA01C90160
:102A5000883B9B40A105B10560F00E94C4078093AC
:102A60001704109211041092120410921304109281
:102A7000140480911D0490911E04A0911F04B09134
:102A8000200446015701881A990AAA0ABB0A8FE84E
:102A900094E00E94E60586169706A806B90608F493
:102AA000C2C0C0921D04D0921E04E0921F04F09296
:102AB00020040E94110380910C048830A0F08091C2
:102AC000D9049091DA04A091DB04B091DC043CE1DC
:102AD000B695A795979587953A95D1F7892B8A2B27
:102AE0008B2B09F03FC180910C048F5F80930C0405
:102AF0008091190490911A04A0911B04B0911C04B8
:102B00000097A105B10539F1C81AD90AEA0AFB0AEA
:102B10008FE894E00E94E6056C157D058E059F0503
:102B200008F029C18091D90484FD04C080ED97E0AC
:102B30000E946D058091290490912A04019690933A
:102B40002A04809329041092190410921A041092F6
:102B50001B0410921C048091D403807C8093D403C6
:102B60008FE694E00E94CC012091D302181619063A
:102B70000CF406C1243009F464C18091250482302C
:102B800009F02EC18091D40381608093D4035F9AB1
:102B90008E010F5F1F4FF12CB8018F2D69A37AA30F
:102BA0000E942211F801819391938F01F39469A1FE
:102BB0007AA1F0E1FF12F1CF8091B70445ED53E027
:102BC00087700E947406469A10919C048091270495
:102BD000811117C18091D90482FD1FC1812F0E94EC
:102BE0007508809128040E94AE07E091B704E77051
:102BF000F0E0E45EFD4F608184ED93E00E94900977
:102C00008091D90482FD12C1E0912804EF5FE09326
:102C10002804E83109F412C1F0E0E157FB4F878541
:102C2000882309F40BC10E94FF09813069F5809166
:102C3000B704887349F180910F0490911004880FB4
:102C4000991F9093100480930F0483E080938C0469
:102C50000E9455090E94811D609311047093120413
:102C60008093130490931404672B682B692B61F4F1
:102C700081E090E0A0E0B0E0809311049093120412
:102C8000A0931304B09314048091B70484FF1FC071
:102C900080910F04909110048E7F0E942507182FB9
:102CA00060910D04809118040E94200F482F612F1D
:102CB0008091170449A30E94200F0091EE04282F51
:102CC00049A160911504809116040E94B80C4698A1
:102CD000809125048130C1F018F08230B1F1D8C064
:102CE00082E10E94C51E892B09F0D2C081E0809349
:102CF00025040E94751D6093210470932204809323
:102D0000230490932404C4C082E10E94C51E892B31
:102D100031F50E94751DC0902104D0902204E090EE
:102D20002304F09024046C197D098E099F09693EE3
:102D300073408105910508F4ABC082E080932504BF
:102D400080ED97E00E946D05A3C082E10E94C51E40
:102D5000892B09F49DC080E090E00E946D051092DF
:102D6000250496C080910C04883009F45F9A89E0AC
:102D700080930C0458CF80E090E00E946D05EBCE6C
:102D8000223009F0F7CE8091D40380588093D40389
:102D9000E091B704E770F0E0E45EFD4F0081093098
:102DA000E8F4015010E0101709F461C08FE694E0D8
:102DB0000E94CC01181619060CF059C01F5F8FE64F
:102DC00094E00E94FF01212F30E0F901EC52FC4F0A
:102DD0008083F901EC52FD4F8083E5CF08E0E2CF1C
:102DE0005F988091D302811103C081E08093D30268
:102DF0008091D302833009F0CBCE84E08093D3025C
:102E0000C7CE112309F4E6CE9091260421E0290FC4
:102E1000209326049813DECE37C082E00E94C51EA0
:102E2000892B09F0DBCE5F9A17E0D8CE82E00E94B2
:102E3000C51E892B09F0E8CE5F98E6CE10922804D3
:102E4000F2CE2091D40285ED92E0A5EDB3E0FC0135
:102E50003E2F381B321718F431913D93F9CF87E399
:102E6000820F9091D403892B8093D40309C087E308
:102E7000810F9091D403892B8093D4031093D402B3
:102E800083E08093D3029FCE109226041150A2CEED
:102E9000A296ECE00C94A626CF93C82F682F81E26F
:102EA00095E00E945F1F909166049C2790936604B2
:102EB000CF910895A1E0B0E0E0E6F7E10C9494260C
:102EC00099830E944C179981892F0E944C17219653
:102ED000E2E00C94B0261F93CF93DF93182FEB0101
:102EE0001092660465EB81E295E00E945F1F62E646
:102EF00081E295E00E945F1F812F0E944C17CE0156
:102F00000E945A17DF91CF911F9108956091660436
:102F100081E295E00E945F1F0895A1E2B0E0E3E93D
:102F2000F7E10C9490267B018A018C3009F452C1A0
:102F300008F040C0863009F4BCC018F5833009F4AD
:102F400091C070F4813009F472C0823009F047C238
:102F50006BE170E082E00E946B1709EB14E078C02F
:102F6000843009F487C0853009F039C26091450486
:102F700070E0660F771F85E00E946B1706E414E08F
:102F800086C0893009F4A7C070F4873009F49BC06B
:102F9000883009F024C261E070E088E00E946B177D
:102FA0008091EE0422C28A3009F4CAC08B3009F441
:102FB000F1C015C28A3609F474C1D8F4873609F411
:102FC00039C138F4853609F40DC1863609F41EC1BD
:102FD00006C2883609F436C1893609F000C261E0BC
:102FE00070E089E60E946B170E94C2030E940A04E7
:102FF000F4C18D3609F4D3C138F48B3609F490C18D
:103000008C3609F499C1EBC18E3609F4DBC1873CDB
:1030100009F0E5C161E070E087EC0E946B1781E088
:103020000E944C170E94861710926704E2C16AE260
:1030300070E081E00E946B170FE814E0F8018191C5
:103040008F010E944C17F4E0093B1F07B9F7CFC16D
:10305000F80181918F010E944C17F4E0043D1F0795
:10306000B9F7C5C161E070E083E00E946B170E9470
:103070008713BBC161E070E084E00E946B1781E0C0
:103080000E944C170E9486170E94BA11B2C180910B
:10309000450490E0880F991F980126543440281762
:1030A000390708F0A4C1F80181918F010E944C17E3
:1030B000EECF62E070E086E00E946B1785E893E057
:1030C0000E945A1794C161E070E087E00E946B177C
:1030D000809144048AC186E6898361E0CE0101962D
:1030E0000E94D7090E94550983E080938C0468EC04
:1030F00070E080E090E00E94A41D80918C048430F8
:10310000D9F48FE70E9473070E948607898386346B
:1031100069F460E270E089E00E946B1710E20E949F
:1031200086070E944C171150D1F761C161E070E031
:1031300089E00E946B1751C161E070E089E052C1E3
:1031400069E170E08AE00E946B171092D40420912C
:103150006E048091D9049091DA04A091DB04B091BF
:10316000DC04222311F0806801C08F778093D9049A
:103170009093DA04A093DB04B093DC0404ED14E034
:10318000F80181918F010E944C17F4E00D3E1F075A
:10319000B9F72DC161E270E08BE00E946B1780915E
:1031A0000C048F3F39F080910C0491E0980F9093BC
:1031B0000C0402C080910C040E944C1710E0812F77
:1031C0000E9422110E9404070E945A171F5F1031AB
:1031D000B1F70DC161E070E08CE00E946B17809147
:1031E000ED0403C161E070E085E60E946B178AE29E
:1031F000E816F10409F0F8C0D801EFE8F4E08D9189
:10320000819384E0E93BF807D1F7E7C061E070E023
:1032100086E60E946B17EBE1EE16F10409F0E4C0BC
:10322000D801E9EBF4E08D91819384E0E43DF80767
:10323000D1F7D3C061E070E087E60E946B170E946F
:103240003B0BCBC061E070E088E60E946B1785E71E
:1032500089838BE1E9EBF4E0DE01129601900D9297
:103260008A95E1F76CE1CE0101960E94D7090E9490
:10327000550983E080938C0460E273E080E090E085
:103280000E94A41D80918C04843009F0ADC08FE7AA
:103290000E9473070E9486078983853509F0A4C0C0
:1032A0009CC061E070E08AE60E946B1789E6898322
:1032B00061E0CE0101960E94D7090E94550983E082
:1032C00080938C0460E273E080E090E00E94A41D93
:1032D00080918C04843009F087C08FE70E947307C7
:1032E0000E94860789838E010E5F1F4F7E01EDE1EC
:1032F000EE0EF11C0E948607F80181938F01EE15F6
:10330000FF05C1F78BE1FE013296A9EBB4E0019015
:103310000D928A95E1F78981893409F065C05DC015
:1033200061E070E08BE60E946B17F801808180936A
:10333000EE040E94440B51C061E070E08CE60E94F4
:103340006B17F0E2EF16F10461F487E6898380E2FF
:10335000F801DE01129601900D928A95E1F761E283
:1033600003C087E4898361E0CE0101960E94D709FA
:103370000E94550983E080938C046CE474E080E043
:1033800090E00E94A41D80918C04843069F58FE741
:103390000E9473070E948607873431F51EC061E0E2
:1033A00070E08DE60E946B1789E1E816F104E1F404
:1033B000D801E4EDF4E08D91819384E0ED3EF807CF
:1033C000D1F70BC061E070E08EE60E946B17F80148
:1033D00080818093ED040E94250B81E006C061E0AE
:1033E00070E08AEC0E946B1780E00E944C170E94EC
:1033F0008617A196E6E00C94AC26A0E0B0E0E3E0EE
:10340000FAE10C948E26C0E6D2E014E606E0A5E0D0
:10341000FA2EB4E0EB2E83E0D82E92E0C92E81E2A2
:1034200095E00E94EE1E892B09F49BC081E295E095
:103430000E94121F282F8093CB024091CA0250E0B5
:103440004730510560F7FA01EA5AFF4F0C94BB264A
:10345000853B29F781E08093CA02E1CF823609F0EB
:103460007DC0C092CA02DBCF8093C9028093C8029C
:10347000D092CA02D4CF9C0133273093C702209345
:10348000C6029091C80298279093C802E092CA029F
:10349000C6CF382F22274091C6025091C702242B55
:1034A000352B3093C7022093C6029091C80298270B
:1034B0009093C802F092CA022536310508F4AFCFC6
:1034C00061E070E08CEC0E946B1781E00E944C1769
:1034D0000E94861743C02091C4023091C502F901B1
:1034E000E05AFD4F80839091C80298279093C802BC
:1034F000C90101969093C5028093C4022091C6022F
:103500003091C7028217930708F489CF0093CA024B
:1035100086CF8091C80282130BC06091C402709163
:10352000C50240E652E08091C9020E948D170DC08D
:1035300062E070E08BEC0E946B178091C9020E94E0
:103540004C17809166040E944C17FE01812F119246
:103550008A95E9F71092C5021092C4021092CA022D
:103560005ECFCDB7DEB7E8E00C94AA2681E0809369
:10357000670480916704882349F081E295E00E9406
:10358000EE1E892BB1F30E94FD19F3CF0895ABE233
:10359000B0E0EDECFAE10C948C260E94751D6B01F5
:1035A0007C0181E00E947A0881E295E00E945B1F25
:1035B0005F9811E022E6B22E3AE2A32E03E00E94C9
:1035C000751D6C197D098E099F09693C710581057E
:1035D0009105D0F11123C1F10E94751D6B017C0191
:1035E000469A80ED97E00E946D05B982EFE8F4E01D
:1035F000DE0112968A2D01900D928A95E1F76BE219
:10360000CE0101960E94D709469880E090E00E9482
:103610006D0500938C040E94550962E370E080E020
:1036200090E00E94A41D80918C04843061F400938A
:103630008C048FE70E9473070E94860711E0823492
:1036400019F410E001C011E082E10E94C51E892B2F
:1036500081F411E00EC05F9A469A81E295E00E94E3
:10366000121F8D309105A9F05CF40A9791F05F98D4
:10367000469881E295E00E94EE1E892B61F79FCF6C
:103680008332910569F08234910589F70E94B61A58
:10369000EECF66ED70E081E295E00E947720E7CF03
:1036A0000E94BA11E4CF8F929F92AF92BF92CF92B5
:1036B000DF92EF92FF921F93CF93DF9382E10E94FC
:1036C000C51E892B09F089C068EC70E080E090E0AD
:1036D0000E94A41D80E090E00E946D050E94751D6F
:1036E0004B015C016B017C0180ECC80E82E1D81EAD
:1036F000E11CF11C0E94751D6C157D058E059F0552
:1037000030F482E10E94C51E892BA1F364C082E1DE
:103710000E94C51E892B09F05EC080ED97E00E94D3
:103720006D050E94751D6B017C01D0E0C1E088E44D
:10373000880E86E2981EA11CB11C11E082E10E9455
:10374000C51E892B21F58C149D04AE04BF0430F4F2
:1037500080ED97E00E946D05D1E0F0CF0E94751DCD
:103760006C197D098E099F09693C710581059105D8
:1037700028F30E94751D6B017C01C12719F080EDB3
:1037800097E002C080E090E00E946D05D7CF80E016
:1037900090E00E946D05DD23B9F08091ED0490E08A
:1037A000019665E070E00E942F268093ED040E9450
:1037B000250B0E94EE0E0E94440B64EF71E080E046
:1037C00090E00E94A41D09C080E00E942A040E948B
:1037D0000B0D0E943B0B0E94C71ADF91CF911F91E6
:1037E000FF90EF90DF90CF90BF90AF909F908F9021
:1037F0000895CF92DF92EF92FF920F931F9380E094
:103800000E94CA050E948E0561E086E00E94591E52
:1038100061E085E00E94591E60E082E10E94591E2D
:1038200060E082E00E94591E61E082E00E94921EE8
:1038300060E083E00E94591E61E083E00E94921ED6
:1038400060E084E00E94591E61E084E00E94921EC4
:103850000E94610560E070E081E295E00E94E41F53
:1038600000E810E024EF32E040E450E064E773E069
:103870008FE694E00E9492030E94EE0E0E94440B99
:103880000E94D30E8FEF80930C040E949A057894C7
:103890000E94751D6B017C0180910C048F3F59F4CF
:1038A0000E94751D6C197D098E099F09603D774046
:1038B0008105910588F380ED97E00E946D0561E038
:1038C00082E10E94921E5F9A81E295E00E945B1F56
:1038D0006DEF71E081E295E00E94582085E893E069
:1038E0000E942C0A64E172E081E295E00E94582077
:1038F0004AE050E066E070E081E295E00E941F211E
:1039000062E370E080E090E00E94A41D81E295E017
:103910000E94EE1E04970CF181E295E00E94121FB6
:1039200082349105D1F481E295E00E94121F8E3419
:10393000910599F481E295E00E94121F843491056B
:1039400061F481E295E00E94121F819731F480E0DA
:1039500090E00E946D050E94C71A4091900450911A
:1039600091046091920470919304DB01CA01019764
:10397000A109B1090497A105B10568F440930B04AE
:10398000433029F440EA56E861E070E004C040E0CA
:1039900052EC61E070E08FE694E00E9495020E9494
:1039A000531B5F9880E090E00E946D050E94D30E4B
:1039B000109227048091D90483FF11C08091A40440
:1039C000882351F08091AB04882331F08091B204B8
:1039D000882311F087E001C085E08093270480E010
:1039E0000E947A08809128040E94AE070E9455091F
:1039F0001092D302F12C8091EE048F15B0F062E3A7
:103A000070E080E090E00E94A41D80ED97E00E94AD
:103A10006D0562E370E080E090E00E94A41D80E00C
:103A200090E00E946D05F394E6CF8091B70484FF87
:103A300008C0982F987381E0983109F080E00E94C7
:103A40005E0B8FE00E94CA051F910F91FF90EF90CF
:103A5000DF90CF9008951F920F920FB60F9211240E
:103A60002F933F938F939F93AF93BF9380911905AB
:103A700090911A05A0911B05B0911C053091180575
:103A800023E0230F2D3720F40196A11DB11D05C0A1
:103A900026E8230F0296A11DB11D209318058093DF
:103AA000190590931A05A0931B05B0931C058091EE
:103AB0001D0590911E05A0911F05B091200501964E
:103AC000A11DB11D80931D0590931E05A0931F0598
:103AD000B0932005BF91AF919F918F913F912F910E
:103AE0000F900FBE0F901F9018952FB7F89460910C
:103AF000190570911A0580911B0590911C052FBF27
:103B000008953FB7F89480911D0590911E05A091EE
:103B10001F05B091200526B5A89B05C02F3F19F0C1
:103B20000196A11DB11D3FBF6627782F892F9A2FBF
:103B3000620F711D811D911D42E0660F771F881F66
:103B4000991F4A95D1F70895CF92DF92EF92FF9295
:103B5000CF93DF936B017C010E94811DEB01C114A7
:103B6000D104E104F10479F00E94811D6C1B7D0BEE
:103B7000683E7340A0F381E0C81AD108E108F1085B
:103B8000C851DC4FECCFDF91CF91FF90EF90DF90E9
:103B9000CF900895789484B5826084BD84B58160A7
:103BA00084BD85B5826085BD85B5816085BDEEE645
:103BB000F0E0808181608083E1E8F0E01082808124
:103BC00082608083808181608083E0E8F0E0808192
:103BD00081608083E1E9F0E0808182608083808180
:103BE00081608083E0E9F0E0808181608083E1ECA6
:103BF000F0E0808184608083808182608083808126
:103C000081608083E3ECF0E0808181608083E0EC80
:103C1000F0E0808182608083E2ECF0E0808181606E
:103C20008083EAE7F0E08081846080838081826025
:103C30008083808181608083808180688083089513
:103C400090E0FC013197EE30F10590F5E35AFF4F1B
:103C50000C94BB26809180008F7703C080918000F8
:103C60008F7D80938000089584B58F7702C084B5DE
:103C70008F7D84BD0895809190008F7707C08091DB
:103C800090008F7D03C080919000877F809390008B
:103C900008958091C0008F7703C08091C0008F7D10
:103CA0008093C00008958091C200877F8093C200F6
:103CB0000895CF93DF9390E0FC01E75EFE4F2491DF
:103CC000FC01E95CFE4F8491882349F190E0880F64
:103CD000991FFC01EF58FE4FA591B4918D599E4F4D
:103CE000FC01C591D4919FB7611108C0F8948C91E3
:103CF000209582238C93888182230AC0623051F4FC
:103D0000F8948C91322F309583238C938881822B69
:103D1000888304C0F8948C91822B8C939FBFDF9191
:103D2000CF910895A1E0B0E0E8E9FEE10C9492267D
:103D3000282F30E0F901E550FF4F8491F901E75E4B
:103D4000FE4F1491F901E95CFE4F04910023C9F084
:103D5000882321F069830E94201E6981E02FF0E012
:103D6000EE0FFF1FED59FE4FA591B4919FB7F89448
:103D70008C91611103C01095812301C0812B8C931C
:103D80009FBF2196E4E00C94AE26CF93DF93282FBB
:103D900030E0F901E550FF4F8491F901E75EFE4FF5
:103DA000D491F901E95CFE4FC491CC2391F08111CB
:103DB0000E94201EEC2FF0E0EE0FFF1FEB5AFE4F8B
:103DC000A591B4912C912D2381E090E021F480E025
:103DD00002C080E090E0DF91CF91089580916F055F
:103DE000909170052091710530917205821B930BA3
:103DF0008F739927089520916F05309170058091F8
:103E00007105909172052817390749F0E091710505
:103E1000F0917205E15DFA4F808190E008958FEF97
:103E20009FEF089520916F05309170058091710585
:103E30009091720528173907A9F0E0917105F0916A
:103E40007205E15DFA4F8081209171053091720514
:103E50002F5F3F4F2F7333273093720520937105E7
:103E600090E008958FEF9FEF0895CF93DF93C09177
:103E70006F05D09170052196CF73DD278091710574
:103E800090917205C817D90799F082E00E94E52148
:103E90008F3F2FEF920761F0E0916F05F091700571
:103EA000E15DFA4F8083D0937005C0936F05DFCF3B
:103EB000DF91CF91089583E00E9430240895A1E01E
:103EC000B0E0E5E6FFE10C9492268C0169838091D5
:103ED000A401882359F041E050E0BE016F5F7F4F9D
:103EE00083E00E941822181619063CF081E090E049
:103EF000F8019383828380E090E02196E4E00C94C3
:103F0000AE26FC0120812E5F208342E450E06FE763
:103F100071E080E80E9498220895FC0181819081DF
:103F2000913A59F4813209F04BC047E050E06DE915
:103F300071E080E00E94982245C0913209F040C0B3
:103F4000803239F467E070E08DE991E00E94DC2274
:103F500039C0823209F034C082818093A4018091FB
:103F60009D0190919E01A0919F01B091A001803B85
:103F70009440A105B10531F58091A40180FD12C0E6
:103F800087E797E790930108809300082BE088E18A
:103F900090E00FB6F894A895809360000FBE209330
:103FA000600010C088E10FB6F89480936000109212
:103FB00060000FBEA895109201081092000802C080
:103FC00080E0089581E008950895109224051092EC
:103FD000230588EE93E0A0E0B0E080932505909360
:103FE0002605A0932705B093280584E492E09093DA
:103FF0002205809321050895A0E0B0E0E2E0F0E220
:104000000C948E266C017A01EB01E60EF71E00E09F
:1040100010E0CE15DF0561F06991D601ED91FC91BC
:104020000190F081E02DC6010995080F191FF1CF0D
:10403000C801CDB7DEB7E8E00C94AA26611571057A
:1040400089F0DB010D900020E9F7AD0141505109E5
:10405000461B570BDC01ED91FC910280F381E02DB2
:104060000995089580E090E00895EF92FF920F93F4
:104070001F93CF93DF938C01FB01C0E0D0E06491EC
:104080007F018FEFE81AF80A662361F0D801ED91FD
:10409000FC910190F081E02DC8010995C80FD91F4E
:1040A000F701EDCFCE01CDB7DEB7E6E00C94AC263C
:1040B0000E941E200895DC01ED91FC910190F08199
:1040C000E02D099508950F931F93CF93DF93EC0193
:1040D0006DE00E945B208C016AE0CE010E945B20B3
:1040E000800F911FDF91CF911F910F9108950F9332
:1040F0001F93CF93DF93EC010E9435208C01CE01FA
:104100000E946320800F911FDF91CF911F910F912B
:1041100008950F931F93CF93DF93EC010E941E200D
:104120008C01CE010E946320800F911FDF91CF91FF
:104130001F910F9108950F931F93CF93DF93EC017D
:104140000E945B208C01CE010E946320800F911F92
:10415000DF91CF911F910F910895A1E2B0E0E3EBC1
:10416000F0E20C948A267C01C42EE52FCB01D22EDE
:1041700019A221E02D1510F02AE0D22E8E010F5D3C
:104180001F4F8D2C912CA12CB12C6C2D7E2FA501B5
:1041900094010E9443268C2DD29E80191124015037
:1041A00011098A3010F4805D01C0895CF8018083B8
:1041B000211531054105510521F0C22EE32FCA0119
:1041C000E4CFB801C7010E941E20A196ECE00C9438
:1041D000A626A0E0B0E0EFEEF0E20C948E26EC0113
:1041E0006A017B012115310541F4E881F9810190D3
:1041F000F081E02D642F09951DC02A303105A9F406
:1042000077FF12C06DE20E945B208C014427552786
:10421000BA014C195D096E097F092AE0CE010E949E
:10422000AD20800F911F06C02AE0B701A601CE0184
:104230000E94AD20CDB7DEB7E8E00C94AA260F931C
:104240001F93CF93DF93EC019A01AB01662757FDD3
:104250006095762F0E94E9208C01CE010E94632098
:10426000800F911FDF91CF911F910F91089521151C
:10427000310549F4DC01ED91FC910190F081E02DD4
:10428000642F099508950E94AD2008959A01462F44
:1042900050E060E070E00E94372108959A01AB0180
:1042A00060E070E00E94372108950F931F93CF9331
:1042B000DF93EC019A01462F50E060E070E00E942D
:1042C00037218C01CE010E946320800F911FDF9166
:1042D000CF911F910F9108950E94CA1D83E795E029
:1042E0000E943A240E94F91BC0E0D0E00E942A14E8
:1042F0002097E1F30E940000F9CF615030F0209147
:10430000F100FC0120830196F8CF289884E6809381
:104310007A0508952FB7FC012083F89467706093A5
:10432000E9000895A1E0B0E0E8E9F1E20C949426F8
:10433000682FCE0101960E948A218091F200998116
:104340009FBF2196E2E00C94B026A2E0B0E0EBEA39
:10435000F1E20C949126F62E8A0190917905992329
:1043600011F057FF03C08FEF9FEF2BC0682FCE01D6
:1043700001967A830E948A218091F20090E0A80140
:104380007A81801791070CF4AC01EF2DF72FF40E12
:1043900084E6FE1639F0289880937A059091F10012
:1043A0009193F7CF4115510521F08091F2008823B8
:1043B00021F089818FBFCA0104C08BE68093E80099
:1043C000F8CF2296E5E00C94AD26A1E0B0E0EBEE4C
:1043D000F1E20C94942641E050E0BE016F5F7F4F04
:1043E0000E94A521019719F4898190E002C08FEF06
:1043F0009FEF2196E2E00C94B026A1E0B0E0E3E06C
:10440000F2E20C949426682FCE0101960E948A2134
:104410009091E800892F807295FF04C09091F2007E
:1044200080E4891B99819FBF2196E2E00C94B0261D
:10443000A1E0B0E0EEE1F2E20C948626582E7B017A
:10444000A42E952E80917905882369F0042F152FCD
:104450008AEFB82E852D8072782E9AE3892E852DCD
:104460008074682E11C08FEF9FEF53C0852D0E947E
:10447000FD21482E81110CC0BA94A9F361E070E0CF
:1044800080E090E00E94A41D0115110579F737C066
:10449000282F30E0021713070CF4402EC42CD12C27
:1044A0000C191D09652DCE0101960E948A217720E5
:1044B00039F04A948FEF4816B1F01092F100F9CF1D
:1044C000F701842D57FE07C0815058F094919093C6
:1044D000F1003196F9CF815020F091919093F10045
:1044E000FACFEC0CFD1C8091E80085FF0FC0011590
:1044F000110511F461100AC089818FBFC5CF5D9885
:1045000084E680937B058A2D992D03C08092E80074
:10451000F3CF2196E0E10C94A2261092E9001092CC
:104520007805109277059093760580937505089528
:10453000CF93DF93FB0120E030E0DEEF2417350757
:10454000A1F187FF02C0C49101C0C081A09177058D
:10455000B09178056091750570917605A617B7073B
:10456000B4F49091E8009570E1F39091E80092FD29
:104570001EC0C093F10060917705709178056F5F60
:104580007F4F6F737727672B11F4D093E80060910A
:104590007705709178056F5F7F4F70937805609312
:1045A00077052F5F3F4F3196C9CFC90102C08FEF0A
:1045B0009FEFDF91CF910895A1E0B0E0E2EEF2E24B
:1045C0000C949326162F2091E80022FFFCCF612F38
:1045D00079830E947D218BEF8093E800812F798180
:1045E000972F2196E3E00C94AF26A1E0B0E0EBEF2B
:1045F000F2E20C9494261982CE0101960E94811F4A
:10460000CE0101960E94D424898190E02196E2E0B7
:104610000C94B0261F920F920FB60F921124EF92B6
:10462000FF920F931F932F933F934F935F936F933B
:104630007F938F939F93AF93BF93EF93FF93CF930A
:10464000DF93CDB7DEB76297DEBFCDBF1092E90032
:104650008091E80083FFE7C068E0CE010A960E94DF
:104660007D2182EF8093E8009A8597FF05C08091B5
:10467000E80080FFFCCF03C08EEF8093E800892F15
:10468000807609F0B5C08B85811105C01092F100CC
:104690001092F100C1C0282F2D7F213009F4BCC039
:1046A000853049F48091E80080FFFCCF8C858068DC
:1046B0008093E300B1C0863009F072C02D85E88890
:1046C000F988223071F580E090E02A8B0E948D22DB
:1046D0000E94F52299E08E010F5F1F4FF801392FDC
:1046E00011923A95E9F799832A892A8391E09E836A
:1046F00090E898879AEF998720917705309178050F
:10470000275F3F4F3C832B838D83C7010E948D22FF
:1047100049E050E0B80180E00E9498220E94F52212
:104720007BC0C7012A8B0E948D222A89223241F444
:1047300082E290E00E94E024892B09F06DC070C0F5
:10474000213069F488899989089711F420937405B8
:1047500080917405882389F066EC71E016C02330DF
:1047600009F05EC08C85882359F0823061F0813079
:1047700009F056C06AEE71E008C068ED71E005C04E
:1047800064E272E002C062E072E06115710509F452
:1047900047C0FB01449150E080E80E9498223CC051
:1047A000873009F43DC0883021F481E08093F10026
:1047B00033C0893089F5937099F5E2ECF1E081E03E
:1047C00021E096E38093E9002093EB00349130934D
:1047D000EC009093ED008F5F3196853099F78EE76E
:1047E0008093EA001092EA008C858093790514C0CA
:1047F000888999890E948D228E85811105C0CE01FC
:104800000A960E948D1F06C0823051F4CE010A968E
:104810000E940225882321F08EEF8093E80003C0D8
:1048200081E28093EB0062960FB6F894DEBF0FBE74
:10483000CDBFDF91CF91FF91EF91BF91AF919F914C
:104840008F917F916F915F914F913F912F911F9128
:104850000F91FF90EF900F900FBE0F901F90189543
:104860008093E9008091F200882319F08AE3809315
:10487000E80008951092790581E08093D70080EADE
:104880008093D80082E189BD09B400FEFDCF61E0CC
:1048900070E080E090E00E94A41D80E98093D80041
:1048A0008CE08093E2001092E000559A209A0895DF
:1048B0001F920F920FB60F9211242F933F934F9395
:1048C0005F936F937F938F939F93AF93BF93EF9378
:1048D000FF938091E1001092E10083FF0FC01092DE
:1048E000E90091E09093EB001092EC0092E390933A
:1048F000ED001092790598E09093F00082FF26C0B9
:1049000083E00E94302482E00E949221882321F0DB
:1049100081E295E00E94351F80917B05882339F064
:1049200080917B05815080937B05882369F080917D
:104930007A05882359F080917A05815080937A0511
:10494000811104C0289A02C05D9AF1CFFF91EF91C6
:10495000BF91AF919F918F917F916F915F914F9197
:104960003F912F910F900FBE0F901F901895FF92BF
:104970000F931F93CF93DF93EC01F62EE881F9811B
:104980000480F581E02D09958C01E881F98106808C
:10499000F781E02D6F2DCE010995C8019927CDB77C
:1049A000DEB7E5E00C94AD26FC0120812F5F20836B
:1049B00049E150E068EA72E080E80E949822089598
:1049C00045E650E061EC72E080E80E94982208958C
:1049D000A1E0B0E0EEEEF4E20C94902689838B0126
:1049E0007A0141E050E0BE016F5F7F4F84E00E949A
:1049F0001822A701B80184E40E9418222196E6E05B
:104A00000C94AC26FC0191818081813A31F481E0E3
:104A1000913091F0933089F411C0813271F49B3060
:104A200021F482818093A60105C09A3031F48281FD
:104A30008093A50181E00895089580E00895FC0128
:104A400010820895FC011382128226E532E0318340
:104A50002083089548E050E082E00E94E824089511
:104A6000CF93DF93DC01683818F0E8E7E60F25C044
:104A7000E62FF0E067FF11C0E058F10981E090E017
:104A800001C0880FEA95EAF714969C911497982B29
:104A900014969C931497E0E010C0E85DFD4FE491FC
:104AA000EE2309F440C0E7FF08C014968C911497D8
:104AB000826014968C931497EF7716968C911697C4
:104AC0008E1741F117968C9117978E1719F118963A
:104AD0008C9118978E17F1F019968C9119978E1763
:104AE000C9F01A968C911A978E17A1F01B968C918B
:104AF0001B978E1779F080E090E0ED01C80FD91F69
:104B00002E81211102C0EE8305C0019686309105E9
:104B1000A1F709C0BD016C5F7F4FCD010E942A251E
:104B200081E090E008C081E090E013969C938E9322
:104B3000129780E090E0DF91CF910895683818F0E7
:104B4000E8E7E60F25C0E62FF0E067FF12C0E05867
:104B5000F10921E030E001C0220FEA95EAF7209543
:104B6000DC0114963C911497322314963C93E0E0B8
:104B70000FC0E85DFD4FE491EE2329F1E7FF08C087
:104B8000DC0114962C9114972D7F14962C93EF77BB
:104B900020E030E0EE2351F0DC01A20FB31F1696A7
:104BA0004C9116974E1302C016961C922F5F3F4FE2
:104BB0002630310579F7BC016C5F7F4F0E942A25B2
:104BC00081E090E0089580E090E00895FC01168275
:104BD000178210861186128613861482BC016C5FC0
:104BE0007F4F0E942A25089588E895E00E941F259E
:104BF0008CE795E00E9422250895A29FB001B39F03
:104C0000C001A39F700D811D1124911DB29F700DD5
:104C1000811D1124911D08950E94FD25A59F900DD1
:104C2000B49F900DA49F800D911D11240895B7FF8E
:104C30000C940C260E940C26821B930B0895DB011A
:104C40008F939F930E940C26BF91AF91A29F800DDE
:104C5000911DA39F900DB29F900D1124089597FB75
:104C6000072E16F4009407D077FD09D00E94C126C4
:104C700007FC05D03EF4909581959F4F089570955F
:104C800061957F4F0895A1E21A2EAA1BBB1BFD015F
:104C90000DC0AA1FBB1FEE1FFF1FA217B307E4071B
:104CA000F50720F0A21BB30BE40BF50B661F771F73
:104CB000881F991F1A9469F7609570958095909553
:104CC0009B01AC01BD01CF010895052E97FB1EF499
:104CD00000940E947C2657FD07D00E94432607FCC3
:104CE00003D04EF40C947C26509540953095219538
:104CF0003F4F4F4F5F4F0895909580957095619508
:104D00007F4F8F4F9F4F08952F923F924F925F9208
:104D10006F927F928F929F92AF92BF92CF92DF92CB
:104D2000EF92FF920F931F93CF93DF93CDB7DEB730
:104D3000CA1BDB0B0FB6F894DEBF0FBECDBF0994C4
:104D40002A88398848885F846E847D848C849B841B
:104D5000AA84B984C884DF80EE80FD800C811B8129
:104D6000AA81B981CE0FD11D0FB6F894DEBF0FBE58
:104D7000CDBFED010895EE0FFF1F0590F491E02DDA
:104D80000994AA1BBB1B51E107C0AA1FBB1FA61792
:104D9000B70710F0A61BB70B881F991F5A95A9F7E4
:104DA00080959095BC01CD0108958F929F92AF920E
:104DB000BF92CF92DF92EF92FF92CF93DF93EC01FD
:104DC000688179818A819B816115710581059105D1
:104DD00021F464E279ED8BE597E02DE133EF41E0DA
:104DE00050E00E94652649015A019B01AC01A7EAE7
:104DF000B1E40E940C266B017C01ACEEB4EFA5017E
:104E000094010E941A26C60ED71EE81EF91EF7FE50
:104E100006C081E0C81AD108E10880E8F80AC88213
:104E2000D982EA82FB82C701B6019F77DF91CF91D9
:104E3000FF90EF90DF90CF90BF90AF909F908F90BA
:104E400008950E94D526089586E091E00E94D52617
:104E50000895609306017093070180930801909371
:104E600009010895F999FECF92BD81BDF89A99275D
:104E700080B50895262FF999FECF1FBA92BD81BD46
:104E800020BD0FB6F894FA9AF99A0FBE01960895CC
:044E9000F894FFCFC4
:104E940000008905200001000000FF00020002005C
:104EA40002000200020002000200020002000200EE
:104EB4000200020002000200020002802500000538
:104EC400400AA1204EA50020244EA52C2330C01258
:104ED40000001A400AA1204EA5001B1E27522C23B5
:104EE400308025000005400AA1204EA50020244E54
:104EF400A52C2330004B000006400AD0009D490039
:104F04007B289D492C233000E1000005400A45011F
:104F1400D7DC03B81E0EBF00232E48E801008A40E8
:104F24000A6001555502AD1E20000023C800E100AF
:104F34000000000000010154582074696D656F750C
:104F4400742100456E746572696E672061646170D6
:104F540074697665206368616E6E656C2073656C38
:104F6400656374696F6E2C207069636B696E673A50
:104F7400007363616E6E6572206D6F6465006D6FA2
:104F840064756C65206C6F636B65643F004F70657E
:104F94006E4C52536E672054582028676974736CA2
:104FA40079292000206F6E204857200000070B0C41
:104FB40010111500000000005602FC1FCC01FF0177
:104FC40026024402C001E4019502160A1322312983
:104FD400000000005F1FFC1FEE1E121FFB1E5B1F64
:104FE400351F00000000B724FC1F30259E25E62550
:00000001FF
